{
  "contractName": "feedback",
  "abi": [
    {
      "inputs": [],
      "stateMutability": "nonpayable",
      "type": "constructor"
    },
    {
      "inputs": [
        {
          "internalType": "uint256",
          "name": "",
          "type": "uint256"
        }
      ],
      "name": "AnswersMap",
      "outputs": [
        {
          "internalType": "uint256",
          "name": "question_no",
          "type": "uint256"
        },
        {
          "internalType": "string",
          "name": "type_of_answer",
          "type": "string"
        }
      ],
      "stateMutability": "view",
      "type": "function",
      "constant": true
    },
    {
      "inputs": [
        {
          "internalType": "uint256",
          "name": "",
          "type": "uint256"
        }
      ],
      "name": "Answers_with_Question",
      "outputs": [
        {
          "internalType": "uint256",
          "name": "question_no",
          "type": "uint256"
        },
        {
          "internalType": "string",
          "name": "type_of_answer",
          "type": "string"
        }
      ],
      "stateMutability": "view",
      "type": "function",
      "constant": true
    },
    {
      "inputs": [
        {
          "internalType": "uint256",
          "name": "",
          "type": "uint256"
        }
      ],
      "name": "Questions",
      "outputs": [
        {
          "internalType": "string",
          "name": "",
          "type": "string"
        }
      ],
      "stateMutability": "view",
      "type": "function",
      "constant": true
    },
    {
      "inputs": [
        {
          "internalType": "uint256",
          "name": "",
          "type": "uint256"
        }
      ],
      "name": "Questions_And_Answers",
      "outputs": [
        {
          "internalType": "uint256",
          "name": "question",
          "type": "uint256"
        },
        {
          "internalType": "string",
          "name": "answer",
          "type": "string"
        }
      ],
      "stateMutability": "view",
      "type": "function",
      "constant": true
    },
    {
      "inputs": [],
      "name": "chairperson",
      "outputs": [
        {
          "internalType": "address",
          "name": "",
          "type": "address"
        }
      ],
      "stateMutability": "view",
      "type": "function",
      "constant": true
    },
    {
      "inputs": [
        {
          "internalType": "uint256",
          "name": "",
          "type": "uint256"
        }
      ],
      "name": "keys",
      "outputs": [
        {
          "internalType": "uint256",
          "name": "",
          "type": "uint256"
        }
      ],
      "stateMutability": "view",
      "type": "function",
      "constant": true
    },
    {
      "inputs": [],
      "name": "start",
      "outputs": [
        {
          "internalType": "bool",
          "name": "",
          "type": "bool"
        }
      ],
      "stateMutability": "view",
      "type": "function",
      "constant": true
    },
    {
      "inputs": [
        {
          "internalType": "address",
          "name": "",
          "type": "address"
        }
      ],
      "name": "users",
      "outputs": [
        {
          "internalType": "address",
          "name": "user_address",
          "type": "address"
        },
        {
          "internalType": "bool",
          "name": "registered",
          "type": "bool"
        }
      ],
      "stateMutability": "view",
      "type": "function",
      "constant": true
    },
    {
      "inputs": [],
      "name": "Start",
      "outputs": [],
      "stateMutability": "nonpayable",
      "type": "function"
    },
    {
      "inputs": [
        {
          "internalType": "bool",
          "name": "a",
          "type": "bool"
        }
      ],
      "name": "set_isReset",
      "outputs": [],
      "stateMutability": "nonpayable",
      "type": "function"
    },
    {
      "inputs": [],
      "name": "get_isReset",
      "outputs": [
        {
          "internalType": "bool",
          "name": "",
          "type": "bool"
        }
      ],
      "stateMutability": "view",
      "type": "function",
      "constant": true
    },
    {
      "inputs": [],
      "name": "no_of_q",
      "outputs": [
        {
          "internalType": "uint256",
          "name": "",
          "type": "uint256"
        }
      ],
      "stateMutability": "view",
      "type": "function",
      "constant": true
    },
    {
      "inputs": [
        {
          "internalType": "string",
          "name": "question",
          "type": "string"
        }
      ],
      "name": "questions_input",
      "outputs": [],
      "stateMutability": "nonpayable",
      "type": "function"
    },
    {
      "inputs": [
        {
          "internalType": "uint256",
          "name": "q_no",
          "type": "uint256"
        },
        {
          "internalType": "string[4]",
          "name": "answer",
          "type": "string[4]"
        },
        {
          "internalType": "string",
          "name": "t",
          "type": "string"
        }
      ],
      "name": "answers_input",
      "outputs": [],
      "stateMutability": "nonpayable",
      "type": "function"
    },
    {
      "inputs": [],
      "name": "register",
      "outputs": [],
      "stateMutability": "nonpayable",
      "type": "function"
    },
    {
      "inputs": [
        {
          "internalType": "uint256",
          "name": "question_no",
          "type": "uint256"
        },
        {
          "internalType": "string",
          "name": "answer1",
          "type": "string"
        }
      ],
      "name": "answers",
      "outputs": [],
      "stateMutability": "nonpayable",
      "type": "function"
    },
    {
      "inputs": [
        {
          "internalType": "uint256",
          "name": "question_no",
          "type": "uint256"
        }
      ],
      "name": "getAnswersForQuestion",
      "outputs": [
        {
          "internalType": "string[]",
          "name": "",
          "type": "string[]"
        }
      ],
      "stateMutability": "view",
      "type": "function",
      "constant": true
    },
    {
      "inputs": [
        {
          "internalType": "uint256",
          "name": "q_no",
          "type": "uint256"
        }
      ],
      "name": "get_Questions",
      "outputs": [
        {
          "internalType": "string",
          "name": "",
          "type": "string"
        }
      ],
      "stateMutability": "view",
      "type": "function",
      "constant": true
    },
    {
      "inputs": [
        {
          "internalType": "uint256",
          "name": "q_no",
          "type": "uint256"
        }
      ],
      "name": "get_options",
      "outputs": [
        {
          "internalType": "string[4]",
          "name": "",
          "type": "string[4]"
        }
      ],
      "stateMutability": "view",
      "type": "function",
      "constant": true
    },
    {
      "inputs": [
        {
          "internalType": "uint256",
          "name": "q_no",
          "type": "uint256"
        }
      ],
      "name": "get_type",
      "outputs": [
        {
          "internalType": "string",
          "name": "",
          "type": "string"
        }
      ],
      "stateMutability": "view",
      "type": "function",
      "constant": true
    },
    {
      "inputs": [],
      "name": "reset",
      "outputs": [],
      "stateMutability": "nonpayable",
      "type": "function"
    }
  ],
  "bytecode": "0x60806040526000600460006101000a81548160ff0219169083151502179055506000600760006101000a81548160ff02191690831515021790555034801561004657600080fd5b50336000806101000a81548173ffffffffffffffffffffffffffffffffffffffff021916908373ffffffffffffffffffffffffffffffffffffffff160217905550612c9c806100966000396000f3fe608060405234801561001057600080fd5b50600436106101375760003560e01c80639e9bbdcb116100b8578063b666c26b1161007c578063b666c26b14610364578063bc27032d14610380578063be9a6555146103b0578063c0dde3aa146103ce578063d826f88f146103fe578063ebd82cbc1461040857610137565b80639e9bbdcb146102ae5780639f496ce2146102df578063a87430ba146102fb578063aa2881dd1461032c578063b080f6d61461034857610137565b80631b55ba3a116100ff5780631b55ba3a146101f65780632e4176cf1461020057806335dcf0b01461021e57806374b0b6cf1461024e5780639dafd8591461027e57610137565b806303703a4d1461013c5780630cb6aaf11461016d5780630da2c72c1461019d5780631aa3a008146101bb5780631acb563b146101c5575b600080fd5b610156600480360381019061015191906119fc565b610426565b604051610164929190611ac8565b60405180910390f35b610187600480360381019061018291906119fc565b6104d2565b6040516101949190611af8565b60405180910390f35b6101a56104f6565b6040516101b29190611af8565b60405180910390f35b6101c3610503565b005b6101df60048036038101906101da91906119fc565b6107bd565b6040516101ed929190611ac8565b60405180910390f35b6101fe610879565b005b610208610896565b6040516102159190611b54565b60405180910390f35b610238600480360381019061023391906119fc565b6108ba565b6040516102459190611c7b565b60405180910390f35b610268600480360381019061026391906119fc565b610b7d565b6040516102759190611c9d565b60405180910390f35b610298600480360381019061029391906119fc565b610c25565b6040516102a59190611c9d565b60405180910390f35b6102c860048036038101906102c391906119fc565b610cd1565b6040516102d6929190611ac8565b60405180910390f35b6102f960048036038101906102f49190611ec8565b610d8d565b005b61031560048036038101906103109190611f7f565b610f55565b604051610323929190611fc7565b60405180910390f35b6103466004803603810190610341919061204b565b610fa6565b005b610362600480360381019061035d9190612098565b6110c5565b005b61037e60048036038101906103799190612124565b6112af565b005b61039a600480360381019061039591906119fc565b6112cc565b6040516103a791906121f3565b60405180910390f35b6103b8611403565b6040516103c59190612215565b60405180910390f35b6103e860048036038101906103e391906119fc565b611416565b6040516103f59190611c9d565b60405180910390f35b61040661151a565b005b610410611862565b60405161041d9190612215565b60405180910390f35b600860205280600052604060002060009150905080600001549080600501805461044f9061225f565b80601f016020809104026020016040519081016040528092919081815260200182805461047b9061225f565b80156104c85780601f1061049d576101008083540402835291602001916104c8565b820191906000526020600020905b8154815290600101906020018083116104ab57829003601f168201915b5050505050905082565b600981815481106104e257600080fd5b906000526020600020016000915090505481565b6000600180549050905090565b6000339050600460009054906101000a900460ff16610557576040517f08c379a000000000000000000000000000000000000000000000000000000000815260040161054e906122dc565b60405180910390fd5b60008054906101000a900473ffffffffffffffffffffffffffffffffffffffff1673ffffffffffffffffffffffffffffffffffffffff163373ffffffffffffffffffffffffffffffffffffffff16036105e5576040517f08c379a00000000000000000000000000000000000000000000000000000000081526004016105dc90612348565b60405180910390fd5b60001515600660008373ffffffffffffffffffffffffffffffffffffffff1673ffffffffffffffffffffffffffffffffffffffff16815260200190815260200160002060000160149054906101000a900460ff1615151461067b576040517f08c379a0000000000000000000000000000000000000000000000000000000008152600401610672906123b4565b60405180910390fd5b80600660008373ffffffffffffffffffffffffffffffffffffffff1673ffffffffffffffffffffffffffffffffffffffff16815260200190815260200160002060000160006101000a81548173ffffffffffffffffffffffffffffffffffffffff021916908373ffffffffffffffffffffffffffffffffffffffff1602179055506001600660008373ffffffffffffffffffffffffffffffffffffffff1673ffffffffffffffffffffffffffffffffffffffff16815260200190815260200160002060000160146101000a81548160ff0219169083151502179055506005819080600181540180825580915050600190039060005260206000200160009091909190916101000a81548173ffffffffffffffffffffffffffffffffffffffff021916908373ffffffffffffffffffffffffffffffffffffffff16021790555050565b600281815481106107cd57600080fd5b90600052602060002090600202016000915090508060000154908060010180546107f69061225f565b80601f01602080910402602001604051908101604052809291908181526020018280546108229061225f565b801561086f5780601f106108445761010080835404028352916020019161086f565b820191906000526020600020905b81548152906001019060200180831161085257829003601f168201915b5050505050905082565b6001600460006101000a81548160ff021916908315150217905550565b60008054906101000a900473ffffffffffffffffffffffffffffffffffffffff1681565b6060600082101580156108d1575060018054905082105b610910576040517f08c379a000000000000000000000000000000000000000000000000000000000815260040161090790612420565b60405180910390fd5b60008054906101000a900473ffffffffffffffffffffffffffffffffffffffff1673ffffffffffffffffffffffffffffffffffffffff163373ffffffffffffffffffffffffffffffffffffffff161461099e576040517f08c379a00000000000000000000000000000000000000000000000000000000081526004016109959061248c565b60405180910390fd5b600460009054906101000a900460ff166109ed576040517f08c379a00000000000000000000000000000000000000000000000000000000081526004016109e49061251e565b60405180910390fd5b600060028054905067ffffffffffffffff811115610a0e57610a0d611cc4565b5b604051908082528060200260200182016040528015610a4157816020015b6060815260200190600190039081610a2c5790505b5090506000805b600280549050811015610b6f578460028281548110610a6a57610a6961253e565b5b90600052602060002090600202016000015403610b5c5760028181548110610a9557610a9461253e565b5b90600052602060002090600202016001018054610ab19061225f565b80601f0160208091040260200160405190810160405280929190818152602001828054610add9061225f565b8015610b2a5780601f10610aff57610100808354040283529160200191610b2a565b820191906000526020600020905b815481529060010190602001808311610b0d57829003601f168201915b5050505050838381518110610b4257610b4161253e565b5b60200260200101819052508180610b589061259c565b9250505b8080610b679061259c565b915050610a48565b508082528192505050919050565b6060600860008381526020019081526020016000206005018054610ba09061225f565b80601f0160208091040260200160405190810160405280929190818152602001828054610bcc9061225f565b8015610c195780601f10610bee57610100808354040283529160200191610c19565b820191906000526020600020905b815481529060010190602001808311610bfc57829003601f168201915b50505050509050919050565b60018181548110610c3557600080fd5b906000526020600020016000915090508054610c509061225f565b80601f0160208091040260200160405190810160405280929190818152602001828054610c7c9061225f565b8015610cc95780601f10610c9e57610100808354040283529160200191610cc9565b820191906000526020600020905b815481529060010190602001808311610cac57829003601f168201915b505050505081565b60038181548110610ce157600080fd5b9060005260206000209060060201600091509050806000015490806005018054610d0a9061225f565b80601f0160208091040260200160405190810160405280929190818152602001828054610d369061225f565b8015610d835780601f10610d5857610100808354040283529160200191610d83565b820191906000526020600020905b815481529060010190602001808311610d6657829003601f168201915b5050505050905082565b600460009054906101000a900460ff16610ddc576040517f08c379a0000000000000000000000000000000000000000000000000000000008152600401610dd390612656565b60405180910390fd5b60008054906101000a900473ffffffffffffffffffffffffffffffffffffffff1673ffffffffffffffffffffffffffffffffffffffff163373ffffffffffffffffffffffffffffffffffffffff1614610e6a576040517f08c379a0000000000000000000000000000000000000000000000000000000008152600401610e61906126e8565b60405180910390fd5b60008310158015610e7f575060018054905083105b610ebe576040517f08c379a0000000000000000000000000000000000000000000000000000000008152600401610eb590612420565b60405180910390fd5b6040518060600160405280848152602001838152602001828152506008600085815260200190815260200160002060008201518160000155602082015181600101906004610f0d929190611879565b506040820151816005019081610f2391906128b4565b509050506009839080600181540180825580915050600190039060005260206000200160009091909190915055505050565b60066020528060005260406000206000915090508060000160009054906101000a900473ffffffffffffffffffffffffffffffffffffffff16908060000160149054906101000a900460ff16905082565b600460009054906101000a900460ff16610ff5576040517f08c379a0000000000000000000000000000000000000000000000000000000008152600401610fec90612656565b60405180910390fd5b60008054906101000a900473ffffffffffffffffffffffffffffffffffffffff1673ffffffffffffffffffffffffffffffffffffffff163373ffffffffffffffffffffffffffffffffffffffff1614611083576040517f08c379a000000000000000000000000000000000000000000000000000000000815260040161107a906129f8565b60405180910390fd5b60018282909180600181540180825580915050600190039060005260206000200160009091929091929091929091925091826110c0929190612a23565b505050565b600083101580156110da575060018054905083105b611119576040517f08c379a000000000000000000000000000000000000000000000000000000000815260040161111090612420565b60405180910390fd5b600033905060011515600660008373ffffffffffffffffffffffffffffffffffffffff1673ffffffffffffffffffffffffffffffffffffffff16815260200190815260200160002060000160149054906101000a900460ff161515146111b4576040517f08c379a00000000000000000000000000000000000000000000000000000000081526004016111ab90612b3f565b60405180910390fd5b600460009054906101000a900460ff16611203576040517f08c379a00000000000000000000000000000000000000000000000000000000081526004016111fa90612bab565b60405180910390fd5b6002604051806040016040528086815260200185858080601f016020809104026020016040519081016040528093929190818152602001838380828437600081840152601f19601f8201169050808301925050505050505081525090806001815401808255809150506001900390600052602060002090600202016000909190919091506000820151816000015560208201518160010190816112a691906128b4565b50505050505050565b80600760006101000a81548160ff02191690831515021790555050565b6112d46118c5565b600082101580156112e9575060018054905082105b611328576040517f08c379a000000000000000000000000000000000000000000000000000000000815260040161131f90612420565b60405180910390fd5b60086000838152602001908152602001600020600101600480602002604051908101604052809291906000905b828210156113f857838201805461136b9061225f565b80601f01602080910402602001604051908101604052809291908181526020018280546113979061225f565b80156113e45780601f106113b9576101008083540402835291602001916113e4565b820191906000526020600020905b8154815290600101906020018083116113c757829003601f168201915b505050505081526020019060010190611355565b505050509050919050565b600460009054906101000a900460ff1681565b60606000821015801561142d575060018054905082105b61146c576040517f08c379a000000000000000000000000000000000000000000000000000000000815260040161146390612420565b60405180910390fd5b600182815481106114805761147f61253e565b5b9060005260206000200180546114959061225f565b80601f01602080910402602001604051908101604052809291908181526020018280546114c19061225f565b801561150e5780601f106114e35761010080835404028352916020019161150e565b820191906000526020600020905b8154815290600101906020018083116114f157829003601f168201915b50505050509050919050565b60008054906101000a900473ffffffffffffffffffffffffffffffffffffffff1673ffffffffffffffffffffffffffffffffffffffff163373ffffffffffffffffffffffffffffffffffffffff16146115a8576040517f08c379a000000000000000000000000000000000000000000000000000000000815260040161159f90612c17565b60405180910390fd5b6000600460006101000a81548160ff0219169083151502179055505b6000600280549050111561161a5760028054806115e4576115e3612c37565b5b600190038181906000526020600020906002020160008082016000905560018201600061161191906118ec565b505090556115c4565b60005b6005805490508110156116f85760066000600583815481106116425761164161253e565b5b9060005260206000200160009054906101000a900473ffffffffffffffffffffffffffffffffffffffff1673ffffffffffffffffffffffffffffffffffffffff1673ffffffffffffffffffffffffffffffffffffffff168152602001908152602001600020600080820160006101000a81549073ffffffffffffffffffffffffffffffffffffffff02191690556000820160146101000a81549060ff0219169055505080806116f09061259c565b91505061161d565b505b6000600180549050111561173d57600180548061171a57611719612c37565b5b60019003818190600052602060002001600061173691906118ec565b90556116fa565b5b600060038054905011156117a457600380548061175e5761175d612c37565b5b600190038181906000526020600020906006020160008082016000905560018201600061178b919061192c565b60058201600061179b91906118ec565b5050905561173e565b60005b6009805490508110156118235760086000600983815481106117cc576117cb61253e565b5b906000526020600020015481526020019081526020016000206000808201600090556001820160006117fe919061192c565b60058201600061180e91906118ec565b5050808061181b9061259c565b9150506117a7565b505b6000600980549050111561186057600980548061184557611844612c37565b5b60019003818190600052602060002001600090559055611825565b565b6000600760009054906101000a900460ff16905090565b82600481019282156118b4579160200282015b828111156118b35782518290816118a391906128b4565b509160200191906001019061188c565b5b5090506118c19190611971565b5090565b60405180608001604052806004905b60608152602001906001900390816118d45790505090565b5080546118f89061225f565b6000825580601f1061190a5750611929565b601f0160209004906000526020600020908101906119289190611995565b5b50565b506000818161193b91906118ec565b506001016000818161194d91906118ec565b506001016000818161195f91906118ec565b50600101600061196f91906118ec565b565b5b80821115611991576000818161198891906118ec565b50600101611972565b5090565b5b808211156119ae576000816000905550600101611996565b5090565b6000604051905090565b600080fd5b600080fd5b6000819050919050565b6119d9816119c6565b81146119e457600080fd5b50565b6000813590506119f6816119d0565b92915050565b600060208284031215611a1257611a116119bc565b5b6000611a20848285016119e7565b91505092915050565b611a32816119c6565b82525050565b600081519050919050565b600082825260208201905092915050565b60005b83811015611a72578082015181840152602081019050611a57565b60008484015250505050565b6000601f19601f8301169050919050565b6000611a9a82611a38565b611aa48185611a43565b9350611ab4818560208601611a54565b611abd81611a7e565b840191505092915050565b6000604082019050611add6000830185611a29565b8181036020830152611aef8184611a8f565b90509392505050565b6000602082019050611b0d6000830184611a29565b92915050565b600073ffffffffffffffffffffffffffffffffffffffff82169050919050565b6000611b3e82611b13565b9050919050565b611b4e81611b33565b82525050565b6000602082019050611b696000830184611b45565b92915050565b600081519050919050565b600082825260208201905092915050565b6000819050602082019050919050565b600082825260208201905092915050565b6000611bb782611a38565b611bc18185611b9b565b9350611bd1818560208601611a54565b611bda81611a7e565b840191505092915050565b6000611bf18383611bac565b905092915050565b6000602082019050919050565b6000611c1182611b6f565b611c1b8185611b7a565b935083602082028501611c2d85611b8b565b8060005b85811015611c695784840389528151611c4a8582611be5565b9450611c5583611bf9565b925060208a01995050600181019050611c31565b50829750879550505050505092915050565b60006020820190508181036000830152611c958184611c06565b905092915050565b60006020820190508181036000830152611cb78184611a8f565b905092915050565b600080fd5b7f4e487b7100000000000000000000000000000000000000000000000000000000600052604160045260246000fd5b611cfc82611a7e565b810181811067ffffffffffffffff82111715611d1b57611d1a611cc4565b5b80604052505050565b6000611d2e6119b2565b9050611d3a8282611cf3565b919050565b600067ffffffffffffffff821115611d5a57611d59611cc4565b5b602082029050919050565b600080fd5b600080fd5b600067ffffffffffffffff821115611d8a57611d89611cc4565b5b611d9382611a7e565b9050602081019050919050565b82818337600083830152505050565b6000611dc2611dbd84611d6f565b611d24565b905082815260208101848484011115611dde57611ddd611d6a565b5b611de9848285611da0565b509392505050565b600082601f830112611e0657611e05611cbf565b5b8135611e16848260208601611daf565b91505092915050565b6000611e32611e2d84611d3f565b611d24565b90508060208402830185811115611e4c57611e4b611d65565b5b835b81811015611e9357803567ffffffffffffffff811115611e7157611e70611cbf565b5b808601611e7e8982611df1565b85526020850194505050602081019050611e4e565b5050509392505050565b600082601f830112611eb257611eb1611cbf565b5b6004611ebf848285611e1f565b91505092915050565b600080600060608486031215611ee157611ee06119bc565b5b6000611eef868287016119e7565b935050602084013567ffffffffffffffff811115611f1057611f0f6119c1565b5b611f1c86828701611e9d565b925050604084013567ffffffffffffffff811115611f3d57611f3c6119c1565b5b611f4986828701611df1565b9150509250925092565b611f5c81611b33565b8114611f6757600080fd5b50565b600081359050611f7981611f53565b92915050565b600060208284031215611f9557611f946119bc565b5b6000611fa384828501611f6a565b91505092915050565b60008115159050919050565b611fc181611fac565b82525050565b6000604082019050611fdc6000830185611b45565b611fe96020830184611fb8565b9392505050565b600080fd5b60008083601f84011261200b5761200a611cbf565b5b8235905067ffffffffffffffff81111561202857612027611ff0565b5b60208301915083600182028301111561204457612043611d65565b5b9250929050565b60008060208385031215612062576120616119bc565b5b600083013567ffffffffffffffff8111156120805761207f6119c1565b5b61208c85828601611ff5565b92509250509250929050565b6000806000604084860312156120b1576120b06119bc565b5b60006120bf868287016119e7565b935050602084013567ffffffffffffffff8111156120e0576120df6119c1565b5b6120ec86828701611ff5565b92509250509250925092565b61210181611fac565b811461210c57600080fd5b50565b60008135905061211e816120f8565b92915050565b60006020828403121561213a576121396119bc565b5b60006121488482850161210f565b91505092915050565b600060049050919050565b600081905092915050565b6000819050919050565b6000602082019050919050565b600061218982612151565b612193818561215c565b9350836020820285016121a585612167565b8060005b858110156121e157848403895281516121c28582611be5565b94506121cd83612171565b925060208a019950506001810190506121a9565b50829750879550505050505092915050565b6000602082019050818103600083015261220d818461217e565b905092915050565b600060208201905061222a6000830184611fb8565b92915050565b7f4e487b7100000000000000000000000000000000000000000000000000000000600052602260045260246000fd5b6000600282049050600182168061227757607f821691505b60208210810361228a57612289612230565b5b50919050565b7f63616e6e6f74207265676973746572206265666f7265207374617274696e6700600082015250565b60006122c6601f83611a43565b91506122d182612290565b602082019050919050565b600060208201905081810360008301526122f5816122b9565b9050919050565b7f6368616972706572736f6e2063616e6e6f742072656769737465720000000000600082015250565b6000612332601b83611a43565b915061233d826122fc565b602082019050919050565b6000602082019050818103600083015261236181612325565b9050919050565b7f7573657220697320616c72656164792072656769737465726564000000000000600082015250565b600061239e601a83611a43565b91506123a982612368565b602082019050919050565b600060208201905081810360008301526123cd81612391565b9050919050565b7f496e76616c6964207175657374696f6e206e756d626572000000000000000000600082015250565b600061240a601783611a43565b9150612415826123d4565b602082019050919050565b60006020820190508181036000830152612439816123fd565b9050919050565b7f5468652075736572206973206e6f742061206368616972706572736f6e000000600082015250565b6000612476601d83611a43565b915061248182612440565b602082019050919050565b600060208201905081810360008301526124a581612469565b9050919050565b7f43616e6e6f742067657420616e7377657273206265666f72652073746172746960008201527f6e67000000000000000000000000000000000000000000000000000000000000602082015250565b6000612508602283611a43565b9150612513826124ac565b604082019050919050565b60006020820190508181036000830152612537816124fb565b9050919050565b7f4e487b7100000000000000000000000000000000000000000000000000000000600052603260045260246000fd5b7f4e487b7100000000000000000000000000000000000000000000000000000000600052601160045260246000fd5b60006125a7826119c6565b91507fffffffffffffffffffffffffffffffffffffffffffffffffffffffffffffffff82036125d9576125d861256d565b5b600182019050919050565b7f5175657374696f6e20696e707574206973206e6f7420616c6c6f77656420626560008201527f666f7265207374617274696e672e000000000000000000000000000000000000602082015250565b6000612640602e83611a43565b915061264b826125e4565b604082019050919050565b6000602082019050818103600083015261266f81612633565b9050919050565b7f6f6e6c79206368616972706572736f6e20697320616c6c6f77656420746f206960008201527f6e707574206f7074696f6e730000000000000000000000000000000000000000602082015250565b60006126d2602c83611a43565b91506126dd82612676565b604082019050919050565b60006020820190508181036000830152612701816126c5565b9050919050565b60008190508160005260206000209050919050565b60006020601f8301049050919050565b600082821b905092915050565b60006008830261276a7fffffffffffffffffffffffffffffffffffffffffffffffffffffffffffffffff8261272d565b612774868361272d565b95508019841693508086168417925050509392505050565b6000819050919050565b60006127b16127ac6127a7846119c6565b61278c565b6119c6565b9050919050565b6000819050919050565b6127cb83612796565b6127df6127d7826127b8565b84845461273a565b825550505050565b600090565b6127f46127e7565b6127ff8184846127c2565b505050565b5b81811015612823576128186000826127ec565b600181019050612805565b5050565b601f8211156128685761283981612708565b6128428461271d565b81016020851015612851578190505b61286561285d8561271d565b830182612804565b50505b505050565b600082821c905092915050565b600061288b6000198460080261286d565b1980831691505092915050565b60006128a4838361287a565b9150826002028217905092915050565b6128bd82611a38565b67ffffffffffffffff8111156128d6576128d5611cc4565b5b6128e0825461225f565b6128eb828285612827565b600060209050601f83116001811461291e576000841561290c578287015190505b6129168582612898565b86555061297e565b601f19841661292c86612708565b60005b828110156129545784890151825560018201915060208501945060208101905061292f565b86831015612971578489015161296d601f89168261287a565b8355505b6001600288020188555050505b505050505050565b7f6f6e6c79206368616972706572736f6e20697320616c6c6f77656420746f206960008201527f6e707574207175657374696f6e00000000000000000000000000000000000000602082015250565b60006129e2602d83611a43565b91506129ed82612986565b604082019050919050565b60006020820190508181036000830152612a11816129d5565b9050919050565b600082905092915050565b612a2d8383612a18565b67ffffffffffffffff811115612a4657612a45611cc4565b5b612a50825461225f565b612a5b828285612827565b6000601f831160018114612a8a5760008415612a78578287013590505b612a828582612898565b865550612aea565b601f198416612a9886612708565b60005b82811015612ac057848901358255600182019150602085019450602081019050612a9b565b86831015612add5784890135612ad9601f89168261287a565b8355505b6001600288020188555050505b50505050505050565b7f75736572206973206e6f74207265676973746572656400000000000000000000600082015250565b6000612b29601683611a43565b9150612b3482612af3565b602082019050919050565b60006020820190508181036000830152612b5881612b1c565b9050919050565b7f63616e6e6f7420616e73776572206265666f7265207374617274696e67000000600082015250565b6000612b95601d83611a43565b9150612ba082612b5f565b602082019050919050565b60006020820190508181036000830152612bc481612b88565b9050919050565b7f7468652075736572206973206e6f74206368616972706572736f6e0000000000600082015250565b6000612c01601b83611a43565b9150612c0c82612bcb565b602082019050919050565b60006020820190508181036000830152612c3081612bf4565b9050919050565b7f4e487b7100000000000000000000000000000000000000000000000000000000600052603160045260246000fdfea2646970667358221220116fe49c3a6ebadc7c4abd338e5b4247655f877ecfd5579634c09efc3c2ba30a64736f6c63430008110033",
  "immutableReferences": {},
  "source": "pragma solidity ^0.8.17;\r\n// SPDX-License-Identifier: GPL-3.0\r\ncontract feedback {\r\n    address public chairperson;\r\n   \r\n    string[] public Questions;\r\n    struct questions_and_answers\r\n    {\r\n        uint question;\r\n        string answer;\r\n    }\r\n    questions_and_answers[] public Questions_And_Answers;\r\n    struct User\r\n    {\r\n        address user_address;\r\n        \r\n        bool registered;\r\n    }\r\n    struct answers_with_question\r\n    {\r\n        uint  question_no;\r\n        string[4] answers;\r\n        string type_of_answer;\r\n    }\r\n    answers_with_question[] public Answers_with_Question;\r\n    bool public start = false;\r\n    address[] registered_users;\r\n    mapping(address=>User) public users;\r\n    bool isReset = false;\r\n    constructor() {\r\n        chairperson = msg.sender;\r\n    }\r\n\r\n    function Start() public {\r\n        //require(!start, \"already started\");\r\n        start = true;\r\n    }\r\n    function set_isReset(bool a) public {\r\n        isReset = a;\r\n    }\r\n    function get_isReset() public view returns (bool) {\r\n        return isReset;\r\n    }\r\n    function no_of_q() public view returns (uint){\r\n        return Questions.length;\r\n    }\r\n    function questions_input(string calldata question) public {\r\n        require(start, \"Question input is not allowed before starting.\");\r\n        require(msg.sender==chairperson,\"only chairperson is allowed to input question\");\r\n        Questions.push(question);\r\n    }\r\n   // Define a mapping to store answers for each question\r\nmapping(uint => answers_with_question) public AnswersMap;\r\n uint[] public keys; // This array will store the keys\r\nfunction answers_input(uint q_no, string[4] memory answer, string memory t) public {\r\n    require(start, \"Question input is not allowed before starting.\");\r\n    require(msg.sender == chairperson, \"only chairperson is allowed to input options\");\r\n    require(q_no >= 0 && q_no < Questions.length, \"Invalid question number\");\r\n\r\n    // Store answers using the mapping\r\n    AnswersMap[q_no] = answers_with_question({\r\n        question_no: q_no,\r\n        answers: answer,\r\n        type_of_answer: t\r\n    });\r\n     keys.push(q_no); // Add the key to the keys array\r\n}\r\n    function register() public \r\n    {     \r\n          address person = msg.sender;\r\n          require(start, \"cannot register before starting\");\r\n        require(msg.sender!=chairperson,\"chairperson cannot register\");\r\n        require(users[person].registered==false,\"user is already registered\");\r\n      \r\n        users[person].user_address = person;\r\n        users[person].registered = true;\r\n        registered_users.push(person);\r\n\r\n    }\r\n    function answers(uint question_no,string calldata answer1) public {\r\n        require(question_no >= 0 && question_no < Questions.length, \"Invalid question number\");\r\n         address person = msg.sender;\r\n         require(users[person].registered==true,\"user is not registered\");\r\n         require(start, \"cannot answer before starting\");\r\n         Questions_And_Answers.push(questions_and_answers({\r\n             question:question_no,\r\n             answer:answer1\r\n         }));\r\n    }\r\n  function getAnswersForQuestion(uint question_no) public view returns (string[] memory) {\r\n    require(question_no >= 0 && question_no < Questions.length, \"Invalid question number\");\r\n    require(msg.sender == chairperson, \"The user is not a chairperson\");\r\n    require(start, \"Cannot get answers before starting\");\r\n\r\n    string[] memory answer = new string[](Questions_And_Answers.length); // Initialize an array with a fixed length\r\n\r\n    uint k = 0;\r\n    for (uint i = 0; i < Questions_And_Answers.length; i++) {\r\n        if (Questions_And_Answers[i].question == question_no) {\r\n            answer[k] = Questions_And_Answers[i].answer;\r\n            k++;\r\n        }\r\n    }\r\n\r\n    // Resize the array to the correct length\r\n    assembly {\r\n        mstore(answer, k)\r\n    }\r\n\r\n    return answer;\r\n}\r\nfunction get_Questions(uint q_no) public view returns(string memory) {\r\n     require(q_no >= 0 && q_no < Questions.length, \"Invalid question number\");\r\n    return Questions[q_no];\r\n}\r\n\r\nfunction get_options(uint q_no) public view returns (string[4] memory){\r\n    require(q_no >= 0 && q_no < Questions.length, \"Invalid question number\");\r\n    \r\n   return AnswersMap[q_no].answers;\r\n}\r\nfunction get_type(uint q_no) public view returns (string memory){\r\n    return AnswersMap[q_no].type_of_answer;\r\n\r\n}\r\n\r\nfunction reset() public \r\n{   require(msg.sender==chairperson,\"the user is not chairperson\");\r\n    start = false;\r\n    //Questions_And_Answers\r\n    //users\r\n    //Questions\r\n   /* for(uint i=0;i<Questions_And_Answers.length;i++)\r\n    {\r\n        delete Questions_And_Answers[i];\r\n    }*/\r\n    while(Questions_And_Answers.length>0)\r\n    {\r\n        Questions_And_Answers.pop();\r\n    }\r\n    \r\n    for(uint i=0;i<registered_users.length;i++)\r\n    {\r\n        delete users[registered_users[i]];\r\n    }\r\n    /*for(uint i=0;i<Questions.length;i++)\r\n    {\r\n        delete Questions[i];\r\n    }*/\r\n    while(Questions.length>0)\r\n    {\r\n        Questions.pop();\r\n    }\r\n    \r\n    /*for(uint i=0;i<Answers_with_Question.length;i++)\r\n    {\r\n        delete Answers_with_Question[i];\r\n    }*/\r\n    while(Answers_with_Question.length>0)\r\n    {\r\n        Answers_with_Question.pop();\r\n    }\r\n   \r\n     // Iterate through the keys and delete the values\r\n        for (uint i = 0; i < keys.length; i++) {\r\n            delete AnswersMap[keys[i]];\r\n        }\r\n        // Clear the keys array\r\n        //delete keys;\r\n        while(keys.length>0)\r\n        {\r\n            keys.pop();\r\n        }\r\n        \r\n}\r\n\r\n}",
  "sourcePath": "C:\\Users\\lakka\\OneDrive - Manipal Academy of Higher Education\\FIDUCIA\\voting-gui\\contracts\\feedback.sol",
  "compiler": {
    "name": "solc",
    "version": "0.8.17+commit.8df45f5f.Emscripten.clang"
  },
  "schemaVersion": "3.4.11",
  "updatedAt": "2023-10-07T15:24:57.704Z",
  "networkType": "ethereum",
  "devdoc": {
    "kind": "dev",
    "methods": {},
    "version": 1
  },
  "userdoc": {
    "kind": "user",
    "methods": {},
    "version": 1
  }
}