{
  "contractName": "feedback",
  "abi": [
    {
      "inputs": [],
      "stateMutability": "nonpayable",
      "type": "constructor"
    },
    {
      "inputs": [
        {
          "internalType": "uint256",
          "name": "",
          "type": "uint256"
        }
      ],
      "name": "Answers_with_Question",
      "outputs": [
        {
          "internalType": "uint256",
          "name": "question_no",
          "type": "uint256"
        },
        {
          "internalType": "string",
          "name": "type_of_answer",
          "type": "string"
        }
      ],
      "stateMutability": "view",
      "type": "function",
      "constant": true
    },
    {
      "inputs": [
        {
          "internalType": "uint256",
          "name": "",
          "type": "uint256"
        }
      ],
      "name": "Questions",
      "outputs": [
        {
          "internalType": "string",
          "name": "",
          "type": "string"
        }
      ],
      "stateMutability": "view",
      "type": "function",
      "constant": true
    },
    {
      "inputs": [
        {
          "internalType": "uint256",
          "name": "",
          "type": "uint256"
        }
      ],
      "name": "Questions_And_Answers",
      "outputs": [
        {
          "internalType": "uint256",
          "name": "question",
          "type": "uint256"
        },
        {
          "internalType": "string",
          "name": "answer",
          "type": "string"
        }
      ],
      "stateMutability": "view",
      "type": "function",
      "constant": true
    },
    {
      "inputs": [],
      "name": "chairperson",
      "outputs": [
        {
          "internalType": "address",
          "name": "",
          "type": "address"
        }
      ],
      "stateMutability": "view",
      "type": "function",
      "constant": true
    },
    {
      "inputs": [],
      "name": "start",
      "outputs": [
        {
          "internalType": "bool",
          "name": "",
          "type": "bool"
        }
      ],
      "stateMutability": "view",
      "type": "function",
      "constant": true
    },
    {
      "inputs": [
        {
          "internalType": "address",
          "name": "",
          "type": "address"
        }
      ],
      "name": "users",
      "outputs": [
        {
          "internalType": "address",
          "name": "user_address",
          "type": "address"
        },
        {
          "internalType": "bool",
          "name": "registered",
          "type": "bool"
        }
      ],
      "stateMutability": "view",
      "type": "function",
      "constant": true
    },
    {
      "inputs": [],
      "name": "Start",
      "outputs": [],
      "stateMutability": "nonpayable",
      "type": "function"
    },
    {
      "inputs": [
        {
          "internalType": "string",
          "name": "question",
          "type": "string"
        }
      ],
      "name": "questions_input",
      "outputs": [],
      "stateMutability": "nonpayable",
      "type": "function"
    },
    {
      "inputs": [
        {
          "internalType": "uint256",
          "name": "q_no",
          "type": "uint256"
        },
        {
          "internalType": "string[4]",
          "name": "answer",
          "type": "string[4]"
        },
        {
          "internalType": "string",
          "name": "t",
          "type": "string"
        }
      ],
      "name": "answers_input",
      "outputs": [],
      "stateMutability": "nonpayable",
      "type": "function"
    },
    {
      "inputs": [],
      "name": "register",
      "outputs": [],
      "stateMutability": "nonpayable",
      "type": "function"
    },
    {
      "inputs": [
        {
          "internalType": "uint256",
          "name": "question_no",
          "type": "uint256"
        },
        {
          "internalType": "string",
          "name": "answer1",
          "type": "string"
        }
      ],
      "name": "answers",
      "outputs": [],
      "stateMutability": "nonpayable",
      "type": "function"
    },
    {
      "inputs": [
        {
          "internalType": "uint256",
          "name": "question_no",
          "type": "uint256"
        }
      ],
      "name": "getAnswersForQuestion",
      "outputs": [
        {
          "internalType": "string[]",
          "name": "",
          "type": "string[]"
        }
      ],
      "stateMutability": "view",
      "type": "function",
      "constant": true
    },
    {
      "inputs": [],
      "name": "reset",
      "outputs": [],
      "stateMutability": "nonpayable",
      "type": "function"
    }
  ],
  "bytecode": "0x60806040526000600460006101000a81548160ff02191690831515021790555034801561002b57600080fd5b50336000806101000a81548173ffffffffffffffffffffffffffffffffffffffff021916908373ffffffffffffffffffffffffffffffffffffffff1602179055506124b98061007b6000396000f3fe608060405234801561001057600080fd5b50600436106100cf5760003560e01c80639e9bbdcb1161008c578063aa2881dd11610066578063aa2881dd14610215578063b080f6d614610231578063be9a65551461024d578063d826f88f1461026b576100cf565b80639e9bbdcb146101975780639f496ce2146101c8578063a87430ba146101e4576100cf565b80631aa3a008146100d45780631acb563b146100de5780631b55ba3a1461010f5780632e4176cf1461011957806335dcf0b0146101375780639dafd85914610167575b600080fd5b6100dc610275565b005b6100f860048036038101906100f39190611380565b61052f565b60405161010692919061144c565b60405180910390f35b6101176105eb565b005b610121610608565b60405161012e91906114bd565b60405180910390f35b610151600480360381019061014c9190611380565b61062c565b60405161015e91906115e4565b60405180910390f35b610181600480360381019061017c9190611380565b6108ef565b60405161018e9190611606565b60405180910390f35b6101b160048036038101906101ac9190611380565b61099b565b6040516101bf92919061144c565b60405180910390f35b6101e260048036038101906101dd9190611831565b610a57565b005b6101fe60048036038101906101f991906118e8565b610c0d565b60405161020c929190611930565b60405180910390f35b61022f600480360381019061022a91906119b4565b610c5e565b005b61024b60048036038101906102469190611a01565b610d7d565b005b610255610f67565b6040516102629190611a61565b60405180910390f35b610273610f7a565b005b6000339050600460009054906101000a900460ff166102c9576040517f08c379a00000000000000000000000000000000000000000000000000000000081526004016102c090611ac8565b60405180910390fd5b60008054906101000a900473ffffffffffffffffffffffffffffffffffffffff1673ffffffffffffffffffffffffffffffffffffffff163373ffffffffffffffffffffffffffffffffffffffff1603610357576040517f08c379a000000000000000000000000000000000000000000000000000000000815260040161034e90611b34565b60405180910390fd5b60001515600660008373ffffffffffffffffffffffffffffffffffffffff1673ffffffffffffffffffffffffffffffffffffffff16815260200190815260200160002060000160149054906101000a900460ff161515146103ed576040517f08c379a00000000000000000000000000000000000000000000000000000000081526004016103e490611ba0565b60405180910390fd5b80600660008373ffffffffffffffffffffffffffffffffffffffff1673ffffffffffffffffffffffffffffffffffffffff16815260200190815260200160002060000160006101000a81548173ffffffffffffffffffffffffffffffffffffffff021916908373ffffffffffffffffffffffffffffffffffffffff1602179055506001600660008373ffffffffffffffffffffffffffffffffffffffff1673ffffffffffffffffffffffffffffffffffffffff16815260200190815260200160002060000160146101000a81548160ff0219169083151502179055506005819080600181540180825580915050600190039060005260206000200160009091909190916101000a81548173ffffffffffffffffffffffffffffffffffffffff021916908373ffffffffffffffffffffffffffffffffffffffff16021790555050565b6002818154811061053f57600080fd5b906000526020600020906002020160009150905080600001549080600101805461056890611bef565b80601f016020809104026020016040519081016040528092919081815260200182805461059490611bef565b80156105e15780601f106105b6576101008083540402835291602001916105e1565b820191906000526020600020905b8154815290600101906020018083116105c457829003601f168201915b5050505050905082565b6001600460006101000a81548160ff021916908315150217905550565b60008054906101000a900473ffffffffffffffffffffffffffffffffffffffff1681565b606060008210158015610643575060018054905082105b610682576040517f08c379a000000000000000000000000000000000000000000000000000000000815260040161067990611c6c565b60405180910390fd5b60008054906101000a900473ffffffffffffffffffffffffffffffffffffffff1673ffffffffffffffffffffffffffffffffffffffff163373ffffffffffffffffffffffffffffffffffffffff1614610710576040517f08c379a000000000000000000000000000000000000000000000000000000000815260040161070790611cd8565b60405180910390fd5b600460009054906101000a900460ff1661075f576040517f08c379a000000000000000000000000000000000000000000000000000000000815260040161075690611d6a565b60405180910390fd5b600060028054905067ffffffffffffffff8111156107805761077f61162d565b5b6040519080825280602002602001820160405280156107b357816020015b606081526020019060019003908161079e5790505b5090506000805b6002805490508110156108e15784600282815481106107dc576107db611d8a565b5b906000526020600020906002020160000154036108ce576002818154811061080757610806611d8a565b5b9060005260206000209060020201600101805461082390611bef565b80601f016020809104026020016040519081016040528092919081815260200182805461084f90611bef565b801561089c5780601f106108715761010080835404028352916020019161089c565b820191906000526020600020905b81548152906001019060200180831161087f57829003601f168201915b50505050508383815181106108b4576108b3611d8a565b5b602002602001018190525081806108ca90611de8565b9250505b80806108d990611de8565b9150506107ba565b508082528192505050919050565b600181815481106108ff57600080fd5b90600052602060002001600091509050805461091a90611bef565b80601f016020809104026020016040519081016040528092919081815260200182805461094690611bef565b80156109935780601f1061096857610100808354040283529160200191610993565b820191906000526020600020905b81548152906001019060200180831161097657829003601f168201915b505050505081565b600381815481106109ab57600080fd5b90600052602060002090600602016000915090508060000154908060050180546109d490611bef565b80601f0160208091040260200160405190810160405280929190818152602001828054610a0090611bef565b8015610a4d5780601f10610a2257610100808354040283529160200191610a4d565b820191906000526020600020905b815481529060010190602001808311610a3057829003601f168201915b5050505050905082565b600460009054906101000a900460ff16610aa6576040517f08c379a0000000000000000000000000000000000000000000000000000000008152600401610a9d90611ea2565b60405180910390fd5b60008054906101000a900473ffffffffffffffffffffffffffffffffffffffff1673ffffffffffffffffffffffffffffffffffffffff163373ffffffffffffffffffffffffffffffffffffffff1614610b34576040517f08c379a0000000000000000000000000000000000000000000000000000000008152600401610b2b90611f34565b60405180910390fd5b60008310158015610b49575060018054905083105b610b88576040517f08c379a0000000000000000000000000000000000000000000000000000000008152600401610b7f90611c6c565b60405180910390fd5b6003604051806060016040528085815260200184815260200183815250908060018154018082558091505060019003906000526020600020906006020160009091909190915060008201518160000155602082015181600101906004610bef929190611224565b506040820151816005019081610c059190612100565b505050505050565b60066020528060005260406000206000915090508060000160009054906101000a900473ffffffffffffffffffffffffffffffffffffffff16908060000160149054906101000a900460ff16905082565b600460009054906101000a900460ff16610cad576040517f08c379a0000000000000000000000000000000000000000000000000000000008152600401610ca490611ea2565b60405180910390fd5b60008054906101000a900473ffffffffffffffffffffffffffffffffffffffff1673ffffffffffffffffffffffffffffffffffffffff163373ffffffffffffffffffffffffffffffffffffffff1614610d3b576040517f08c379a0000000000000000000000000000000000000000000000000000000008152600401610d3290612244565b60405180910390fd5b6001828290918060018154018082558091505060019003906000526020600020016000909192909192909192909192509182610d7892919061226f565b505050565b60008310158015610d92575060018054905083105b610dd1576040517f08c379a0000000000000000000000000000000000000000000000000000000008152600401610dc890611c6c565b60405180910390fd5b600033905060011515600660008373ffffffffffffffffffffffffffffffffffffffff1673ffffffffffffffffffffffffffffffffffffffff16815260200190815260200160002060000160149054906101000a900460ff16151514610e6c576040517f08c379a0000000000000000000000000000000000000000000000000000000008152600401610e639061238b565b60405180910390fd5b600460009054906101000a900460ff16610ebb576040517f08c379a0000000000000000000000000000000000000000000000000000000008152600401610eb2906123f7565b60405180910390fd5b6002604051806040016040528086815260200185858080601f016020809104026020016040519081016040528093929190818152602001838380828437600081840152601f19601f820116905080830192505050505050508152509080600181540180825580915050600190039060005260206000209060020201600090919091909150600082015181600001556020820151816001019081610f5e9190612100565b50505050505050565b600460009054906101000a900460ff1681565b60008054906101000a900473ffffffffffffffffffffffffffffffffffffffff1673ffffffffffffffffffffffffffffffffffffffff163373ffffffffffffffffffffffffffffffffffffffff1614611008576040517f08c379a0000000000000000000000000000000000000000000000000000000008152600401610fff90612463565b60405180910390fd5b6000600460006101000a81548160ff02191690831515021790555060005b600280549050811015611083576002818154811061104757611046611d8a565b5b906000526020600020906002020160008082016000905560018201600061106e9190611270565b5050808061107b90611de8565b915050611026565b5060005b6005805490508110156111625760066000600583815481106110ac576110ab611d8a565b5b9060005260206000200160009054906101000a900473ffffffffffffffffffffffffffffffffffffffff1673ffffffffffffffffffffffffffffffffffffffff1673ffffffffffffffffffffffffffffffffffffffff168152602001908152602001600020600080820160006101000a81549073ffffffffffffffffffffffffffffffffffffffff02191690556000820160146101000a81549060ff02191690555050808061115a90611de8565b915050611087565b5060005b6001805490508110156111b0576001818154811061118757611186611d8a565b5b90600052602060002001600061119d9190611270565b80806111a890611de8565b915050611166565b5060005b60038054905081101561122157600381815481106111d5576111d4611d8a565b5b90600052602060002090600602016000808201600090556001820160006111fc91906112b0565b60058201600061120c9190611270565b5050808061121990611de8565b9150506111b4565b50565b826004810192821561125f579160200282015b8281111561125e57825182908161124e9190612100565b5091602001919060010190611237565b5b50905061126c91906112f5565b5090565b50805461127c90611bef565b6000825580601f1061128e57506112ad565b601f0160209004906000526020600020908101906112ac9190611319565b5b50565b50600081816112bf9190611270565b50600101600081816112d19190611270565b50600101600081816112e39190611270565b5060010160006112f39190611270565b565b5b80821115611315576000818161130c9190611270565b506001016112f6565b5090565b5b8082111561133257600081600090555060010161131a565b5090565b6000604051905090565b600080fd5b600080fd5b6000819050919050565b61135d8161134a565b811461136857600080fd5b50565b60008135905061137a81611354565b92915050565b60006020828403121561139657611395611340565b5b60006113a48482850161136b565b91505092915050565b6113b68161134a565b82525050565b600081519050919050565b600082825260208201905092915050565b60005b838110156113f65780820151818401526020810190506113db565b60008484015250505050565b6000601f19601f8301169050919050565b600061141e826113bc565b61142881856113c7565b93506114388185602086016113d8565b61144181611402565b840191505092915050565b600060408201905061146160008301856113ad565b81810360208301526114738184611413565b90509392505050565b600073ffffffffffffffffffffffffffffffffffffffff82169050919050565b60006114a78261147c565b9050919050565b6114b78161149c565b82525050565b60006020820190506114d260008301846114ae565b92915050565b600081519050919050565b600082825260208201905092915050565b6000819050602082019050919050565b600082825260208201905092915050565b6000611520826113bc565b61152a8185611504565b935061153a8185602086016113d8565b61154381611402565b840191505092915050565b600061155a8383611515565b905092915050565b6000602082019050919050565b600061157a826114d8565b61158481856114e3565b935083602082028501611596856114f4565b8060005b858110156115d257848403895281516115b3858261154e565b94506115be83611562565b925060208a0199505060018101905061159a565b50829750879550505050505092915050565b600060208201905081810360008301526115fe818461156f565b905092915050565b600060208201905081810360008301526116208184611413565b905092915050565b600080fd5b7f4e487b7100000000000000000000000000000000000000000000000000000000600052604160045260246000fd5b61166582611402565b810181811067ffffffffffffffff821117156116845761168361162d565b5b80604052505050565b6000611697611336565b90506116a3828261165c565b919050565b600067ffffffffffffffff8211156116c3576116c261162d565b5b602082029050919050565b600080fd5b600080fd5b600067ffffffffffffffff8211156116f3576116f261162d565b5b6116fc82611402565b9050602081019050919050565b82818337600083830152505050565b600061172b611726846116d8565b61168d565b905082815260208101848484011115611747576117466116d3565b5b611752848285611709565b509392505050565b600082601f83011261176f5761176e611628565b5b813561177f848260208601611718565b91505092915050565b600061179b611796846116a8565b61168d565b905080602084028301858111156117b5576117b46116ce565b5b835b818110156117fc57803567ffffffffffffffff8111156117da576117d9611628565b5b8086016117e7898261175a565b855260208501945050506020810190506117b7565b5050509392505050565b600082601f83011261181b5761181a611628565b5b6004611828848285611788565b91505092915050565b60008060006060848603121561184a57611849611340565b5b60006118588682870161136b565b935050602084013567ffffffffffffffff81111561187957611878611345565b5b61188586828701611806565b925050604084013567ffffffffffffffff8111156118a6576118a5611345565b5b6118b28682870161175a565b9150509250925092565b6118c58161149c565b81146118d057600080fd5b50565b6000813590506118e2816118bc565b92915050565b6000602082840312156118fe576118fd611340565b5b600061190c848285016118d3565b91505092915050565b60008115159050919050565b61192a81611915565b82525050565b600060408201905061194560008301856114ae565b6119526020830184611921565b9392505050565b600080fd5b60008083601f84011261197457611973611628565b5b8235905067ffffffffffffffff81111561199157611990611959565b5b6020830191508360018202830111156119ad576119ac6116ce565b5b9250929050565b600080602083850312156119cb576119ca611340565b5b600083013567ffffffffffffffff8111156119e9576119e8611345565b5b6119f58582860161195e565b92509250509250929050565b600080600060408486031215611a1a57611a19611340565b5b6000611a288682870161136b565b935050602084013567ffffffffffffffff811115611a4957611a48611345565b5b611a558682870161195e565b92509250509250925092565b6000602082019050611a766000830184611921565b92915050565b7f63616e6e6f74207265676973746572206265666f7265207374617274696e6700600082015250565b6000611ab2601f836113c7565b9150611abd82611a7c565b602082019050919050565b60006020820190508181036000830152611ae181611aa5565b9050919050565b7f6368616972706572736f6e2063616e6e6f742072656769737465720000000000600082015250565b6000611b1e601b836113c7565b9150611b2982611ae8565b602082019050919050565b60006020820190508181036000830152611b4d81611b11565b9050919050565b7f7573657220697320616c72656164792072656769737465726564000000000000600082015250565b6000611b8a601a836113c7565b9150611b9582611b54565b602082019050919050565b60006020820190508181036000830152611bb981611b7d565b9050919050565b7f4e487b7100000000000000000000000000000000000000000000000000000000600052602260045260246000fd5b60006002820490506001821680611c0757607f821691505b602082108103611c1a57611c19611bc0565b5b50919050565b7f496e76616c6964207175657374696f6e206e756d626572000000000000000000600082015250565b6000611c566017836113c7565b9150611c6182611c20565b602082019050919050565b60006020820190508181036000830152611c8581611c49565b9050919050565b7f5468652075736572206973206e6f742061206368616972706572736f6e000000600082015250565b6000611cc2601d836113c7565b9150611ccd82611c8c565b602082019050919050565b60006020820190508181036000830152611cf181611cb5565b9050919050565b7f43616e6e6f742067657420616e7377657273206265666f72652073746172746960008201527f6e67000000000000000000000000000000000000000000000000000000000000602082015250565b6000611d546022836113c7565b9150611d5f82611cf8565b604082019050919050565b60006020820190508181036000830152611d8381611d47565b9050919050565b7f4e487b7100000000000000000000000000000000000000000000000000000000600052603260045260246000fd5b7f4e487b7100000000000000000000000000000000000000000000000000000000600052601160045260246000fd5b6000611df38261134a565b91507fffffffffffffffffffffffffffffffffffffffffffffffffffffffffffffffff8203611e2557611e24611db9565b5b600182019050919050565b7f5175657374696f6e20696e707574206973206e6f7420616c6c6f77656420626560008201527f666f7265207374617274696e672e000000000000000000000000000000000000602082015250565b6000611e8c602e836113c7565b9150611e9782611e30565b604082019050919050565b60006020820190508181036000830152611ebb81611e7f565b9050919050565b7f6f6e6c79206368616972706572736f6e20697320616c6c6f77656420746f206960008201527f6e707574206f7074696f6e730000000000000000000000000000000000000000602082015250565b6000611f1e602c836113c7565b9150611f2982611ec2565b604082019050919050565b60006020820190508181036000830152611f4d81611f11565b9050919050565b60008190508160005260206000209050919050565b60006020601f8301049050919050565b600082821b905092915050565b600060088302611fb67fffffffffffffffffffffffffffffffffffffffffffffffffffffffffffffffff82611f79565b611fc08683611f79565b95508019841693508086168417925050509392505050565b6000819050919050565b6000611ffd611ff8611ff38461134a565b611fd8565b61134a565b9050919050565b6000819050919050565b61201783611fe2565b61202b61202382612004565b848454611f86565b825550505050565b600090565b612040612033565b61204b81848461200e565b505050565b5b8181101561206f57612064600082612038565b600181019050612051565b5050565b601f8211156120b45761208581611f54565b61208e84611f69565b8101602085101561209d578190505b6120b16120a985611f69565b830182612050565b50505b505050565b600082821c905092915050565b60006120d7600019846008026120b9565b1980831691505092915050565b60006120f083836120c6565b9150826002028217905092915050565b612109826113bc565b67ffffffffffffffff8111156121225761212161162d565b5b61212c8254611bef565b612137828285612073565b600060209050601f83116001811461216a5760008415612158578287015190505b61216285826120e4565b8655506121ca565b601f19841661217886611f54565b60005b828110156121a05784890151825560018201915060208501945060208101905061217b565b868310156121bd57848901516121b9601f8916826120c6565b8355505b6001600288020188555050505b505050505050565b7f6f6e6c79206368616972706572736f6e20697320616c6c6f77656420746f206960008201527f6e707574207175657374696f6e00000000000000000000000000000000000000602082015250565b600061222e602d836113c7565b9150612239826121d2565b604082019050919050565b6000602082019050818103600083015261225d81612221565b9050919050565b600082905092915050565b6122798383612264565b67ffffffffffffffff8111156122925761229161162d565b5b61229c8254611bef565b6122a7828285612073565b6000601f8311600181146122d657600084156122c4578287013590505b6122ce85826120e4565b865550612336565b601f1984166122e486611f54565b60005b8281101561230c578489013582556001820191506020850194506020810190506122e7565b868310156123295784890135612325601f8916826120c6565b8355505b6001600288020188555050505b50505050505050565b7f75736572206973206e6f74207265676973746572656400000000000000000000600082015250565b60006123756016836113c7565b91506123808261233f565b602082019050919050565b600060208201905081810360008301526123a481612368565b9050919050565b7f63616e6e6f7420616e73776572206265666f7265207374617274696e67000000600082015250565b60006123e1601d836113c7565b91506123ec826123ab565b602082019050919050565b60006020820190508181036000830152612410816123d4565b9050919050565b7f7468652075736572206973206e6f74206368616972706572736f6e0000000000600082015250565b600061244d601b836113c7565b915061245882612417565b602082019050919050565b6000602082019050818103600083015261247c81612440565b905091905056fea2646970667358221220eccc3b76d3ea909aee132b0bebca1bd03814d7d2ad843dc3842ed41d3fe029fd64736f6c63430008110033",
  "immutableReferences": {},
  "source": "pragma solidity ^0.8.17;\r\n// SPDX-License-Identifier: GPL-3.0\r\ncontract feedback {\r\n    address public chairperson;\r\n   \r\n    string[] public Questions;\r\n    struct questions_and_answers\r\n    {\r\n        uint question;\r\n        string answer;\r\n    }\r\n    questions_and_answers[] public Questions_And_Answers;\r\n    struct User\r\n    {\r\n        address user_address;\r\n        \r\n        bool registered;\r\n    }\r\n    struct answers_with_question\r\n    {\r\n        uint question_no;\r\n        string[4] answers;\r\n        string type_of_answer;\r\n    }\r\n    answers_with_question[] public Answers_with_Question;\r\n    bool public start = false;\r\n    address[] registered_users;\r\n    mapping(address=>User) public users;\r\n    constructor() {\r\n        chairperson = msg.sender;\r\n    }\r\n\r\n    function Start() public {\r\n        //require(!start, \"already started\");\r\n        start = true;\r\n    }\r\n\r\n    function questions_input(string calldata question) public {\r\n        require(start, \"Question input is not allowed before starting.\");\r\n        require(msg.sender==chairperson,\"only chairperson is allowed to input question\");\r\n        Questions.push(question);\r\n    }\r\n    function answers_input(uint q_no,string[4] memory answer,string memory t) public {\r\n        require(start, \"Question input is not allowed before starting.\");\r\n         require(msg.sender==chairperson,\"only chairperson is allowed to input options\");\r\n         require(q_no >= 0 && q_no < Questions.length, \"Invalid question number\");\r\n         Answers_with_Question.push(answers_with_question({\r\n            question_no:q_no,\r\n            answers:answer,\r\n            type_of_answer:t\r\n         }));\r\n\r\n    }\r\n    function register() public \r\n    {     \r\n          address person = msg.sender;\r\n          require(start, \"cannot register before starting\");\r\n        require(msg.sender!=chairperson,\"chairperson cannot register\");\r\n        require(users[person].registered==false,\"user is already registered\");\r\n      \r\n        users[person].user_address = person;\r\n        users[person].registered = true;\r\n        registered_users.push(person);\r\n\r\n    }\r\n    function answers(uint question_no,string calldata answer1) public {\r\n        require(question_no >= 0 && question_no < Questions.length, \"Invalid question number\");\r\n         address person = msg.sender;\r\n         require(users[person].registered==true,\"user is not registered\");\r\n         require(start, \"cannot answer before starting\");\r\n         Questions_And_Answers.push(questions_and_answers({\r\n             question:question_no,\r\n             answer:answer1\r\n         }));\r\n    }\r\n  function getAnswersForQuestion(uint question_no) public view returns (string[] memory) {\r\n    require(question_no >= 0 && question_no < Questions.length, \"Invalid question number\");\r\n    require(msg.sender == chairperson, \"The user is not a chairperson\");\r\n    require(start, \"Cannot get answers before starting\");\r\n\r\n    string[] memory answer = new string[](Questions_And_Answers.length); // Initialize an array with a fixed length\r\n\r\n    uint k = 0;\r\n    for (uint i = 0; i < Questions_And_Answers.length; i++) {\r\n        if (Questions_And_Answers[i].question == question_no) {\r\n            answer[k] = Questions_And_Answers[i].answer;\r\n            k++;\r\n        }\r\n    }\r\n\r\n    // Resize the array to the correct length\r\n    assembly {\r\n        mstore(answer, k)\r\n    }\r\n\r\n    return answer;\r\n}\r\n\r\nfunction reset() public \r\n{   require(msg.sender==chairperson,\"the user is not chairperson\");\r\n    start = false;\r\n    //Questions_And_Answers\r\n    //users\r\n    //Questions\r\n    for(uint i=0;i<Questions_And_Answers.length;i++)\r\n    {\r\n        delete Questions_And_Answers[i];\r\n    }\r\n    for(uint i=0;i<registered_users.length;i++)\r\n    {\r\n        delete users[registered_users[i]];\r\n    }\r\n    for(uint i=0;i<Questions.length;i++)\r\n    {\r\n        delete Questions[i];\r\n    }\r\n    for(uint i=0;i<Answers_with_Question.length;i++)\r\n    {\r\n        delete Answers_with_Question[i];\r\n    }\r\n  \r\n}\r\n\r\n}",
  "sourcePath": "C:\\Users\\lakka\\OneDrive - Manipal Academy of Higher Education\\FIDUCIA\\voting-gui\\contracts\\feedback.sol",
  "compiler": {
    "name": "solc",
    "version": "0.8.17+commit.8df45f5f.Emscripten.clang"
  },
  "schemaVersion": "3.4.11",
  "updatedAt": "2023-10-06T12:47:19.362Z",
  "networkType": "ethereum",
  "devdoc": {
    "kind": "dev",
    "methods": {},
    "version": 1
  },
  "userdoc": {
    "kind": "user",
    "methods": {},
    "version": 1
  }
}