{
  "contractName": "feedback",
  "abi": [
    {
      "inputs": [],
      "stateMutability": "nonpayable",
      "type": "constructor"
    },
    {
      "inputs": [
        {
          "internalType": "uint256",
          "name": "",
          "type": "uint256"
        }
      ],
      "name": "Questions",
      "outputs": [
        {
          "internalType": "string",
          "name": "",
          "type": "string"
        }
      ],
      "stateMutability": "view",
      "type": "function",
      "constant": true
    },
    {
      "inputs": [
        {
          "internalType": "uint256",
          "name": "",
          "type": "uint256"
        }
      ],
      "name": "Questions_And_Answers",
      "outputs": [
        {
          "internalType": "uint256",
          "name": "question",
          "type": "uint256"
        },
        {
          "internalType": "string",
          "name": "answer",
          "type": "string"
        }
      ],
      "stateMutability": "view",
      "type": "function",
      "constant": true
    },
    {
      "inputs": [],
      "name": "chairperson",
      "outputs": [
        {
          "internalType": "address",
          "name": "",
          "type": "address"
        }
      ],
      "stateMutability": "view",
      "type": "function",
      "constant": true
    },
    {
      "inputs": [],
      "name": "start",
      "outputs": [
        {
          "internalType": "bool",
          "name": "",
          "type": "bool"
        }
      ],
      "stateMutability": "view",
      "type": "function",
      "constant": true
    },
    {
      "inputs": [
        {
          "internalType": "address",
          "name": "",
          "type": "address"
        }
      ],
      "name": "users",
      "outputs": [
        {
          "internalType": "address",
          "name": "user_address",
          "type": "address"
        },
        {
          "internalType": "bool",
          "name": "registered",
          "type": "bool"
        }
      ],
      "stateMutability": "view",
      "type": "function",
      "constant": true
    },
    {
      "inputs": [],
      "name": "Start",
      "outputs": [],
      "stateMutability": "nonpayable",
      "type": "function"
    },
    {
      "inputs": [
        {
          "internalType": "string",
          "name": "question",
          "type": "string"
        }
      ],
      "name": "questions_input",
      "outputs": [],
      "stateMutability": "nonpayable",
      "type": "function"
    },
    {
      "inputs": [],
      "name": "register",
      "outputs": [],
      "stateMutability": "nonpayable",
      "type": "function"
    },
    {
      "inputs": [
        {
          "internalType": "uint256",
          "name": "question_no",
          "type": "uint256"
        },
        {
          "internalType": "string",
          "name": "answer1",
          "type": "string"
        }
      ],
      "name": "answers",
      "outputs": [],
      "stateMutability": "nonpayable",
      "type": "function"
    },
    {
      "inputs": [
        {
          "internalType": "uint256",
          "name": "question_no",
          "type": "uint256"
        }
      ],
      "name": "getAnswersForQuestion",
      "outputs": [
        {
          "internalType": "string[]",
          "name": "",
          "type": "string[]"
        }
      ],
      "stateMutability": "view",
      "type": "function",
      "constant": true
    },
    {
      "inputs": [],
      "name": "reset",
      "outputs": [],
      "stateMutability": "nonpayable",
      "type": "function"
    }
  ],
  "bytecode": "0x60806040526000600360006101000a81548160ff02191690831515021790555034801561002b57600080fd5b50336000806101000a81548173ffffffffffffffffffffffffffffffffffffffff021916908373ffffffffffffffffffffffffffffffffffffffff160217905550611c978061007b6000396000f3fe608060405234801561001057600080fd5b50600436106100a95760003560e01c80639dafd859116100715780639dafd85914610141578063a87430ba14610171578063aa2881dd146101a2578063b080f6d6146101be578063be9a6555146101da578063d826f88f146101f8576100a9565b80631aa3a008146100ae5780631acb563b146100b85780631b55ba3a146100e95780632e4176cf146100f357806335dcf0b014610111575b600080fd5b6100b6610202565b005b6100d260048036038101906100cd9190610edd565b6104bc565b6040516100e0929190610fa9565b60405180910390f35b6100f1610578565b005b6100fb610595565b604051610108919061101a565b60405180910390f35b61012b60048036038101906101269190610edd565b6105b9565b6040516101389190611141565b60405180910390f35b61015b60048036038101906101569190610edd565b61087c565b6040516101689190611163565b60405180910390f35b61018b600480360381019061018691906111b1565b610928565b6040516101999291906111f9565b60405180910390f35b6101bc60048036038101906101b79190611287565b610979565b005b6101d860048036038101906101d391906112d4565b610a0a565b005b6101e2610bf4565b6040516101ef9190611334565b60405180910390f35b610200610c07565b005b6000339050600360009054906101000a900460ff16610256576040517f08c379a000000000000000000000000000000000000000000000000000000000815260040161024d9061139b565b60405180910390fd5b60008054906101000a900473ffffffffffffffffffffffffffffffffffffffff1673ffffffffffffffffffffffffffffffffffffffff163373ffffffffffffffffffffffffffffffffffffffff16036102e4576040517f08c379a00000000000000000000000000000000000000000000000000000000081526004016102db90611407565b60405180910390fd5b60001515600560008373ffffffffffffffffffffffffffffffffffffffff1673ffffffffffffffffffffffffffffffffffffffff16815260200190815260200160002060000160149054906101000a900460ff1615151461037a576040517f08c379a000000000000000000000000000000000000000000000000000000000815260040161037190611473565b60405180910390fd5b80600560008373ffffffffffffffffffffffffffffffffffffffff1673ffffffffffffffffffffffffffffffffffffffff16815260200190815260200160002060000160006101000a81548173ffffffffffffffffffffffffffffffffffffffff021916908373ffffffffffffffffffffffffffffffffffffffff1602179055506001600560008373ffffffffffffffffffffffffffffffffffffffff1673ffffffffffffffffffffffffffffffffffffffff16815260200190815260200160002060000160146101000a81548160ff0219169083151502179055506004819080600181540180825580915050600190039060005260206000200160009091909190916101000a81548173ffffffffffffffffffffffffffffffffffffffff021916908373ffffffffffffffffffffffffffffffffffffffff16021790555050565b600281815481106104cc57600080fd5b90600052602060002090600202016000915090508060000154908060010180546104f5906114c2565b80601f0160208091040260200160405190810160405280929190818152602001828054610521906114c2565b801561056e5780601f106105435761010080835404028352916020019161056e565b820191906000526020600020905b81548152906001019060200180831161055157829003601f168201915b5050505050905082565b6001600360006101000a81548160ff021916908315150217905550565b60008054906101000a900473ffffffffffffffffffffffffffffffffffffffff1681565b6060600082101580156105d0575060018054905082105b61060f576040517f08c379a00000000000000000000000000000000000000000000000000000000081526004016106069061153f565b60405180910390fd5b60008054906101000a900473ffffffffffffffffffffffffffffffffffffffff1673ffffffffffffffffffffffffffffffffffffffff163373ffffffffffffffffffffffffffffffffffffffff161461069d576040517f08c379a0000000000000000000000000000000000000000000000000000000008152600401610694906115ab565b60405180910390fd5b600360009054906101000a900460ff166106ec576040517f08c379a00000000000000000000000000000000000000000000000000000000081526004016106e39061163d565b60405180910390fd5b600060028054905067ffffffffffffffff81111561070d5761070c61165d565b5b60405190808252806020026020018201604052801561074057816020015b606081526020019060019003908161072b5790505b5090506000805b60028054905081101561086e5784600282815481106107695761076861168c565b5b9060005260206000209060020201600001540361085b57600281815481106107945761079361168c565b5b906000526020600020906002020160010180546107b0906114c2565b80601f01602080910402602001604051908101604052809291908181526020018280546107dc906114c2565b80156108295780601f106107fe57610100808354040283529160200191610829565b820191906000526020600020905b81548152906001019060200180831161080c57829003601f168201915b50505050508383815181106108415761084061168c565b5b60200260200101819052508180610857906116ea565b9250505b8080610866906116ea565b915050610747565b508082528192505050919050565b6001818154811061088c57600080fd5b9060005260206000200160009150905080546108a7906114c2565b80601f01602080910402602001604051908101604052809291908181526020018280546108d3906114c2565b80156109205780601f106108f557610100808354040283529160200191610920565b820191906000526020600020905b81548152906001019060200180831161090357829003601f168201915b505050505081565b60056020528060005260406000206000915090508060000160009054906101000a900473ffffffffffffffffffffffffffffffffffffffff16908060000160149054906101000a900460ff16905082565b600360009054906101000a900460ff166109c8576040517f08c379a00000000000000000000000000000000000000000000000000000000081526004016109bf906117a4565b60405180910390fd5b6001828290918060018154018082558091505060019003906000526020600020016000909192909192909192909192509182610a0592919061197b565b505050565b60008310158015610a1f575060018054905083105b610a5e576040517f08c379a0000000000000000000000000000000000000000000000000000000008152600401610a559061153f565b60405180910390fd5b600033905060011515600560008373ffffffffffffffffffffffffffffffffffffffff1673ffffffffffffffffffffffffffffffffffffffff16815260200190815260200160002060000160149054906101000a900460ff16151514610af9576040517f08c379a0000000000000000000000000000000000000000000000000000000008152600401610af090611a97565b60405180910390fd5b600360009054906101000a900460ff16610b48576040517f08c379a0000000000000000000000000000000000000000000000000000000008152600401610b3f90611b03565b60405180910390fd5b6002604051806040016040528086815260200185858080601f016020809104026020016040519081016040528093929190818152602001838380828437600081840152601f19601f820116905080830192505050505050508152509080600181540180825580915050600190039060005260206000209060020201600090919091909150600082015181600001556020820151816001019081610beb9190611b23565b50505050505050565b600360009054906101000a900460ff1681565b60008054906101000a900473ffffffffffffffffffffffffffffffffffffffff1673ffffffffffffffffffffffffffffffffffffffff163373ffffffffffffffffffffffffffffffffffffffff1614610c95576040517f08c379a0000000000000000000000000000000000000000000000000000000008152600401610c8c90611c41565b60405180910390fd5b6000600360006101000a81548160ff02191690831515021790555060005b600280549050811015610d105760028181548110610cd457610cd361168c565b5b9060005260206000209060020201600080820160009055600182016000610cfb9190610e40565b50508080610d08906116ea565b915050610cb3565b5060005b600480549050811015610def576005600060048381548110610d3957610d3861168c565b5b9060005260206000200160009054906101000a900473ffffffffffffffffffffffffffffffffffffffff1673ffffffffffffffffffffffffffffffffffffffff1673ffffffffffffffffffffffffffffffffffffffff168152602001908152602001600020600080820160006101000a81549073ffffffffffffffffffffffffffffffffffffffff02191690556000820160146101000a81549060ff021916905550508080610de7906116ea565b915050610d14565b5060005b600180549050811015610e3d5760018181548110610e1457610e1361168c565b5b906000526020600020016000610e2a9190610e40565b8080610e35906116ea565b915050610df3565b50565b508054610e4c906114c2565b6000825580601f10610e5e5750610e7d565b601f016020900490600052602060002090810190610e7c9190610e80565b5b50565b5b80821115610e99576000816000905550600101610e81565b5090565b600080fd5b600080fd5b6000819050919050565b610eba81610ea7565b8114610ec557600080fd5b50565b600081359050610ed781610eb1565b92915050565b600060208284031215610ef357610ef2610e9d565b5b6000610f0184828501610ec8565b91505092915050565b610f1381610ea7565b82525050565b600081519050919050565b600082825260208201905092915050565b60005b83811015610f53578082015181840152602081019050610f38565b60008484015250505050565b6000601f19601f8301169050919050565b6000610f7b82610f19565b610f858185610f24565b9350610f95818560208601610f35565b610f9e81610f5f565b840191505092915050565b6000604082019050610fbe6000830185610f0a565b8181036020830152610fd08184610f70565b90509392505050565b600073ffffffffffffffffffffffffffffffffffffffff82169050919050565b600061100482610fd9565b9050919050565b61101481610ff9565b82525050565b600060208201905061102f600083018461100b565b92915050565b600081519050919050565b600082825260208201905092915050565b6000819050602082019050919050565b600082825260208201905092915050565b600061107d82610f19565b6110878185611061565b9350611097818560208601610f35565b6110a081610f5f565b840191505092915050565b60006110b78383611072565b905092915050565b6000602082019050919050565b60006110d782611035565b6110e18185611040565b9350836020820285016110f385611051565b8060005b8581101561112f578484038952815161111085826110ab565b945061111b836110bf565b925060208a019950506001810190506110f7565b50829750879550505050505092915050565b6000602082019050818103600083015261115b81846110cc565b905092915050565b6000602082019050818103600083015261117d8184610f70565b905092915050565b61118e81610ff9565b811461119957600080fd5b50565b6000813590506111ab81611185565b92915050565b6000602082840312156111c7576111c6610e9d565b5b60006111d58482850161119c565b91505092915050565b60008115159050919050565b6111f3816111de565b82525050565b600060408201905061120e600083018561100b565b61121b60208301846111ea565b9392505050565b600080fd5b600080fd5b600080fd5b60008083601f84011261124757611246611222565b5b8235905067ffffffffffffffff81111561126457611263611227565b5b6020830191508360018202830111156112805761127f61122c565b5b9250929050565b6000806020838503121561129e5761129d610e9d565b5b600083013567ffffffffffffffff8111156112bc576112bb610ea2565b5b6112c885828601611231565b92509250509250929050565b6000806000604084860312156112ed576112ec610e9d565b5b60006112fb86828701610ec8565b935050602084013567ffffffffffffffff81111561131c5761131b610ea2565b5b61132886828701611231565b92509250509250925092565b600060208201905061134960008301846111ea565b92915050565b7f63616e6e6f74207265676973746572206265666f7265207374617274696e6700600082015250565b6000611385601f83610f24565b91506113908261134f565b602082019050919050565b600060208201905081810360008301526113b481611378565b9050919050565b7f6368616972706572736f6e2063616e6e6f742072656769737465720000000000600082015250565b60006113f1601b83610f24565b91506113fc826113bb565b602082019050919050565b60006020820190508181036000830152611420816113e4565b9050919050565b7f7573657220697320616c72656164792072656769737465726564000000000000600082015250565b600061145d601a83610f24565b915061146882611427565b602082019050919050565b6000602082019050818103600083015261148c81611450565b9050919050565b7f4e487b7100000000000000000000000000000000000000000000000000000000600052602260045260246000fd5b600060028204905060018216806114da57607f821691505b6020821081036114ed576114ec611493565b5b50919050565b7f496e76616c6964207175657374696f6e206e756d626572000000000000000000600082015250565b6000611529601783610f24565b9150611534826114f3565b602082019050919050565b600060208201905081810360008301526115588161151c565b9050919050565b7f5468652075736572206973206e6f742061206368616972706572736f6e000000600082015250565b6000611595601d83610f24565b91506115a08261155f565b602082019050919050565b600060208201905081810360008301526115c481611588565b9050919050565b7f43616e6e6f742067657420616e7377657273206265666f72652073746172746960008201527f6e67000000000000000000000000000000000000000000000000000000000000602082015250565b6000611627602283610f24565b9150611632826115cb565b604082019050919050565b600060208201905081810360008301526116568161161a565b9050919050565b7f4e487b7100000000000000000000000000000000000000000000000000000000600052604160045260246000fd5b7f4e487b7100000000000000000000000000000000000000000000000000000000600052603260045260246000fd5b7f4e487b7100000000000000000000000000000000000000000000000000000000600052601160045260246000fd5b60006116f582610ea7565b91507fffffffffffffffffffffffffffffffffffffffffffffffffffffffffffffffff8203611727576117266116bb565b5b600182019050919050565b7f5175657374696f6e20696e707574206973206e6f7420616c6c6f77656420626560008201527f666f7265207374617274696e672e000000000000000000000000000000000000602082015250565b600061178e602e83610f24565b915061179982611732565b604082019050919050565b600060208201905081810360008301526117bd81611781565b9050919050565b600082905092915050565b60008190508160005260206000209050919050565b60006020601f8301049050919050565b600082821b905092915050565b6000600883026118317fffffffffffffffffffffffffffffffffffffffffffffffffffffffffffffffff826117f4565b61183b86836117f4565b95508019841693508086168417925050509392505050565b6000819050919050565b600061187861187361186e84610ea7565b611853565b610ea7565b9050919050565b6000819050919050565b6118928361185d565b6118a661189e8261187f565b848454611801565b825550505050565b600090565b6118bb6118ae565b6118c6818484611889565b505050565b5b818110156118ea576118df6000826118b3565b6001810190506118cc565b5050565b601f82111561192f57611900816117cf565b611909846117e4565b81016020851015611918578190505b61192c611924856117e4565b8301826118cb565b50505b505050565b600082821c905092915050565b600061195260001984600802611934565b1980831691505092915050565b600061196b8383611941565b9150826002028217905092915050565b61198583836117c4565b67ffffffffffffffff81111561199e5761199d61165d565b5b6119a882546114c2565b6119b38282856118ee565b6000601f8311600181146119e257600084156119d0578287013590505b6119da858261195f565b865550611a42565b601f1984166119f0866117cf565b60005b82811015611a18578489013582556001820191506020850194506020810190506119f3565b86831015611a355784890135611a31601f891682611941565b8355505b6001600288020188555050505b50505050505050565b7f75736572206973206e6f74207265676973746572656400000000000000000000600082015250565b6000611a81601683610f24565b9150611a8c82611a4b565b602082019050919050565b60006020820190508181036000830152611ab081611a74565b9050919050565b7f63616e6e6f7420616e73776572206265666f7265207374617274696e67000000600082015250565b6000611aed601d83610f24565b9150611af882611ab7565b602082019050919050565b60006020820190508181036000830152611b1c81611ae0565b9050919050565b611b2c82610f19565b67ffffffffffffffff811115611b4557611b4461165d565b5b611b4f82546114c2565b611b5a8282856118ee565b600060209050601f831160018114611b8d5760008415611b7b578287015190505b611b85858261195f565b865550611bed565b601f198416611b9b866117cf565b60005b82811015611bc357848901518255600182019150602085019450602081019050611b9e565b86831015611be05784890151611bdc601f891682611941565b8355505b6001600288020188555050505b505050505050565b7f7468652075736572206973206e6f74206368616972706572736f6e0000000000600082015250565b6000611c2b601b83610f24565b9150611c3682611bf5565b602082019050919050565b60006020820190508181036000830152611c5a81611c1e565b905091905056fea2646970667358221220e5f0227a5fac5cefb8536d817cd898670525a860db73eb807fbc43badf597c3e64736f6c63430008110033",
  "immutableReferences": {},
  "source": "pragma solidity ^0.8.17;\r\n// SPDX-License-Identifier: GPL-3.0\r\ncontract feedback {\r\n    address public chairperson;\r\n   \r\n    string[] public Questions;\r\n    struct questions_and_answers\r\n    {\r\n        uint question;\r\n        string answer;\r\n    }\r\n    questions_and_answers[] public Questions_And_Answers;\r\n    struct User\r\n    {\r\n        address user_address;\r\n        \r\n        bool registered;\r\n    }\r\n    bool public start = false;\r\n    address[] registered_users;\r\n    mapping(address=>User) public users;\r\n    constructor() {\r\n        chairperson = msg.sender;\r\n    }\r\n\r\n    function Start() public {\r\n        //require(!start, \"already started\");\r\n        start = true;\r\n    }\r\n\r\n    function questions_input(string calldata question) public {\r\n        require(start, \"Question input is not allowed before starting.\");\r\n        Questions.push(question);\r\n    }\r\n    function register() public \r\n    {     \r\n          address person = msg.sender;\r\n          require(start, \"cannot register before starting\");\r\n        require(msg.sender!=chairperson,\"chairperson cannot register\");\r\n        require(users[person].registered==false,\"user is already registered\");\r\n      \r\n        users[person].user_address = person;\r\n        users[person].registered = true;\r\n        registered_users.push(person);\r\n\r\n    }\r\n    function answers(uint question_no,string calldata answer1) public {\r\n        require(question_no >= 0 && question_no < Questions.length, \"Invalid question number\");\r\n         address person = msg.sender;\r\n         require(users[person].registered==true,\"user is not registered\");\r\n         require(start, \"cannot answer before starting\");\r\n         Questions_And_Answers.push(questions_and_answers({\r\n             question:question_no,\r\n             answer:answer1\r\n         }));\r\n    }\r\n  function getAnswersForQuestion(uint question_no) public view returns (string[] memory) {\r\n    require(question_no >= 0 && question_no < Questions.length, \"Invalid question number\");\r\n    require(msg.sender == chairperson, \"The user is not a chairperson\");\r\n    require(start, \"Cannot get answers before starting\");\r\n\r\n    string[] memory answer = new string[](Questions_And_Answers.length); // Initialize an array with a fixed length\r\n\r\n    uint k = 0;\r\n    for (uint i = 0; i < Questions_And_Answers.length; i++) {\r\n        if (Questions_And_Answers[i].question == question_no) {\r\n            answer[k] = Questions_And_Answers[i].answer;\r\n            k++;\r\n        }\r\n    }\r\n\r\n    // Resize the array to the correct length\r\n    assembly {\r\n        mstore(answer, k)\r\n    }\r\n\r\n    return answer;\r\n}\r\n\r\nfunction reset() public \r\n{   require(msg.sender==chairperson,\"the user is not chairperson\");\r\n    start = false;\r\n    //Questions_And_Answers\r\n    //users\r\n    //Questions\r\n    for(uint i=0;i<Questions_And_Answers.length;i++)\r\n    {\r\n        delete Questions_And_Answers[i];\r\n    }\r\n    for(uint i=0;i<registered_users.length;i++)\r\n    {\r\n        delete users[registered_users[i]];\r\n    }\r\n    for(uint i=0;i<Questions.length;i++)\r\n    {\r\n        delete Questions[i];\r\n    }\r\n  \r\n}\r\n\r\n}",
  "sourcePath": "C:\\Users\\lakka\\OneDrive - Manipal Academy of Higher Education\\FIDUCIA\\voting-gui\\contracts\\feedback.sol",
  "compiler": {
    "name": "solc",
    "version": "0.8.17+commit.8df45f5f.Emscripten.clang"
  },
  "schemaVersion": "3.4.11",
  "updatedAt": "2023-09-05T12:10:26.516Z",
  "networkType": "ethereum",
  "devdoc": {
    "kind": "dev",
    "methods": {},
    "version": 1
  },
  "userdoc": {
    "kind": "user",
    "methods": {},
    "version": 1
  }
}