{
  "contractName": "feedback",
  "abi": [
    {
      "inputs": [],
      "stateMutability": "nonpayable",
      "type": "constructor"
    },
    {
      "inputs": [
        {
          "internalType": "uint256",
          "name": "",
          "type": "uint256"
        }
      ],
      "name": "AnswersMap",
      "outputs": [
        {
          "internalType": "uint256",
          "name": "question_no",
          "type": "uint256"
        },
        {
          "internalType": "string",
          "name": "type_of_answer",
          "type": "string"
        }
      ],
      "stateMutability": "view",
      "type": "function",
      "constant": true
    },
    {
      "inputs": [
        {
          "internalType": "uint256",
          "name": "",
          "type": "uint256"
        }
      ],
      "name": "Answers_with_Question",
      "outputs": [
        {
          "internalType": "uint256",
          "name": "question_no",
          "type": "uint256"
        },
        {
          "internalType": "string",
          "name": "type_of_answer",
          "type": "string"
        }
      ],
      "stateMutability": "view",
      "type": "function",
      "constant": true
    },
    {
      "inputs": [
        {
          "internalType": "uint256",
          "name": "",
          "type": "uint256"
        }
      ],
      "name": "Questions",
      "outputs": [
        {
          "internalType": "string",
          "name": "",
          "type": "string"
        }
      ],
      "stateMutability": "view",
      "type": "function",
      "constant": true
    },
    {
      "inputs": [
        {
          "internalType": "uint256",
          "name": "",
          "type": "uint256"
        }
      ],
      "name": "Questions_And_Answers",
      "outputs": [
        {
          "internalType": "uint256",
          "name": "question",
          "type": "uint256"
        },
        {
          "internalType": "string",
          "name": "answer",
          "type": "string"
        }
      ],
      "stateMutability": "view",
      "type": "function",
      "constant": true
    },
    {
      "inputs": [],
      "name": "chairperson",
      "outputs": [
        {
          "internalType": "address",
          "name": "",
          "type": "address"
        }
      ],
      "stateMutability": "view",
      "type": "function",
      "constant": true
    },
    {
      "inputs": [
        {
          "internalType": "uint256",
          "name": "",
          "type": "uint256"
        }
      ],
      "name": "keys",
      "outputs": [
        {
          "internalType": "uint256",
          "name": "",
          "type": "uint256"
        }
      ],
      "stateMutability": "view",
      "type": "function",
      "constant": true
    },
    {
      "inputs": [],
      "name": "start",
      "outputs": [
        {
          "internalType": "bool",
          "name": "",
          "type": "bool"
        }
      ],
      "stateMutability": "view",
      "type": "function",
      "constant": true
    },
    {
      "inputs": [
        {
          "internalType": "address",
          "name": "",
          "type": "address"
        }
      ],
      "name": "users",
      "outputs": [
        {
          "internalType": "address",
          "name": "user_address",
          "type": "address"
        },
        {
          "internalType": "bool",
          "name": "registered",
          "type": "bool"
        }
      ],
      "stateMutability": "view",
      "type": "function",
      "constant": true
    },
    {
      "inputs": [],
      "name": "Start",
      "outputs": [],
      "stateMutability": "nonpayable",
      "type": "function"
    },
    {
      "inputs": [
        {
          "internalType": "bool",
          "name": "a",
          "type": "bool"
        }
      ],
      "name": "set_isReset",
      "outputs": [],
      "stateMutability": "nonpayable",
      "type": "function"
    },
    {
      "inputs": [],
      "name": "get_isReset",
      "outputs": [
        {
          "internalType": "bool",
          "name": "",
          "type": "bool"
        }
      ],
      "stateMutability": "view",
      "type": "function",
      "constant": true
    },
    {
      "inputs": [],
      "name": "no_of_q",
      "outputs": [
        {
          "internalType": "uint256",
          "name": "",
          "type": "uint256"
        }
      ],
      "stateMutability": "view",
      "type": "function",
      "constant": true
    },
    {
      "inputs": [
        {
          "internalType": "string[]",
          "name": "question",
          "type": "string[]"
        },
        {
          "internalType": "uint256",
          "name": "no_of_qu",
          "type": "uint256"
        }
      ],
      "name": "questions_input",
      "outputs": [],
      "stateMutability": "nonpayable",
      "type": "function"
    },
    {
      "inputs": [
        {
          "internalType": "uint256",
          "name": "q_no",
          "type": "uint256"
        },
        {
          "internalType": "string[4]",
          "name": "answer",
          "type": "string[4]"
        },
        {
          "internalType": "string",
          "name": "t",
          "type": "string"
        }
      ],
      "name": "answers_input",
      "outputs": [],
      "stateMutability": "nonpayable",
      "type": "function"
    },
    {
      "inputs": [],
      "name": "register",
      "outputs": [],
      "stateMutability": "nonpayable",
      "type": "function"
    },
    {
      "inputs": [
        {
          "internalType": "uint256",
          "name": "question_no",
          "type": "uint256"
        },
        {
          "internalType": "string",
          "name": "answer1",
          "type": "string"
        }
      ],
      "name": "answers",
      "outputs": [],
      "stateMutability": "nonpayable",
      "type": "function"
    },
    {
      "inputs": [
        {
          "internalType": "uint256",
          "name": "question_no",
          "type": "uint256"
        }
      ],
      "name": "getAnswersForQuestion",
      "outputs": [
        {
          "internalType": "string[]",
          "name": "",
          "type": "string[]"
        }
      ],
      "stateMutability": "view",
      "type": "function",
      "constant": true
    },
    {
      "inputs": [
        {
          "internalType": "uint256",
          "name": "q_no",
          "type": "uint256"
        }
      ],
      "name": "get_Questions",
      "outputs": [
        {
          "internalType": "string",
          "name": "",
          "type": "string"
        }
      ],
      "stateMutability": "view",
      "type": "function",
      "constant": true
    },
    {
      "inputs": [
        {
          "internalType": "uint256",
          "name": "q_no",
          "type": "uint256"
        }
      ],
      "name": "get_options",
      "outputs": [
        {
          "internalType": "string[4]",
          "name": "",
          "type": "string[4]"
        }
      ],
      "stateMutability": "view",
      "type": "function",
      "constant": true
    },
    {
      "inputs": [
        {
          "internalType": "uint256",
          "name": "q_no",
          "type": "uint256"
        }
      ],
      "name": "get_type",
      "outputs": [
        {
          "internalType": "string",
          "name": "",
          "type": "string"
        }
      ],
      "stateMutability": "view",
      "type": "function",
      "constant": true
    },
    {
      "inputs": [],
      "name": "reset",
      "outputs": [],
      "stateMutability": "nonpayable",
      "type": "function"
    }
  ],
  "bytecode": "0x60806040526000600460006101000a81548160ff0219169083151502179055506000600760006101000a81548160ff02191690831515021790555034801561004657600080fd5b50336000806101000a81548173ffffffffffffffffffffffffffffffffffffffff021916908373ffffffffffffffffffffffffffffffffffffffff160217905550612eac806100966000396000f3fe608060405234801561001057600080fd5b50600436106101375760003560e01c80639dafd859116100b8578063b666c26b1161007c578063b666c26b14610364578063bc27032d14610380578063be9a6555146103b0578063c0dde3aa146103ce578063d826f88f146103fe578063ebd82cbc1461040857610137565b80639dafd8591461029a5780639e9bbdcb146102ca5780639f496ce2146102fb578063a87430ba14610317578063b080f6d61461034857610137565b80631b55ba3a116100ff5780631b55ba3a146101f65780632e4176cf1461020057806335dcf0b01461021e57806374b0b6cf1461024e5780638f9fce9e1461027e57610137565b806303703a4d1461013c5780630cb6aaf11461016d5780630da2c72c1461019d5780631aa3a008146101bb5780631acb563b146101c5575b600080fd5b61015660048036038101906101519190611a9f565b610426565b604051610164929190611b6b565b60405180910390f35b61018760048036038101906101829190611a9f565b6104d2565b6040516101949190611b9b565b60405180910390f35b6101a56104f6565b6040516101b29190611b9b565b60405180910390f35b6101c3610503565b005b6101df60048036038101906101da9190611a9f565b6107bd565b6040516101ed929190611b6b565b60405180910390f35b6101fe610879565b005b610208610896565b6040516102159190611bf7565b60405180910390f35b61023860048036038101906102339190611a9f565b6108ba565b6040516102459190611d1e565b60405180910390f35b61026860048036038101906102639190611a9f565b610b7d565b6040516102759190611d40565b60405180910390f35b61029860048036038101906102939190611dc7565b610c25565b005b6102b460048036038101906102af9190611a9f565b610dcc565b6040516102c19190611d40565b60405180910390f35b6102e460048036038101906102df9190611a9f565b610e78565b6040516102f2929190611b6b565b60405180910390f35b61031560048036038101906103109190612026565b610f34565b005b610331600480360381019061032c91906120dd565b6110fc565b60405161033f929190612125565b60405180910390f35b610362600480360381019061035d91906121a4565b61114d565b005b61037e60048036038101906103799190612230565b611337565b005b61039a60048036038101906103959190611a9f565b611354565b6040516103a791906122ff565b60405180910390f35b6103b861148b565b6040516103c59190612321565b60405180910390f35b6103e860048036038101906103e39190611a9f565b61149e565b6040516103f59190611d40565b60405180910390f35b6104066115a2565b005b610410611905565b60405161041d9190612321565b60405180910390f35b600860205280600052604060002060009150905080600001549080600501805461044f9061236b565b80601f016020809104026020016040519081016040528092919081815260200182805461047b9061236b565b80156104c85780601f1061049d576101008083540402835291602001916104c8565b820191906000526020600020905b8154815290600101906020018083116104ab57829003601f168201915b5050505050905082565b600981815481106104e257600080fd5b906000526020600020016000915090505481565b6000600180549050905090565b6000339050600460009054906101000a900460ff16610557576040517f08c379a000000000000000000000000000000000000000000000000000000000815260040161054e906123e8565b60405180910390fd5b60008054906101000a900473ffffffffffffffffffffffffffffffffffffffff1673ffffffffffffffffffffffffffffffffffffffff163373ffffffffffffffffffffffffffffffffffffffff16036105e5576040517f08c379a00000000000000000000000000000000000000000000000000000000081526004016105dc90612454565b60405180910390fd5b60001515600660008373ffffffffffffffffffffffffffffffffffffffff1673ffffffffffffffffffffffffffffffffffffffff16815260200190815260200160002060000160149054906101000a900460ff1615151461067b576040517f08c379a0000000000000000000000000000000000000000000000000000000008152600401610672906124c0565b60405180910390fd5b80600660008373ffffffffffffffffffffffffffffffffffffffff1673ffffffffffffffffffffffffffffffffffffffff16815260200190815260200160002060000160006101000a81548173ffffffffffffffffffffffffffffffffffffffff021916908373ffffffffffffffffffffffffffffffffffffffff1602179055506001600660008373ffffffffffffffffffffffffffffffffffffffff1673ffffffffffffffffffffffffffffffffffffffff16815260200190815260200160002060000160146101000a81548160ff0219169083151502179055506005819080600181540180825580915050600190039060005260206000200160009091909190916101000a81548173ffffffffffffffffffffffffffffffffffffffff021916908373ffffffffffffffffffffffffffffffffffffffff16021790555050565b600281815481106107cd57600080fd5b90600052602060002090600202016000915090508060000154908060010180546107f69061236b565b80601f01602080910402602001604051908101604052809291908181526020018280546108229061236b565b801561086f5780601f106108445761010080835404028352916020019161086f565b820191906000526020600020905b81548152906001019060200180831161085257829003601f168201915b5050505050905082565b6001600460006101000a81548160ff021916908315150217905550565b60008054906101000a900473ffffffffffffffffffffffffffffffffffffffff1681565b6060600082101580156108d1575060018054905082105b610910576040517f08c379a00000000000000000000000000000000000000000000000000000000081526004016109079061252c565b60405180910390fd5b60008054906101000a900473ffffffffffffffffffffffffffffffffffffffff1673ffffffffffffffffffffffffffffffffffffffff163373ffffffffffffffffffffffffffffffffffffffff161461099e576040517f08c379a000000000000000000000000000000000000000000000000000000000815260040161099590612598565b60405180910390fd5b600460009054906101000a900460ff166109ed576040517f08c379a00000000000000000000000000000000000000000000000000000000081526004016109e49061262a565b60405180910390fd5b600060028054905067ffffffffffffffff811115610a0e57610a0d611e27565b5b604051908082528060200260200182016040528015610a4157816020015b6060815260200190600190039081610a2c5790505b5090506000805b600280549050811015610b6f578460028281548110610a6a57610a6961264a565b5b90600052602060002090600202016000015403610b5c5760028181548110610a9557610a9461264a565b5b90600052602060002090600202016001018054610ab19061236b565b80601f0160208091040260200160405190810160405280929190818152602001828054610add9061236b565b8015610b2a5780601f10610aff57610100808354040283529160200191610b2a565b820191906000526020600020905b815481529060010190602001808311610b0d57829003601f168201915b5050505050838381518110610b4257610b4161264a565b5b60200260200101819052508180610b58906126a8565b9250505b8080610b67906126a8565b915050610a48565b508082528192505050919050565b6060600860008381526020019081526020016000206005018054610ba09061236b565b80601f0160208091040260200160405190810160405280929190818152602001828054610bcc9061236b565b8015610c195780601f10610bee57610100808354040283529160200191610c19565b820191906000526020600020905b815481529060010190602001808311610bfc57829003601f168201915b50505050509050919050565b600460009054906101000a900460ff16610c74576040517f08c379a0000000000000000000000000000000000000000000000000000000008152600401610c6b90612762565b60405180910390fd5b60008054906101000a900473ffffffffffffffffffffffffffffffffffffffff1673ffffffffffffffffffffffffffffffffffffffff163373ffffffffffffffffffffffffffffffffffffffff1614610d02576040517f08c379a0000000000000000000000000000000000000000000000000000000008152600401610cf9906127f4565b60405180910390fd5b808383905014610d47576040517f08c379a0000000000000000000000000000000000000000000000000000000008152600401610d3e90612886565b60405180910390fd5b60005b81811015610dc6576001848483818110610d6757610d6661264a565b5b9050602002810190610d7991906128b5565b90918060018154018082558091505060019003906000526020600020016000909192909192909192909192509182610db2929190612acf565b508080610dbe906126a8565b915050610d4a565b50505050565b60018181548110610ddc57600080fd5b906000526020600020016000915090508054610df79061236b565b80601f0160208091040260200160405190810160405280929190818152602001828054610e239061236b565b8015610e705780601f10610e4557610100808354040283529160200191610e70565b820191906000526020600020905b815481529060010190602001808311610e5357829003601f168201915b505050505081565b60038181548110610e8857600080fd5b9060005260206000209060060201600091509050806000015490806005018054610eb19061236b565b80601f0160208091040260200160405190810160405280929190818152602001828054610edd9061236b565b8015610f2a5780601f10610eff57610100808354040283529160200191610f2a565b820191906000526020600020905b815481529060010190602001808311610f0d57829003601f168201915b5050505050905082565b600460009054906101000a900460ff16610f83576040517f08c379a0000000000000000000000000000000000000000000000000000000008152600401610f7a90612762565b60405180910390fd5b60008054906101000a900473ffffffffffffffffffffffffffffffffffffffff1673ffffffffffffffffffffffffffffffffffffffff163373ffffffffffffffffffffffffffffffffffffffff1614611011576040517f08c379a000000000000000000000000000000000000000000000000000000000815260040161100890612c11565b60405180910390fd5b60008310158015611026575060018054905083105b611065576040517f08c379a000000000000000000000000000000000000000000000000000000000815260040161105c9061252c565b60405180910390fd5b60405180606001604052808481526020018381526020018281525060086000858152602001908152602001600020600082015181600001556020820151816001019060046110b492919061191c565b5060408201518160050190816110ca9190612c31565b509050506009839080600181540180825580915050600190039060005260206000200160009091909190915055505050565b60066020528060005260406000206000915090508060000160009054906101000a900473ffffffffffffffffffffffffffffffffffffffff16908060000160149054906101000a900460ff16905082565b60008310158015611162575060018054905083105b6111a1576040517f08c379a00000000000000000000000000000000000000000000000000000000081526004016111989061252c565b60405180910390fd5b600033905060011515600660008373ffffffffffffffffffffffffffffffffffffffff1673ffffffffffffffffffffffffffffffffffffffff16815260200190815260200160002060000160149054906101000a900460ff1615151461123c576040517f08c379a000000000000000000000000000000000000000000000000000000000815260040161123390612d4f565b60405180910390fd5b600460009054906101000a900460ff1661128b576040517f08c379a000000000000000000000000000000000000000000000000000000000815260040161128290612dbb565b60405180910390fd5b6002604051806040016040528086815260200185858080601f016020809104026020016040519081016040528093929190818152602001838380828437600081840152601f19601f82011690508083019250505050505050815250908060018154018082558091505060019003906000526020600020906002020160009091909190915060008201518160000155602082015181600101908161132e9190612c31565b50505050505050565b80600760006101000a81548160ff02191690831515021790555050565b61135c611968565b60008210158015611371575060018054905082105b6113b0576040517f08c379a00000000000000000000000000000000000000000000000000000000081526004016113a79061252c565b60405180910390fd5b60086000838152602001908152602001600020600101600480602002604051908101604052809291906000905b828210156114805783820180546113f39061236b565b80601f016020809104026020016040519081016040528092919081815260200182805461141f9061236b565b801561146c5780601f106114415761010080835404028352916020019161146c565b820191906000526020600020905b81548152906001019060200180831161144f57829003601f168201915b5050505050815260200190600101906113dd565b505050509050919050565b600460009054906101000a900460ff1681565b6060600082101580156114b5575060018054905082105b6114f4576040517f08c379a00000000000000000000000000000000000000000000000000000000081526004016114eb9061252c565b60405180910390fd5b600182815481106115085761150761264a565b5b90600052602060002001805461151d9061236b565b80601f01602080910402602001604051908101604052809291908181526020018280546115499061236b565b80156115965780601f1061156b57610100808354040283529160200191611596565b820191906000526020600020905b81548152906001019060200180831161157957829003601f168201915b50505050509050919050565b60008054906101000a900473ffffffffffffffffffffffffffffffffffffffff1673ffffffffffffffffffffffffffffffffffffffff163373ffffffffffffffffffffffffffffffffffffffff1614611630576040517f08c379a000000000000000000000000000000000000000000000000000000000815260040161162790612e27565b60405180910390fd5b6000600460006101000a81548160ff0219169083151502179055506001600760006101000a81548160ff0219169083151502179055505b600060028054905011156116bd57600280548061168757611686612e47565b5b60019003818190600052602060002090600202016000808201600090556001820160006116b4919061198f565b50509055611667565b60005b60058054905081101561179b5760066000600583815481106116e5576116e461264a565b5b9060005260206000200160009054906101000a900473ffffffffffffffffffffffffffffffffffffffff1673ffffffffffffffffffffffffffffffffffffffff1673ffffffffffffffffffffffffffffffffffffffff168152602001908152602001600020600080820160006101000a81549073ffffffffffffffffffffffffffffffffffffffff02191690556000820160146101000a81549060ff021916905550508080611793906126a8565b9150506116c0565b505b600060018054905011156117e05760018054806117bd576117bc612e47565b5b6001900381819060005260206000200160006117d9919061198f565b905561179d565b5b6000600380549050111561184757600380548061180157611800612e47565b5b600190038181906000526020600020906006020160008082016000905560018201600061182e91906119cf565b60058201600061183e919061198f565b505090556117e1565b60005b6009805490508110156118c657600860006009838154811061186f5761186e61264a565b5b906000526020600020015481526020019081526020016000206000808201600090556001820160006118a191906119cf565b6005820160006118b1919061198f565b505080806118be906126a8565b91505061184a565b505b600060098054905011156119035760098054806118e8576118e7612e47565b5b600190038181906000526020600020016000905590556118c8565b565b6000600760009054906101000a900460ff16905090565b8260048101928215611957579160200282015b828111156119565782518290816119469190612c31565b509160200191906001019061192f565b5b5090506119649190611a14565b5090565b60405180608001604052806004905b60608152602001906001900390816119775790505090565b50805461199b9061236b565b6000825580601f106119ad57506119cc565b601f0160209004906000526020600020908101906119cb9190611a38565b5b50565b50600081816119de919061198f565b50600101600081816119f0919061198f565b5060010160008181611a02919061198f565b506001016000611a12919061198f565b565b5b80821115611a345760008181611a2b919061198f565b50600101611a15565b5090565b5b80821115611a51576000816000905550600101611a39565b5090565b6000604051905090565b600080fd5b600080fd5b6000819050919050565b611a7c81611a69565b8114611a8757600080fd5b50565b600081359050611a9981611a73565b92915050565b600060208284031215611ab557611ab4611a5f565b5b6000611ac384828501611a8a565b91505092915050565b611ad581611a69565b82525050565b600081519050919050565b600082825260208201905092915050565b60005b83811015611b15578082015181840152602081019050611afa565b60008484015250505050565b6000601f19601f8301169050919050565b6000611b3d82611adb565b611b478185611ae6565b9350611b57818560208601611af7565b611b6081611b21565b840191505092915050565b6000604082019050611b806000830185611acc565b8181036020830152611b928184611b32565b90509392505050565b6000602082019050611bb06000830184611acc565b92915050565b600073ffffffffffffffffffffffffffffffffffffffff82169050919050565b6000611be182611bb6565b9050919050565b611bf181611bd6565b82525050565b6000602082019050611c0c6000830184611be8565b92915050565b600081519050919050565b600082825260208201905092915050565b6000819050602082019050919050565b600082825260208201905092915050565b6000611c5a82611adb565b611c648185611c3e565b9350611c74818560208601611af7565b611c7d81611b21565b840191505092915050565b6000611c948383611c4f565b905092915050565b6000602082019050919050565b6000611cb482611c12565b611cbe8185611c1d565b935083602082028501611cd085611c2e565b8060005b85811015611d0c5784840389528151611ced8582611c88565b9450611cf883611c9c565b925060208a01995050600181019050611cd4565b50829750879550505050505092915050565b60006020820190508181036000830152611d388184611ca9565b905092915050565b60006020820190508181036000830152611d5a8184611b32565b905092915050565b600080fd5b600080fd5b600080fd5b60008083601f840112611d8757611d86611d62565b5b8235905067ffffffffffffffff811115611da457611da3611d67565b5b602083019150836020820283011115611dc057611dbf611d6c565b5b9250929050565b600080600060408486031215611de057611ddf611a5f565b5b600084013567ffffffffffffffff811115611dfe57611dfd611a64565b5b611e0a86828701611d71565b93509350506020611e1d86828701611a8a565b9150509250925092565b7f4e487b7100000000000000000000000000000000000000000000000000000000600052604160045260246000fd5b611e5f82611b21565b810181811067ffffffffffffffff82111715611e7e57611e7d611e27565b5b80604052505050565b6000611e91611a55565b9050611e9d8282611e56565b919050565b600067ffffffffffffffff821115611ebd57611ebc611e27565b5b602082029050919050565b600080fd5b600067ffffffffffffffff821115611ee857611ee7611e27565b5b611ef182611b21565b9050602081019050919050565b82818337600083830152505050565b6000611f20611f1b84611ecd565b611e87565b905082815260208101848484011115611f3c57611f3b611ec8565b5b611f47848285611efe565b509392505050565b600082601f830112611f6457611f63611d62565b5b8135611f74848260208601611f0d565b91505092915050565b6000611f90611f8b84611ea2565b611e87565b90508060208402830185811115611faa57611fa9611d6c565b5b835b81811015611ff157803567ffffffffffffffff811115611fcf57611fce611d62565b5b808601611fdc8982611f4f565b85526020850194505050602081019050611fac565b5050509392505050565b600082601f8301126120105761200f611d62565b5b600461201d848285611f7d565b91505092915050565b60008060006060848603121561203f5761203e611a5f565b5b600061204d86828701611a8a565b935050602084013567ffffffffffffffff81111561206e5761206d611a64565b5b61207a86828701611ffb565b925050604084013567ffffffffffffffff81111561209b5761209a611a64565b5b6120a786828701611f4f565b9150509250925092565b6120ba81611bd6565b81146120c557600080fd5b50565b6000813590506120d7816120b1565b92915050565b6000602082840312156120f3576120f2611a5f565b5b6000612101848285016120c8565b91505092915050565b60008115159050919050565b61211f8161210a565b82525050565b600060408201905061213a6000830185611be8565b6121476020830184612116565b9392505050565b60008083601f84011261216457612163611d62565b5b8235905067ffffffffffffffff81111561218157612180611d67565b5b60208301915083600182028301111561219d5761219c611d6c565b5b9250929050565b6000806000604084860312156121bd576121bc611a5f565b5b60006121cb86828701611a8a565b935050602084013567ffffffffffffffff8111156121ec576121eb611a64565b5b6121f88682870161214e565b92509250509250925092565b61220d8161210a565b811461221857600080fd5b50565b60008135905061222a81612204565b92915050565b60006020828403121561224657612245611a5f565b5b60006122548482850161221b565b91505092915050565b600060049050919050565b600081905092915050565b6000819050919050565b6000602082019050919050565b60006122958261225d565b61229f8185612268565b9350836020820285016122b185612273565b8060005b858110156122ed57848403895281516122ce8582611c88565b94506122d98361227d565b925060208a019950506001810190506122b5565b50829750879550505050505092915050565b60006020820190508181036000830152612319818461228a565b905092915050565b60006020820190506123366000830184612116565b92915050565b7f4e487b7100000000000000000000000000000000000000000000000000000000600052602260045260246000fd5b6000600282049050600182168061238357607f821691505b6020821081036123965761239561233c565b5b50919050565b7f63616e6e6f74207265676973746572206265666f7265207374617274696e6700600082015250565b60006123d2601f83611ae6565b91506123dd8261239c565b602082019050919050565b60006020820190508181036000830152612401816123c5565b9050919050565b7f6368616972706572736f6e2063616e6e6f742072656769737465720000000000600082015250565b600061243e601b83611ae6565b915061244982612408565b602082019050919050565b6000602082019050818103600083015261246d81612431565b9050919050565b7f7573657220697320616c72656164792072656769737465726564000000000000600082015250565b60006124aa601a83611ae6565b91506124b582612474565b602082019050919050565b600060208201905081810360008301526124d98161249d565b9050919050565b7f496e76616c6964207175657374696f6e206e756d626572000000000000000000600082015250565b6000612516601783611ae6565b9150612521826124e0565b602082019050919050565b6000602082019050818103600083015261254581612509565b9050919050565b7f5468652075736572206973206e6f742061206368616972706572736f6e000000600082015250565b6000612582601d83611ae6565b915061258d8261254c565b602082019050919050565b600060208201905081810360008301526125b181612575565b9050919050565b7f43616e6e6f742067657420616e7377657273206265666f72652073746172746960008201527f6e67000000000000000000000000000000000000000000000000000000000000602082015250565b6000612614602283611ae6565b915061261f826125b8565b604082019050919050565b6000602082019050818103600083015261264381612607565b9050919050565b7f4e487b7100000000000000000000000000000000000000000000000000000000600052603260045260246000fd5b7f4e487b7100000000000000000000000000000000000000000000000000000000600052601160045260246000fd5b60006126b382611a69565b91507fffffffffffffffffffffffffffffffffffffffffffffffffffffffffffffffff82036126e5576126e4612679565b5b600182019050919050565b7f5175657374696f6e20696e707574206973206e6f7420616c6c6f77656420626560008201527f666f7265207374617274696e672e000000000000000000000000000000000000602082015250565b600061274c602e83611ae6565b9150612757826126f0565b604082019050919050565b6000602082019050818103600083015261277b8161273f565b9050919050565b7f6f6e6c79206368616972706572736f6e20697320616c6c6f77656420746f206960008201527f6e707574207175657374696f6e00000000000000000000000000000000000000602082015250565b60006127de602d83611ae6565b91506127e982612782565b604082019050919050565b6000602082019050818103600083015261280d816127d1565b9050919050565b7f6e6f206f66207175657374696f6e732073686f756c6420626520657175616c2060008201527f746f206d656e74696f6e65640000000000000000000000000000000000000000602082015250565b6000612870602c83611ae6565b915061287b82612814565b604082019050919050565b6000602082019050818103600083015261289f81612863565b9050919050565b600080fd5b600080fd5b600080fd5b600080833560016020038436030381126128d2576128d16128a6565b5b80840192508235915067ffffffffffffffff8211156128f4576128f36128ab565b5b6020830192506001820236038313156129105761290f6128b0565b5b509250929050565b600082905092915050565b60008190508160005260206000209050919050565b60006020601f8301049050919050565b600082821b905092915050565b6000600883026129857fffffffffffffffffffffffffffffffffffffffffffffffffffffffffffffffff82612948565b61298f8683612948565b95508019841693508086168417925050509392505050565b6000819050919050565b60006129cc6129c76129c284611a69565b6129a7565b611a69565b9050919050565b6000819050919050565b6129e6836129b1565b6129fa6129f2826129d3565b848454612955565b825550505050565b600090565b612a0f612a02565b612a1a8184846129dd565b505050565b5b81811015612a3e57612a33600082612a07565b600181019050612a20565b5050565b601f821115612a8357612a5481612923565b612a5d84612938565b81016020851015612a6c578190505b612a80612a7885612938565b830182612a1f565b50505b505050565b600082821c905092915050565b6000612aa660001984600802612a88565b1980831691505092915050565b6000612abf8383612a95565b9150826002028217905092915050565b612ad98383612918565b67ffffffffffffffff811115612af257612af1611e27565b5b612afc825461236b565b612b07828285612a42565b6000601f831160018114612b365760008415612b24578287013590505b612b2e8582612ab3565b865550612b96565b601f198416612b4486612923565b60005b82811015612b6c57848901358255600182019150602085019450602081019050612b47565b86831015612b895784890135612b85601f891682612a95565b8355505b6001600288020188555050505b50505050505050565b7f6f6e6c79206368616972706572736f6e20697320616c6c6f77656420746f206960008201527f6e707574206f7074696f6e730000000000000000000000000000000000000000602082015250565b6000612bfb602c83611ae6565b9150612c0682612b9f565b604082019050919050565b60006020820190508181036000830152612c2a81612bee565b9050919050565b612c3a82611adb565b67ffffffffffffffff811115612c5357612c52611e27565b5b612c5d825461236b565b612c68828285612a42565b600060209050601f831160018114612c9b5760008415612c89578287015190505b612c938582612ab3565b865550612cfb565b601f198416612ca986612923565b60005b82811015612cd157848901518255600182019150602085019450602081019050612cac565b86831015612cee5784890151612cea601f891682612a95565b8355505b6001600288020188555050505b505050505050565b7f75736572206973206e6f74207265676973746572656400000000000000000000600082015250565b6000612d39601683611ae6565b9150612d4482612d03565b602082019050919050565b60006020820190508181036000830152612d6881612d2c565b9050919050565b7f63616e6e6f7420616e73776572206265666f7265207374617274696e67000000600082015250565b6000612da5601d83611ae6565b9150612db082612d6f565b602082019050919050565b60006020820190508181036000830152612dd481612d98565b9050919050565b7f7468652075736572206973206e6f74206368616972706572736f6e0000000000600082015250565b6000612e11601b83611ae6565b9150612e1c82612ddb565b602082019050919050565b60006020820190508181036000830152612e4081612e04565b9050919050565b7f4e487b7100000000000000000000000000000000000000000000000000000000600052603160045260246000fdfea26469706673582212200cdf25d7cef6c5a246bdd983660b09ace35b310f200f0b215d6b9454368e7d7364736f6c63430008110033",
  "immutableReferences": {},
  "source": "pragma solidity ^0.8.17;\r\n// SPDX-License-Identifier: GPL-3.0\r\ncontract feedback {\r\n    address public chairperson;\r\n   \r\n    string[] public Questions;\r\n    struct questions_and_answers\r\n    {\r\n        uint question;\r\n        string answer;\r\n    }\r\n    questions_and_answers[] public Questions_And_Answers;\r\n    struct User\r\n    {\r\n        address user_address;\r\n        \r\n        bool registered;\r\n    }\r\n    struct answers_with_question\r\n    {\r\n        uint  question_no;\r\n        string[4] answers;\r\n        string type_of_answer;\r\n    }\r\n    answers_with_question[] public Answers_with_Question;\r\n    bool public start = false;\r\n    address[] registered_users;\r\n    mapping(address=>User) public users;\r\n    bool isReset = false;\r\n    constructor() {\r\n        chairperson = msg.sender;\r\n    }\r\n\r\n    function Start() public {\r\n        //require(!start, \"already started\");\r\n        start = true;\r\n    }\r\n    function set_isReset(bool a) public {\r\n        isReset = a;\r\n    }\r\n    function get_isReset() public view returns (bool) {\r\n        return isReset;\r\n    }\r\n    function no_of_q() public view returns (uint){\r\n        return Questions.length;\r\n    }\r\n    function questions_input(string[] calldata question,uint no_of_qu) public {\r\n        require(start, \"Question input is not allowed before starting.\");\r\n        require(msg.sender==chairperson,\"only chairperson is allowed to input question\");\r\n        require(question.length==no_of_qu,\"no of questions should be equal to mentioned\");\r\n        for(uint i=0;i<no_of_qu;i++)\r\n        {\r\n            Questions.push(question[i]);\r\n        }\r\n        \r\n    }\r\n   // Define a mapping to store answers for each question\r\nmapping(uint => answers_with_question) public AnswersMap;\r\n uint[] public keys; // This array will store the keys\r\nfunction answers_input(uint q_no, string[4] memory answer, string memory t) public {\r\n    require(start, \"Question input is not allowed before starting.\");\r\n    require(msg.sender == chairperson, \"only chairperson is allowed to input options\");\r\n    require(q_no >= 0 && q_no < Questions.length, \"Invalid question number\");\r\n\r\n    // Store answers using the mapping\r\n    AnswersMap[q_no] = answers_with_question({\r\n        question_no: q_no,\r\n        answers: answer,\r\n        type_of_answer: t\r\n    });\r\n     keys.push(q_no); // Add the key to the keys array\r\n}\r\n    function register() public \r\n    {     \r\n          address person = msg.sender;\r\n          require(start, \"cannot register before starting\");\r\n        require(msg.sender!=chairperson,\"chairperson cannot register\");\r\n        require(users[person].registered==false,\"user is already registered\");\r\n      \r\n        users[person].user_address = person;\r\n        users[person].registered = true;\r\n        registered_users.push(person);\r\n\r\n    }\r\n    function answers(uint question_no,string calldata answer1) public {\r\n        require(question_no >= 0 && question_no < Questions.length, \"Invalid question number\");\r\n         address person = msg.sender;\r\n         require(users[person].registered==true,\"user is not registered\");\r\n         require(start, \"cannot answer before starting\");\r\n         Questions_And_Answers.push(questions_and_answers({\r\n             question:question_no,\r\n             answer:answer1\r\n         }));\r\n    }\r\n  function getAnswersForQuestion(uint question_no) public view returns (string[] memory) {\r\n    require(question_no >= 0 && question_no < Questions.length, \"Invalid question number\");\r\n    require(msg.sender == chairperson, \"The user is not a chairperson\");\r\n    require(start, \"Cannot get answers before starting\");\r\n\r\n    string[] memory answer = new string[](Questions_And_Answers.length); // Initialize an array with a fixed length\r\n\r\n    uint k = 0;\r\n    for (uint i = 0; i < Questions_And_Answers.length; i++) {\r\n        if (Questions_And_Answers[i].question == question_no) {\r\n            answer[k] = Questions_And_Answers[i].answer;\r\n            k++;\r\n        }\r\n    }\r\n\r\n    // Resize the array to the correct length\r\n    assembly {\r\n        mstore(answer, k)\r\n    }\r\n\r\n    return answer;\r\n}\r\nfunction get_Questions(uint q_no) public view returns(string memory) {\r\n     require(q_no >= 0 && q_no < Questions.length, \"Invalid question number\");\r\n    return Questions[q_no];\r\n}\r\n\r\nfunction get_options(uint q_no) public view returns (string[4] memory){\r\n    require(q_no >= 0 && q_no < Questions.length, \"Invalid question number\");\r\n    \r\n   return AnswersMap[q_no].answers;\r\n}\r\nfunction get_type(uint q_no) public view returns (string memory){\r\n    return AnswersMap[q_no].type_of_answer;\r\n\r\n}\r\n\r\nfunction reset() public \r\n{   require(msg.sender==chairperson,\"the user is not chairperson\");\r\n    start = false;\r\n    isReset = true;\r\n    //Questions_And_Answers\r\n    //users\r\n    //Questions\r\n   /* for(uint i=0;i<Questions_And_Answers.length;i++)\r\n    {\r\n        delete Questions_And_Answers[i];\r\n    }*/\r\n    while(Questions_And_Answers.length>0)\r\n    {\r\n        Questions_And_Answers.pop();\r\n    }\r\n    \r\n    for(uint i=0;i<registered_users.length;i++)\r\n    {\r\n        delete users[registered_users[i]];\r\n    }\r\n    /*for(uint i=0;i<Questions.length;i++)\r\n    {\r\n        delete Questions[i];\r\n    }*/\r\n    while(Questions.length>0)\r\n    {\r\n        Questions.pop();\r\n    }\r\n    \r\n    /*for(uint i=0;i<Answers_with_Question.length;i++)\r\n    {\r\n        delete Answers_with_Question[i];\r\n    }*/\r\n    while(Answers_with_Question.length>0)\r\n    {\r\n        Answers_with_Question.pop();\r\n    }\r\n   \r\n     // Iterate through the keys and delete the values\r\n        for (uint i = 0; i < keys.length; i++) {\r\n            delete AnswersMap[keys[i]];\r\n        }\r\n        // Clear the keys array\r\n        //delete keys;\r\n        while(keys.length>0)\r\n        {\r\n            keys.pop();\r\n        }\r\n        \r\n}\r\n\r\n}",
  "sourcePath": "C:\\Users\\lakka\\OneDrive\\Documents\\Fiducia\\voting-gui\\contracts\\feedback.sol",
  "compiler": {
    "name": "solc",
    "version": "0.8.17+commit.8df45f5f.Emscripten.clang"
  },
  "schemaVersion": "3.4.11",
  "updatedAt": "2023-10-10T07:17:27.096Z",
  "networkType": "ethereum",
  "devdoc": {
    "kind": "dev",
    "methods": {},
    "version": 1
  },
  "userdoc": {
    "kind": "user",
    "methods": {},
    "version": 1
  }
}