{
  "contractName": "feedback",
  "abi": [
    {
      "inputs": [],
      "stateMutability": "nonpayable",
      "type": "constructor"
    },
    {
      "inputs": [
        {
          "internalType": "uint256",
          "name": "",
          "type": "uint256"
        }
      ],
      "name": "AnswersMap",
      "outputs": [
        {
          "internalType": "uint256",
          "name": "question_no",
          "type": "uint256"
        },
        {
          "internalType": "string",
          "name": "type_of_answer",
          "type": "string"
        }
      ],
      "stateMutability": "view",
      "type": "function",
      "constant": true
    },
    {
      "inputs": [
        {
          "internalType": "uint256",
          "name": "",
          "type": "uint256"
        }
      ],
      "name": "Answers_with_Question",
      "outputs": [
        {
          "internalType": "uint256",
          "name": "question_no",
          "type": "uint256"
        },
        {
          "internalType": "string",
          "name": "type_of_answer",
          "type": "string"
        }
      ],
      "stateMutability": "view",
      "type": "function",
      "constant": true
    },
    {
      "inputs": [
        {
          "internalType": "uint256",
          "name": "",
          "type": "uint256"
        }
      ],
      "name": "Questions",
      "outputs": [
        {
          "internalType": "string",
          "name": "",
          "type": "string"
        }
      ],
      "stateMutability": "view",
      "type": "function",
      "constant": true
    },
    {
      "inputs": [
        {
          "internalType": "uint256",
          "name": "",
          "type": "uint256"
        }
      ],
      "name": "Questions_And_Answers",
      "outputs": [
        {
          "internalType": "uint256",
          "name": "question",
          "type": "uint256"
        },
        {
          "internalType": "string",
          "name": "answer",
          "type": "string"
        }
      ],
      "stateMutability": "view",
      "type": "function",
      "constant": true
    },
    {
      "inputs": [],
      "name": "chairperson",
      "outputs": [
        {
          "internalType": "address",
          "name": "",
          "type": "address"
        }
      ],
      "stateMutability": "view",
      "type": "function",
      "constant": true
    },
    {
      "inputs": [
        {
          "internalType": "uint256",
          "name": "",
          "type": "uint256"
        }
      ],
      "name": "keys",
      "outputs": [
        {
          "internalType": "uint256",
          "name": "",
          "type": "uint256"
        }
      ],
      "stateMutability": "view",
      "type": "function",
      "constant": true
    },
    {
      "inputs": [],
      "name": "start",
      "outputs": [
        {
          "internalType": "bool",
          "name": "",
          "type": "bool"
        }
      ],
      "stateMutability": "view",
      "type": "function",
      "constant": true
    },
    {
      "inputs": [
        {
          "internalType": "address",
          "name": "",
          "type": "address"
        }
      ],
      "name": "users",
      "outputs": [
        {
          "internalType": "address",
          "name": "user_address",
          "type": "address"
        },
        {
          "internalType": "bool",
          "name": "registered",
          "type": "bool"
        }
      ],
      "stateMutability": "view",
      "type": "function",
      "constant": true
    },
    {
      "inputs": [],
      "name": "Start",
      "outputs": [],
      "stateMutability": "nonpayable",
      "type": "function"
    },
    {
      "inputs": [],
      "name": "no_of_q",
      "outputs": [
        {
          "internalType": "uint256",
          "name": "",
          "type": "uint256"
        }
      ],
      "stateMutability": "view",
      "type": "function",
      "constant": true
    },
    {
      "inputs": [
        {
          "internalType": "string",
          "name": "question",
          "type": "string"
        }
      ],
      "name": "questions_input",
      "outputs": [],
      "stateMutability": "nonpayable",
      "type": "function"
    },
    {
      "inputs": [
        {
          "internalType": "uint256",
          "name": "q_no",
          "type": "uint256"
        },
        {
          "internalType": "string[4]",
          "name": "answer",
          "type": "string[4]"
        },
        {
          "internalType": "string",
          "name": "t",
          "type": "string"
        }
      ],
      "name": "answers_input",
      "outputs": [],
      "stateMutability": "nonpayable",
      "type": "function"
    },
    {
      "inputs": [],
      "name": "register",
      "outputs": [],
      "stateMutability": "nonpayable",
      "type": "function"
    },
    {
      "inputs": [
        {
          "internalType": "uint256",
          "name": "question_no",
          "type": "uint256"
        },
        {
          "internalType": "string",
          "name": "answer1",
          "type": "string"
        }
      ],
      "name": "answers",
      "outputs": [],
      "stateMutability": "nonpayable",
      "type": "function"
    },
    {
      "inputs": [
        {
          "internalType": "uint256",
          "name": "question_no",
          "type": "uint256"
        }
      ],
      "name": "getAnswersForQuestion",
      "outputs": [
        {
          "internalType": "string[]",
          "name": "",
          "type": "string[]"
        }
      ],
      "stateMutability": "view",
      "type": "function",
      "constant": true
    },
    {
      "inputs": [
        {
          "internalType": "uint256",
          "name": "q_no",
          "type": "uint256"
        }
      ],
      "name": "get_Questions",
      "outputs": [
        {
          "internalType": "string",
          "name": "",
          "type": "string"
        }
      ],
      "stateMutability": "view",
      "type": "function",
      "constant": true
    },
    {
      "inputs": [
        {
          "internalType": "uint256",
          "name": "q_no",
          "type": "uint256"
        }
      ],
      "name": "get_options",
      "outputs": [
        {
          "internalType": "string[4]",
          "name": "",
          "type": "string[4]"
        }
      ],
      "stateMutability": "view",
      "type": "function",
      "constant": true
    },
    {
      "inputs": [
        {
          "internalType": "uint256",
          "name": "q_no",
          "type": "uint256"
        }
      ],
      "name": "get_type",
      "outputs": [
        {
          "internalType": "string",
          "name": "",
          "type": "string"
        }
      ],
      "stateMutability": "view",
      "type": "function",
      "constant": true
    },
    {
      "inputs": [],
      "name": "reset",
      "outputs": [],
      "stateMutability": "nonpayable",
      "type": "function"
    }
  ],
  "bytecode": "0x60806040526000600460006101000a81548160ff02191690831515021790555034801561002b57600080fd5b50336000806101000a81548173ffffffffffffffffffffffffffffffffffffffff021916908373ffffffffffffffffffffffffffffffffffffffff160217905550612ba18061007b6000396000f3fe608060405234801561001057600080fd5b50600436106101215760003560e01c80639dafd859116100ad578063b080f6d611610071578063b080f6d614610332578063bc27032d1461034e578063be9a65551461037e578063c0dde3aa1461039c578063d826f88f146103cc57610121565b80639dafd859146102685780639e9bbdcb146102985780639f496ce2146102c9578063a87430ba146102e5578063aa2881dd1461031657610121565b80631acb563b116100f45780631acb563b146101af5780631b55ba3a146101e05780632e4176cf146101ea57806335dcf0b01461020857806374b0b6cf1461023857610121565b806303703a4d146101265780630cb6aaf1146101575780630da2c72c146101875780631aa3a008146101a5575b600080fd5b610140600480360381019061013b9190611989565b6103d6565b60405161014e929190611a55565b60405180910390f35b610171600480360381019061016c9190611989565b610482565b60405161017e9190611a85565b60405180910390f35b61018f6104a6565b60405161019c9190611a85565b60405180910390f35b6101ad6104b3565b005b6101c960048036038101906101c49190611989565b61076d565b6040516101d7929190611a55565b60405180910390f35b6101e8610829565b005b6101f2610846565b6040516101ff9190611ae1565b60405180910390f35b610222600480360381019061021d9190611989565b61086a565b60405161022f9190611c08565b60405180910390f35b610252600480360381019061024d9190611989565b610b2d565b60405161025f9190611c2a565b60405180910390f35b610282600480360381019061027d9190611989565b610bd5565b60405161028f9190611c2a565b60405180910390f35b6102b260048036038101906102ad9190611989565b610c81565b6040516102c0929190611a55565b60405180910390f35b6102e360048036038101906102de9190611e55565b610d3d565b005b6102ff60048036038101906102fa9190611f0c565b610f05565b60405161030d929190611f54565b60405180910390f35b610330600480360381019061032b9190611fd8565b610f56565b005b61034c60048036038101906103479190612025565b611075565b005b61036860048036038101906103639190611989565b61125f565b6040516103759190612127565b60405180910390f35b610386611396565b6040516103939190612149565b60405180910390f35b6103b660048036038101906103b19190611989565b6113a9565b6040516103c39190611c2a565b60405180910390f35b6103d46114ad565b005b60076020528060005260406000206000915090508060000154908060050180546103ff90612193565b80601f016020809104026020016040519081016040528092919081815260200182805461042b90612193565b80156104785780601f1061044d57610100808354040283529160200191610478565b820191906000526020600020905b81548152906001019060200180831161045b57829003601f168201915b5050505050905082565b6008818154811061049257600080fd5b906000526020600020016000915090505481565b6000600180549050905090565b6000339050600460009054906101000a900460ff16610507576040517f08c379a00000000000000000000000000000000000000000000000000000000081526004016104fe90612210565b60405180910390fd5b60008054906101000a900473ffffffffffffffffffffffffffffffffffffffff1673ffffffffffffffffffffffffffffffffffffffff163373ffffffffffffffffffffffffffffffffffffffff1603610595576040517f08c379a000000000000000000000000000000000000000000000000000000000815260040161058c9061227c565b60405180910390fd5b60001515600660008373ffffffffffffffffffffffffffffffffffffffff1673ffffffffffffffffffffffffffffffffffffffff16815260200190815260200160002060000160149054906101000a900460ff1615151461062b576040517f08c379a0000000000000000000000000000000000000000000000000000000008152600401610622906122e8565b60405180910390fd5b80600660008373ffffffffffffffffffffffffffffffffffffffff1673ffffffffffffffffffffffffffffffffffffffff16815260200190815260200160002060000160006101000a81548173ffffffffffffffffffffffffffffffffffffffff021916908373ffffffffffffffffffffffffffffffffffffffff1602179055506001600660008373ffffffffffffffffffffffffffffffffffffffff1673ffffffffffffffffffffffffffffffffffffffff16815260200190815260200160002060000160146101000a81548160ff0219169083151502179055506005819080600181540180825580915050600190039060005260206000200160009091909190916101000a81548173ffffffffffffffffffffffffffffffffffffffff021916908373ffffffffffffffffffffffffffffffffffffffff16021790555050565b6002818154811061077d57600080fd5b90600052602060002090600202016000915090508060000154908060010180546107a690612193565b80601f01602080910402602001604051908101604052809291908181526020018280546107d290612193565b801561081f5780601f106107f45761010080835404028352916020019161081f565b820191906000526020600020905b81548152906001019060200180831161080257829003601f168201915b5050505050905082565b6001600460006101000a81548160ff021916908315150217905550565b60008054906101000a900473ffffffffffffffffffffffffffffffffffffffff1681565b606060008210158015610881575060018054905082105b6108c0576040517f08c379a00000000000000000000000000000000000000000000000000000000081526004016108b790612354565b60405180910390fd5b60008054906101000a900473ffffffffffffffffffffffffffffffffffffffff1673ffffffffffffffffffffffffffffffffffffffff163373ffffffffffffffffffffffffffffffffffffffff161461094e576040517f08c379a0000000000000000000000000000000000000000000000000000000008152600401610945906123c0565b60405180910390fd5b600460009054906101000a900460ff1661099d576040517f08c379a000000000000000000000000000000000000000000000000000000000815260040161099490612452565b60405180910390fd5b600060028054905067ffffffffffffffff8111156109be576109bd611c51565b5b6040519080825280602002602001820160405280156109f157816020015b60608152602001906001900390816109dc5790505b5090506000805b600280549050811015610b1f578460028281548110610a1a57610a19612472565b5b90600052602060002090600202016000015403610b0c5760028181548110610a4557610a44612472565b5b90600052602060002090600202016001018054610a6190612193565b80601f0160208091040260200160405190810160405280929190818152602001828054610a8d90612193565b8015610ada5780601f10610aaf57610100808354040283529160200191610ada565b820191906000526020600020905b815481529060010190602001808311610abd57829003601f168201915b5050505050838381518110610af257610af1612472565b5b60200260200101819052508180610b08906124d0565b9250505b8080610b17906124d0565b9150506109f8565b508082528192505050919050565b6060600760008381526020019081526020016000206005018054610b5090612193565b80601f0160208091040260200160405190810160405280929190818152602001828054610b7c90612193565b8015610bc95780601f10610b9e57610100808354040283529160200191610bc9565b820191906000526020600020905b815481529060010190602001808311610bac57829003601f168201915b50505050509050919050565b60018181548110610be557600080fd5b906000526020600020016000915090508054610c0090612193565b80601f0160208091040260200160405190810160405280929190818152602001828054610c2c90612193565b8015610c795780601f10610c4e57610100808354040283529160200191610c79565b820191906000526020600020905b815481529060010190602001808311610c5c57829003601f168201915b505050505081565b60038181548110610c9157600080fd5b9060005260206000209060060201600091509050806000015490806005018054610cba90612193565b80601f0160208091040260200160405190810160405280929190818152602001828054610ce690612193565b8015610d335780601f10610d0857610100808354040283529160200191610d33565b820191906000526020600020905b815481529060010190602001808311610d1657829003601f168201915b5050505050905082565b600460009054906101000a900460ff16610d8c576040517f08c379a0000000000000000000000000000000000000000000000000000000008152600401610d839061258a565b60405180910390fd5b60008054906101000a900473ffffffffffffffffffffffffffffffffffffffff1673ffffffffffffffffffffffffffffffffffffffff163373ffffffffffffffffffffffffffffffffffffffff1614610e1a576040517f08c379a0000000000000000000000000000000000000000000000000000000008152600401610e119061261c565b60405180910390fd5b60008310158015610e2f575060018054905083105b610e6e576040517f08c379a0000000000000000000000000000000000000000000000000000000008152600401610e6590612354565b60405180910390fd5b6040518060600160405280848152602001838152602001828152506007600085815260200190815260200160002060008201518160000155602082015181600101906004610ebd9291906117e5565b506040820151816005019081610ed391906127e8565b509050506008839080600181540180825580915050600190039060005260206000200160009091909190915055505050565b60066020528060005260406000206000915090508060000160009054906101000a900473ffffffffffffffffffffffffffffffffffffffff16908060000160149054906101000a900460ff16905082565b600460009054906101000a900460ff16610fa5576040517f08c379a0000000000000000000000000000000000000000000000000000000008152600401610f9c9061258a565b60405180910390fd5b60008054906101000a900473ffffffffffffffffffffffffffffffffffffffff1673ffffffffffffffffffffffffffffffffffffffff163373ffffffffffffffffffffffffffffffffffffffff1614611033576040517f08c379a000000000000000000000000000000000000000000000000000000000815260040161102a9061292c565b60405180910390fd5b6001828290918060018154018082558091505060019003906000526020600020016000909192909192909192909192509182611070929190612957565b505050565b6000831015801561108a575060018054905083105b6110c9576040517f08c379a00000000000000000000000000000000000000000000000000000000081526004016110c090612354565b60405180910390fd5b600033905060011515600660008373ffffffffffffffffffffffffffffffffffffffff1673ffffffffffffffffffffffffffffffffffffffff16815260200190815260200160002060000160149054906101000a900460ff16151514611164576040517f08c379a000000000000000000000000000000000000000000000000000000000815260040161115b90612a73565b60405180910390fd5b600460009054906101000a900460ff166111b3576040517f08c379a00000000000000000000000000000000000000000000000000000000081526004016111aa90612adf565b60405180910390fd5b6002604051806040016040528086815260200185858080601f016020809104026020016040519081016040528093929190818152602001838380828437600081840152601f19601f82011690508083019250505050505050815250908060018154018082558091505060019003906000526020600020906002020160009091909190915060008201518160000155602082015181600101908161125691906127e8565b50505050505050565b611267611831565b6000821015801561127c575060018054905082105b6112bb576040517f08c379a00000000000000000000000000000000000000000000000000000000081526004016112b290612354565b60405180910390fd5b60076000838152602001908152602001600020600101600480602002604051908101604052809291906000905b8282101561138b5783820180546112fe90612193565b80601f016020809104026020016040519081016040528092919081815260200182805461132a90612193565b80156113775780601f1061134c57610100808354040283529160200191611377565b820191906000526020600020905b81548152906001019060200180831161135a57829003601f168201915b5050505050815260200190600101906112e8565b505050509050919050565b600460009054906101000a900460ff1681565b6060600082101580156113c0575060018054905082105b6113ff576040517f08c379a00000000000000000000000000000000000000000000000000000000081526004016113f690612354565b60405180910390fd5b6001828154811061141357611412612472565b5b90600052602060002001805461142890612193565b80601f016020809104026020016040519081016040528092919081815260200182805461145490612193565b80156114a15780601f10611476576101008083540402835291602001916114a1565b820191906000526020600020905b81548152906001019060200180831161148457829003601f168201915b50505050509050919050565b60008054906101000a900473ffffffffffffffffffffffffffffffffffffffff1673ffffffffffffffffffffffffffffffffffffffff163373ffffffffffffffffffffffffffffffffffffffff161461153b576040517f08c379a000000000000000000000000000000000000000000000000000000000815260040161153290612b4b565b60405180910390fd5b6000600460006101000a81548160ff02191690831515021790555060005b6002805490508110156115b6576002818154811061157a57611579612472565b5b90600052602060002090600202016000808201600090556001820160006115a19190611858565b505080806115ae906124d0565b915050611559565b5060005b6005805490508110156116955760066000600583815481106115df576115de612472565b5b9060005260206000200160009054906101000a900473ffffffffffffffffffffffffffffffffffffffff1673ffffffffffffffffffffffffffffffffffffffff1673ffffffffffffffffffffffffffffffffffffffff168152602001908152602001600020600080820160006101000a81549073ffffffffffffffffffffffffffffffffffffffff02191690556000820160146101000a81549060ff02191690555050808061168d906124d0565b9150506115ba565b5060005b6001805490508110156116e357600181815481106116ba576116b9612472565b5b9060005260206000200160006116d09190611858565b80806116db906124d0565b915050611699565b5060005b600380549050811015611754576003818154811061170857611707612472565b5b906000526020600020906006020160008082016000905560018201600061172f9190611898565b60058201600061173f9190611858565b5050808061174c906124d0565b9150506116e7565b5060005b6008805490508110156117d457600760006008838154811061177d5761177c612472565b5b906000526020600020015481526020019081526020016000206000808201600090556001820160006117af9190611898565b6005820160006117bf9190611858565b505080806117cc906124d0565b915050611758565b50600860006117e391906118dd565b565b8260048101928215611820579160200282015b8281111561181f57825182908161180f91906127e8565b50916020019190600101906117f8565b5b50905061182d91906118fe565b5090565b60405180608001604052806004905b60608152602001906001900390816118405790505090565b50805461186490612193565b6000825580601f106118765750611895565b601f0160209004906000526020600020908101906118949190611922565b5b50565b50600081816118a79190611858565b50600101600081816118b99190611858565b50600101600081816118cb9190611858565b5060010160006118db9190611858565b565b50805460008255906000526020600020908101906118fb9190611922565b50565b5b8082111561191e57600081816119159190611858565b506001016118ff565b5090565b5b8082111561193b576000816000905550600101611923565b5090565b6000604051905090565b600080fd5b600080fd5b6000819050919050565b61196681611953565b811461197157600080fd5b50565b6000813590506119838161195d565b92915050565b60006020828403121561199f5761199e611949565b5b60006119ad84828501611974565b91505092915050565b6119bf81611953565b82525050565b600081519050919050565b600082825260208201905092915050565b60005b838110156119ff5780820151818401526020810190506119e4565b60008484015250505050565b6000601f19601f8301169050919050565b6000611a27826119c5565b611a3181856119d0565b9350611a418185602086016119e1565b611a4a81611a0b565b840191505092915050565b6000604082019050611a6a60008301856119b6565b8181036020830152611a7c8184611a1c565b90509392505050565b6000602082019050611a9a60008301846119b6565b92915050565b600073ffffffffffffffffffffffffffffffffffffffff82169050919050565b6000611acb82611aa0565b9050919050565b611adb81611ac0565b82525050565b6000602082019050611af66000830184611ad2565b92915050565b600081519050919050565b600082825260208201905092915050565b6000819050602082019050919050565b600082825260208201905092915050565b6000611b44826119c5565b611b4e8185611b28565b9350611b5e8185602086016119e1565b611b6781611a0b565b840191505092915050565b6000611b7e8383611b39565b905092915050565b6000602082019050919050565b6000611b9e82611afc565b611ba88185611b07565b935083602082028501611bba85611b18565b8060005b85811015611bf65784840389528151611bd78582611b72565b9450611be283611b86565b925060208a01995050600181019050611bbe565b50829750879550505050505092915050565b60006020820190508181036000830152611c228184611b93565b905092915050565b60006020820190508181036000830152611c448184611a1c565b905092915050565b600080fd5b7f4e487b7100000000000000000000000000000000000000000000000000000000600052604160045260246000fd5b611c8982611a0b565b810181811067ffffffffffffffff82111715611ca857611ca7611c51565b5b80604052505050565b6000611cbb61193f565b9050611cc78282611c80565b919050565b600067ffffffffffffffff821115611ce757611ce6611c51565b5b602082029050919050565b600080fd5b600080fd5b600067ffffffffffffffff821115611d1757611d16611c51565b5b611d2082611a0b565b9050602081019050919050565b82818337600083830152505050565b6000611d4f611d4a84611cfc565b611cb1565b905082815260208101848484011115611d6b57611d6a611cf7565b5b611d76848285611d2d565b509392505050565b600082601f830112611d9357611d92611c4c565b5b8135611da3848260208601611d3c565b91505092915050565b6000611dbf611dba84611ccc565b611cb1565b90508060208402830185811115611dd957611dd8611cf2565b5b835b81811015611e2057803567ffffffffffffffff811115611dfe57611dfd611c4c565b5b808601611e0b8982611d7e565b85526020850194505050602081019050611ddb565b5050509392505050565b600082601f830112611e3f57611e3e611c4c565b5b6004611e4c848285611dac565b91505092915050565b600080600060608486031215611e6e57611e6d611949565b5b6000611e7c86828701611974565b935050602084013567ffffffffffffffff811115611e9d57611e9c61194e565b5b611ea986828701611e2a565b925050604084013567ffffffffffffffff811115611eca57611ec961194e565b5b611ed686828701611d7e565b9150509250925092565b611ee981611ac0565b8114611ef457600080fd5b50565b600081359050611f0681611ee0565b92915050565b600060208284031215611f2257611f21611949565b5b6000611f3084828501611ef7565b91505092915050565b60008115159050919050565b611f4e81611f39565b82525050565b6000604082019050611f696000830185611ad2565b611f766020830184611f45565b9392505050565b600080fd5b60008083601f840112611f9857611f97611c4c565b5b8235905067ffffffffffffffff811115611fb557611fb4611f7d565b5b602083019150836001820283011115611fd157611fd0611cf2565b5b9250929050565b60008060208385031215611fef57611fee611949565b5b600083013567ffffffffffffffff81111561200d5761200c61194e565b5b61201985828601611f82565b92509250509250929050565b60008060006040848603121561203e5761203d611949565b5b600061204c86828701611974565b935050602084013567ffffffffffffffff81111561206d5761206c61194e565b5b61207986828701611f82565b92509250509250925092565b600060049050919050565b600081905092915050565b6000819050919050565b6000602082019050919050565b60006120bd82612085565b6120c78185612090565b9350836020820285016120d98561209b565b8060005b8581101561211557848403895281516120f68582611b72565b9450612101836120a5565b925060208a019950506001810190506120dd565b50829750879550505050505092915050565b6000602082019050818103600083015261214181846120b2565b905092915050565b600060208201905061215e6000830184611f45565b92915050565b7f4e487b7100000000000000000000000000000000000000000000000000000000600052602260045260246000fd5b600060028204905060018216806121ab57607f821691505b6020821081036121be576121bd612164565b5b50919050565b7f63616e6e6f74207265676973746572206265666f7265207374617274696e6700600082015250565b60006121fa601f836119d0565b9150612205826121c4565b602082019050919050565b60006020820190508181036000830152612229816121ed565b9050919050565b7f6368616972706572736f6e2063616e6e6f742072656769737465720000000000600082015250565b6000612266601b836119d0565b915061227182612230565b602082019050919050565b6000602082019050818103600083015261229581612259565b9050919050565b7f7573657220697320616c72656164792072656769737465726564000000000000600082015250565b60006122d2601a836119d0565b91506122dd8261229c565b602082019050919050565b60006020820190508181036000830152612301816122c5565b9050919050565b7f496e76616c6964207175657374696f6e206e756d626572000000000000000000600082015250565b600061233e6017836119d0565b915061234982612308565b602082019050919050565b6000602082019050818103600083015261236d81612331565b9050919050565b7f5468652075736572206973206e6f742061206368616972706572736f6e000000600082015250565b60006123aa601d836119d0565b91506123b582612374565b602082019050919050565b600060208201905081810360008301526123d98161239d565b9050919050565b7f43616e6e6f742067657420616e7377657273206265666f72652073746172746960008201527f6e67000000000000000000000000000000000000000000000000000000000000602082015250565b600061243c6022836119d0565b9150612447826123e0565b604082019050919050565b6000602082019050818103600083015261246b8161242f565b9050919050565b7f4e487b7100000000000000000000000000000000000000000000000000000000600052603260045260246000fd5b7f4e487b7100000000000000000000000000000000000000000000000000000000600052601160045260246000fd5b60006124db82611953565b91507fffffffffffffffffffffffffffffffffffffffffffffffffffffffffffffffff820361250d5761250c6124a1565b5b600182019050919050565b7f5175657374696f6e20696e707574206973206e6f7420616c6c6f77656420626560008201527f666f7265207374617274696e672e000000000000000000000000000000000000602082015250565b6000612574602e836119d0565b915061257f82612518565b604082019050919050565b600060208201905081810360008301526125a381612567565b9050919050565b7f6f6e6c79206368616972706572736f6e20697320616c6c6f77656420746f206960008201527f6e707574206f7074696f6e730000000000000000000000000000000000000000602082015250565b6000612606602c836119d0565b9150612611826125aa565b604082019050919050565b60006020820190508181036000830152612635816125f9565b9050919050565b60008190508160005260206000209050919050565b60006020601f8301049050919050565b600082821b905092915050565b60006008830261269e7fffffffffffffffffffffffffffffffffffffffffffffffffffffffffffffffff82612661565b6126a88683612661565b95508019841693508086168417925050509392505050565b6000819050919050565b60006126e56126e06126db84611953565b6126c0565b611953565b9050919050565b6000819050919050565b6126ff836126ca565b61271361270b826126ec565b84845461266e565b825550505050565b600090565b61272861271b565b6127338184846126f6565b505050565b5b818110156127575761274c600082612720565b600181019050612739565b5050565b601f82111561279c5761276d8161263c565b61277684612651565b81016020851015612785578190505b61279961279185612651565b830182612738565b50505b505050565b600082821c905092915050565b60006127bf600019846008026127a1565b1980831691505092915050565b60006127d883836127ae565b9150826002028217905092915050565b6127f1826119c5565b67ffffffffffffffff81111561280a57612809611c51565b5b6128148254612193565b61281f82828561275b565b600060209050601f8311600181146128525760008415612840578287015190505b61284a85826127cc565b8655506128b2565b601f1984166128608661263c565b60005b8281101561288857848901518255600182019150602085019450602081019050612863565b868310156128a557848901516128a1601f8916826127ae565b8355505b6001600288020188555050505b505050505050565b7f6f6e6c79206368616972706572736f6e20697320616c6c6f77656420746f206960008201527f6e707574207175657374696f6e00000000000000000000000000000000000000602082015250565b6000612916602d836119d0565b9150612921826128ba565b604082019050919050565b6000602082019050818103600083015261294581612909565b9050919050565b600082905092915050565b612961838361294c565b67ffffffffffffffff81111561297a57612979611c51565b5b6129848254612193565b61298f82828561275b565b6000601f8311600181146129be57600084156129ac578287013590505b6129b685826127cc565b865550612a1e565b601f1984166129cc8661263c565b60005b828110156129f4578489013582556001820191506020850194506020810190506129cf565b86831015612a115784890135612a0d601f8916826127ae565b8355505b6001600288020188555050505b50505050505050565b7f75736572206973206e6f74207265676973746572656400000000000000000000600082015250565b6000612a5d6016836119d0565b9150612a6882612a27565b602082019050919050565b60006020820190508181036000830152612a8c81612a50565b9050919050565b7f63616e6e6f7420616e73776572206265666f7265207374617274696e67000000600082015250565b6000612ac9601d836119d0565b9150612ad482612a93565b602082019050919050565b60006020820190508181036000830152612af881612abc565b9050919050565b7f7468652075736572206973206e6f74206368616972706572736f6e0000000000600082015250565b6000612b35601b836119d0565b9150612b4082612aff565b602082019050919050565b60006020820190508181036000830152612b6481612b28565b905091905056fea26469706673582212209de54fc4d0004bb32dd6648eb154835d9d8644168bd6702279bb6e13da78197a64736f6c63430008110033",
  "immutableReferences": {},
  "source": "pragma solidity ^0.8.17;\r\n// SPDX-License-Identifier: GPL-3.0\r\ncontract feedback {\r\n    address public chairperson;\r\n   \r\n    string[] public Questions;\r\n    struct questions_and_answers\r\n    {\r\n        uint question;\r\n        string answer;\r\n    }\r\n    questions_and_answers[] public Questions_And_Answers;\r\n    struct User\r\n    {\r\n        address user_address;\r\n        \r\n        bool registered;\r\n    }\r\n    struct answers_with_question\r\n    {\r\n        uint  question_no;\r\n        string[4] answers;\r\n        string type_of_answer;\r\n    }\r\n    answers_with_question[] public Answers_with_Question;\r\n    bool public start = false;\r\n    address[] registered_users;\r\n    mapping(address=>User) public users;\r\n    constructor() {\r\n        chairperson = msg.sender;\r\n    }\r\n\r\n    function Start() public {\r\n        //require(!start, \"already started\");\r\n        start = true;\r\n    }\r\n    function no_of_q() public view returns (uint){\r\n        return Questions.length;\r\n    }\r\n    function questions_input(string calldata question) public {\r\n        require(start, \"Question input is not allowed before starting.\");\r\n        require(msg.sender==chairperson,\"only chairperson is allowed to input question\");\r\n        Questions.push(question);\r\n    }\r\n   // Define a mapping to store answers for each question\r\nmapping(uint => answers_with_question) public AnswersMap;\r\n uint[] public keys; // This array will store the keys\r\nfunction answers_input(uint q_no, string[4] memory answer, string memory t) public {\r\n    require(start, \"Question input is not allowed before starting.\");\r\n    require(msg.sender == chairperson, \"only chairperson is allowed to input options\");\r\n    require(q_no >= 0 && q_no < Questions.length, \"Invalid question number\");\r\n\r\n    // Store answers using the mapping\r\n    AnswersMap[q_no] = answers_with_question({\r\n        question_no: q_no,\r\n        answers: answer,\r\n        type_of_answer: t\r\n    });\r\n     keys.push(q_no); // Add the key to the keys array\r\n}\r\n    function register() public \r\n    {     \r\n          address person = msg.sender;\r\n          require(start, \"cannot register before starting\");\r\n        require(msg.sender!=chairperson,\"chairperson cannot register\");\r\n        require(users[person].registered==false,\"user is already registered\");\r\n      \r\n        users[person].user_address = person;\r\n        users[person].registered = true;\r\n        registered_users.push(person);\r\n\r\n    }\r\n    function answers(uint question_no,string calldata answer1) public {\r\n        require(question_no >= 0 && question_no < Questions.length, \"Invalid question number\");\r\n         address person = msg.sender;\r\n         require(users[person].registered==true,\"user is not registered\");\r\n         require(start, \"cannot answer before starting\");\r\n         Questions_And_Answers.push(questions_and_answers({\r\n             question:question_no,\r\n             answer:answer1\r\n         }));\r\n    }\r\n  function getAnswersForQuestion(uint question_no) public view returns (string[] memory) {\r\n    require(question_no >= 0 && question_no < Questions.length, \"Invalid question number\");\r\n    require(msg.sender == chairperson, \"The user is not a chairperson\");\r\n    require(start, \"Cannot get answers before starting\");\r\n\r\n    string[] memory answer = new string[](Questions_And_Answers.length); // Initialize an array with a fixed length\r\n\r\n    uint k = 0;\r\n    for (uint i = 0; i < Questions_And_Answers.length; i++) {\r\n        if (Questions_And_Answers[i].question == question_no) {\r\n            answer[k] = Questions_And_Answers[i].answer;\r\n            k++;\r\n        }\r\n    }\r\n\r\n    // Resize the array to the correct length\r\n    assembly {\r\n        mstore(answer, k)\r\n    }\r\n\r\n    return answer;\r\n}\r\nfunction get_Questions(uint q_no) public view returns(string memory) {\r\n     require(q_no >= 0 && q_no < Questions.length, \"Invalid question number\");\r\n    return Questions[q_no];\r\n}\r\n\r\nfunction get_options(uint q_no) public view returns (string[4] memory){\r\n    require(q_no >= 0 && q_no < Questions.length, \"Invalid question number\");\r\n    \r\n   return AnswersMap[q_no].answers;\r\n}\r\nfunction get_type(uint q_no) public view returns (string memory){\r\n    return AnswersMap[q_no].type_of_answer;\r\n\r\n}\r\n\r\nfunction reset() public \r\n{   require(msg.sender==chairperson,\"the user is not chairperson\");\r\n    start = false;\r\n    //Questions_And_Answers\r\n    //users\r\n    //Questions\r\n    for(uint i=0;i<Questions_And_Answers.length;i++)\r\n    {\r\n        delete Questions_And_Answers[i];\r\n    }\r\n    for(uint i=0;i<registered_users.length;i++)\r\n    {\r\n        delete users[registered_users[i]];\r\n    }\r\n    for(uint i=0;i<Questions.length;i++)\r\n    {\r\n        delete Questions[i];\r\n    }\r\n    for(uint i=0;i<Answers_with_Question.length;i++)\r\n    {\r\n        delete Answers_with_Question[i];\r\n    }\r\n     // Iterate through the keys and delete the values\r\n        for (uint i = 0; i < keys.length; i++) {\r\n            delete AnswersMap[keys[i]];\r\n        }\r\n        // Clear the keys array\r\n        delete keys;\r\n}\r\n\r\n}",
  "sourcePath": "C:\\Users\\lakka\\OneDrive - Manipal Academy of Higher Education\\FIDUCIA\\voting-gui\\contracts\\feedback.sol",
  "compiler": {
    "name": "solc",
    "version": "0.8.17+commit.8df45f5f.Emscripten.clang"
  },
  "schemaVersion": "3.4.11",
  "updatedAt": "2023-10-07T12:47:26.838Z",
  "networkType": "ethereum",
  "devdoc": {
    "kind": "dev",
    "methods": {},
    "version": 1
  },
  "userdoc": {
    "kind": "user",
    "methods": {},
    "version": 1
  }
}