{
  "contractName": "feedback",
  "abi": [
    {
      "inputs": [],
      "stateMutability": "nonpayable",
      "type": "constructor"
    },
    {
      "inputs": [
        {
          "internalType": "uint256",
          "name": "",
          "type": "uint256"
        }
      ],
      "name": "AnswersMap",
      "outputs": [
        {
          "internalType": "uint256",
          "name": "question_no",
          "type": "uint256"
        }
      ],
      "stateMutability": "view",
      "type": "function",
      "constant": true
    },
    {
      "inputs": [
        {
          "internalType": "uint256",
          "name": "",
          "type": "uint256"
        }
      ],
      "name": "Answers_with_Question",
      "outputs": [
        {
          "internalType": "uint256",
          "name": "question_no",
          "type": "uint256"
        }
      ],
      "stateMutability": "view",
      "type": "function",
      "constant": true
    },
    {
      "inputs": [
        {
          "internalType": "uint256",
          "name": "",
          "type": "uint256"
        }
      ],
      "name": "Questions",
      "outputs": [
        {
          "internalType": "string",
          "name": "questions",
          "type": "string"
        },
        {
          "internalType": "string",
          "name": "type_of_ans",
          "type": "string"
        }
      ],
      "stateMutability": "view",
      "type": "function",
      "constant": true
    },
    {
      "inputs": [
        {
          "internalType": "uint256",
          "name": "",
          "type": "uint256"
        }
      ],
      "name": "Questions_And_Answers",
      "outputs": [
        {
          "internalType": "uint256",
          "name": "question",
          "type": "uint256"
        },
        {
          "internalType": "string",
          "name": "answer",
          "type": "string"
        }
      ],
      "stateMutability": "view",
      "type": "function",
      "constant": true
    },
    {
      "inputs": [],
      "name": "chairperson",
      "outputs": [
        {
          "internalType": "address",
          "name": "",
          "type": "address"
        }
      ],
      "stateMutability": "view",
      "type": "function",
      "constant": true
    },
    {
      "inputs": [
        {
          "internalType": "uint256",
          "name": "",
          "type": "uint256"
        }
      ],
      "name": "keys",
      "outputs": [
        {
          "internalType": "uint256",
          "name": "",
          "type": "uint256"
        }
      ],
      "stateMutability": "view",
      "type": "function",
      "constant": true
    },
    {
      "inputs": [],
      "name": "start",
      "outputs": [
        {
          "internalType": "bool",
          "name": "",
          "type": "bool"
        }
      ],
      "stateMutability": "view",
      "type": "function",
      "constant": true
    },
    {
      "inputs": [
        {
          "internalType": "address",
          "name": "",
          "type": "address"
        }
      ],
      "name": "users",
      "outputs": [
        {
          "internalType": "address",
          "name": "user_address",
          "type": "address"
        },
        {
          "internalType": "bool",
          "name": "registered",
          "type": "bool"
        }
      ],
      "stateMutability": "view",
      "type": "function",
      "constant": true
    },
    {
      "inputs": [],
      "name": "Start",
      "outputs": [],
      "stateMutability": "nonpayable",
      "type": "function"
    },
    {
      "inputs": [
        {
          "internalType": "bool",
          "name": "a",
          "type": "bool"
        }
      ],
      "name": "set_isReset",
      "outputs": [],
      "stateMutability": "nonpayable",
      "type": "function"
    },
    {
      "inputs": [],
      "name": "get_isReset",
      "outputs": [
        {
          "internalType": "bool",
          "name": "",
          "type": "bool"
        }
      ],
      "stateMutability": "view",
      "type": "function",
      "constant": true
    },
    {
      "inputs": [],
      "name": "no_of_q",
      "outputs": [
        {
          "internalType": "uint256",
          "name": "",
          "type": "uint256"
        }
      ],
      "stateMutability": "view",
      "type": "function",
      "constant": true
    },
    {
      "inputs": [
        {
          "internalType": "string[]",
          "name": "question",
          "type": "string[]"
        },
        {
          "internalType": "uint256",
          "name": "no_of_qu",
          "type": "uint256"
        },
        {
          "internalType": "string[]",
          "name": "ty",
          "type": "string[]"
        }
      ],
      "name": "questions_input",
      "outputs": [],
      "stateMutability": "nonpayable",
      "type": "function"
    },
    {
      "inputs": [
        {
          "internalType": "uint256",
          "name": "q_no",
          "type": "uint256"
        },
        {
          "internalType": "string[4]",
          "name": "answer",
          "type": "string[4]"
        }
      ],
      "name": "answers_input",
      "outputs": [],
      "stateMutability": "nonpayable",
      "type": "function"
    },
    {
      "inputs": [],
      "name": "register",
      "outputs": [],
      "stateMutability": "nonpayable",
      "type": "function"
    },
    {
      "inputs": [
        {
          "internalType": "uint256",
          "name": "question_no",
          "type": "uint256"
        },
        {
          "internalType": "string",
          "name": "answer1",
          "type": "string"
        }
      ],
      "name": "answers",
      "outputs": [],
      "stateMutability": "nonpayable",
      "type": "function"
    },
    {
      "inputs": [
        {
          "internalType": "uint256",
          "name": "question_no",
          "type": "uint256"
        }
      ],
      "name": "getAnswersForQuestion",
      "outputs": [
        {
          "internalType": "string[]",
          "name": "",
          "type": "string[]"
        }
      ],
      "stateMutability": "view",
      "type": "function",
      "constant": true
    },
    {
      "inputs": [
        {
          "internalType": "uint256",
          "name": "q_no",
          "type": "uint256"
        }
      ],
      "name": "get_Questions",
      "outputs": [
        {
          "internalType": "string",
          "name": "",
          "type": "string"
        }
      ],
      "stateMutability": "view",
      "type": "function",
      "constant": true
    },
    {
      "inputs": [
        {
          "internalType": "uint256",
          "name": "q_no",
          "type": "uint256"
        }
      ],
      "name": "get_options",
      "outputs": [
        {
          "internalType": "string[4]",
          "name": "",
          "type": "string[4]"
        }
      ],
      "stateMutability": "view",
      "type": "function",
      "constant": true
    },
    {
      "inputs": [
        {
          "internalType": "uint256",
          "name": "q_no",
          "type": "uint256"
        }
      ],
      "name": "get_type",
      "outputs": [
        {
          "internalType": "string",
          "name": "",
          "type": "string"
        }
      ],
      "stateMutability": "view",
      "type": "function",
      "constant": true
    },
    {
      "inputs": [],
      "name": "reset",
      "outputs": [],
      "stateMutability": "nonpayable",
      "type": "function"
    }
  ],
  "bytecode": "0x60806040526000600460006101000a81548160ff0219169083151502179055506000600760006101000a81548160ff02191690831515021790555034801561004657600080fd5b50336000806101000a81548173ffffffffffffffffffffffffffffffffffffffff021916908373ffffffffffffffffffffffffffffffffffffffff160217905550612ee8806100966000396000f3fe608060405234801561001057600080fd5b50600436106101375760003560e01c8063776b0a83116100b8578063b666c26b1161007c578063b666c26b14610363578063bc27032d1461037f578063be9a6555146103af578063c0dde3aa146103cd578063d826f88f146103fd578063ebd82cbc1461040757610137565b8063776b0a83146102995780639dafd859146102b55780639e9bbdcb146102e6578063a87430ba14610316578063b080f6d61461034757610137565b80631b55ba3a116100ff5780631b55ba3a146101f55780632e4176cf146101ff57806335dcf0b01461021d5780636bf1b9a61461024d57806374b0b6cf1461026957610137565b806303703a4d1461013c5780630cb6aaf11461016c5780630da2c72c1461019c5780631aa3a008146101ba5780631acb563b146101c4575b600080fd5b61015660048036038101906101519190611a9d565b610425565b6040516101639190611ad9565b60405180910390f35b61018660048036038101906101819190611a9d565b610443565b6040516101939190611ad9565b60405180910390f35b6101a4610467565b6040516101b19190611ad9565b60405180910390f35b6101c2610474565b005b6101de60048036038101906101d99190611a9d565b61072e565b6040516101ec929190611b84565b60405180910390f35b6101fd6107ea565b005b610207610807565b6040516102149190611bf5565b60405180910390f35b61023760048036038101906102329190611a9d565b61082b565b6040516102449190611d1c565b60405180910390f35b61026760048036038101906102629190611f47565b610aee565b005b610283600480360381019061027e9190611a9d565b610c99565b6040516102909190611fa3565b60405180910390f35b6102b360048036038101906102ae9190612101565b610d50565b005b6102cf60048036038101906102ca9190611a9d565b610f86565b6040516102dd929190612191565b60405180910390f35b61030060048036038101906102fb9190611a9d565b6110ca565b60405161030d9190611ad9565b60405180910390f35b610330600480360381019061032b91906121f4565b6110f8565b60405161033e92919061223c565b60405180910390f35b610361600480360381019061035c91906122bb565b611149565b005b61037d60048036038101906103789190612347565b611333565b005b61039960048036038101906103949190611a9d565b611350565b6040516103a69190612416565b60405180910390f35b6103b7611487565b6040516103c49190612438565b60405180910390f35b6103e760048036038101906103e29190611a9d565b61149a565b6040516103f49190611fa3565b60405180910390f35b6104056115a5565b005b61040f611903565b60405161041c9190612438565b60405180910390f35b60086020528060005260406000206000915090508060000154905081565b6009818154811061045357600080fd5b906000526020600020016000915090505481565b6000600180549050905090565b6000339050600460009054906101000a900460ff166104c8576040517f08c379a00000000000000000000000000000000000000000000000000000000081526004016104bf9061249f565b60405180910390fd5b60008054906101000a900473ffffffffffffffffffffffffffffffffffffffff1673ffffffffffffffffffffffffffffffffffffffff163373ffffffffffffffffffffffffffffffffffffffff1603610556576040517f08c379a000000000000000000000000000000000000000000000000000000000815260040161054d9061250b565b60405180910390fd5b60001515600660008373ffffffffffffffffffffffffffffffffffffffff1673ffffffffffffffffffffffffffffffffffffffff16815260200190815260200160002060000160149054906101000a900460ff161515146105ec576040517f08c379a00000000000000000000000000000000000000000000000000000000081526004016105e390612577565b60405180910390fd5b80600660008373ffffffffffffffffffffffffffffffffffffffff1673ffffffffffffffffffffffffffffffffffffffff16815260200190815260200160002060000160006101000a81548173ffffffffffffffffffffffffffffffffffffffff021916908373ffffffffffffffffffffffffffffffffffffffff1602179055506001600660008373ffffffffffffffffffffffffffffffffffffffff1673ffffffffffffffffffffffffffffffffffffffff16815260200190815260200160002060000160146101000a81548160ff0219169083151502179055506005819080600181540180825580915050600190039060005260206000200160009091909190916101000a81548173ffffffffffffffffffffffffffffffffffffffff021916908373ffffffffffffffffffffffffffffffffffffffff16021790555050565b6002818154811061073e57600080fd5b9060005260206000209060020201600091509050806000015490806001018054610767906125c6565b80601f0160208091040260200160405190810160405280929190818152602001828054610793906125c6565b80156107e05780601f106107b5576101008083540402835291602001916107e0565b820191906000526020600020905b8154815290600101906020018083116107c357829003601f168201915b5050505050905082565b6001600460006101000a81548160ff021916908315150217905550565b60008054906101000a900473ffffffffffffffffffffffffffffffffffffffff1681565b606060008210158015610842575060018054905082105b610881576040517f08c379a000000000000000000000000000000000000000000000000000000000815260040161087890612643565b60405180910390fd5b60008054906101000a900473ffffffffffffffffffffffffffffffffffffffff1673ffffffffffffffffffffffffffffffffffffffff163373ffffffffffffffffffffffffffffffffffffffff161461090f576040517f08c379a0000000000000000000000000000000000000000000000000000000008152600401610906906126af565b60405180910390fd5b600460009054906101000a900460ff1661095e576040517f08c379a000000000000000000000000000000000000000000000000000000000815260040161095590612741565b60405180910390fd5b600060028054905067ffffffffffffffff81111561097f5761097e611d43565b5b6040519080825280602002602001820160405280156109b257816020015b606081526020019060019003908161099d5790505b5090506000805b600280549050811015610ae05784600282815481106109db576109da612761565b5b90600052602060002090600202016000015403610acd5760028181548110610a0657610a05612761565b5b90600052602060002090600202016001018054610a22906125c6565b80601f0160208091040260200160405190810160405280929190818152602001828054610a4e906125c6565b8015610a9b5780601f10610a7057610100808354040283529160200191610a9b565b820191906000526020600020905b815481529060010190602001808311610a7e57829003601f168201915b5050505050838381518110610ab357610ab2612761565b5b60200260200101819052508180610ac9906127bf565b9250505b8080610ad8906127bf565b9150506109b9565b508082528192505050919050565b600460009054906101000a900460ff16610b3d576040517f08c379a0000000000000000000000000000000000000000000000000000000008152600401610b3490612879565b60405180910390fd5b60008054906101000a900473ffffffffffffffffffffffffffffffffffffffff1673ffffffffffffffffffffffffffffffffffffffff163373ffffffffffffffffffffffffffffffffffffffff1614610bcb576040517f08c379a0000000000000000000000000000000000000000000000000000000008152600401610bc29061290b565b60405180910390fd5b60008210158015610be0575060018054905082105b610c1f576040517f08c379a0000000000000000000000000000000000000000000000000000000008152600401610c1690612643565b60405180910390fd5b6040518060400160405280838152602001828152506008600084815260200190815260200160002060008201518160000155602082015181600101906004610c6892919061191a565b5090505060098290806001815401808255809150506001900390600052602060002001600090919091909150555050565b606060018281548110610caf57610cae612761565b5b90600052602060002090600202016001018054610ccb906125c6565b80601f0160208091040260200160405190810160405280929190818152602001828054610cf7906125c6565b8015610d445780601f10610d1957610100808354040283529160200191610d44565b820191906000526020600020905b815481529060010190602001808311610d2757829003601f168201915b50505050509050919050565b600460009054906101000a900460ff16610d9f576040517f08c379a0000000000000000000000000000000000000000000000000000000008152600401610d9690612879565b60405180910390fd5b60008054906101000a900473ffffffffffffffffffffffffffffffffffffffff1673ffffffffffffffffffffffffffffffffffffffff163373ffffffffffffffffffffffffffffffffffffffff1614610e2d576040517f08c379a0000000000000000000000000000000000000000000000000000000008152600401610e249061299d565b60405180910390fd5b818484905014610e72576040517f08c379a0000000000000000000000000000000000000000000000000000000008152600401610e6990612a2f565b60405180910390fd5b60005b82811015610f7f5760016040518060400160405280878785818110610e9d57610e9c612761565b5b9050602002810190610eaf9190612a5e565b8080601f016020809104026020016040519081016040528093929190818152602001838380828437600081840152601f19601f820116905080830192505050505050508152602001848481518110610f0a57610f09612761565b5b602002602001015181525090806001815401808255809150506001900390600052602060002090600202016000909190919091506000820151816000019081610f539190612c6d565b506020820151816001019081610f699190612c6d565b5050508080610f77906127bf565b915050610e75565b5050505050565b60018181548110610f9657600080fd5b9060005260206000209060020201600091509050806000018054610fb9906125c6565b80601f0160208091040260200160405190810160405280929190818152602001828054610fe5906125c6565b80156110325780601f1061100757610100808354040283529160200191611032565b820191906000526020600020905b81548152906001019060200180831161101557829003601f168201915b505050505090806001018054611047906125c6565b80601f0160208091040260200160405190810160405280929190818152602001828054611073906125c6565b80156110c05780601f10611095576101008083540402835291602001916110c0565b820191906000526020600020905b8154815290600101906020018083116110a357829003601f168201915b5050505050905082565b600381815481106110da57600080fd5b90600052602060002090600502016000915090508060000154905081565b60066020528060005260406000206000915090508060000160009054906101000a900473ffffffffffffffffffffffffffffffffffffffff16908060000160149054906101000a900460ff16905082565b6000831015801561115e575060018054905083105b61119d576040517f08c379a000000000000000000000000000000000000000000000000000000000815260040161119490612643565b60405180910390fd5b600033905060011515600660008373ffffffffffffffffffffffffffffffffffffffff1673ffffffffffffffffffffffffffffffffffffffff16815260200190815260200160002060000160149054906101000a900460ff16151514611238576040517f08c379a000000000000000000000000000000000000000000000000000000000815260040161122f90612d8b565b60405180910390fd5b600460009054906101000a900460ff16611287576040517f08c379a000000000000000000000000000000000000000000000000000000000815260040161127e90612df7565b60405180910390fd5b6002604051806040016040528086815260200185858080601f016020809104026020016040519081016040528093929190818152602001838380828437600081840152601f19601f82011690508083019250505050505050815250908060018154018082558091505060019003906000526020600020906002020160009091909190915060008201518160000155602082015181600101908161132a9190612c6d565b50505050505050565b80600760006101000a81548160ff02191690831515021790555050565b611358611966565b6000821015801561136d575060018054905082105b6113ac576040517f08c379a00000000000000000000000000000000000000000000000000000000081526004016113a390612643565b60405180910390fd5b60086000838152602001908152602001600020600101600480602002604051908101604052809291906000905b8282101561147c5783820180546113ef906125c6565b80601f016020809104026020016040519081016040528092919081815260200182805461141b906125c6565b80156114685780601f1061143d57610100808354040283529160200191611468565b820191906000526020600020905b81548152906001019060200180831161144b57829003601f168201915b5050505050815260200190600101906113d9565b505050509050919050565b600460009054906101000a900460ff1681565b6060600082101580156114b1575060018054905082105b6114f0576040517f08c379a00000000000000000000000000000000000000000000000000000000081526004016114e790612643565b60405180910390fd5b6001828154811061150457611503612761565b5b90600052602060002090600202016000018054611520906125c6565b80601f016020809104026020016040519081016040528092919081815260200182805461154c906125c6565b80156115995780601f1061156e57610100808354040283529160200191611599565b820191906000526020600020905b81548152906001019060200180831161157c57829003601f168201915b50505050509050919050565b60008054906101000a900473ffffffffffffffffffffffffffffffffffffffff1673ffffffffffffffffffffffffffffffffffffffff163373ffffffffffffffffffffffffffffffffffffffff1614611633576040517f08c379a000000000000000000000000000000000000000000000000000000000815260040161162a90612e63565b60405180910390fd5b6000600460006101000a81548160ff0219169083151502179055506001600760006101000a81548160ff0219169083151502179055505b600060028054905011156116c057600280548061168a57611689612e83565b5b60019003818190600052602060002090600202016000808201600090556001820160006116b7919061198d565b5050905561166a565b60005b60058054905081101561179e5760066000600583815481106116e8576116e7612761565b5b9060005260206000200160009054906101000a900473ffffffffffffffffffffffffffffffffffffffff1673ffffffffffffffffffffffffffffffffffffffff1673ffffffffffffffffffffffffffffffffffffffff168152602001908152602001600020600080820160006101000a81549073ffffffffffffffffffffffffffffffffffffffff02191690556000820160146101000a81549060ff021916905550508080611796906127bf565b9150506116c3565b505b600060018054905011156117fe5760018054806117c0576117bf612e83565b5b6001900381819060005260206000209060020201600080820160006117e5919061198d565b6001820160006117f5919061198d565b505090556117a0565b5b6000600380549050111561185557600380548061181f5761181e612e83565b5b600190038181906000526020600020906005020160008082016000905560018201600061184c91906119cd565b505090556117ff565b60005b6009805490508110156118c457600860006009838154811061187d5761187c612761565b5b906000526020600020015481526020019081526020016000206000808201600090556001820160006118af91906119cd565b505080806118bc906127bf565b915050611858565b505b600060098054905011156119015760098054806118e6576118e5612e83565b5b600190038181906000526020600020016000905590556118c6565b565b6000600760009054906101000a900460ff16905090565b8260048101928215611955579160200282015b828111156119545782518290816119449190612c6d565b509160200191906001019061192d565b5b5090506119629190611a12565b5090565b60405180608001604052806004905b60608152602001906001900390816119755790505090565b508054611999906125c6565b6000825580601f106119ab57506119ca565b601f0160209004906000526020600020908101906119c99190611a36565b5b50565b50600081816119dc919061198d565b50600101600081816119ee919061198d565b5060010160008181611a00919061198d565b506001016000611a10919061198d565b565b5b80821115611a325760008181611a29919061198d565b50600101611a13565b5090565b5b80821115611a4f576000816000905550600101611a37565b5090565b6000604051905090565b600080fd5b600080fd5b6000819050919050565b611a7a81611a67565b8114611a8557600080fd5b50565b600081359050611a9781611a71565b92915050565b600060208284031215611ab357611ab2611a5d565b5b6000611ac184828501611a88565b91505092915050565b611ad381611a67565b82525050565b6000602082019050611aee6000830184611aca565b92915050565b600081519050919050565b600082825260208201905092915050565b60005b83811015611b2e578082015181840152602081019050611b13565b60008484015250505050565b6000601f19601f8301169050919050565b6000611b5682611af4565b611b608185611aff565b9350611b70818560208601611b10565b611b7981611b3a565b840191505092915050565b6000604082019050611b996000830185611aca565b8181036020830152611bab8184611b4b565b90509392505050565b600073ffffffffffffffffffffffffffffffffffffffff82169050919050565b6000611bdf82611bb4565b9050919050565b611bef81611bd4565b82525050565b6000602082019050611c0a6000830184611be6565b92915050565b600081519050919050565b600082825260208201905092915050565b6000819050602082019050919050565b600082825260208201905092915050565b6000611c5882611af4565b611c628185611c3c565b9350611c72818560208601611b10565b611c7b81611b3a565b840191505092915050565b6000611c928383611c4d565b905092915050565b6000602082019050919050565b6000611cb282611c10565b611cbc8185611c1b565b935083602082028501611cce85611c2c565b8060005b85811015611d0a5784840389528151611ceb8582611c86565b9450611cf683611c9a565b925060208a01995050600181019050611cd2565b50829750879550505050505092915050565b60006020820190508181036000830152611d368184611ca7565b905092915050565b600080fd5b7f4e487b7100000000000000000000000000000000000000000000000000000000600052604160045260246000fd5b611d7b82611b3a565b810181811067ffffffffffffffff82111715611d9a57611d99611d43565b5b80604052505050565b6000611dad611a53565b9050611db98282611d72565b919050565b600067ffffffffffffffff821115611dd957611dd8611d43565b5b602082029050919050565b600080fd5b600080fd5b600067ffffffffffffffff821115611e0957611e08611d43565b5b611e1282611b3a565b9050602081019050919050565b82818337600083830152505050565b6000611e41611e3c84611dee565b611da3565b905082815260208101848484011115611e5d57611e5c611de9565b5b611e68848285611e1f565b509392505050565b600082601f830112611e8557611e84611d3e565b5b8135611e95848260208601611e2e565b91505092915050565b6000611eb1611eac84611dbe565b611da3565b90508060208402830185811115611ecb57611eca611de4565b5b835b81811015611f1257803567ffffffffffffffff811115611ef057611eef611d3e565b5b808601611efd8982611e70565b85526020850194505050602081019050611ecd565b5050509392505050565b600082601f830112611f3157611f30611d3e565b5b6004611f3e848285611e9e565b91505092915050565b60008060408385031215611f5e57611f5d611a5d565b5b6000611f6c85828601611a88565b925050602083013567ffffffffffffffff811115611f8d57611f8c611a62565b5b611f9985828601611f1c565b9150509250929050565b60006020820190508181036000830152611fbd8184611b4b565b905092915050565b600080fd5b60008083601f840112611fe057611fdf611d3e565b5b8235905067ffffffffffffffff811115611ffd57611ffc611fc5565b5b60208301915083602082028301111561201957612018611de4565b5b9250929050565b600067ffffffffffffffff82111561203b5761203a611d43565b5b602082029050602081019050919050565b600061205f61205a84612020565b611da3565b9050808382526020820190506020840283018581111561208257612081611de4565b5b835b818110156120c957803567ffffffffffffffff8111156120a7576120a6611d3e565b5b8086016120b48982611e70565b85526020850194505050602081019050612084565b5050509392505050565b600082601f8301126120e8576120e7611d3e565b5b81356120f884826020860161204c565b91505092915050565b6000806000806060858703121561211b5761211a611a5d565b5b600085013567ffffffffffffffff81111561213957612138611a62565b5b61214587828801611fca565b9450945050602061215887828801611a88565b925050604085013567ffffffffffffffff81111561217957612178611a62565b5b612185878288016120d3565b91505092959194509250565b600060408201905081810360008301526121ab8185611b4b565b905081810360208301526121bf8184611b4b565b90509392505050565b6121d181611bd4565b81146121dc57600080fd5b50565b6000813590506121ee816121c8565b92915050565b60006020828403121561220a57612209611a5d565b5b6000612218848285016121df565b91505092915050565b60008115159050919050565b61223681612221565b82525050565b60006040820190506122516000830185611be6565b61225e602083018461222d565b9392505050565b60008083601f84011261227b5761227a611d3e565b5b8235905067ffffffffffffffff81111561229857612297611fc5565b5b6020830191508360018202830111156122b4576122b3611de4565b5b9250929050565b6000806000604084860312156122d4576122d3611a5d565b5b60006122e286828701611a88565b935050602084013567ffffffffffffffff81111561230357612302611a62565b5b61230f86828701612265565b92509250509250925092565b61232481612221565b811461232f57600080fd5b50565b6000813590506123418161231b565b92915050565b60006020828403121561235d5761235c611a5d565b5b600061236b84828501612332565b91505092915050565b600060049050919050565b600081905092915050565b6000819050919050565b6000602082019050919050565b60006123ac82612374565b6123b6818561237f565b9350836020820285016123c88561238a565b8060005b8581101561240457848403895281516123e58582611c86565b94506123f083612394565b925060208a019950506001810190506123cc565b50829750879550505050505092915050565b6000602082019050818103600083015261243081846123a1565b905092915050565b600060208201905061244d600083018461222d565b92915050565b7f63616e6e6f74207265676973746572206265666f7265207374617274696e6700600082015250565b6000612489601f83611aff565b915061249482612453565b602082019050919050565b600060208201905081810360008301526124b88161247c565b9050919050565b7f6368616972706572736f6e2063616e6e6f742072656769737465720000000000600082015250565b60006124f5601b83611aff565b9150612500826124bf565b602082019050919050565b60006020820190508181036000830152612524816124e8565b9050919050565b7f7573657220697320616c72656164792072656769737465726564000000000000600082015250565b6000612561601a83611aff565b915061256c8261252b565b602082019050919050565b6000602082019050818103600083015261259081612554565b9050919050565b7f4e487b7100000000000000000000000000000000000000000000000000000000600052602260045260246000fd5b600060028204905060018216806125de57607f821691505b6020821081036125f1576125f0612597565b5b50919050565b7f496e76616c6964207175657374696f6e206e756d626572000000000000000000600082015250565b600061262d601783611aff565b9150612638826125f7565b602082019050919050565b6000602082019050818103600083015261265c81612620565b9050919050565b7f5468652075736572206973206e6f742061206368616972706572736f6e000000600082015250565b6000612699601d83611aff565b91506126a482612663565b602082019050919050565b600060208201905081810360008301526126c88161268c565b9050919050565b7f43616e6e6f742067657420616e7377657273206265666f72652073746172746960008201527f6e67000000000000000000000000000000000000000000000000000000000000602082015250565b600061272b602283611aff565b9150612736826126cf565b604082019050919050565b6000602082019050818103600083015261275a8161271e565b9050919050565b7f4e487b7100000000000000000000000000000000000000000000000000000000600052603260045260246000fd5b7f4e487b7100000000000000000000000000000000000000000000000000000000600052601160045260246000fd5b60006127ca82611a67565b91507fffffffffffffffffffffffffffffffffffffffffffffffffffffffffffffffff82036127fc576127fb612790565b5b600182019050919050565b7f5175657374696f6e20696e707574206973206e6f7420616c6c6f77656420626560008201527f666f7265207374617274696e672e000000000000000000000000000000000000602082015250565b6000612863602e83611aff565b915061286e82612807565b604082019050919050565b6000602082019050818103600083015261289281612856565b9050919050565b7f6f6e6c79206368616972706572736f6e20697320616c6c6f77656420746f206960008201527f6e707574206f7074696f6e730000000000000000000000000000000000000000602082015250565b60006128f5602c83611aff565b915061290082612899565b604082019050919050565b60006020820190508181036000830152612924816128e8565b9050919050565b7f6f6e6c79206368616972706572736f6e20697320616c6c6f77656420746f206960008201527f6e707574207175657374696f6e00000000000000000000000000000000000000602082015250565b6000612987602d83611aff565b91506129928261292b565b604082019050919050565b600060208201905081810360008301526129b68161297a565b9050919050565b7f6e6f206f66207175657374696f6e732073686f756c6420626520657175616c2060008201527f746f206d656e74696f6e65640000000000000000000000000000000000000000602082015250565b6000612a19602c83611aff565b9150612a24826129bd565b604082019050919050565b60006020820190508181036000830152612a4881612a0c565b9050919050565b600080fd5b600080fd5b600080fd5b60008083356001602003843603038112612a7b57612a7a612a4f565b5b80840192508235915067ffffffffffffffff821115612a9d57612a9c612a54565b5b602083019250600182023603831315612ab957612ab8612a59565b5b509250929050565b60008190508160005260206000209050919050565b60006020601f8301049050919050565b600082821b905092915050565b600060088302612b237fffffffffffffffffffffffffffffffffffffffffffffffffffffffffffffffff82612ae6565b612b2d8683612ae6565b95508019841693508086168417925050509392505050565b6000819050919050565b6000612b6a612b65612b6084611a67565b612b45565b611a67565b9050919050565b6000819050919050565b612b8483612b4f565b612b98612b9082612b71565b848454612af3565b825550505050565b600090565b612bad612ba0565b612bb8818484612b7b565b505050565b5b81811015612bdc57612bd1600082612ba5565b600181019050612bbe565b5050565b601f821115612c2157612bf281612ac1565b612bfb84612ad6565b81016020851015612c0a578190505b612c1e612c1685612ad6565b830182612bbd565b50505b505050565b600082821c905092915050565b6000612c4460001984600802612c26565b1980831691505092915050565b6000612c5d8383612c33565b9150826002028217905092915050565b612c7682611af4565b67ffffffffffffffff811115612c8f57612c8e611d43565b5b612c9982546125c6565b612ca4828285612be0565b600060209050601f831160018114612cd75760008415612cc5578287015190505b612ccf8582612c51565b865550612d37565b601f198416612ce586612ac1565b60005b82811015612d0d57848901518255600182019150602085019450602081019050612ce8565b86831015612d2a5784890151612d26601f891682612c33565b8355505b6001600288020188555050505b505050505050565b7f75736572206973206e6f74207265676973746572656400000000000000000000600082015250565b6000612d75601683611aff565b9150612d8082612d3f565b602082019050919050565b60006020820190508181036000830152612da481612d68565b9050919050565b7f63616e6e6f7420616e73776572206265666f7265207374617274696e67000000600082015250565b6000612de1601d83611aff565b9150612dec82612dab565b602082019050919050565b60006020820190508181036000830152612e1081612dd4565b9050919050565b7f7468652075736572206973206e6f74206368616972706572736f6e0000000000600082015250565b6000612e4d601b83611aff565b9150612e5882612e17565b602082019050919050565b60006020820190508181036000830152612e7c81612e40565b9050919050565b7f4e487b7100000000000000000000000000000000000000000000000000000000600052603160045260246000fdfea2646970667358221220a2bd8fc6ffaa42d68618d2b353f613ff2cda8504330846557bf2ff9f32e9432864736f6c63430008110033",
  "immutableReferences": {},
  "source": "pragma solidity ^0.8.17;\r\n// SPDX-License-Identifier: GPL-3.0\r\ncontract feedback {\r\n    address public chairperson;\r\n    struct questions\r\n    {\r\n        string questions;\r\n        string type_of_ans;\r\n    }\r\n    questions[] public Questions;\r\n    struct questions_and_answers\r\n    {\r\n        uint question;\r\n        string answer;\r\n    }\r\n    questions_and_answers[] public Questions_And_Answers;\r\n    struct User\r\n    {\r\n        address user_address;\r\n        \r\n        bool registered;\r\n    }\r\n    struct answers_with_question\r\n    {\r\n        uint  question_no;\r\n        string[4] answers;\r\n        \r\n    }\r\n    answers_with_question[] public Answers_with_Question;\r\n    bool public start = false;\r\n    address[] registered_users;\r\n    mapping(address=>User) public users;\r\n    bool isReset = false;\r\n    constructor() {\r\n        chairperson = msg.sender;\r\n    }\r\n\r\n    function Start() public {\r\n        //require(!start, \"already started\");\r\n        start = true;\r\n    }\r\n    function set_isReset(bool a) public {\r\n        isReset = a;\r\n    }\r\n    function get_isReset() public view returns (bool) {\r\n        return isReset;\r\n    }\r\n    function no_of_q() public view returns (uint){\r\n        return Questions.length;\r\n    }\r\n    function questions_input(string[] calldata question,uint no_of_qu,string[] memory ty) public {\r\n        require(start, \"Question input is not allowed before starting.\");\r\n        require(msg.sender==chairperson,\"only chairperson is allowed to input question\");\r\n        require(question.length==no_of_qu,\"no of questions should be equal to mentioned\");\r\n        for(uint i=0;i<no_of_qu;i++)\r\n        {\r\n            Questions.push(questions({\r\n                questions:question[i],\r\n                type_of_ans:ty[i]\r\n            }));\r\n        }\r\n        \r\n    }\r\n   // Define a mapping to store answers for each question\r\nmapping(uint => answers_with_question) public AnswersMap;\r\n uint[] public keys; // This array will store the keys\r\nfunction answers_input(uint q_no, string[4] memory answer) public {\r\n    require(start, \"Question input is not allowed before starting.\");\r\n    require(msg.sender == chairperson, \"only chairperson is allowed to input options\");\r\n    require(q_no >= 0 && q_no < Questions.length, \"Invalid question number\");\r\n\r\n    // Store answers using the mapping\r\n    AnswersMap[q_no] = answers_with_question({\r\n        question_no: q_no,\r\n        answers: answer\r\n       \r\n    });\r\n     keys.push(q_no); // Add the key to the keys array\r\n}\r\n    function register() public \r\n    {     \r\n          address person = msg.sender;\r\n          require(start, \"cannot register before starting\");\r\n        require(msg.sender!=chairperson,\"chairperson cannot register\");\r\n        require(users[person].registered==false,\"user is already registered\");\r\n      \r\n        users[person].user_address = person;\r\n        users[person].registered = true;\r\n        registered_users.push(person);\r\n\r\n    }\r\n    function answers(uint question_no,string calldata answer1) public {\r\n        require(question_no >= 0 && question_no < Questions.length, \"Invalid question number\");\r\n         address person = msg.sender;\r\n         require(users[person].registered==true,\"user is not registered\");\r\n         require(start, \"cannot answer before starting\");\r\n         Questions_And_Answers.push(questions_and_answers({\r\n             question:question_no,\r\n             answer:answer1\r\n         }));\r\n    }\r\n  function getAnswersForQuestion(uint question_no) public view returns (string[] memory) {\r\n    require(question_no >= 0 && question_no < Questions.length, \"Invalid question number\");\r\n    require(msg.sender == chairperson, \"The user is not a chairperson\");\r\n    require(start, \"Cannot get answers before starting\");\r\n\r\n    string[] memory answer = new string[](Questions_And_Answers.length); // Initialize an array with a fixed length\r\n\r\n    uint k = 0;\r\n    for (uint i = 0; i < Questions_And_Answers.length; i++) {\r\n        if (Questions_And_Answers[i].question == question_no) {\r\n            answer[k] = Questions_And_Answers[i].answer;\r\n            k++;\r\n        }\r\n    }\r\n\r\n    // Resize the array to the correct length\r\n    assembly {\r\n        mstore(answer, k)\r\n    }\r\n\r\n    return answer;\r\n}\r\nfunction get_Questions(uint q_no) public view returns(string memory) {\r\n     require(q_no >= 0 && q_no < Questions.length, \"Invalid question number\");\r\n    return Questions[q_no].questions;\r\n}\r\n\r\nfunction get_options(uint q_no) public view returns (string[4] memory){\r\n    require(q_no >= 0 && q_no < Questions.length, \"Invalid question number\");\r\n    \r\n   return AnswersMap[q_no].answers;\r\n}\r\nfunction get_type(uint q_no) public view returns (string memory){\r\n    return Questions[q_no].type_of_ans;\r\n\r\n}\r\n\r\nfunction reset() public \r\n{   require(msg.sender==chairperson,\"the user is not chairperson\");\r\n    start = false;\r\n    isReset = true;\r\n    //Questions_And_Answers\r\n    //users\r\n    //Questions\r\n   /* for(uint i=0;i<Questions_And_Answers.length;i++)\r\n    {\r\n        delete Questions_And_Answers[i];\r\n    }*/\r\n    while(Questions_And_Answers.length>0)\r\n    {\r\n        Questions_And_Answers.pop();\r\n    }\r\n    \r\n    for(uint i=0;i<registered_users.length;i++)\r\n    {\r\n        delete users[registered_users[i]];\r\n    }\r\n    /*for(uint i=0;i<Questions.length;i++)\r\n    {\r\n        delete Questions[i];\r\n    }*/\r\n    while(Questions.length>0)\r\n    {\r\n        Questions.pop();\r\n    }\r\n    \r\n    /*for(uint i=0;i<Answers_with_Question.length;i++)\r\n    {\r\n        delete Answers_with_Question[i];\r\n    }*/\r\n    while(Answers_with_Question.length>0)\r\n    {\r\n        Answers_with_Question.pop();\r\n    }\r\n   \r\n     // Iterate through the keys and delete the values\r\n        for (uint i = 0; i < keys.length; i++) {\r\n            delete AnswersMap[keys[i]];\r\n        }\r\n        // Clear the keys array\r\n        //delete keys;\r\n        while(keys.length>0)\r\n        {\r\n            keys.pop();\r\n        }\r\n        \r\n}\r\n\r\n}",
  "sourcePath": "C:\\Users\\lakka\\OneDrive\\Documents\\Fiducia\\voting-gui\\contracts\\feedback.sol",
  "compiler": {
    "name": "solc",
    "version": "0.8.17+commit.8df45f5f.Emscripten.clang"
  },
  "schemaVersion": "3.4.11",
  "updatedAt": "2023-10-13T17:01:52.487Z",
  "networkType": "ethereum",
  "devdoc": {
    "kind": "dev",
    "methods": {},
    "version": 1
  },
  "userdoc": {
    "kind": "user",
    "methods": {},
    "version": 1
  }
}