{
  "contractName": "voting",
  "abi": [
    {
      "inputs": [],
      "stateMutability": "nonpayable",
      "type": "constructor"
    },
    {
      "inputs": [
        {
          "internalType": "uint256",
          "name": "",
          "type": "uint256"
        }
      ],
      "name": "candidates",
      "outputs": [
        {
          "internalType": "string",
          "name": "candidate_name",
          "type": "string"
        },
        {
          "internalType": "uint256",
          "name": "no_of_votes",
          "type": "uint256"
        }
      ],
      "stateMutability": "view",
      "type": "function",
      "constant": true
    },
    {
      "inputs": [],
      "name": "candidatescount",
      "outputs": [
        {
          "internalType": "uint256",
          "name": "",
          "type": "uint256"
        }
      ],
      "stateMutability": "view",
      "type": "function",
      "constant": true
    },
    {
      "inputs": [],
      "name": "chairperson",
      "outputs": [
        {
          "internalType": "address",
          "name": "",
          "type": "address"
        }
      ],
      "stateMutability": "view",
      "type": "function",
      "constant": true
    },
    {
      "inputs": [],
      "name": "starttime",
      "outputs": [
        {
          "internalType": "uint256",
          "name": "",
          "type": "uint256"
        }
      ],
      "stateMutability": "view",
      "type": "function",
      "constant": true
    },
    {
      "inputs": [
        {
          "internalType": "uint256",
          "name": "",
          "type": "uint256"
        }
      ],
      "name": "tiebreakers",
      "outputs": [
        {
          "internalType": "string",
          "name": "candidate_name",
          "type": "string"
        },
        {
          "internalType": "uint256",
          "name": "no_of_votes",
          "type": "uint256"
        }
      ],
      "stateMutability": "view",
      "type": "function",
      "constant": true
    },
    {
      "inputs": [
        {
          "internalType": "uint256",
          "name": "",
          "type": "uint256"
        }
      ],
      "name": "voter_address",
      "outputs": [
        {
          "internalType": "address",
          "name": "",
          "type": "address"
        }
      ],
      "stateMutability": "view",
      "type": "function",
      "constant": true
    },
    {
      "inputs": [
        {
          "internalType": "address",
          "name": "",
          "type": "address"
        }
      ],
      "name": "voters",
      "outputs": [
        {
          "internalType": "bool",
          "name": "voted",
          "type": "bool"
        },
        {
          "internalType": "bool",
          "name": "registered",
          "type": "bool"
        },
        {
          "internalType": "address",
          "name": "delegate",
          "type": "address"
        },
        {
          "internalType": "uint256",
          "name": "vote",
          "type": "uint256"
        },
        {
          "internalType": "uint256",
          "name": "weight",
          "type": "uint256"
        }
      ],
      "stateMutability": "view",
      "type": "function",
      "constant": true
    },
    {
      "inputs": [
        {
          "internalType": "uint256",
          "name": "no_of_voters",
          "type": "uint256"
        },
        {
          "internalType": "uint256",
          "name": "r",
          "type": "uint256"
        },
        {
          "internalType": "uint256",
          "name": "v",
          "type": "uint256"
        },
        {
          "internalType": "uint256",
          "name": "rev",
          "type": "uint256"
        }
      ],
      "name": "set",
      "outputs": [],
      "stateMutability": "nonpayable",
      "type": "function"
    },
    {
      "inputs": [
        {
          "internalType": "string[]",
          "name": "arr",
          "type": "string[]"
        }
      ],
      "name": "add_candidates",
      "outputs": [],
      "stateMutability": "nonpayable",
      "type": "function"
    },
    {
      "inputs": [
        {
          "internalType": "uint256",
          "name": "index",
          "type": "uint256"
        }
      ],
      "name": "get_names",
      "outputs": [
        {
          "internalType": "string",
          "name": "",
          "type": "string"
        }
      ],
      "stateMutability": "view",
      "type": "function",
      "constant": true
    },
    {
      "inputs": [],
      "name": "get_winners_length",
      "outputs": [
        {
          "internalType": "uint256",
          "name": "",
          "type": "uint256"
        }
      ],
      "stateMutability": "view",
      "type": "function",
      "constant": true
    },
    {
      "inputs": [
        {
          "internalType": "uint256",
          "name": "index",
          "type": "uint256"
        }
      ],
      "name": "get_winners",
      "outputs": [
        {
          "internalType": "string",
          "name": "",
          "type": "string"
        }
      ],
      "stateMutability": "view",
      "type": "function",
      "constant": true
    },
    {
      "inputs": [],
      "name": "start",
      "outputs": [],
      "stateMutability": "nonpayable",
      "type": "function"
    },
    {
      "inputs": [],
      "name": "register",
      "outputs": [],
      "stateMutability": "nonpayable",
      "type": "function"
    },
    {
      "inputs": [
        {
          "internalType": "uint256",
          "name": "vo",
          "type": "uint256"
        }
      ],
      "name": "voting_process",
      "outputs": [],
      "stateMutability": "nonpayable",
      "type": "function"
    },
    {
      "inputs": [],
      "name": "reveal_winner",
      "outputs": [],
      "stateMutability": "nonpayable",
      "type": "function"
    },
    {
      "inputs": [],
      "name": "tiecalculate",
      "outputs": [],
      "stateMutability": "nonpayable",
      "type": "function"
    },
    {
      "inputs": [],
      "name": "reset",
      "outputs": [],
      "stateMutability": "nonpayable",
      "type": "function"
    }
  ],
  "bytecode": "0x60806040526000600760006101000a81548160ff0219169083151502179055506000600760016101000a81548160ff02191690831515021790555034801561004657600080fd5b50336000806101000a81548173ffffffffffffffffffffffffffffffffffffffff021916908373ffffffffffffffffffffffffffffffffffffffff160217905550612094806100966000396000f3fe608060405234801561001057600080fd5b50600436106101165760003560e01c80638a177c7e116100a2578063a3ec138d11610071578063a3ec138d146102a9578063a769c14c146102dd578063be9a65551461030d578063d826f88f14610317578063fe3a4bd21461032157610116565b80638a177c7e146102355780638da588971461025157806390a1cecd1461026f578063976a48e91461027957610116565b80632e4176cf116100e95780632e4176cf1461017d5780633477ee2e1461019b578063562a7f5c146101cc5780635aa54a8b146101e8578063606ce3bf1461021957610116565b806306e728ee1461011b5780630af8e41e146101395780630f31b7d2146101435780631aa3a00814610173575b600080fd5b61012361033f565b60405161013091906113ee565b60405180910390f35b61014161034c565b005b61015d60048036038101906101589190611449565b610356565b60405161016a9190611506565b60405180910390f35b61017b61040d565b005b61018561077f565b6040516101929190611569565b60405180910390f35b6101b560048036038101906101b09190611449565b6107a3565b6040516101c3929190611584565b60405180910390f35b6101e660048036038101906101e191906117cf565b61085f565b005b61020260048036038101906101fd9190611449565b6108d0565b604051610210929190611584565b60405180910390f35b610233600480360381019061022e9190611818565b61098c565b005b61024f600480360381019061024a9190611449565b610af8565b005b610259610cee565b60405161026691906113ee565b60405180910390f35b610277610cf4565b005b610293600480360381019061028e9190611449565b610ef7565b6040516102a09190611569565b60405180910390f35b6102c360048036038101906102be91906118ab565b610f36565b6040516102d49594939291906118f3565b60405180910390f35b6102f760048036038101906102f29190611449565b610fa6565b6040516103049190611506565b60405180910390f35b61031561105d565b005b61031f611165565b005b610329611372565b60405161033691906113ee565b60405180910390f35b6000600380549050905090565b610354610cf4565b565b60606003828154811061036c5761036b611946565b5b90600052602060002090600202016000018054610388906119a4565b80601f01602080910402602001604051908101604052809291908181526020018280546103b4906119a4565b80156104015780601f106103d657610100808354040283529160200191610401565b820191906000526020600020905b8154815290600101906020018083116103e457829003601f168201915b50505050509050919050565b60008054906101000a900473ffffffffffffffffffffffffffffffffffffffff1673ffffffffffffffffffffffffffffffffffffffff163373ffffffffffffffffffffffffffffffffffffffff160361049b576040517f08c379a000000000000000000000000000000000000000000000000000000000815260040161049290611a21565b60405180910390fd5b60011515600760009054906101000a900460ff161515146104f1576040517f08c379a00000000000000000000000000000000000000000000000000000000081526004016104e890611a8d565b60405180910390fd5b60011515600760019054906101000a900460ff16151514610547576040517f08c379a000000000000000000000000000000000000000000000000000000000815260040161053e90611af9565b60405180910390fd5b600033905060001515600160008373ffffffffffffffffffffffffffffffffffffffff1673ffffffffffffffffffffffffffffffffffffffff16815260200190815260200160002060000160009054906101000a900460ff161515146105e2576040517f08c379a00000000000000000000000000000000000000000000000000000000081526004016105d990611b65565b60405180910390fd5b60001515600160008373ffffffffffffffffffffffffffffffffffffffff1673ffffffffffffffffffffffffffffffffffffffff16815260200190815260200160002060000160019054906101000a900460ff16151514610678576040517f08c379a000000000000000000000000000000000000000000000000000000000815260040161066f90611bd1565b60405180910390fd5b60018060008373ffffffffffffffffffffffffffffffffffffffff1673ffffffffffffffffffffffffffffffffffffffff1681526020019081526020016000206002018190555060018060008373ffffffffffffffffffffffffffffffffffffffff1673ffffffffffffffffffffffffffffffffffffffff16815260200190815260200160002060000160016101000a81548160ff0219169083151502179055506004819080600181540180825580915050600190039060005260206000200160009091909190916101000a81548173ffffffffffffffffffffffffffffffffffffffff021916908373ffffffffffffffffffffffffffffffffffffffff16021790555050565b60008054906101000a900473ffffffffffffffffffffffffffffffffffffffff1681565b600281815481106107b357600080fd5b90600052602060002090600202016000915090508060000180546107d6906119a4565b80601f0160208091040260200160405190810160405280929190818152602001828054610802906119a4565b801561084f5780601f106108245761010080835404028352916020019161084f565b820191906000526020600020905b81548152906001019060200180831161083257829003601f168201915b5050505050908060010154905082565b60005b6005548110156108cc5781818151811061087f5761087e611946565b5b60200260200101516002828154811061089b5761089a611946565b5b906000526020600020906002020160000190816108b89190611d9d565b5080806108c490611e9e565b915050610862565b5050565b600381815481106108e057600080fd5b9060005260206000209060020201600091509050806000018054610903906119a4565b80601f016020809104026020016040519081016040528092919081815260200182805461092f906119a4565b801561097c5780601f106109515761010080835404028352916020019161097c565b820191906000526020600020905b81548152906001019060200180831161095f57829003601f168201915b5050505050908060010154905082565b60008054906101000a900473ffffffffffffffffffffffffffffffffffffffff1673ffffffffffffffffffffffffffffffffffffffff163373ffffffffffffffffffffffffffffffffffffffff16146109e457600080fd5b60001515600760009054906101000a900460ff16151514610a0457600080fd5b60005b84811015610aba57600260405180604001604052806040518060400160405280600981526020017f63616e64696461746500000000000000000000000000000000000000000000008152508152602001600081525090806001815401808255809150506001900390600052602060002090600202016000909190919091506000820151816000019081610a9a9190611d9d565b506020820151816001015550508080610ab290611e9e565b915050610a07565b50836005819055506001600760006101000a81548160ff021916908315150217905550826008819055508160098190555080600a8190555050505050565b6000600160003373ffffffffffffffffffffffffffffffffffffffff1673ffffffffffffffffffffffffffffffffffffffff1681526020019081526020016000206002015403610b7d576040517f08c379a0000000000000000000000000000000000000000000000000000000008152600401610b7490611f32565b60405180910390fd5b600160003373ffffffffffffffffffffffffffffffffffffffff1673ffffffffffffffffffffffffffffffffffffffff16815260200190815260200160002060000160009054906101000a900460ff1615610c0d576040517f08c379a0000000000000000000000000000000000000000000000000000000008152600401610c0490611b65565b60405180910390fd5b80600160003373ffffffffffffffffffffffffffffffffffffffff1673ffffffffffffffffffffffffffffffffffffffff1681526020019081526020016000206001018190555060018060003373ffffffffffffffffffffffffffffffffffffffff1673ffffffffffffffffffffffffffffffffffffffff16815260200190815260200160002060000160006101000a81548160ff021916908315150217905550600160028281548110610cc457610cc3611946565b5b90600052602060002090600202016001016000828254610ce49190611f52565b9250508190555050565b60065481565b6000805b600280549050811015610d6e5760028181548110610d1957610d18611946565b5b906000526020600020906002020160010154821015610d5b5760028181548110610d4657610d45611946565b5b90600052602060002090600202016001015491505b8080610d6690611e9e565b915050610cf8565b5060005b600280549050811015610ef35760028181548110610d9357610d92611946565b5b9060005260206000209060020201600101548203610ee0576003604051806040016040528060028481548110610dcc57610dcb611946565b5b90600052602060002090600202016000018054610de8906119a4565b80601f0160208091040260200160405190810160405280929190818152602001828054610e14906119a4565b8015610e615780601f10610e3657610100808354040283529160200191610e61565b820191906000526020600020905b815481529060010190602001808311610e4457829003601f168201915b5050505050815260200160028481548110610e7f57610e7e611946565b5b90600052602060002090600202016001015481525090806001815401808255809150506001900390600052602060002090600202016000909190919091506000820151816000019081610ed29190611d9d565b506020820151816001015550505b8080610eeb90611e9e565b915050610d72565b5050565b60048181548110610f0757600080fd5b906000526020600020016000915054906101000a900473ffffffffffffffffffffffffffffffffffffffff1681565b60016020528060005260406000206000915090508060000160009054906101000a900460ff16908060000160019054906101000a900460ff16908060000160029054906101000a900473ffffffffffffffffffffffffffffffffffffffff16908060010154908060020154905085565b606060028281548110610fbc57610fbb611946565b5b90600052602060002090600202016000018054610fd8906119a4565b80601f0160208091040260200160405190810160405280929190818152602001828054611004906119a4565b80156110515780601f1061102657610100808354040283529160200191611051565b820191906000526020600020905b81548152906001019060200180831161103457829003601f168201915b50505050509050919050565b60008054906101000a900473ffffffffffffffffffffffffffffffffffffffff1673ffffffffffffffffffffffffffffffffffffffff163373ffffffffffffffffffffffffffffffffffffffff16146110eb576040517f08c379a00000000000000000000000000000000000000000000000000000000081526004016110e290611fd2565b60405180910390fd5b60001515600760019054906101000a900460ff16151514611141576040517f08c379a00000000000000000000000000000000000000000000000000000000081526004016111389061203e565b60405180910390fd5b426006819055506001600760016101000a81548160ff021916908315150217905550565b600060058190555060006006819055506000600760016101000a81548160ff0219169083151502179055506000600760006101000a81548160ff02191690831515021790555060005b60028054905081101561120b57600281815481106111cf576111ce611946565b5b9060005260206000209060020201600080820160006111ee9190611378565b60018201600090555050808061120390611e9e565b9150506111ae565b5060005b60038054905081101561126c57600381815481106112305761122f611946565b5b90600052602060002090600202016000808201600061124f9190611378565b60018201600090555050808061126490611e9e565b91505061120f565b5060005b60048054905081101561136f57600160006004838154811061129557611294611946565b5b9060005260206000200160009054906101000a900473ffffffffffffffffffffffffffffffffffffffff1673ffffffffffffffffffffffffffffffffffffffff1673ffffffffffffffffffffffffffffffffffffffff168152602001908152602001600020600080820160006101000a81549060ff02191690556000820160016101000a81549060ff02191690556000820160026101000a81549073ffffffffffffffffffffffffffffffffffffffff0219169055600182016000905560028201600090555050808061136790611e9e565b915050611270565b50565b60055481565b508054611384906119a4565b6000825580601f1061139657506113b5565b601f0160209004906000526020600020908101906113b491906113b8565b5b50565b5b808211156113d15760008160009055506001016113b9565b5090565b6000819050919050565b6113e8816113d5565b82525050565b600060208201905061140360008301846113df565b92915050565b6000604051905090565b600080fd5b600080fd5b611426816113d5565b811461143157600080fd5b50565b6000813590506114438161141d565b92915050565b60006020828403121561145f5761145e611413565b5b600061146d84828501611434565b91505092915050565b600081519050919050565b600082825260208201905092915050565b60005b838110156114b0578082015181840152602081019050611495565b60008484015250505050565b6000601f19601f8301169050919050565b60006114d882611476565b6114e28185611481565b93506114f2818560208601611492565b6114fb816114bc565b840191505092915050565b6000602082019050818103600083015261152081846114cd565b905092915050565b600073ffffffffffffffffffffffffffffffffffffffff82169050919050565b600061155382611528565b9050919050565b61156381611548565b82525050565b600060208201905061157e600083018461155a565b92915050565b6000604082019050818103600083015261159e81856114cd565b90506115ad60208301846113df565b9392505050565b600080fd5b7f4e487b7100000000000000000000000000000000000000000000000000000000600052604160045260246000fd5b6115f1826114bc565b810181811067ffffffffffffffff821117156116105761160f6115b9565b5b80604052505050565b6000611623611409565b905061162f82826115e8565b919050565b600067ffffffffffffffff82111561164f5761164e6115b9565b5b602082029050602081019050919050565b600080fd5b600080fd5b600067ffffffffffffffff821115611685576116846115b9565b5b61168e826114bc565b9050602081019050919050565b82818337600083830152505050565b60006116bd6116b88461166a565b611619565b9050828152602081018484840111156116d9576116d8611665565b5b6116e484828561169b565b509392505050565b600082601f830112611701576117006115b4565b5b81356117118482602086016116aa565b91505092915050565b600061172d61172884611634565b611619565b905080838252602082019050602084028301858111156117505761174f611660565b5b835b8181101561179757803567ffffffffffffffff811115611775576117746115b4565b5b80860161178289826116ec565b85526020850194505050602081019050611752565b5050509392505050565b600082601f8301126117b6576117b56115b4565b5b81356117c684826020860161171a565b91505092915050565b6000602082840312156117e5576117e4611413565b5b600082013567ffffffffffffffff81111561180357611802611418565b5b61180f848285016117a1565b91505092915050565b6000806000806080858703121561183257611831611413565b5b600061184087828801611434565b945050602061185187828801611434565b935050604061186287828801611434565b925050606061187387828801611434565b91505092959194509250565b61188881611548565b811461189357600080fd5b50565b6000813590506118a58161187f565b92915050565b6000602082840312156118c1576118c0611413565b5b60006118cf84828501611896565b91505092915050565b60008115159050919050565b6118ed816118d8565b82525050565b600060a08201905061190860008301886118e4565b61191560208301876118e4565b611922604083018661155a565b61192f60608301856113df565b61193c60808301846113df565b9695505050505050565b7f4e487b7100000000000000000000000000000000000000000000000000000000600052603260045260246000fd5b7f4e487b7100000000000000000000000000000000000000000000000000000000600052602260045260246000fd5b600060028204905060018216806119bc57607f821691505b6020821081036119cf576119ce611975565b5b50919050565b7f6368616972706572736f6e000000000000000000000000000000000000000000600082015250565b6000611a0b600b83611481565b9150611a16826119d5565b602082019050919050565b60006020820190508181036000830152611a3a816119fe565b9050919050565b7f63686169727065736f6e20646964206e6f742073657400000000000000000000600082015250565b6000611a77601683611481565b9150611a8282611a41565b602082019050919050565b60006020820190508181036000830152611aa681611a6a565b9050919050565b7f6368616972706572736f6e20646964206e6f7420737461727400000000000000600082015250565b6000611ae3601983611481565b9150611aee82611aad565b602082019050919050565b60006020820190508181036000830152611b1281611ad6565b9050919050565b7f766f74657220616c726561647920766f74656400000000000000000000000000600082015250565b6000611b4f601383611481565b9150611b5a82611b19565b602082019050919050565b60006020820190508181036000830152611b7e81611b42565b9050919050565b7f616c726561647920726567697374657265640000000000000000000000000000600082015250565b6000611bbb601283611481565b9150611bc682611b85565b602082019050919050565b60006020820190508181036000830152611bea81611bae565b9050919050565b60008190508160005260206000209050919050565b60006020601f8301049050919050565b600082821b905092915050565b600060088302611c537fffffffffffffffffffffffffffffffffffffffffffffffffffffffffffffffff82611c16565b611c5d8683611c16565b95508019841693508086168417925050509392505050565b6000819050919050565b6000611c9a611c95611c90846113d5565b611c75565b6113d5565b9050919050565b6000819050919050565b611cb483611c7f565b611cc8611cc082611ca1565b848454611c23565b825550505050565b600090565b611cdd611cd0565b611ce8818484611cab565b505050565b5b81811015611d0c57611d01600082611cd5565b600181019050611cee565b5050565b601f821115611d5157611d2281611bf1565b611d2b84611c06565b81016020851015611d3a578190505b611d4e611d4685611c06565b830182611ced565b50505b505050565b600082821c905092915050565b6000611d7460001984600802611d56565b1980831691505092915050565b6000611d8d8383611d63565b9150826002028217905092915050565b611da682611476565b67ffffffffffffffff811115611dbf57611dbe6115b9565b5b611dc982546119a4565b611dd4828285611d10565b600060209050601f831160018114611e075760008415611df5578287015190505b611dff8582611d81565b865550611e67565b601f198416611e1586611bf1565b60005b82811015611e3d57848901518255600182019150602085019450602081019050611e18565b86831015611e5a5784890151611e56601f891682611d63565b8355505b6001600288020188555050505b505050505050565b7f4e487b7100000000000000000000000000000000000000000000000000000000600052601160045260246000fd5b6000611ea9826113d5565b91507fffffffffffffffffffffffffffffffffffffffffffffffffffffffffffffffff8203611edb57611eda611e6f565b5b600182019050919050565b7f766f746572206e6f742072656769737465726564000000000000000000000000600082015250565b6000611f1c601483611481565b9150611f2782611ee6565b602082019050919050565b60006020820190508181036000830152611f4b81611f0f565b9050919050565b6000611f5d826113d5565b9150611f68836113d5565b9250828201905080821115611f8057611f7f611e6f565b5b92915050565b7f6e6f74206368616972706572736f6e0000000000000000000000000000000000600082015250565b6000611fbc600f83611481565b9150611fc782611f86565b602082019050919050565b60006020820190508181036000830152611feb81611faf565b9050919050565b7f2073746172746564000000000000000000000000000000000000000000000000600082015250565b6000612028600883611481565b915061203382611ff2565b602082019050919050565b600060208201905081810360008301526120578161201b565b905091905056fea2646970667358221220095c8fa24eefa165365c5e75615908de339e107fc1ab6062bb14fa9b96a8483664736f6c63430008110033",
  "immutableReferences": {},
  "source": "pragma solidity  ^0.8.17;\r\n// SPDX-License-Identifier: GPL-3.0\r\ncontract voting{\r\n    // state variables\r\n    address public chairperson;\r\n    struct Voters{\r\n        bool voted;\r\n        bool registered;\r\n        address delegate;\r\n        uint vote;\r\n        uint weight;\r\n        \r\n    }\r\n\r\n    mapping(address=>Voters) public voters;\r\n    struct Candidates{\r\n        string  candidate_name;\r\n        \r\n        uint no_of_votes;\r\n    }\r\n\r\n    Candidates[]  public candidates;\r\n    Candidates[] public tiebreakers;\r\n    address[] public voter_address;\r\n    uint public candidatescount;\r\n    uint public starttime;\r\n   bool isset = false;\r\n   bool isstarted = false;\r\nuint register_time;\r\nuint voting_time;\r\nuint reveal_winner_time;\r\n    constructor()  {\r\n            \r\n            chairperson = msg.sender;\r\n            \r\n                \r\n    }\r\n    function set(uint no_of_voters,uint r,uint v,uint rev) public {\r\n        require(msg.sender==chairperson);\r\n        require(isset==false);\r\n        for(uint i=0;i<no_of_voters;i++)\r\n        {\r\n            candidates.push(Candidates({\r\n                        candidate_name: \"candidate\",no_of_votes:0\r\n                }));\r\n        }\r\n        candidatescount = no_of_voters;\r\n        isset = true;\r\nregister_time = r;\r\nvoting_time = v;\r\nreveal_winner_time = rev;\r\n    }\r\n    function add_candidates(string[] memory arr) public {\r\n        for(uint i=0;i<candidatescount;i++)\r\n        {\r\n            candidates[i].candidate_name = arr[i];\r\n        }\r\n    }\r\n    function get_names(uint index) public view returns (string memory)  {\r\n        return candidates[index].candidate_name;\r\n    }\r\n    function get_winners_length() public view returns (uint ){\r\n        return tiebreakers.length;\r\n    }\r\n    function get_winners(uint index) public view returns (string memory) {\r\n        return tiebreakers[index].candidate_name;\r\n    }\r\n    function start() public{\r\n        require(msg.sender==chairperson,\"not chairperson\");\r\n        require(isstarted==false ,\" started\");\r\n        starttime = block.timestamp;\r\n        isstarted = true;\r\n    }\r\n    function register() public\r\n    {   require(msg.sender!=chairperson,\"chairperson\");  \r\n    require(isset==true,\"chairpeson did not set\");\r\n    require(isstarted==true,\"chairperson did not start\");\r\n        address voter = msg.sender;\r\n      // require(block.timestamp<= starttime + register_time*1 minutes);\r\n        require(voters[voter].voted == false,\"voter already voted\");\r\n        require(voters[voter].registered==false,\"already registered\");\r\n        voters[voter].weight = 1;\r\n        voters[voter].registered = true;\r\n        voter_address.push(voter);\r\n    }\r\n\r\n    function voting_process(uint vo) public \r\n    {     // require(block.timestamp>= starttime + register_time*1 minutes && block.timestamp<= starttime + voting_time*1 minutes);\r\n            require(voters[msg.sender].weight !=0,\"voter not registered\");\r\n            require(!voters[msg.sender].voted,\"voter already voted\");\r\n\r\n            \r\n            \r\n                voters[msg.sender].vote = vo;\r\n                voters[msg.sender].voted = true;\r\n                candidates[vo].no_of_votes += 1;\r\n            \r\n    }\r\n\r\n    function reveal_winner() public   \r\n    {  //require(block.timestamp>=starttime + reveal_winner_time*1 minutes);\r\n   \r\n       \r\n        tiecalculate();\r\n        \r\n      \r\n    }\r\n    function tiecalculate() public\r\n    {\r\n        uint winningvotecounts = 0;\r\n      \r\n        for(uint i=0;i<candidates.length;i++)\r\n        {\r\n                if(winningvotecounts<candidates[i].no_of_votes)\r\n                {\r\n                    winningvotecounts = candidates[i].no_of_votes;\r\n                   \r\n                }\r\n               \r\n        }\r\n       \r\n        for(uint i=0;i<candidates.length;i++)\r\n        {\r\n            if(winningvotecounts == candidates[i].no_of_votes)\r\n            {\r\n                tiebreakers.push(Candidates({\r\n                    candidate_name: candidates[i].candidate_name,\r\n                    no_of_votes: candidates[i].no_of_votes\r\n                }));\r\n            }\r\n        }\r\n    }\r\n\r\n   \r\n   /* function tie(uint v) public\r\n    {\r\n        require(msg.sender == chairperson);\r\n        require(tiebreakers.length>1);\r\n        \r\n        candidates[v].no_of_votes += 1;\r\n    }*/\r\n    \r\n    function reset() public \r\n    {\r\n        candidatescount = 0;\r\n        starttime = 0;\r\n        isstarted = false;\r\n        isset = false;\r\n        for(uint256 i=0;i<candidates.length;i++)\r\n        {\r\n            delete candidates[i];\r\n            \r\n        }\r\n        for(uint256 i=0;i<tiebreakers.length;i++)\r\n        {\r\n            \r\n            delete tiebreakers[i];\r\n        }\r\n        for(uint256 i=0;i<voter_address.length;i++)\r\n        {\r\n            delete voters[voter_address[i]];\r\n        }\r\n        \r\n        \r\n        \r\n    }\r\n}",
  "sourcePath": "C:\\Users\\lakka\\OneDrive - Manipal Academy of Higher Education\\FIDUCIA\\voting-gui\\contracts\\voting.sol",
  "compiler": {
    "name": "solc",
    "version": "0.8.17+commit.8df45f5f.Emscripten.clang"
  },
  "schemaVersion": "3.4.11",
  "updatedAt": "2023-07-23T12:10:46.192Z",
  "networkType": "ethereum",
  "devdoc": {
    "kind": "dev",
    "methods": {},
    "version": 1
  },
  "userdoc": {
    "kind": "user",
    "methods": {},
    "version": 1
  }
}