{
  "contractName": "voting",
  "abi": [
    {
      "inputs": [],
      "stateMutability": "nonpayable",
      "type": "constructor"
    },
    {
      "inputs": [
        {
          "internalType": "uint256",
          "name": "",
          "type": "uint256"
        }
      ],
      "name": "candidates",
      "outputs": [
        {
          "internalType": "string",
          "name": "candidate_name",
          "type": "string"
        },
        {
          "internalType": "uint256",
          "name": "no_of_votes",
          "type": "uint256"
        }
      ],
      "stateMutability": "view",
      "type": "function",
      "constant": true
    },
    {
      "inputs": [],
      "name": "candidatescount",
      "outputs": [
        {
          "internalType": "uint256",
          "name": "",
          "type": "uint256"
        }
      ],
      "stateMutability": "view",
      "type": "function",
      "constant": true
    },
    {
      "inputs": [],
      "name": "chairperson",
      "outputs": [
        {
          "internalType": "address",
          "name": "",
          "type": "address"
        }
      ],
      "stateMutability": "view",
      "type": "function",
      "constant": true
    },
    {
      "inputs": [],
      "name": "starttime",
      "outputs": [
        {
          "internalType": "uint256",
          "name": "",
          "type": "uint256"
        }
      ],
      "stateMutability": "view",
      "type": "function",
      "constant": true
    },
    {
      "inputs": [
        {
          "internalType": "uint256",
          "name": "",
          "type": "uint256"
        }
      ],
      "name": "tiebreakers",
      "outputs": [
        {
          "internalType": "string",
          "name": "candidate_name",
          "type": "string"
        },
        {
          "internalType": "uint256",
          "name": "no_of_votes",
          "type": "uint256"
        }
      ],
      "stateMutability": "view",
      "type": "function",
      "constant": true
    },
    {
      "inputs": [
        {
          "internalType": "uint256",
          "name": "",
          "type": "uint256"
        }
      ],
      "name": "voter_address",
      "outputs": [
        {
          "internalType": "address",
          "name": "",
          "type": "address"
        }
      ],
      "stateMutability": "view",
      "type": "function",
      "constant": true
    },
    {
      "inputs": [
        {
          "internalType": "address",
          "name": "",
          "type": "address"
        }
      ],
      "name": "voters",
      "outputs": [
        {
          "internalType": "bool",
          "name": "voted",
          "type": "bool"
        },
        {
          "internalType": "bool",
          "name": "registered",
          "type": "bool"
        },
        {
          "internalType": "address",
          "name": "delegate",
          "type": "address"
        },
        {
          "internalType": "uint256",
          "name": "vote",
          "type": "uint256"
        },
        {
          "internalType": "uint256",
          "name": "weight",
          "type": "uint256"
        }
      ],
      "stateMutability": "view",
      "type": "function",
      "constant": true
    },
    {
      "inputs": [
        {
          "internalType": "uint256",
          "name": "no_of_voters",
          "type": "uint256"
        },
        {
          "internalType": "uint256",
          "name": "r",
          "type": "uint256"
        },
        {
          "internalType": "uint256",
          "name": "v",
          "type": "uint256"
        },
        {
          "internalType": "uint256",
          "name": "rev",
          "type": "uint256"
        }
      ],
      "name": "set",
      "outputs": [],
      "stateMutability": "nonpayable",
      "type": "function"
    },
    {
      "inputs": [
        {
          "internalType": "string[]",
          "name": "arr",
          "type": "string[]"
        }
      ],
      "name": "add_candidates",
      "outputs": [],
      "stateMutability": "nonpayable",
      "type": "function"
    },
    {
      "inputs": [],
      "name": "start",
      "outputs": [],
      "stateMutability": "nonpayable",
      "type": "function"
    },
    {
      "inputs": [],
      "name": "register",
      "outputs": [],
      "stateMutability": "nonpayable",
      "type": "function"
    },
    {
      "inputs": [
        {
          "internalType": "uint256",
          "name": "vo",
          "type": "uint256"
        }
      ],
      "name": "voting_process",
      "outputs": [],
      "stateMutability": "nonpayable",
      "type": "function"
    },
    {
      "inputs": [],
      "name": "reveal_winner",
      "outputs": [],
      "stateMutability": "nonpayable",
      "type": "function"
    },
    {
      "inputs": [],
      "name": "tiecalculate",
      "outputs": [],
      "stateMutability": "nonpayable",
      "type": "function"
    },
    {
      "inputs": [],
      "name": "reset",
      "outputs": [],
      "stateMutability": "nonpayable",
      "type": "function"
    }
  ],
  "bytecode": "0x60806040526000600760006101000a81548160ff0219169083151502179055506000600760016101000a81548160ff02191690831515021790555034801561004657600080fd5b50336000806101000a81548173ffffffffffffffffffffffffffffffffffffffff021916908373ffffffffffffffffffffffffffffffffffffffff160217905550611e58806100966000396000f3fe608060405234801561001057600080fd5b50600436106100f55760003560e01c80638a177c7e11610097578063a3ec138d11610066578063a3ec138d1461023a578063be9a65551461026e578063d826f88f14610278578063fe3a4bd214610282576100f5565b80638a177c7e146101c65780638da58897146101e257806390a1cecd14610200578063976a48e91461020a576100f5565b80633477ee2e116100d35780633477ee2e1461012c578063562a7f5c1461015d5780635aa54a8b14610179578063606ce3bf146101aa576100f5565b80630af8e41e146100fa5780631aa3a008146101045780632e4176cf1461010e575b600080fd5b6101026102a0565b005b61010c6102aa565b005b61011661061c565b60405161012391906111fc565b60405180910390f35b61014660048036038101906101419190611261565b610640565b60405161015492919061132d565b60405180910390f35b61017760048036038101906101729190611578565b6106fc565b005b610193600480360381019061018e9190611261565b61076d565b6040516101a192919061132d565b60405180910390f35b6101c460048036038101906101bf91906115c1565b610829565b005b6101e060048036038101906101db9190611261565b610995565b005b6101ea610b8b565b6040516101f79190611628565b60405180910390f35b610208610b91565b005b610224600480360381019061021f9190611261565b610d94565b60405161023191906111fc565b60405180910390f35b610254600480360381019061024f919061166f565b610dd3565b6040516102659594939291906116b7565b60405180910390f35b610276610e43565b005b610280610f4b565b005b61028a611158565b6040516102979190611628565b60405180910390f35b6102a8610b91565b565b60008054906101000a900473ffffffffffffffffffffffffffffffffffffffff1673ffffffffffffffffffffffffffffffffffffffff163373ffffffffffffffffffffffffffffffffffffffff1603610338576040517f08c379a000000000000000000000000000000000000000000000000000000000815260040161032f90611756565b60405180910390fd5b60011515600760009054906101000a900460ff1615151461038e576040517f08c379a0000000000000000000000000000000000000000000000000000000008152600401610385906117c2565b60405180910390fd5b60011515600760019054906101000a900460ff161515146103e4576040517f08c379a00000000000000000000000000000000000000000000000000000000081526004016103db9061182e565b60405180910390fd5b600033905060001515600160008373ffffffffffffffffffffffffffffffffffffffff1673ffffffffffffffffffffffffffffffffffffffff16815260200190815260200160002060000160009054906101000a900460ff1615151461047f576040517f08c379a00000000000000000000000000000000000000000000000000000000081526004016104769061189a565b60405180910390fd5b60001515600160008373ffffffffffffffffffffffffffffffffffffffff1673ffffffffffffffffffffffffffffffffffffffff16815260200190815260200160002060000160019054906101000a900460ff16151514610515576040517f08c379a000000000000000000000000000000000000000000000000000000000815260040161050c90611906565b60405180910390fd5b60018060008373ffffffffffffffffffffffffffffffffffffffff1673ffffffffffffffffffffffffffffffffffffffff1681526020019081526020016000206002018190555060018060008373ffffffffffffffffffffffffffffffffffffffff1673ffffffffffffffffffffffffffffffffffffffff16815260200190815260200160002060000160016101000a81548160ff0219169083151502179055506004819080600181540180825580915050600190039060005260206000200160009091909190916101000a81548173ffffffffffffffffffffffffffffffffffffffff021916908373ffffffffffffffffffffffffffffffffffffffff16021790555050565b60008054906101000a900473ffffffffffffffffffffffffffffffffffffffff1681565b6002818154811061065057600080fd5b906000526020600020906002020160009150905080600001805461067390611955565b80601f016020809104026020016040519081016040528092919081815260200182805461069f90611955565b80156106ec5780601f106106c1576101008083540402835291602001916106ec565b820191906000526020600020905b8154815290600101906020018083116106cf57829003601f168201915b5050505050908060010154905082565b60005b6005548110156107695781818151811061071c5761071b611986565b5b60200260200101516002828154811061073857610737611986565b5b906000526020600020906002020160000190816107559190611b61565b50808061076190611c62565b9150506106ff565b5050565b6003818154811061077d57600080fd5b90600052602060002090600202016000915090508060000180546107a090611955565b80601f01602080910402602001604051908101604052809291908181526020018280546107cc90611955565b80156108195780601f106107ee57610100808354040283529160200191610819565b820191906000526020600020905b8154815290600101906020018083116107fc57829003601f168201915b5050505050908060010154905082565b60008054906101000a900473ffffffffffffffffffffffffffffffffffffffff1673ffffffffffffffffffffffffffffffffffffffff163373ffffffffffffffffffffffffffffffffffffffff161461088157600080fd5b60001515600760009054906101000a900460ff161515146108a157600080fd5b60005b8481101561095757600260405180604001604052806040518060400160405280600981526020017f63616e646964617465000000000000000000000000000000000000000000000081525081526020016000815250908060018154018082558091505060019003906000526020600020906002020160009091909190915060008201518160000190816109379190611b61565b50602082015181600101555050808061094f90611c62565b9150506108a4565b50836005819055506001600760006101000a81548160ff021916908315150217905550826008819055508160098190555080600a8190555050505050565b6000600160003373ffffffffffffffffffffffffffffffffffffffff1673ffffffffffffffffffffffffffffffffffffffff1681526020019081526020016000206002015403610a1a576040517f08c379a0000000000000000000000000000000000000000000000000000000008152600401610a1190611cf6565b60405180910390fd5b600160003373ffffffffffffffffffffffffffffffffffffffff1673ffffffffffffffffffffffffffffffffffffffff16815260200190815260200160002060000160009054906101000a900460ff1615610aaa576040517f08c379a0000000000000000000000000000000000000000000000000000000008152600401610aa19061189a565b60405180910390fd5b80600160003373ffffffffffffffffffffffffffffffffffffffff1673ffffffffffffffffffffffffffffffffffffffff1681526020019081526020016000206001018190555060018060003373ffffffffffffffffffffffffffffffffffffffff1673ffffffffffffffffffffffffffffffffffffffff16815260200190815260200160002060000160006101000a81548160ff021916908315150217905550600160028281548110610b6157610b60611986565b5b90600052602060002090600202016001016000828254610b819190611d16565b9250508190555050565b60065481565b6000805b600280549050811015610c0b5760028181548110610bb657610bb5611986565b5b906000526020600020906002020160010154821015610bf85760028181548110610be357610be2611986565b5b90600052602060002090600202016001015491505b8080610c0390611c62565b915050610b95565b5060005b600280549050811015610d905760028181548110610c3057610c2f611986565b5b9060005260206000209060020201600101548203610d7d576003604051806040016040528060028481548110610c6957610c68611986565b5b90600052602060002090600202016000018054610c8590611955565b80601f0160208091040260200160405190810160405280929190818152602001828054610cb190611955565b8015610cfe5780601f10610cd357610100808354040283529160200191610cfe565b820191906000526020600020905b815481529060010190602001808311610ce157829003601f168201915b5050505050815260200160028481548110610d1c57610d1b611986565b5b90600052602060002090600202016001015481525090806001815401808255809150506001900390600052602060002090600202016000909190919091506000820151816000019081610d6f9190611b61565b506020820151816001015550505b8080610d8890611c62565b915050610c0f565b5050565b60048181548110610da457600080fd5b906000526020600020016000915054906101000a900473ffffffffffffffffffffffffffffffffffffffff1681565b60016020528060005260406000206000915090508060000160009054906101000a900460ff16908060000160019054906101000a900460ff16908060000160029054906101000a900473ffffffffffffffffffffffffffffffffffffffff16908060010154908060020154905085565b60008054906101000a900473ffffffffffffffffffffffffffffffffffffffff1673ffffffffffffffffffffffffffffffffffffffff163373ffffffffffffffffffffffffffffffffffffffff1614610ed1576040517f08c379a0000000000000000000000000000000000000000000000000000000008152600401610ec890611d96565b60405180910390fd5b60001515600760019054906101000a900460ff16151514610f27576040517f08c379a0000000000000000000000000000000000000000000000000000000008152600401610f1e90611e02565b60405180910390fd5b426006819055506001600760016101000a81548160ff021916908315150217905550565b600060058190555060006006819055506000600760016101000a81548160ff0219169083151502179055506000600760006101000a81548160ff02191690831515021790555060005b600280549050811015610ff15760028181548110610fb557610fb4611986565b5b906000526020600020906002020160008082016000610fd4919061115e565b600182016000905550508080610fe990611c62565b915050610f94565b5060005b600380549050811015611052576003818154811061101657611015611986565b5b906000526020600020906002020160008082016000611035919061115e565b60018201600090555050808061104a90611c62565b915050610ff5565b5060005b60048054905081101561115557600160006004838154811061107b5761107a611986565b5b9060005260206000200160009054906101000a900473ffffffffffffffffffffffffffffffffffffffff1673ffffffffffffffffffffffffffffffffffffffff1673ffffffffffffffffffffffffffffffffffffffff168152602001908152602001600020600080820160006101000a81549060ff02191690556000820160016101000a81549060ff02191690556000820160026101000a81549073ffffffffffffffffffffffffffffffffffffffff0219169055600182016000905560028201600090555050808061114d90611c62565b915050611056565b50565b60055481565b50805461116a90611955565b6000825580601f1061117c575061119b565b601f01602090049060005260206000209081019061119a919061119e565b5b50565b5b808211156111b757600081600090555060010161119f565b5090565b600073ffffffffffffffffffffffffffffffffffffffff82169050919050565b60006111e6826111bb565b9050919050565b6111f6816111db565b82525050565b600060208201905061121160008301846111ed565b92915050565b6000604051905090565b600080fd5b600080fd5b6000819050919050565b61123e8161122b565b811461124957600080fd5b50565b60008135905061125b81611235565b92915050565b60006020828403121561127757611276611221565b5b60006112858482850161124c565b91505092915050565b600081519050919050565b600082825260208201905092915050565b60005b838110156112c85780820151818401526020810190506112ad565b60008484015250505050565b6000601f19601f8301169050919050565b60006112f08261128e565b6112fa8185611299565b935061130a8185602086016112aa565b611313816112d4565b840191505092915050565b6113278161122b565b82525050565b6000604082019050818103600083015261134781856112e5565b9050611356602083018461131e565b9392505050565b600080fd5b7f4e487b7100000000000000000000000000000000000000000000000000000000600052604160045260246000fd5b61139a826112d4565b810181811067ffffffffffffffff821117156113b9576113b8611362565b5b80604052505050565b60006113cc611217565b90506113d88282611391565b919050565b600067ffffffffffffffff8211156113f8576113f7611362565b5b602082029050602081019050919050565b600080fd5b600080fd5b600067ffffffffffffffff82111561142e5761142d611362565b5b611437826112d4565b9050602081019050919050565b82818337600083830152505050565b600061146661146184611413565b6113c2565b9050828152602081018484840111156114825761148161140e565b5b61148d848285611444565b509392505050565b600082601f8301126114aa576114a961135d565b5b81356114ba848260208601611453565b91505092915050565b60006114d66114d1846113dd565b6113c2565b905080838252602082019050602084028301858111156114f9576114f8611409565b5b835b8181101561154057803567ffffffffffffffff81111561151e5761151d61135d565b5b80860161152b8982611495565b855260208501945050506020810190506114fb565b5050509392505050565b600082601f83011261155f5761155e61135d565b5b813561156f8482602086016114c3565b91505092915050565b60006020828403121561158e5761158d611221565b5b600082013567ffffffffffffffff8111156115ac576115ab611226565b5b6115b88482850161154a565b91505092915050565b600080600080608085870312156115db576115da611221565b5b60006115e98782880161124c565b94505060206115fa8782880161124c565b935050604061160b8782880161124c565b925050606061161c8782880161124c565b91505092959194509250565b600060208201905061163d600083018461131e565b92915050565b61164c816111db565b811461165757600080fd5b50565b60008135905061166981611643565b92915050565b60006020828403121561168557611684611221565b5b60006116938482850161165a565b91505092915050565b60008115159050919050565b6116b18161169c565b82525050565b600060a0820190506116cc60008301886116a8565b6116d960208301876116a8565b6116e660408301866111ed565b6116f3606083018561131e565b611700608083018461131e565b9695505050505050565b7f6368616972706572736f6e000000000000000000000000000000000000000000600082015250565b6000611740600b83611299565b915061174b8261170a565b602082019050919050565b6000602082019050818103600083015261176f81611733565b9050919050565b7f63686169727065736f6e20646964206e6f742073657400000000000000000000600082015250565b60006117ac601683611299565b91506117b782611776565b602082019050919050565b600060208201905081810360008301526117db8161179f565b9050919050565b7f6368616972706572736f6e20646964206e6f7420737461727400000000000000600082015250565b6000611818601983611299565b9150611823826117e2565b602082019050919050565b600060208201905081810360008301526118478161180b565b9050919050565b7f766f74657220616c726561647920766f74656400000000000000000000000000600082015250565b6000611884601383611299565b915061188f8261184e565b602082019050919050565b600060208201905081810360008301526118b381611877565b9050919050565b7f616c726561647920726567697374657265640000000000000000000000000000600082015250565b60006118f0601283611299565b91506118fb826118ba565b602082019050919050565b6000602082019050818103600083015261191f816118e3565b9050919050565b7f4e487b7100000000000000000000000000000000000000000000000000000000600052602260045260246000fd5b6000600282049050600182168061196d57607f821691505b6020821081036119805761197f611926565b5b50919050565b7f4e487b7100000000000000000000000000000000000000000000000000000000600052603260045260246000fd5b60008190508160005260206000209050919050565b60006020601f8301049050919050565b600082821b905092915050565b600060088302611a177fffffffffffffffffffffffffffffffffffffffffffffffffffffffffffffffff826119da565b611a2186836119da565b95508019841693508086168417925050509392505050565b6000819050919050565b6000611a5e611a59611a548461122b565b611a39565b61122b565b9050919050565b6000819050919050565b611a7883611a43565b611a8c611a8482611a65565b8484546119e7565b825550505050565b600090565b611aa1611a94565b611aac818484611a6f565b505050565b5b81811015611ad057611ac5600082611a99565b600181019050611ab2565b5050565b601f821115611b1557611ae6816119b5565b611aef846119ca565b81016020851015611afe578190505b611b12611b0a856119ca565b830182611ab1565b50505b505050565b600082821c905092915050565b6000611b3860001984600802611b1a565b1980831691505092915050565b6000611b518383611b27565b9150826002028217905092915050565b611b6a8261128e565b67ffffffffffffffff811115611b8357611b82611362565b5b611b8d8254611955565b611b98828285611ad4565b600060209050601f831160018114611bcb5760008415611bb9578287015190505b611bc38582611b45565b865550611c2b565b601f198416611bd9866119b5565b60005b82811015611c0157848901518255600182019150602085019450602081019050611bdc565b86831015611c1e5784890151611c1a601f891682611b27565b8355505b6001600288020188555050505b505050505050565b7f4e487b7100000000000000000000000000000000000000000000000000000000600052601160045260246000fd5b6000611c6d8261122b565b91507fffffffffffffffffffffffffffffffffffffffffffffffffffffffffffffffff8203611c9f57611c9e611c33565b5b600182019050919050565b7f766f746572206e6f742072656769737465726564000000000000000000000000600082015250565b6000611ce0601483611299565b9150611ceb82611caa565b602082019050919050565b60006020820190508181036000830152611d0f81611cd3565b9050919050565b6000611d218261122b565b9150611d2c8361122b565b9250828201905080821115611d4457611d43611c33565b5b92915050565b7f6e6f74206368616972706572736f6e0000000000000000000000000000000000600082015250565b6000611d80600f83611299565b9150611d8b82611d4a565b602082019050919050565b60006020820190508181036000830152611daf81611d73565b9050919050565b7f2073746172746564000000000000000000000000000000000000000000000000600082015250565b6000611dec600883611299565b9150611df782611db6565b602082019050919050565b60006020820190508181036000830152611e1b81611ddf565b905091905056fea26469706673582212205c866d85e5102cd8497aa2b61ae875793941272eb725b9ee386c111525ed768664736f6c63430008110033",
  "immutableReferences": {},
  "source": "pragma solidity  ^0.8.17;\r\n// SPDX-License-Identifier: GPL-3.0\r\ncontract voting{\r\n    // state variables\r\n    address public chairperson;\r\n    struct Voters{\r\n        bool voted;\r\n        bool registered;\r\n        address delegate;\r\n        uint vote;\r\n        uint weight;\r\n        \r\n    }\r\n\r\n    mapping(address=>Voters) public voters;\r\n    struct Candidates{\r\n        string  candidate_name;\r\n        \r\n        uint no_of_votes;\r\n    }\r\n\r\n    Candidates[]  public candidates;\r\n    Candidates[] public tiebreakers;\r\n    address[] public voter_address;\r\n    uint public candidatescount;\r\n    uint public starttime;\r\n   bool isset = false;\r\n   bool isstarted = false;\r\nuint register_time;\r\nuint voting_time;\r\nuint reveal_winner_time;\r\n    constructor()  {\r\n            \r\n            chairperson = msg.sender;\r\n            \r\n                \r\n    }\r\n    function set(uint no_of_voters,uint r,uint v,uint rev) public {\r\n        require(msg.sender==chairperson);\r\n        require(isset==false);\r\n        for(uint i=0;i<no_of_voters;i++)\r\n        {\r\n            candidates.push(Candidates({\r\n                        candidate_name: \"candidate\",no_of_votes:0\r\n                }));\r\n        }\r\n        candidatescount = no_of_voters;\r\n        isset = true;\r\nregister_time = r;\r\nvoting_time = v;\r\nreveal_winner_time = rev;\r\n    }\r\n    function add_candidates(string[] memory arr) public {\r\n        for(uint i=0;i<candidatescount;i++)\r\n        {\r\n            candidates[i].candidate_name = arr[i];\r\n        }\r\n    }\r\n    function start() public{\r\n        require(msg.sender==chairperson,\"not chairperson\");\r\n        require(isstarted==false ,\" started\");\r\n        starttime = block.timestamp;\r\n        isstarted = true;\r\n    }\r\n    function register() public\r\n    {   require(msg.sender!=chairperson,\"chairperson\");  \r\n    require(isset==true,\"chairpeson did not set\");\r\n    require(isstarted==true,\"chairperson did not start\");\r\n        address voter = msg.sender;\r\n      // require(block.timestamp<= starttime + register_time*1 minutes);\r\n        require(voters[voter].voted == false,\"voter already voted\");\r\n        require(voters[voter].registered==false,\"already registered\");\r\n        voters[voter].weight = 1;\r\n        voters[voter].registered = true;\r\n        voter_address.push(voter);\r\n    }\r\n\r\n    function voting_process(uint vo) public \r\n    {     // require(block.timestamp>= starttime + register_time*1 minutes && block.timestamp<= starttime + voting_time*1 minutes);\r\n            require(voters[msg.sender].weight !=0,\"voter not registered\");\r\n            require(!voters[msg.sender].voted,\"voter already voted\");\r\n\r\n            \r\n            \r\n                voters[msg.sender].vote = vo;\r\n                voters[msg.sender].voted = true;\r\n                candidates[vo].no_of_votes += 1;\r\n            \r\n    }\r\n\r\n    function reveal_winner() public   \r\n    {  //require(block.timestamp>=starttime + reveal_winner_time*1 minutes);\r\n   \r\n       \r\n        tiecalculate();\r\n        \r\n      \r\n    }\r\n    function tiecalculate() public\r\n    {\r\n        uint winningvotecounts = 0;\r\n      \r\n        for(uint i=0;i<candidates.length;i++)\r\n        {\r\n                if(winningvotecounts<candidates[i].no_of_votes)\r\n                {\r\n                    winningvotecounts = candidates[i].no_of_votes;\r\n                   \r\n                }\r\n               \r\n        }\r\n       \r\n        for(uint i=0;i<candidates.length;i++)\r\n        {\r\n            if(winningvotecounts == candidates[i].no_of_votes)\r\n            {\r\n                tiebreakers.push(Candidates({\r\n                    candidate_name: candidates[i].candidate_name,\r\n                    no_of_votes: candidates[i].no_of_votes\r\n                }));\r\n            }\r\n        }\r\n    }\r\n\r\n   \r\n   /* function tie(uint v) public\r\n    {\r\n        require(msg.sender == chairperson);\r\n        require(tiebreakers.length>1);\r\n        \r\n        candidates[v].no_of_votes += 1;\r\n    }*/\r\n    \r\n    function reset() public \r\n    {\r\n        candidatescount = 0;\r\n        starttime = 0;\r\n        isstarted = false;\r\n        isset = false;\r\n        for(uint256 i=0;i<candidates.length;i++)\r\n        {\r\n            delete candidates[i];\r\n            \r\n        }\r\n        for(uint256 i=0;i<tiebreakers.length;i++)\r\n        {\r\n            \r\n            delete tiebreakers[i];\r\n        }\r\n        for(uint256 i=0;i<voter_address.length;i++)\r\n        {\r\n            delete voters[voter_address[i]];\r\n        }\r\n        \r\n        \r\n        \r\n    }\r\n}",
  "sourcePath": "C:\\Users\\lakka\\OneDrive - Manipal Academy of Higher Education\\FIDUCIA\\voting-gui\\contracts\\voting.sol",
  "compiler": {
    "name": "solc",
    "version": "0.8.17+commit.8df45f5f.Emscripten.clang"
  },
  "schemaVersion": "3.4.11",
  "updatedAt": "2023-07-22T16:55:36.049Z",
  "networkType": "ethereum",
  "devdoc": {
    "kind": "dev",
    "methods": {},
    "version": 1
  },
  "userdoc": {
    "kind": "user",
    "methods": {},
    "version": 1
  }
}