{
  "contractName": "voting",
  "abi": [
    {
      "inputs": [],
      "stateMutability": "nonpayable",
      "type": "constructor"
    },
    {
      "inputs": [
        {
          "internalType": "uint256",
          "name": "",
          "type": "uint256"
        }
      ],
      "name": "candidates",
      "outputs": [
        {
          "internalType": "string",
          "name": "candidate_name",
          "type": "string"
        },
        {
          "internalType": "uint256",
          "name": "no_of_votes",
          "type": "uint256"
        }
      ],
      "stateMutability": "view",
      "type": "function",
      "constant": true
    },
    {
      "inputs": [],
      "name": "candidatescount",
      "outputs": [
        {
          "internalType": "uint256",
          "name": "",
          "type": "uint256"
        }
      ],
      "stateMutability": "view",
      "type": "function",
      "constant": true
    },
    {
      "inputs": [],
      "name": "chairperson",
      "outputs": [
        {
          "internalType": "address",
          "name": "",
          "type": "address"
        }
      ],
      "stateMutability": "view",
      "type": "function",
      "constant": true
    },
    {
      "inputs": [],
      "name": "starttime",
      "outputs": [
        {
          "internalType": "uint256",
          "name": "",
          "type": "uint256"
        }
      ],
      "stateMutability": "view",
      "type": "function",
      "constant": true
    },
    {
      "inputs": [
        {
          "internalType": "uint256",
          "name": "",
          "type": "uint256"
        }
      ],
      "name": "tiebreakers",
      "outputs": [
        {
          "internalType": "string",
          "name": "candidate_name",
          "type": "string"
        },
        {
          "internalType": "uint256",
          "name": "no_of_votes",
          "type": "uint256"
        }
      ],
      "stateMutability": "view",
      "type": "function",
      "constant": true
    },
    {
      "inputs": [
        {
          "internalType": "uint256",
          "name": "",
          "type": "uint256"
        }
      ],
      "name": "voter_address",
      "outputs": [
        {
          "internalType": "address",
          "name": "",
          "type": "address"
        }
      ],
      "stateMutability": "view",
      "type": "function",
      "constant": true
    },
    {
      "inputs": [
        {
          "internalType": "address",
          "name": "",
          "type": "address"
        }
      ],
      "name": "voters",
      "outputs": [
        {
          "internalType": "bool",
          "name": "voted",
          "type": "bool"
        },
        {
          "internalType": "bool",
          "name": "registered",
          "type": "bool"
        },
        {
          "internalType": "address",
          "name": "delegate",
          "type": "address"
        },
        {
          "internalType": "uint256",
          "name": "vote",
          "type": "uint256"
        },
        {
          "internalType": "uint256",
          "name": "weight",
          "type": "uint256"
        }
      ],
      "stateMutability": "view",
      "type": "function",
      "constant": true
    },
    {
      "inputs": [
        {
          "internalType": "uint256",
          "name": "no_of_voters",
          "type": "uint256"
        },
        {
          "internalType": "uint256",
          "name": "r",
          "type": "uint256"
        },
        {
          "internalType": "uint256",
          "name": "v",
          "type": "uint256"
        },
        {
          "internalType": "uint256",
          "name": "rev",
          "type": "uint256"
        }
      ],
      "name": "set",
      "outputs": [],
      "stateMutability": "nonpayable",
      "type": "function"
    },
    {
      "inputs": [
        {
          "internalType": "string[]",
          "name": "arr",
          "type": "string[]"
        }
      ],
      "name": "add_candidates",
      "outputs": [],
      "stateMutability": "nonpayable",
      "type": "function"
    },
    {
      "inputs": [
        {
          "internalType": "uint256",
          "name": "index",
          "type": "uint256"
        }
      ],
      "name": "get_names",
      "outputs": [
        {
          "internalType": "string",
          "name": "",
          "type": "string"
        }
      ],
      "stateMutability": "view",
      "type": "function",
      "constant": true
    },
    {
      "inputs": [],
      "name": "start",
      "outputs": [],
      "stateMutability": "nonpayable",
      "type": "function"
    },
    {
      "inputs": [],
      "name": "register",
      "outputs": [],
      "stateMutability": "nonpayable",
      "type": "function"
    },
    {
      "inputs": [
        {
          "internalType": "uint256",
          "name": "vo",
          "type": "uint256"
        }
      ],
      "name": "voting_process",
      "outputs": [],
      "stateMutability": "nonpayable",
      "type": "function"
    },
    {
      "inputs": [],
      "name": "reveal_winner",
      "outputs": [],
      "stateMutability": "nonpayable",
      "type": "function"
    },
    {
      "inputs": [],
      "name": "tiecalculate",
      "outputs": [],
      "stateMutability": "nonpayable",
      "type": "function"
    },
    {
      "inputs": [],
      "name": "reset",
      "outputs": [],
      "stateMutability": "nonpayable",
      "type": "function"
    }
  ],
  "bytecode": "0x60806040526000600760006101000a81548160ff0219169083151502179055506000600760016101000a81548160ff02191690831515021790555034801561004657600080fd5b50336000806101000a81548173ffffffffffffffffffffffffffffffffffffffff021916908373ffffffffffffffffffffffffffffffffffffffff160217905550611f6c806100966000396000f3fe608060405234801561001057600080fd5b50600436106101005760003560e01c80638da5889711610097578063a769c14c11610066578063a769c14c14610279578063be9a6555146102a9578063d826f88f146102b3578063fe3a4bd2146102bd57610100565b80638da58897146101ed57806390a1cecd1461020b578063976a48e914610215578063a3ec138d1461024557610100565b8063562a7f5c116100d3578063562a7f5c146101685780635aa54a8b14610184578063606ce3bf146101b55780638a177c7e146101d157610100565b80630af8e41e146101055780631aa3a0081461010f5780632e4176cf146101195780633477ee2e14610137575b600080fd5b61010d6102db565b005b6101176102e5565b005b610121610657565b60405161012e91906112ee565b60405180910390f35b610151600480360381019061014c9190611353565b61067b565b60405161015f92919061141f565b60405180910390f35b610182600480360381019061017d919061166a565b610737565b005b61019e60048036038101906101999190611353565b6107a8565b6040516101ac92919061141f565b60405180910390f35b6101cf60048036038101906101ca91906116b3565b610864565b005b6101eb60048036038101906101e69190611353565b6109d0565b005b6101f5610bc6565b604051610202919061171a565b60405180910390f35b610213610bcc565b005b61022f600480360381019061022a9190611353565b610dcf565b60405161023c91906112ee565b60405180910390f35b61025f600480360381019061025a9190611761565b610e0e565b6040516102709594939291906117a9565b60405180910390f35b610293600480360381019061028e9190611353565b610e7e565b6040516102a091906117fc565b60405180910390f35b6102b1610f35565b005b6102bb61103d565b005b6102c561124a565b6040516102d2919061171a565b60405180910390f35b6102e3610bcc565b565b60008054906101000a900473ffffffffffffffffffffffffffffffffffffffff1673ffffffffffffffffffffffffffffffffffffffff163373ffffffffffffffffffffffffffffffffffffffff1603610373576040517f08c379a000000000000000000000000000000000000000000000000000000000815260040161036a9061186a565b60405180910390fd5b60011515600760009054906101000a900460ff161515146103c9576040517f08c379a00000000000000000000000000000000000000000000000000000000081526004016103c0906118d6565b60405180910390fd5b60011515600760019054906101000a900460ff1615151461041f576040517f08c379a000000000000000000000000000000000000000000000000000000000815260040161041690611942565b60405180910390fd5b600033905060001515600160008373ffffffffffffffffffffffffffffffffffffffff1673ffffffffffffffffffffffffffffffffffffffff16815260200190815260200160002060000160009054906101000a900460ff161515146104ba576040517f08c379a00000000000000000000000000000000000000000000000000000000081526004016104b1906119ae565b60405180910390fd5b60001515600160008373ffffffffffffffffffffffffffffffffffffffff1673ffffffffffffffffffffffffffffffffffffffff16815260200190815260200160002060000160019054906101000a900460ff16151514610550576040517f08c379a000000000000000000000000000000000000000000000000000000000815260040161054790611a1a565b60405180910390fd5b60018060008373ffffffffffffffffffffffffffffffffffffffff1673ffffffffffffffffffffffffffffffffffffffff1681526020019081526020016000206002018190555060018060008373ffffffffffffffffffffffffffffffffffffffff1673ffffffffffffffffffffffffffffffffffffffff16815260200190815260200160002060000160016101000a81548160ff0219169083151502179055506004819080600181540180825580915050600190039060005260206000200160009091909190916101000a81548173ffffffffffffffffffffffffffffffffffffffff021916908373ffffffffffffffffffffffffffffffffffffffff16021790555050565b60008054906101000a900473ffffffffffffffffffffffffffffffffffffffff1681565b6002818154811061068b57600080fd5b90600052602060002090600202016000915090508060000180546106ae90611a69565b80601f01602080910402602001604051908101604052809291908181526020018280546106da90611a69565b80156107275780601f106106fc57610100808354040283529160200191610727565b820191906000526020600020905b81548152906001019060200180831161070a57829003601f168201915b5050505050908060010154905082565b60005b6005548110156107a45781818151811061075757610756611a9a565b5b60200260200101516002828154811061077357610772611a9a565b5b906000526020600020906002020160000190816107909190611c75565b50808061079c90611d76565b91505061073a565b5050565b600381815481106107b857600080fd5b90600052602060002090600202016000915090508060000180546107db90611a69565b80601f016020809104026020016040519081016040528092919081815260200182805461080790611a69565b80156108545780601f1061082957610100808354040283529160200191610854565b820191906000526020600020905b81548152906001019060200180831161083757829003601f168201915b5050505050908060010154905082565b60008054906101000a900473ffffffffffffffffffffffffffffffffffffffff1673ffffffffffffffffffffffffffffffffffffffff163373ffffffffffffffffffffffffffffffffffffffff16146108bc57600080fd5b60001515600760009054906101000a900460ff161515146108dc57600080fd5b60005b8481101561099257600260405180604001604052806040518060400160405280600981526020017f63616e646964617465000000000000000000000000000000000000000000000081525081526020016000815250908060018154018082558091505060019003906000526020600020906002020160009091909190915060008201518160000190816109729190611c75565b50602082015181600101555050808061098a90611d76565b9150506108df565b50836005819055506001600760006101000a81548160ff021916908315150217905550826008819055508160098190555080600a8190555050505050565b6000600160003373ffffffffffffffffffffffffffffffffffffffff1673ffffffffffffffffffffffffffffffffffffffff1681526020019081526020016000206002015403610a55576040517f08c379a0000000000000000000000000000000000000000000000000000000008152600401610a4c90611e0a565b60405180910390fd5b600160003373ffffffffffffffffffffffffffffffffffffffff1673ffffffffffffffffffffffffffffffffffffffff16815260200190815260200160002060000160009054906101000a900460ff1615610ae5576040517f08c379a0000000000000000000000000000000000000000000000000000000008152600401610adc906119ae565b60405180910390fd5b80600160003373ffffffffffffffffffffffffffffffffffffffff1673ffffffffffffffffffffffffffffffffffffffff1681526020019081526020016000206001018190555060018060003373ffffffffffffffffffffffffffffffffffffffff1673ffffffffffffffffffffffffffffffffffffffff16815260200190815260200160002060000160006101000a81548160ff021916908315150217905550600160028281548110610b9c57610b9b611a9a565b5b90600052602060002090600202016001016000828254610bbc9190611e2a565b9250508190555050565b60065481565b6000805b600280549050811015610c465760028181548110610bf157610bf0611a9a565b5b906000526020600020906002020160010154821015610c335760028181548110610c1e57610c1d611a9a565b5b90600052602060002090600202016001015491505b8080610c3e90611d76565b915050610bd0565b5060005b600280549050811015610dcb5760028181548110610c6b57610c6a611a9a565b5b9060005260206000209060020201600101548203610db8576003604051806040016040528060028481548110610ca457610ca3611a9a565b5b90600052602060002090600202016000018054610cc090611a69565b80601f0160208091040260200160405190810160405280929190818152602001828054610cec90611a69565b8015610d395780601f10610d0e57610100808354040283529160200191610d39565b820191906000526020600020905b815481529060010190602001808311610d1c57829003601f168201915b5050505050815260200160028481548110610d5757610d56611a9a565b5b90600052602060002090600202016001015481525090806001815401808255809150506001900390600052602060002090600202016000909190919091506000820151816000019081610daa9190611c75565b506020820151816001015550505b8080610dc390611d76565b915050610c4a565b5050565b60048181548110610ddf57600080fd5b906000526020600020016000915054906101000a900473ffffffffffffffffffffffffffffffffffffffff1681565b60016020528060005260406000206000915090508060000160009054906101000a900460ff16908060000160019054906101000a900460ff16908060000160029054906101000a900473ffffffffffffffffffffffffffffffffffffffff16908060010154908060020154905085565b606060028281548110610e9457610e93611a9a565b5b90600052602060002090600202016000018054610eb090611a69565b80601f0160208091040260200160405190810160405280929190818152602001828054610edc90611a69565b8015610f295780601f10610efe57610100808354040283529160200191610f29565b820191906000526020600020905b815481529060010190602001808311610f0c57829003601f168201915b50505050509050919050565b60008054906101000a900473ffffffffffffffffffffffffffffffffffffffff1673ffffffffffffffffffffffffffffffffffffffff163373ffffffffffffffffffffffffffffffffffffffff1614610fc3576040517f08c379a0000000000000000000000000000000000000000000000000000000008152600401610fba90611eaa565b60405180910390fd5b60001515600760019054906101000a900460ff16151514611019576040517f08c379a000000000000000000000000000000000000000000000000000000000815260040161101090611f16565b60405180910390fd5b426006819055506001600760016101000a81548160ff021916908315150217905550565b600060058190555060006006819055506000600760016101000a81548160ff0219169083151502179055506000600760006101000a81548160ff02191690831515021790555060005b6002805490508110156110e357600281815481106110a7576110a6611a9a565b5b9060005260206000209060020201600080820160006110c69190611250565b6001820160009055505080806110db90611d76565b915050611086565b5060005b600380549050811015611144576003818154811061110857611107611a9a565b5b9060005260206000209060020201600080820160006111279190611250565b60018201600090555050808061113c90611d76565b9150506110e7565b5060005b60048054905081101561124757600160006004838154811061116d5761116c611a9a565b5b9060005260206000200160009054906101000a900473ffffffffffffffffffffffffffffffffffffffff1673ffffffffffffffffffffffffffffffffffffffff1673ffffffffffffffffffffffffffffffffffffffff168152602001908152602001600020600080820160006101000a81549060ff02191690556000820160016101000a81549060ff02191690556000820160026101000a81549073ffffffffffffffffffffffffffffffffffffffff0219169055600182016000905560028201600090555050808061123f90611d76565b915050611148565b50565b60055481565b50805461125c90611a69565b6000825580601f1061126e575061128d565b601f01602090049060005260206000209081019061128c9190611290565b5b50565b5b808211156112a9576000816000905550600101611291565b5090565b600073ffffffffffffffffffffffffffffffffffffffff82169050919050565b60006112d8826112ad565b9050919050565b6112e8816112cd565b82525050565b600060208201905061130360008301846112df565b92915050565b6000604051905090565b600080fd5b600080fd5b6000819050919050565b6113308161131d565b811461133b57600080fd5b50565b60008135905061134d81611327565b92915050565b60006020828403121561136957611368611313565b5b60006113778482850161133e565b91505092915050565b600081519050919050565b600082825260208201905092915050565b60005b838110156113ba57808201518184015260208101905061139f565b60008484015250505050565b6000601f19601f8301169050919050565b60006113e282611380565b6113ec818561138b565b93506113fc81856020860161139c565b611405816113c6565b840191505092915050565b6114198161131d565b82525050565b6000604082019050818103600083015261143981856113d7565b90506114486020830184611410565b9392505050565b600080fd5b7f4e487b7100000000000000000000000000000000000000000000000000000000600052604160045260246000fd5b61148c826113c6565b810181811067ffffffffffffffff821117156114ab576114aa611454565b5b80604052505050565b60006114be611309565b90506114ca8282611483565b919050565b600067ffffffffffffffff8211156114ea576114e9611454565b5b602082029050602081019050919050565b600080fd5b600080fd5b600067ffffffffffffffff8211156115205761151f611454565b5b611529826113c6565b9050602081019050919050565b82818337600083830152505050565b600061155861155384611505565b6114b4565b90508281526020810184848401111561157457611573611500565b5b61157f848285611536565b509392505050565b600082601f83011261159c5761159b61144f565b5b81356115ac848260208601611545565b91505092915050565b60006115c86115c3846114cf565b6114b4565b905080838252602082019050602084028301858111156115eb576115ea6114fb565b5b835b8181101561163257803567ffffffffffffffff8111156116105761160f61144f565b5b80860161161d8982611587565b855260208501945050506020810190506115ed565b5050509392505050565b600082601f8301126116515761165061144f565b5b81356116618482602086016115b5565b91505092915050565b6000602082840312156116805761167f611313565b5b600082013567ffffffffffffffff81111561169e5761169d611318565b5b6116aa8482850161163c565b91505092915050565b600080600080608085870312156116cd576116cc611313565b5b60006116db8782880161133e565b94505060206116ec8782880161133e565b93505060406116fd8782880161133e565b925050606061170e8782880161133e565b91505092959194509250565b600060208201905061172f6000830184611410565b92915050565b61173e816112cd565b811461174957600080fd5b50565b60008135905061175b81611735565b92915050565b60006020828403121561177757611776611313565b5b60006117858482850161174c565b91505092915050565b60008115159050919050565b6117a38161178e565b82525050565b600060a0820190506117be600083018861179a565b6117cb602083018761179a565b6117d860408301866112df565b6117e56060830185611410565b6117f26080830184611410565b9695505050505050565b6000602082019050818103600083015261181681846113d7565b905092915050565b7f6368616972706572736f6e000000000000000000000000000000000000000000600082015250565b6000611854600b8361138b565b915061185f8261181e565b602082019050919050565b6000602082019050818103600083015261188381611847565b9050919050565b7f63686169727065736f6e20646964206e6f742073657400000000000000000000600082015250565b60006118c060168361138b565b91506118cb8261188a565b602082019050919050565b600060208201905081810360008301526118ef816118b3565b9050919050565b7f6368616972706572736f6e20646964206e6f7420737461727400000000000000600082015250565b600061192c60198361138b565b9150611937826118f6565b602082019050919050565b6000602082019050818103600083015261195b8161191f565b9050919050565b7f766f74657220616c726561647920766f74656400000000000000000000000000600082015250565b600061199860138361138b565b91506119a382611962565b602082019050919050565b600060208201905081810360008301526119c78161198b565b9050919050565b7f616c726561647920726567697374657265640000000000000000000000000000600082015250565b6000611a0460128361138b565b9150611a0f826119ce565b602082019050919050565b60006020820190508181036000830152611a33816119f7565b9050919050565b7f4e487b7100000000000000000000000000000000000000000000000000000000600052602260045260246000fd5b60006002820490506001821680611a8157607f821691505b602082108103611a9457611a93611a3a565b5b50919050565b7f4e487b7100000000000000000000000000000000000000000000000000000000600052603260045260246000fd5b60008190508160005260206000209050919050565b60006020601f8301049050919050565b600082821b905092915050565b600060088302611b2b7fffffffffffffffffffffffffffffffffffffffffffffffffffffffffffffffff82611aee565b611b358683611aee565b95508019841693508086168417925050509392505050565b6000819050919050565b6000611b72611b6d611b688461131d565b611b4d565b61131d565b9050919050565b6000819050919050565b611b8c83611b57565b611ba0611b9882611b79565b848454611afb565b825550505050565b600090565b611bb5611ba8565b611bc0818484611b83565b505050565b5b81811015611be457611bd9600082611bad565b600181019050611bc6565b5050565b601f821115611c2957611bfa81611ac9565b611c0384611ade565b81016020851015611c12578190505b611c26611c1e85611ade565b830182611bc5565b50505b505050565b600082821c905092915050565b6000611c4c60001984600802611c2e565b1980831691505092915050565b6000611c658383611c3b565b9150826002028217905092915050565b611c7e82611380565b67ffffffffffffffff811115611c9757611c96611454565b5b611ca18254611a69565b611cac828285611be8565b600060209050601f831160018114611cdf5760008415611ccd578287015190505b611cd78582611c59565b865550611d3f565b601f198416611ced86611ac9565b60005b82811015611d1557848901518255600182019150602085019450602081019050611cf0565b86831015611d325784890151611d2e601f891682611c3b565b8355505b6001600288020188555050505b505050505050565b7f4e487b7100000000000000000000000000000000000000000000000000000000600052601160045260246000fd5b6000611d818261131d565b91507fffffffffffffffffffffffffffffffffffffffffffffffffffffffffffffffff8203611db357611db2611d47565b5b600182019050919050565b7f766f746572206e6f742072656769737465726564000000000000000000000000600082015250565b6000611df460148361138b565b9150611dff82611dbe565b602082019050919050565b60006020820190508181036000830152611e2381611de7565b9050919050565b6000611e358261131d565b9150611e408361131d565b9250828201905080821115611e5857611e57611d47565b5b92915050565b7f6e6f74206368616972706572736f6e0000000000000000000000000000000000600082015250565b6000611e94600f8361138b565b9150611e9f82611e5e565b602082019050919050565b60006020820190508181036000830152611ec381611e87565b9050919050565b7f2073746172746564000000000000000000000000000000000000000000000000600082015250565b6000611f0060088361138b565b9150611f0b82611eca565b602082019050919050565b60006020820190508181036000830152611f2f81611ef3565b905091905056fea26469706673582212203bbd7490af78eb69259f34dd04554b54fa73968946fa5c3230479563855d0c1864736f6c63430008110033",
  "immutableReferences": {},
  "source": "pragma solidity  ^0.8.17;\r\n// SPDX-License-Identifier: GPL-3.0\r\ncontract voting{\r\n    // state variables\r\n    address public chairperson;\r\n    struct Voters{\r\n        bool voted;\r\n        bool registered;\r\n        address delegate;\r\n        uint vote;\r\n        uint weight;\r\n        \r\n    }\r\n\r\n    mapping(address=>Voters) public voters;\r\n    struct Candidates{\r\n        string  candidate_name;\r\n        \r\n        uint no_of_votes;\r\n    }\r\n\r\n    Candidates[]  public candidates;\r\n    Candidates[] public tiebreakers;\r\n    address[] public voter_address;\r\n    uint public candidatescount;\r\n    uint public starttime;\r\n   bool isset = false;\r\n   bool isstarted = false;\r\nuint register_time;\r\nuint voting_time;\r\nuint reveal_winner_time;\r\n    constructor()  {\r\n            \r\n            chairperson = msg.sender;\r\n            \r\n                \r\n    }\r\n    function set(uint no_of_voters,uint r,uint v,uint rev) public {\r\n        require(msg.sender==chairperson);\r\n        require(isset==false);\r\n        for(uint i=0;i<no_of_voters;i++)\r\n        {\r\n            candidates.push(Candidates({\r\n                        candidate_name: \"candidate\",no_of_votes:0\r\n                }));\r\n        }\r\n        candidatescount = no_of_voters;\r\n        isset = true;\r\nregister_time = r;\r\nvoting_time = v;\r\nreveal_winner_time = rev;\r\n    }\r\n    function add_candidates(string[] memory arr) public {\r\n        for(uint i=0;i<candidatescount;i++)\r\n        {\r\n            candidates[i].candidate_name = arr[i];\r\n        }\r\n    }\r\n    function get_names(uint index) public view returns (string memory)  {\r\n        return candidates[index].candidate_name;\r\n    }\r\n    function start() public{\r\n        require(msg.sender==chairperson,\"not chairperson\");\r\n        require(isstarted==false ,\" started\");\r\n        starttime = block.timestamp;\r\n        isstarted = true;\r\n    }\r\n    function register() public\r\n    {   require(msg.sender!=chairperson,\"chairperson\");  \r\n    require(isset==true,\"chairpeson did not set\");\r\n    require(isstarted==true,\"chairperson did not start\");\r\n        address voter = msg.sender;\r\n      // require(block.timestamp<= starttime + register_time*1 minutes);\r\n        require(voters[voter].voted == false,\"voter already voted\");\r\n        require(voters[voter].registered==false,\"already registered\");\r\n        voters[voter].weight = 1;\r\n        voters[voter].registered = true;\r\n        voter_address.push(voter);\r\n    }\r\n\r\n    function voting_process(uint vo) public \r\n    {     // require(block.timestamp>= starttime + register_time*1 minutes && block.timestamp<= starttime + voting_time*1 minutes);\r\n            require(voters[msg.sender].weight !=0,\"voter not registered\");\r\n            require(!voters[msg.sender].voted,\"voter already voted\");\r\n\r\n            \r\n            \r\n                voters[msg.sender].vote = vo;\r\n                voters[msg.sender].voted = true;\r\n                candidates[vo].no_of_votes += 1;\r\n            \r\n    }\r\n\r\n    function reveal_winner() public   \r\n    {  //require(block.timestamp>=starttime + reveal_winner_time*1 minutes);\r\n   \r\n       \r\n        tiecalculate();\r\n        \r\n      \r\n    }\r\n    function tiecalculate() public\r\n    {\r\n        uint winningvotecounts = 0;\r\n      \r\n        for(uint i=0;i<candidates.length;i++)\r\n        {\r\n                if(winningvotecounts<candidates[i].no_of_votes)\r\n                {\r\n                    winningvotecounts = candidates[i].no_of_votes;\r\n                   \r\n                }\r\n               \r\n        }\r\n       \r\n        for(uint i=0;i<candidates.length;i++)\r\n        {\r\n            if(winningvotecounts == candidates[i].no_of_votes)\r\n            {\r\n                tiebreakers.push(Candidates({\r\n                    candidate_name: candidates[i].candidate_name,\r\n                    no_of_votes: candidates[i].no_of_votes\r\n                }));\r\n            }\r\n        }\r\n    }\r\n\r\n   \r\n   /* function tie(uint v) public\r\n    {\r\n        require(msg.sender == chairperson);\r\n        require(tiebreakers.length>1);\r\n        \r\n        candidates[v].no_of_votes += 1;\r\n    }*/\r\n    \r\n    function reset() public \r\n    {\r\n        candidatescount = 0;\r\n        starttime = 0;\r\n        isstarted = false;\r\n        isset = false;\r\n        for(uint256 i=0;i<candidates.length;i++)\r\n        {\r\n            delete candidates[i];\r\n            \r\n        }\r\n        for(uint256 i=0;i<tiebreakers.length;i++)\r\n        {\r\n            \r\n            delete tiebreakers[i];\r\n        }\r\n        for(uint256 i=0;i<voter_address.length;i++)\r\n        {\r\n            delete voters[voter_address[i]];\r\n        }\r\n        \r\n        \r\n        \r\n    }\r\n}",
  "sourcePath": "C:\\Users\\lakka\\OneDrive - Manipal Academy of Higher Education\\FIDUCIA\\voting-gui\\contracts\\voting.sol",
  "compiler": {
    "name": "solc",
    "version": "0.8.17+commit.8df45f5f.Emscripten.clang"
  },
  "schemaVersion": "3.4.11",
  "updatedAt": "2023-07-23T07:30:51.867Z",
  "networkType": "ethereum",
  "devdoc": {
    "kind": "dev",
    "methods": {},
    "version": 1
  },
  "userdoc": {
    "kind": "user",
    "methods": {},
    "version": 1
  }
}