{
  "contractName": "voting",
  "abi": [
    {
      "inputs": [],
      "stateMutability": "nonpayable",
      "type": "constructor"
    },
    {
      "inputs": [
        {
          "internalType": "uint256",
          "name": "",
          "type": "uint256"
        }
      ],
      "name": "candidates",
      "outputs": [
        {
          "internalType": "string",
          "name": "candidate_name",
          "type": "string"
        },
        {
          "internalType": "uint256",
          "name": "no_of_votes",
          "type": "uint256"
        }
      ],
      "stateMutability": "view",
      "type": "function",
      "constant": true
    },
    {
      "inputs": [],
      "name": "candidatescount",
      "outputs": [
        {
          "internalType": "uint256",
          "name": "",
          "type": "uint256"
        }
      ],
      "stateMutability": "view",
      "type": "function",
      "constant": true
    },
    {
      "inputs": [],
      "name": "chairperson",
      "outputs": [
        {
          "internalType": "address",
          "name": "",
          "type": "address"
        }
      ],
      "stateMutability": "view",
      "type": "function",
      "constant": true
    },
    {
      "inputs": [],
      "name": "starttime",
      "outputs": [
        {
          "internalType": "uint256",
          "name": "",
          "type": "uint256"
        }
      ],
      "stateMutability": "view",
      "type": "function",
      "constant": true
    },
    {
      "inputs": [
        {
          "internalType": "uint256",
          "name": "",
          "type": "uint256"
        }
      ],
      "name": "tiebreakers",
      "outputs": [
        {
          "internalType": "string",
          "name": "candidate_name",
          "type": "string"
        },
        {
          "internalType": "uint256",
          "name": "no_of_votes",
          "type": "uint256"
        }
      ],
      "stateMutability": "view",
      "type": "function",
      "constant": true
    },
    {
      "inputs": [
        {
          "internalType": "uint256",
          "name": "",
          "type": "uint256"
        }
      ],
      "name": "voter_address",
      "outputs": [
        {
          "internalType": "address",
          "name": "",
          "type": "address"
        }
      ],
      "stateMutability": "view",
      "type": "function",
      "constant": true
    },
    {
      "inputs": [
        {
          "internalType": "address",
          "name": "",
          "type": "address"
        }
      ],
      "name": "voters",
      "outputs": [
        {
          "internalType": "bool",
          "name": "voted",
          "type": "bool"
        },
        {
          "internalType": "bool",
          "name": "registered",
          "type": "bool"
        },
        {
          "internalType": "address",
          "name": "delegate",
          "type": "address"
        },
        {
          "internalType": "uint256",
          "name": "vote",
          "type": "uint256"
        },
        {
          "internalType": "uint256",
          "name": "weight",
          "type": "uint256"
        }
      ],
      "stateMutability": "view",
      "type": "function",
      "constant": true
    },
    {
      "inputs": [
        {
          "internalType": "uint256",
          "name": "no_of_voters",
          "type": "uint256"
        },
        {
          "internalType": "uint256",
          "name": "r",
          "type": "uint256"
        },
        {
          "internalType": "uint256",
          "name": "v",
          "type": "uint256"
        },
        {
          "internalType": "uint256",
          "name": "rev",
          "type": "uint256"
        }
      ],
      "name": "set",
      "outputs": [],
      "stateMutability": "nonpayable",
      "type": "function"
    },
    {
      "inputs": [],
      "name": "start",
      "outputs": [],
      "stateMutability": "nonpayable",
      "type": "function"
    },
    {
      "inputs": [],
      "name": "register",
      "outputs": [],
      "stateMutability": "nonpayable",
      "type": "function"
    },
    {
      "inputs": [
        {
          "internalType": "uint256",
          "name": "vo",
          "type": "uint256"
        }
      ],
      "name": "voting_process",
      "outputs": [],
      "stateMutability": "nonpayable",
      "type": "function"
    },
    {
      "inputs": [],
      "name": "reveal_winner",
      "outputs": [],
      "stateMutability": "nonpayable",
      "type": "function"
    },
    {
      "inputs": [],
      "name": "tiecalculate",
      "outputs": [],
      "stateMutability": "nonpayable",
      "type": "function"
    },
    {
      "inputs": [],
      "name": "reset",
      "outputs": [],
      "stateMutability": "nonpayable",
      "type": "function"
    }
  ],
  "bytecode": "0x60806040526000600760006101000a81548160ff0219169083151502179055506000600760016101000a81548160ff02191690831515021790555034801561004657600080fd5b50336000806101000a81548173ffffffffffffffffffffffffffffffffffffffff021916908373ffffffffffffffffffffffffffffffffffffffff160217905550611b61806100966000396000f3fe608060405234801561001057600080fd5b50600436106100ea5760003560e01c80638da588971161008c578063a3ec138d11610066578063a3ec138d14610213578063be9a655514610247578063d826f88f14610251578063fe3a4bd21461025b576100ea565b80638da58897146101bb57806390a1cecd146101d9578063976a48e9146101e3576100ea565b80633477ee2e116100c85780633477ee2e146101215780635aa54a8b14610152578063606ce3bf146101835780638a177c7e1461019f576100ea565b80630af8e41e146100ef5780631aa3a008146100f95780632e4176cf14610103575b600080fd5b6100f7610279565b005b610101610283565b005b61010b6105f5565b6040516101189190611149565b60405180910390f35b61013b6004803603810190610136919061119f565b610619565b60405161014992919061126b565b60405180910390f35b61016c6004803603810190610167919061119f565b6106d5565b60405161017a92919061126b565b60405180910390f35b61019d6004803603810190610198919061129b565b610791565b005b6101b960048036038101906101b4919061119f565b6108fd565b005b6101c3610af3565b6040516101d09190611302565b60405180910390f35b6101e1610af9565b005b6101fd60048036038101906101f8919061119f565b610cfc565b60405161020a9190611149565b60405180910390f35b61022d60048036038101906102289190611349565b610d3b565b60405161023e959493929190611391565b60405180910390f35b61024f610dab565b005b610259610e98565b005b6102636110a5565b6040516102709190611302565b60405180910390f35b610281610af9565b565b60008054906101000a900473ffffffffffffffffffffffffffffffffffffffff1673ffffffffffffffffffffffffffffffffffffffff163373ffffffffffffffffffffffffffffffffffffffff1603610311576040517f08c379a000000000000000000000000000000000000000000000000000000000815260040161030890611430565b60405180910390fd5b60011515600760009054906101000a900460ff16151514610367576040517f08c379a000000000000000000000000000000000000000000000000000000000815260040161035e9061149c565b60405180910390fd5b60011515600760019054906101000a900460ff161515146103bd576040517f08c379a00000000000000000000000000000000000000000000000000000000081526004016103b490611508565b60405180910390fd5b600033905060001515600160008373ffffffffffffffffffffffffffffffffffffffff1673ffffffffffffffffffffffffffffffffffffffff16815260200190815260200160002060000160009054906101000a900460ff16151514610458576040517f08c379a000000000000000000000000000000000000000000000000000000000815260040161044f90611574565b60405180910390fd5b60001515600160008373ffffffffffffffffffffffffffffffffffffffff1673ffffffffffffffffffffffffffffffffffffffff16815260200190815260200160002060000160019054906101000a900460ff161515146104ee576040517f08c379a00000000000000000000000000000000000000000000000000000000081526004016104e5906115e0565b60405180910390fd5b60018060008373ffffffffffffffffffffffffffffffffffffffff1673ffffffffffffffffffffffffffffffffffffffff1681526020019081526020016000206002018190555060018060008373ffffffffffffffffffffffffffffffffffffffff1673ffffffffffffffffffffffffffffffffffffffff16815260200190815260200160002060000160016101000a81548160ff0219169083151502179055506004819080600181540180825580915050600190039060005260206000200160009091909190916101000a81548173ffffffffffffffffffffffffffffffffffffffff021916908373ffffffffffffffffffffffffffffffffffffffff16021790555050565b60008054906101000a900473ffffffffffffffffffffffffffffffffffffffff1681565b6002818154811061062957600080fd5b906000526020600020906002020160009150905080600001805461064c9061162f565b80601f01602080910402602001604051908101604052809291908181526020018280546106789061162f565b80156106c55780601f1061069a576101008083540402835291602001916106c5565b820191906000526020600020905b8154815290600101906020018083116106a857829003601f168201915b5050505050908060010154905082565b600381815481106106e557600080fd5b90600052602060002090600202016000915090508060000180546107089061162f565b80601f01602080910402602001604051908101604052809291908181526020018280546107349061162f565b80156107815780601f1061075657610100808354040283529160200191610781565b820191906000526020600020905b81548152906001019060200180831161076457829003601f168201915b5050505050908060010154905082565b60008054906101000a900473ffffffffffffffffffffffffffffffffffffffff1673ffffffffffffffffffffffffffffffffffffffff163373ffffffffffffffffffffffffffffffffffffffff16146107e957600080fd5b60001515600760009054906101000a900460ff1615151461080957600080fd5b60005b848110156108bf57600260405180604001604052806040518060400160405280600981526020017f63616e6469646174650000000000000000000000000000000000000000000000815250815260200160008152509080600181540180825580915050600190039060005260206000209060020201600090919091909150600082015181600001908161089f919061183b565b5060208201518160010155505080806108b79061193c565b91505061080c565b50836005819055506001600760006101000a81548160ff021916908315150217905550826008819055508160098190555080600a8190555050505050565b6000600160003373ffffffffffffffffffffffffffffffffffffffff1673ffffffffffffffffffffffffffffffffffffffff1681526020019081526020016000206002015403610982576040517f08c379a0000000000000000000000000000000000000000000000000000000008152600401610979906119d0565b60405180910390fd5b600160003373ffffffffffffffffffffffffffffffffffffffff1673ffffffffffffffffffffffffffffffffffffffff16815260200190815260200160002060000160009054906101000a900460ff1615610a12576040517f08c379a0000000000000000000000000000000000000000000000000000000008152600401610a0990611574565b60405180910390fd5b80600160003373ffffffffffffffffffffffffffffffffffffffff1673ffffffffffffffffffffffffffffffffffffffff1681526020019081526020016000206001018190555060018060003373ffffffffffffffffffffffffffffffffffffffff1673ffffffffffffffffffffffffffffffffffffffff16815260200190815260200160002060000160006101000a81548160ff021916908315150217905550600160028281548110610ac957610ac86119f0565b5b90600052602060002090600202016001016000828254610ae99190611a1f565b9250508190555050565b60065481565b6000805b600280549050811015610b735760028181548110610b1e57610b1d6119f0565b5b906000526020600020906002020160010154821015610b605760028181548110610b4b57610b4a6119f0565b5b90600052602060002090600202016001015491505b8080610b6b9061193c565b915050610afd565b5060005b600280549050811015610cf85760028181548110610b9857610b976119f0565b5b9060005260206000209060020201600101548203610ce5576003604051806040016040528060028481548110610bd157610bd06119f0565b5b90600052602060002090600202016000018054610bed9061162f565b80601f0160208091040260200160405190810160405280929190818152602001828054610c199061162f565b8015610c665780601f10610c3b57610100808354040283529160200191610c66565b820191906000526020600020905b815481529060010190602001808311610c4957829003601f168201915b5050505050815260200160028481548110610c8457610c836119f0565b5b90600052602060002090600202016001015481525090806001815401808255809150506001900390600052602060002090600202016000909190919091506000820151816000019081610cd7919061183b565b506020820151816001015550505b8080610cf09061193c565b915050610b77565b5050565b60048181548110610d0c57600080fd5b906000526020600020016000915054906101000a900473ffffffffffffffffffffffffffffffffffffffff1681565b60016020528060005260406000206000915090508060000160009054906101000a900460ff16908060000160019054906101000a900460ff16908060000160029054906101000a900473ffffffffffffffffffffffffffffffffffffffff16908060010154908060020154905085565b60008054906101000a900473ffffffffffffffffffffffffffffffffffffffff1673ffffffffffffffffffffffffffffffffffffffff163373ffffffffffffffffffffffffffffffffffffffff1614610e39576040517f08c379a0000000000000000000000000000000000000000000000000000000008152600401610e3090611a9f565b60405180910390fd5b60001515600760019054906101000a900460ff16151514610e8f576040517f08c379a0000000000000000000000000000000000000000000000000000000008152600401610e8690611b0b565b60405180910390fd5b42600681905550565b600060058190555060006006819055506000600760016101000a81548160ff0219169083151502179055506000600760006101000a81548160ff02191690831515021790555060005b600280549050811015610f3e5760028181548110610f0257610f016119f0565b5b906000526020600020906002020160008082016000610f2191906110ab565b600182016000905550508080610f369061193c565b915050610ee1565b5060005b600380549050811015610f9f5760038181548110610f6357610f626119f0565b5b906000526020600020906002020160008082016000610f8291906110ab565b600182016000905550508080610f979061193c565b915050610f42565b5060005b6004805490508110156110a2576001600060048381548110610fc857610fc76119f0565b5b9060005260206000200160009054906101000a900473ffffffffffffffffffffffffffffffffffffffff1673ffffffffffffffffffffffffffffffffffffffff1673ffffffffffffffffffffffffffffffffffffffff168152602001908152602001600020600080820160006101000a81549060ff02191690556000820160016101000a81549060ff02191690556000820160026101000a81549073ffffffffffffffffffffffffffffffffffffffff0219169055600182016000905560028201600090555050808061109a9061193c565b915050610fa3565b50565b60055481565b5080546110b79061162f565b6000825580601f106110c957506110e8565b601f0160209004906000526020600020908101906110e791906110eb565b5b50565b5b808211156111045760008160009055506001016110ec565b5090565b600073ffffffffffffffffffffffffffffffffffffffff82169050919050565b600061113382611108565b9050919050565b61114381611128565b82525050565b600060208201905061115e600083018461113a565b92915050565b600080fd5b6000819050919050565b61117c81611169565b811461118757600080fd5b50565b60008135905061119981611173565b92915050565b6000602082840312156111b5576111b4611164565b5b60006111c38482850161118a565b91505092915050565b600081519050919050565b600082825260208201905092915050565b60005b838110156112065780820151818401526020810190506111eb565b60008484015250505050565b6000601f19601f8301169050919050565b600061122e826111cc565b61123881856111d7565b93506112488185602086016111e8565b61125181611212565b840191505092915050565b61126581611169565b82525050565b600060408201905081810360008301526112858185611223565b9050611294602083018461125c565b9392505050565b600080600080608085870312156112b5576112b4611164565b5b60006112c38782880161118a565b94505060206112d48782880161118a565b93505060406112e58782880161118a565b92505060606112f68782880161118a565b91505092959194509250565b6000602082019050611317600083018461125c565b92915050565b61132681611128565b811461133157600080fd5b50565b6000813590506113438161131d565b92915050565b60006020828403121561135f5761135e611164565b5b600061136d84828501611334565b91505092915050565b60008115159050919050565b61138b81611376565b82525050565b600060a0820190506113a66000830188611382565b6113b36020830187611382565b6113c0604083018661113a565b6113cd606083018561125c565b6113da608083018461125c565b9695505050505050565b7f6368616972706572736f6e000000000000000000000000000000000000000000600082015250565b600061141a600b836111d7565b9150611425826113e4565b602082019050919050565b600060208201905081810360008301526114498161140d565b9050919050565b7f63686169727065736f6e20646964206e6f742073657400000000000000000000600082015250565b60006114866016836111d7565b915061149182611450565b602082019050919050565b600060208201905081810360008301526114b581611479565b9050919050565b7f6368616972706572736f6e20646964206e6f7420737461727400000000000000600082015250565b60006114f26019836111d7565b91506114fd826114bc565b602082019050919050565b60006020820190508181036000830152611521816114e5565b9050919050565b7f766f74657220616c726561647920766f74656400000000000000000000000000600082015250565b600061155e6013836111d7565b915061156982611528565b602082019050919050565b6000602082019050818103600083015261158d81611551565b9050919050565b7f616c726561647920726567697374657265640000000000000000000000000000600082015250565b60006115ca6012836111d7565b91506115d582611594565b602082019050919050565b600060208201905081810360008301526115f9816115bd565b9050919050565b7f4e487b7100000000000000000000000000000000000000000000000000000000600052602260045260246000fd5b6000600282049050600182168061164757607f821691505b60208210810361165a57611659611600565b5b50919050565b7f4e487b7100000000000000000000000000000000000000000000000000000000600052604160045260246000fd5b60008190508160005260206000209050919050565b60006020601f8301049050919050565b600082821b905092915050565b6000600883026116f17fffffffffffffffffffffffffffffffffffffffffffffffffffffffffffffffff826116b4565b6116fb86836116b4565b95508019841693508086168417925050509392505050565b6000819050919050565b600061173861173361172e84611169565b611713565b611169565b9050919050565b6000819050919050565b6117528361171d565b61176661175e8261173f565b8484546116c1565b825550505050565b600090565b61177b61176e565b611786818484611749565b505050565b5b818110156117aa5761179f600082611773565b60018101905061178c565b5050565b601f8211156117ef576117c08161168f565b6117c9846116a4565b810160208510156117d8578190505b6117ec6117e4856116a4565b83018261178b565b50505b505050565b600082821c905092915050565b6000611812600019846008026117f4565b1980831691505092915050565b600061182b8383611801565b9150826002028217905092915050565b611844826111cc565b67ffffffffffffffff81111561185d5761185c611660565b5b611867825461162f565b6118728282856117ae565b600060209050601f8311600181146118a55760008415611893578287015190505b61189d858261181f565b865550611905565b601f1984166118b38661168f565b60005b828110156118db578489015182556001820191506020850194506020810190506118b6565b868310156118f857848901516118f4601f891682611801565b8355505b6001600288020188555050505b505050505050565b7f4e487b7100000000000000000000000000000000000000000000000000000000600052601160045260246000fd5b600061194782611169565b91507fffffffffffffffffffffffffffffffffffffffffffffffffffffffffffffffff82036119795761197861190d565b5b600182019050919050565b7f766f746572206e6f742072656769737465726564000000000000000000000000600082015250565b60006119ba6014836111d7565b91506119c582611984565b602082019050919050565b600060208201905081810360008301526119e9816119ad565b9050919050565b7f4e487b7100000000000000000000000000000000000000000000000000000000600052603260045260246000fd5b6000611a2a82611169565b9150611a3583611169565b9250828201905080821115611a4d57611a4c61190d565b5b92915050565b7f6e6f74206368616972706572736f6e0000000000000000000000000000000000600082015250565b6000611a89600f836111d7565b9150611a9482611a53565b602082019050919050565b60006020820190508181036000830152611ab881611a7c565b9050919050565b7f2073746172746564000000000000000000000000000000000000000000000000600082015250565b6000611af56008836111d7565b9150611b0082611abf565b602082019050919050565b60006020820190508181036000830152611b2481611ae8565b905091905056fea264697066735822122078a72c9a98cd2bc03ca365f3649e8619192220e9bb19948b81b28f2824e55e3064736f6c63430008110033",
  "immutableReferences": {},
  "source": "pragma solidity  ^0.8.17;\n// SPDX-License-Identifier: GPL-3.0\ncontract voting{\n    // state variables\n    address public chairperson;\n    struct Voters{\n        bool voted;\n        bool registered;\n        address delegate;\n        uint vote;\n        uint weight;\n        \n    }\n\n    mapping(address=>Voters) public voters;\n    struct Candidates{\n        string  candidate_name;\n        \n        uint no_of_votes;\n    }\n\n    Candidates[]  public candidates;\n    Candidates[] public tiebreakers;\n    address[] public voter_address;\n    uint public candidatescount;\n    uint public starttime;\n   bool isset = false;\n   bool isstarted = false;\nuint register_time;\nuint voting_time;\nuint reveal_winner_time;\n    constructor()  {\n            \n            chairperson = msg.sender;\n            \n                \n    }\n    function set(uint no_of_voters,uint r,uint v,uint rev) public {\n        require(msg.sender==chairperson);\n        require(isset==false);\n        for(uint i=0;i<no_of_voters;i++)\n        {\n            candidates.push(Candidates({\n                        candidate_name: \"candidate\",no_of_votes:0\n                }));\n        }\n        candidatescount = no_of_voters;\n        isset = true;\nregister_time = r;\nvoting_time = v;\nreveal_winner_time = rev;\n    }\n    function start() public{\n        require(msg.sender==chairperson,\"not chairperson\");\n        require(isstarted==false ,\" started\");\n        starttime = block.timestamp;\n    }\n    function register() public\n    {   require(msg.sender!=chairperson,\"chairperson\");  \n    require(isset==true,\"chairpeson did not set\");\n    require(isstarted==true,\"chairperson did not start\");\n        address voter = msg.sender;\n      // require(block.timestamp<= starttime + register_time*1 minutes);\n        require(voters[voter].voted == false,\"voter already voted\");\n        require(voters[voter].registered==false,\"already registered\");\n        voters[voter].weight = 1;\n        voters[voter].registered = true;\n        voter_address.push(voter);\n    }\n\n    function voting_process(uint vo) public \n    {     // require(block.timestamp>= starttime + register_time*1 minutes && block.timestamp<= starttime + voting_time*1 minutes);\n            require(voters[msg.sender].weight !=0,\"voter not registered\");\n            require(!voters[msg.sender].voted,\"voter already voted\");\n\n            \n            \n                voters[msg.sender].vote = vo;\n                voters[msg.sender].voted = true;\n                candidates[vo].no_of_votes += 1;\n            \n    }\n\n    function reveal_winner() public   \n    {  //require(block.timestamp>=starttime + reveal_winner_time*1 minutes);\n   \n       \n        tiecalculate();\n        \n      \n    }\n    function tiecalculate() public\n    {\n        uint winningvotecounts = 0;\n      \n        for(uint i=0;i<candidates.length;i++)\n        {\n                if(winningvotecounts<candidates[i].no_of_votes)\n                {\n                    winningvotecounts = candidates[i].no_of_votes;\n                   \n                }\n               \n        }\n       \n        for(uint i=0;i<candidates.length;i++)\n        {\n            if(winningvotecounts == candidates[i].no_of_votes)\n            {\n                tiebreakers.push(Candidates({\n                    candidate_name: candidates[i].candidate_name,\n                    no_of_votes: candidates[i].no_of_votes\n                }));\n            }\n        }\n    }\n\n   \n   /* function tie(uint v) public\n    {\n        require(msg.sender == chairperson);\n        require(tiebreakers.length>1);\n        \n        candidates[v].no_of_votes += 1;\n    }*/\n    \n    function reset() public \n    {\n        candidatescount = 0;\n        starttime = 0;\n        isstarted = false;\n        isset = false;\n        for(uint256 i=0;i<candidates.length;i++)\n        {\n            delete candidates[i];\n            \n        }\n        for(uint256 i=0;i<tiebreakers.length;i++)\n        {\n            \n            delete tiebreakers[i];\n        }\n        for(uint256 i=0;i<voter_address.length;i++)\n        {\n            delete voters[voter_address[i]];\n        }\n        \n        \n        \n    }\n}",
  "sourcePath": "/home/vboxuser/programming/FIDUCIA/contracts/voting.sol",
  "compiler": {
    "name": "solc",
    "version": "0.8.17+commit.8df45f5f.Emscripten.clang"
  },
  "schemaVersion": "3.4.11",
  "updatedAt": "2023-07-15T15:30:41.583Z",
  "networkType": "ethereum",
  "devdoc": {
    "kind": "dev",
    "methods": {},
    "version": 1
  },
  "userdoc": {
    "kind": "user",
    "methods": {},
    "version": 1
  }
}