{
  "contractName": "voting",
  "abi": [
    {
      "inputs": [],
      "stateMutability": "nonpayable",
      "type": "constructor"
    },
    {
      "inputs": [
        {
          "internalType": "uint256",
          "name": "",
          "type": "uint256"
        }
      ],
      "name": "candidates",
      "outputs": [
        {
          "internalType": "string",
          "name": "candidate_name",
          "type": "string"
        },
        {
          "internalType": "uint256",
          "name": "no_of_votes",
          "type": "uint256"
        }
      ],
      "stateMutability": "view",
      "type": "function",
      "constant": true
    },
    {
      "inputs": [],
      "name": "candidatescount",
      "outputs": [
        {
          "internalType": "uint256",
          "name": "",
          "type": "uint256"
        }
      ],
      "stateMutability": "view",
      "type": "function",
      "constant": true
    },
    {
      "inputs": [],
      "name": "chairperson",
      "outputs": [
        {
          "internalType": "address",
          "name": "",
          "type": "address"
        }
      ],
      "stateMutability": "view",
      "type": "function",
      "constant": true
    },
    {
      "inputs": [],
      "name": "starttime",
      "outputs": [
        {
          "internalType": "uint256",
          "name": "",
          "type": "uint256"
        }
      ],
      "stateMutability": "view",
      "type": "function",
      "constant": true
    },
    {
      "inputs": [
        {
          "internalType": "uint256",
          "name": "",
          "type": "uint256"
        }
      ],
      "name": "tiebreakers",
      "outputs": [
        {
          "internalType": "string",
          "name": "candidate_name",
          "type": "string"
        },
        {
          "internalType": "uint256",
          "name": "no_of_votes",
          "type": "uint256"
        }
      ],
      "stateMutability": "view",
      "type": "function",
      "constant": true
    },
    {
      "inputs": [
        {
          "internalType": "uint256",
          "name": "",
          "type": "uint256"
        }
      ],
      "name": "voter_address",
      "outputs": [
        {
          "internalType": "address",
          "name": "",
          "type": "address"
        }
      ],
      "stateMutability": "view",
      "type": "function",
      "constant": true
    },
    {
      "inputs": [
        {
          "internalType": "address",
          "name": "",
          "type": "address"
        }
      ],
      "name": "voters",
      "outputs": [
        {
          "internalType": "bool",
          "name": "voted",
          "type": "bool"
        },
        {
          "internalType": "bool",
          "name": "registered",
          "type": "bool"
        },
        {
          "internalType": "address",
          "name": "delegate",
          "type": "address"
        },
        {
          "internalType": "uint256",
          "name": "vote",
          "type": "uint256"
        },
        {
          "internalType": "uint256",
          "name": "weight",
          "type": "uint256"
        }
      ],
      "stateMutability": "view",
      "type": "function",
      "constant": true
    },
    {
      "inputs": [
        {
          "internalType": "uint256",
          "name": "no_of_voters",
          "type": "uint256"
        }
      ],
      "name": "set",
      "outputs": [],
      "stateMutability": "nonpayable",
      "type": "function"
    },
    {
      "inputs": [],
      "name": "get_isstarted",
      "outputs": [
        {
          "internalType": "bool",
          "name": "",
          "type": "bool"
        }
      ],
      "stateMutability": "view",
      "type": "function",
      "constant": true
    },
    {
      "inputs": [],
      "name": "get_isset",
      "outputs": [
        {
          "internalType": "bool",
          "name": "",
          "type": "bool"
        }
      ],
      "stateMutability": "view",
      "type": "function",
      "constant": true
    },
    {
      "inputs": [],
      "name": "get_isstartedregister",
      "outputs": [
        {
          "internalType": "bool",
          "name": "",
          "type": "bool"
        }
      ],
      "stateMutability": "view",
      "type": "function",
      "constant": true
    },
    {
      "inputs": [],
      "name": "get_isstoppedregister",
      "outputs": [
        {
          "internalType": "bool",
          "name": "",
          "type": "bool"
        }
      ],
      "stateMutability": "view",
      "type": "function",
      "constant": true
    },
    {
      "inputs": [],
      "name": "get_isstartedvoting",
      "outputs": [
        {
          "internalType": "bool",
          "name": "",
          "type": "bool"
        }
      ],
      "stateMutability": "view",
      "type": "function",
      "constant": true
    },
    {
      "inputs": [],
      "name": "get_isstoppedvoting",
      "outputs": [
        {
          "internalType": "bool",
          "name": "",
          "type": "bool"
        }
      ],
      "stateMutability": "view",
      "type": "function",
      "constant": true
    },
    {
      "inputs": [],
      "name": "get_isstartedreveal",
      "outputs": [
        {
          "internalType": "bool",
          "name": "",
          "type": "bool"
        }
      ],
      "stateMutability": "view",
      "type": "function",
      "constant": true
    },
    {
      "inputs": [
        {
          "internalType": "string[]",
          "name": "arr",
          "type": "string[]"
        }
      ],
      "name": "add_candidates",
      "outputs": [],
      "stateMutability": "nonpayable",
      "type": "function"
    },
    {
      "inputs": [
        {
          "internalType": "uint256",
          "name": "index",
          "type": "uint256"
        }
      ],
      "name": "get_names",
      "outputs": [
        {
          "internalType": "string",
          "name": "",
          "type": "string"
        }
      ],
      "stateMutability": "view",
      "type": "function",
      "constant": true
    },
    {
      "inputs": [],
      "name": "get_winners_length",
      "outputs": [
        {
          "internalType": "uint256",
          "name": "",
          "type": "uint256"
        }
      ],
      "stateMutability": "view",
      "type": "function",
      "constant": true
    },
    {
      "inputs": [
        {
          "internalType": "uint256",
          "name": "index",
          "type": "uint256"
        }
      ],
      "name": "get_winners",
      "outputs": [
        {
          "internalType": "string",
          "name": "",
          "type": "string"
        }
      ],
      "stateMutability": "view",
      "type": "function",
      "constant": true
    },
    {
      "inputs": [],
      "name": "start",
      "outputs": [],
      "stateMutability": "nonpayable",
      "type": "function"
    },
    {
      "inputs": [],
      "name": "start_register",
      "outputs": [],
      "stateMutability": "nonpayable",
      "type": "function"
    },
    {
      "inputs": [],
      "name": "stop_register",
      "outputs": [],
      "stateMutability": "nonpayable",
      "type": "function"
    },
    {
      "inputs": [],
      "name": "start_voting",
      "outputs": [],
      "stateMutability": "nonpayable",
      "type": "function"
    },
    {
      "inputs": [],
      "name": "stop_voting",
      "outputs": [],
      "stateMutability": "nonpayable",
      "type": "function"
    },
    {
      "inputs": [],
      "name": "start_reveal",
      "outputs": [],
      "stateMutability": "nonpayable",
      "type": "function"
    },
    {
      "inputs": [],
      "name": "register",
      "outputs": [],
      "stateMutability": "nonpayable",
      "type": "function"
    },
    {
      "inputs": [
        {
          "internalType": "uint256",
          "name": "vo",
          "type": "uint256"
        }
      ],
      "name": "voting_process",
      "outputs": [],
      "stateMutability": "nonpayable",
      "type": "function"
    },
    {
      "inputs": [],
      "name": "reveal_winner",
      "outputs": [],
      "stateMutability": "nonpayable",
      "type": "function"
    },
    {
      "inputs": [],
      "name": "tiecalculate",
      "outputs": [],
      "stateMutability": "nonpayable",
      "type": "function"
    },
    {
      "inputs": [],
      "name": "reset",
      "outputs": [],
      "stateMutability": "nonpayable",
      "type": "function"
    }
  ],
  "bytecode": "0x60806040526000600760006101000a81548160ff0219169083151502179055506000600760016101000a81548160ff0219169083151502179055506000600760026101000a81548160ff0219169083151502179055506000600760036101000a81548160ff0219169083151502179055506000600760046101000a81548160ff0219169083151502179055506000600760056101000a81548160ff0219169083151502179055506000600760066101000a81548160ff0219169083151502179055503480156100cd57600080fd5b50336000806101000a81548173ffffffffffffffffffffffffffffffffffffffff021916908373ffffffffffffffffffffffffffffffffffffffff1602179055506135c98061011d6000396000f3fe608060405234801561001057600080fd5b50600436106101da5760003560e01c80638da5889711610104578063b24aa34e116100a2578063e0c0fa9111610071578063e0c0fa91146104a3578063e92f85eb146104c1578063fd533389146104df578063fe3a4bd2146104e9576101da565b8063b24aa34e14610467578063be9a655514610471578063ca87aa781461047b578063d826f88f14610499576101da565b80639161ced8116100de5780639161ced8146103b5578063976a48e9146103d3578063a3ec138d14610403578063a769c14c14610437576101da565b80638da58897146103835780638f54eba9146103a157806390a1cecd146103ab576101da565b80632e4176cf1161017c578063562a7f5c1161014b578063562a7f5c146102fe5780635aa54a8b1461031a57806360fe47b11461034b5780638a177c7e14610367576101da565b80632e4176cf146102735780633477ee2e146102915780633ccf85ca146102c2578063414593d1146102e0576101da565b80630af8e41e116101b85780630af8e41e146102115780630f31b7d21461021b5780631aa3a0081461024b578063213cba6814610255576101da565b806304b23837146101df578063056b0f61146101e957806306e728ee146101f3575b600080fd5b6101e7610507565b005b6101f1610679565b005b6101fb61073f565b6040516102089190612329565b60405180910390f35b61021961074c565b005b61023560048036038101906102309190612384565b610992565b6040516102429190612441565b60405180910390f35b610253610a49565b005b61025d610f69565b60405161026a919061247e565b60405180910390f35b61027b610f80565b60405161028891906124da565b60405180910390f35b6102ab60048036038101906102a69190612384565b610fa4565b6040516102b99291906124f5565b60405180910390f35b6102ca611060565b6040516102d7919061247e565b60405180910390f35b6102e8611077565b6040516102f5919061247e565b60405180910390f35b61031860048036038101906103139190612740565b61108e565b005b610334600480360381019061032f9190612384565b6110ff565b6040516103429291906124f5565b60405180910390f35b61036560048036038101906103609190612384565b6111bb565b005b610381600480360381019061037c9190612384565b61130f565b005b61038b611741565b6040516103989190612329565b60405180910390f35b6103a9611747565b005b6103b361194a565b005b6103bd611b4d565b6040516103ca919061247e565b60405180910390f35b6103ed60048036038101906103e89190612384565b611b64565b6040516103fa91906124da565b60405180910390f35b61041d600480360381019061041891906127b5565b611ba3565b60405161042e9594939291906127e2565b60405180910390f35b610451600480360381019061044c9190612384565b611c13565b60405161045e9190612441565b60405180910390f35b61046f611cca565b005b610479611e21565b005b610483611f29565b604051610490919061247e565b60405180910390f35b6104a1611f40565b005b6104ab6121d4565b6040516104b8919061247e565b60405180910390f35b6104c96121eb565b6040516104d6919061247e565b60405180910390f35b6104e7612202565b005b6104f16122ad565b6040516104fe9190612329565b60405180910390f35b60008054906101000a900473ffffffffffffffffffffffffffffffffffffffff1673ffffffffffffffffffffffffffffffffffffffff163373ffffffffffffffffffffffffffffffffffffffff1614610595576040517f08c379a000000000000000000000000000000000000000000000000000000000815260040161058c90612881565b60405180910390fd5b60001515600760029054906101000a900460ff161515146105eb576040517f08c379a00000000000000000000000000000000000000000000000000000000081526004016105e290612913565b60405180910390fd5b60011515600760039054906101000a900460ff16151514610641576040517f08c379a0000000000000000000000000000000000000000000000000000000008152600401610638906129a5565b60405180910390fd5b6000600760046101000a81548160ff0219169083151502179055506001600760056101000a81548160ff021916908315150217905550565b60008054906101000a900473ffffffffffffffffffffffffffffffffffffffff1673ffffffffffffffffffffffffffffffffffffffff163373ffffffffffffffffffffffffffffffffffffffff1614610707576040517f08c379a00000000000000000000000000000000000000000000000000000000081526004016106fe90612881565b60405180910390fd5b6000600760026101000a81548160ff0219169083151502179055506001600760036101000a81548160ff021916908315150217905550565b6000600380549050905090565b60008054906101000a900473ffffffffffffffffffffffffffffffffffffffff1673ffffffffffffffffffffffffffffffffffffffff163373ffffffffffffffffffffffffffffffffffffffff16036107da576040517f08c379a00000000000000000000000000000000000000000000000000000000081526004016107d190612881565b60405180910390fd5b60001515600760029054906101000a900460ff16151514610830576040517f08c379a000000000000000000000000000000000000000000000000000000000815260040161082790612913565b60405180910390fd5b60011515600760039054906101000a900460ff16151514610886576040517f08c379a000000000000000000000000000000000000000000000000000000000815260040161087d906129a5565b60405180910390fd5b60001515600760049054906101000a900460ff161515146108dc576040517f08c379a00000000000000000000000000000000000000000000000000000000081526004016108d390612a37565b60405180910390fd5b60011515600760059054906101000a900460ff16151514610932576040517f08c379a000000000000000000000000000000000000000000000000000000000815260040161092990612ac9565b60405180910390fd5b60011515600760069054906101000a900460ff16151514610988576040517f08c379a000000000000000000000000000000000000000000000000000000000815260040161097f90612b5b565b60405180910390fd5b61099061194a565b565b6060600382815481106109a8576109a7612b7b565b5b906000526020600020906002020160000180546109c490612bd9565b80601f01602080910402602001604051908101604052809291908181526020018280546109f090612bd9565b8015610a3d5780601f10610a1257610100808354040283529160200191610a3d565b820191906000526020600020905b815481529060010190602001808311610a2057829003601f168201915b50505050509050919050565b60008054906101000a900473ffffffffffffffffffffffffffffffffffffffff1673ffffffffffffffffffffffffffffffffffffffff163373ffffffffffffffffffffffffffffffffffffffff1603610ad7576040517f08c379a0000000000000000000000000000000000000000000000000000000008152600401610ace90612881565b60405180910390fd5b60011515600760029054906101000a900460ff16151514610b2d576040517f08c379a0000000000000000000000000000000000000000000000000000000008152600401610b2490612c7c565b60405180910390fd5b60001515600760039054906101000a900460ff16151514610b83576040517f08c379a0000000000000000000000000000000000000000000000000000000008152600401610b7a90612d0e565b60405180910390fd5b60001515600760049054906101000a900460ff16151514610bd9576040517f08c379a0000000000000000000000000000000000000000000000000000000008152600401610bd090612da0565b60405180910390fd5b60001515600760059054906101000a900460ff16151514610c2f576040517f08c379a0000000000000000000000000000000000000000000000000000000008152600401610c2690612e32565b60405180910390fd5b60001515600760069054906101000a900460ff16151514610c85576040517f08c379a0000000000000000000000000000000000000000000000000000000008152600401610c7c90612ec4565b60405180910390fd5b60011515600760009054906101000a900460ff16151514610cdb576040517f08c379a0000000000000000000000000000000000000000000000000000000008152600401610cd290612f30565b60405180910390fd5b60011515600760019054906101000a900460ff16151514610d31576040517f08c379a0000000000000000000000000000000000000000000000000000000008152600401610d2890612f9c565b60405180910390fd5b600033905060001515600160008373ffffffffffffffffffffffffffffffffffffffff1673ffffffffffffffffffffffffffffffffffffffff16815260200190815260200160002060000160009054906101000a900460ff16151514610dcc576040517f08c379a0000000000000000000000000000000000000000000000000000000008152600401610dc390613008565b60405180910390fd5b60001515600160008373ffffffffffffffffffffffffffffffffffffffff1673ffffffffffffffffffffffffffffffffffffffff16815260200190815260200160002060000160019054906101000a900460ff16151514610e62576040517f08c379a0000000000000000000000000000000000000000000000000000000008152600401610e5990613074565b60405180910390fd5b60018060008373ffffffffffffffffffffffffffffffffffffffff1673ffffffffffffffffffffffffffffffffffffffff1681526020019081526020016000206002018190555060018060008373ffffffffffffffffffffffffffffffffffffffff1673ffffffffffffffffffffffffffffffffffffffff16815260200190815260200160002060000160016101000a81548160ff0219169083151502179055506004819080600181540180825580915050600190039060005260206000200160009091909190916101000a81548173ffffffffffffffffffffffffffffffffffffffff021916908373ffffffffffffffffffffffffffffffffffffffff16021790555050565b6000600760029054906101000a900460ff16905090565b60008054906101000a900473ffffffffffffffffffffffffffffffffffffffff1681565b60028181548110610fb457600080fd5b9060005260206000209060020201600091509050806000018054610fd790612bd9565b80601f016020809104026020016040519081016040528092919081815260200182805461100390612bd9565b80156110505780601f1061102557610100808354040283529160200191611050565b820191906000526020600020905b81548152906001019060200180831161103357829003601f168201915b5050505050908060010154905082565b6000600760009054906101000a900460ff16905090565b6000600760059054906101000a900460ff16905090565b60005b6005548110156110fb578181815181106110ae576110ad612b7b565b5b6020026020010151600282815481106110ca576110c9612b7b565b5b906000526020600020906002020160000190816110e79190613240565b5080806110f390613341565b915050611091565b5050565b6003818154811061110f57600080fd5b906000526020600020906002020160009150905080600001805461113290612bd9565b80601f016020809104026020016040519081016040528092919081815260200182805461115e90612bd9565b80156111ab5780601f10611180576101008083540402835291602001916111ab565b820191906000526020600020905b81548152906001019060200180831161118e57829003601f168201915b5050505050908060010154905082565b60008054906101000a900473ffffffffffffffffffffffffffffffffffffffff1673ffffffffffffffffffffffffffffffffffffffff163373ffffffffffffffffffffffffffffffffffffffff161461121357600080fd5b60001515600760009054906101000a900460ff1615151461123357600080fd5b60005b818110156112e957600260405180604001604052806040518060400160405280600981526020017f63616e646964617465000000000000000000000000000000000000000000000081525081526020016000815250908060018154018082558091505060019003906000526020600020906002020160009091909190915060008201518160000190816112c99190613240565b5060208201518160010155505080806112e190613341565b915050611236565b50806005819055506001600760006101000a81548160ff02191690831515021790555050565b6000600160003373ffffffffffffffffffffffffffffffffffffffff1673ffffffffffffffffffffffffffffffffffffffff1681526020019081526020016000206002015403611394576040517f08c379a000000000000000000000000000000000000000000000000000000000815260040161138b906133d5565b60405180910390fd5b600160003373ffffffffffffffffffffffffffffffffffffffff1673ffffffffffffffffffffffffffffffffffffffff16815260200190815260200160002060000160009054906101000a900460ff1615611424576040517f08c379a000000000000000000000000000000000000000000000000000000000815260040161141b90613008565b60405180910390fd5b60008054906101000a900473ffffffffffffffffffffffffffffffffffffffff1673ffffffffffffffffffffffffffffffffffffffff163373ffffffffffffffffffffffffffffffffffffffff16036114b2576040517f08c379a00000000000000000000000000000000000000000000000000000000081526004016114a990612881565b60405180910390fd5b60001515600760029054906101000a900460ff16151514611508576040517f08c379a00000000000000000000000000000000000000000000000000000000081526004016114ff90612913565b60405180910390fd5b60011515600760039054906101000a900460ff1615151461155e576040517f08c379a0000000000000000000000000000000000000000000000000000000008152600401611555906129a5565b60405180910390fd5b60011515600760049054906101000a900460ff161515146115b4576040517f08c379a00000000000000000000000000000000000000000000000000000000081526004016115ab90613467565b60405180910390fd5b60001515600760059054906101000a900460ff1615151461160a576040517f08c379a000000000000000000000000000000000000000000000000000000000815260040161160190612e32565b60405180910390fd5b60001515600760069054906101000a900460ff16151514611660576040517f08c379a000000000000000000000000000000000000000000000000000000000815260040161165790612ec4565b60405180910390fd5b80600160003373ffffffffffffffffffffffffffffffffffffffff1673ffffffffffffffffffffffffffffffffffffffff1681526020019081526020016000206001018190555060018060003373ffffffffffffffffffffffffffffffffffffffff1673ffffffffffffffffffffffffffffffffffffffff16815260200190815260200160002060000160006101000a81548160ff02191690831515021790555060016002828154811061171757611716612b7b565b5b906000526020600020906002020160010160008282546117379190613487565b9250508190555050565b60065481565b60008054906101000a900473ffffffffffffffffffffffffffffffffffffffff1673ffffffffffffffffffffffffffffffffffffffff163373ffffffffffffffffffffffffffffffffffffffff16146117d5576040517f08c379a00000000000000000000000000000000000000000000000000000000081526004016117cc90612881565b60405180910390fd5b60001515600760029054906101000a900460ff1615151461182b576040517f08c379a000000000000000000000000000000000000000000000000000000000815260040161182290612913565b60405180910390fd5b60011515600760039054906101000a900460ff16151514611881576040517f08c379a0000000000000000000000000000000000000000000000000000000008152600401611878906129a5565b60405180910390fd5b60001515600760049054906101000a900460ff161515146118d7576040517f08c379a00000000000000000000000000000000000000000000000000000000081526004016118ce90612a37565b60405180910390fd5b60011515600760059054906101000a900460ff1615151461192d576040517f08c379a000000000000000000000000000000000000000000000000000000000815260040161192490612ac9565b60405180910390fd5b6001600760066101000a81548160ff021916908315150217905550565b6000805b6002805490508110156119c4576002818154811061196f5761196e612b7b565b5b9060005260206000209060020201600101548210156119b1576002818154811061199c5761199b612b7b565b5b90600052602060002090600202016001015491505b80806119bc90613341565b91505061194e565b5060005b600280549050811015611b4957600281815481106119e9576119e8612b7b565b5b9060005260206000209060020201600101548203611b36576003604051806040016040528060028481548110611a2257611a21612b7b565b5b90600052602060002090600202016000018054611a3e90612bd9565b80601f0160208091040260200160405190810160405280929190818152602001828054611a6a90612bd9565b8015611ab75780601f10611a8c57610100808354040283529160200191611ab7565b820191906000526020600020905b815481529060010190602001808311611a9a57829003601f168201915b5050505050815260200160028481548110611ad557611ad4612b7b565b5b90600052602060002090600202016001015481525090806001815401808255809150506001900390600052602060002090600202016000909190919091506000820151816000019081611b289190613240565b506020820151816001015550505b8080611b4190613341565b9150506119c8565b5050565b6000600760049054906101000a900460ff16905090565b60048181548110611b7457600080fd5b906000526020600020016000915054906101000a900473ffffffffffffffffffffffffffffffffffffffff1681565b60016020528060005260406000206000915090508060000160009054906101000a900460ff16908060000160019054906101000a900460ff16908060000160029054906101000a900473ffffffffffffffffffffffffffffffffffffffff16908060010154908060020154905085565b606060028281548110611c2957611c28612b7b565b5b90600052602060002090600202016000018054611c4590612bd9565b80601f0160208091040260200160405190810160405280929190818152602001828054611c7190612bd9565b8015611cbe5780601f10611c9357610100808354040283529160200191611cbe565b820191906000526020600020905b815481529060010190602001808311611ca157829003601f168201915b50505050509050919050565b60008054906101000a900473ffffffffffffffffffffffffffffffffffffffff1673ffffffffffffffffffffffffffffffffffffffff163373ffffffffffffffffffffffffffffffffffffffff1614611d58576040517f08c379a0000000000000000000000000000000000000000000000000000000008152600401611d4f90612881565b60405180910390fd5b60001515600760029054906101000a900460ff16151514611dae576040517f08c379a0000000000000000000000000000000000000000000000000000000008152600401611da590612913565b60405180910390fd5b60011515600760039054906101000a900460ff16151514611e04576040517f08c379a0000000000000000000000000000000000000000000000000000000008152600401611dfb906129a5565b60405180910390fd5b6001600760046101000a81548160ff021916908315150217905550565b60008054906101000a900473ffffffffffffffffffffffffffffffffffffffff1673ffffffffffffffffffffffffffffffffffffffff163373ffffffffffffffffffffffffffffffffffffffff1614611eaf576040517f08c379a0000000000000000000000000000000000000000000000000000000008152600401611ea690613507565b60405180910390fd5b60001515600760019054906101000a900460ff16151514611f05576040517f08c379a0000000000000000000000000000000000000000000000000000000008152600401611efc90613573565b60405180910390fd5b426006819055506001600760016101000a81548160ff021916908315150217905550565b6000600760039054906101000a900460ff16905090565b600060058190555060006006819055506000600760016101000a81548160ff0219169083151502179055506000600760006101000a81548160ff02191690831515021790555060005b600280549050811015611fe65760028181548110611faa57611fa9612b7b565b5b906000526020600020906002020160008082016000611fc991906122b3565b600182016000905550508080611fde90613341565b915050611f89565b5060005b600380549050811015612047576003818154811061200b5761200a612b7b565b5b90600052602060002090600202016000808201600061202a91906122b3565b60018201600090555050808061203f90613341565b915050611fea565b5060005b60048054905081101561214a5760016000600483815481106120705761206f612b7b565b5b9060005260206000200160009054906101000a900473ffffffffffffffffffffffffffffffffffffffff1673ffffffffffffffffffffffffffffffffffffffff1673ffffffffffffffffffffffffffffffffffffffff168152602001908152602001600020600080820160006101000a81549060ff02191690556000820160016101000a81549060ff02191690556000820160026101000a81549073ffffffffffffffffffffffffffffffffffffffff0219169055600182016000905560028201600090555050808061214290613341565b91505061204b565b506000600760026101000a81548160ff0219169083151502179055506000600760036101000a81548160ff0219169083151502179055506000600760046101000a81548160ff0219169083151502179055506000600760056101000a81548160ff0219169083151502179055506000600760066101000a81548160ff021916908315150217905550565b6000600760019054906101000a900460ff16905090565b6000600760069054906101000a900460ff16905090565b60008054906101000a900473ffffffffffffffffffffffffffffffffffffffff1673ffffffffffffffffffffffffffffffffffffffff163373ffffffffffffffffffffffffffffffffffffffff1614612290576040517f08c379a000000000000000000000000000000000000000000000000000000000815260040161228790612881565b60405180910390fd5b6001600760026101000a81548160ff021916908315150217905550565b60055481565b5080546122bf90612bd9565b6000825580601f106122d157506122f0565b601f0160209004906000526020600020908101906122ef91906122f3565b5b50565b5b8082111561230c5760008160009055506001016122f4565b5090565b6000819050919050565b61232381612310565b82525050565b600060208201905061233e600083018461231a565b92915050565b6000604051905090565b600080fd5b600080fd5b61236181612310565b811461236c57600080fd5b50565b60008135905061237e81612358565b92915050565b60006020828403121561239a5761239961234e565b5b60006123a88482850161236f565b91505092915050565b600081519050919050565b600082825260208201905092915050565b60005b838110156123eb5780820151818401526020810190506123d0565b60008484015250505050565b6000601f19601f8301169050919050565b6000612413826123b1565b61241d81856123bc565b935061242d8185602086016123cd565b612436816123f7565b840191505092915050565b6000602082019050818103600083015261245b8184612408565b905092915050565b60008115159050919050565b61247881612463565b82525050565b6000602082019050612493600083018461246f565b92915050565b600073ffffffffffffffffffffffffffffffffffffffff82169050919050565b60006124c482612499565b9050919050565b6124d4816124b9565b82525050565b60006020820190506124ef60008301846124cb565b92915050565b6000604082019050818103600083015261250f8185612408565b905061251e602083018461231a565b9392505050565b600080fd5b7f4e487b7100000000000000000000000000000000000000000000000000000000600052604160045260246000fd5b612562826123f7565b810181811067ffffffffffffffff821117156125815761258061252a565b5b80604052505050565b6000612594612344565b90506125a08282612559565b919050565b600067ffffffffffffffff8211156125c0576125bf61252a565b5b602082029050602081019050919050565b600080fd5b600080fd5b600067ffffffffffffffff8211156125f6576125f561252a565b5b6125ff826123f7565b9050602081019050919050565b82818337600083830152505050565b600061262e612629846125db565b61258a565b90508281526020810184848401111561264a576126496125d6565b5b61265584828561260c565b509392505050565b600082601f83011261267257612671612525565b5b813561268284826020860161261b565b91505092915050565b600061269e612699846125a5565b61258a565b905080838252602082019050602084028301858111156126c1576126c06125d1565b5b835b8181101561270857803567ffffffffffffffff8111156126e6576126e5612525565b5b8086016126f3898261265d565b855260208501945050506020810190506126c3565b5050509392505050565b600082601f83011261272757612726612525565b5b813561273784826020860161268b565b91505092915050565b6000602082840312156127565761275561234e565b5b600082013567ffffffffffffffff81111561277457612773612353565b5b61278084828501612712565b91505092915050565b612792816124b9565b811461279d57600080fd5b50565b6000813590506127af81612789565b92915050565b6000602082840312156127cb576127ca61234e565b5b60006127d9848285016127a0565b91505092915050565b600060a0820190506127f7600083018861246f565b612804602083018761246f565b61281160408301866124cb565b61281e606083018561231a565b61282b608083018461231a565b9695505050505050565b7f6368616972706572736f6e000000000000000000000000000000000000000000600082015250565b600061286b600b836123bc565b915061287682612835565b602082019050919050565b6000602082019050818103600083015261289a8161285e565b9050919050565b7f6368616972706572736f6e20686173202073746172746564207265676973746560008201527f722070726f636573730000000000000000000000000000000000000000000000602082015250565b60006128fd6029836123bc565b9150612908826128a1565b604082019050919050565b6000602082019050818103600083015261292c816128f0565b9050919050565b7f6368616972706572736f6e20686173206e6f742073746f70706564207265676960008201527f737465722070726f636573730000000000000000000000000000000000000000602082015250565b600061298f602c836123bc565b915061299a82612933565b604082019050919050565b600060208201905081810360008301526129be81612982565b9050919050565b7f6368616972706572736f6e206861732020207374617274656420766f74696e6760008201527f2070726f63657373000000000000000000000000000000000000000000000000602082015250565b6000612a216028836123bc565b9150612a2c826129c5565b604082019050919050565b60006020820190508181036000830152612a5081612a14565b9050919050565b7f6368616972706572736f6e20686173206e6f74202073746f7070656420766f7460008201527f696e672070726f63657373000000000000000000000000000000000000000000602082015250565b6000612ab3602b836123bc565b9150612abe82612a57565b604082019050919050565b60006020820190508181036000830152612ae281612aa6565b9050919050565b7f6368616972706572736f6e20686173206e6f742073746172746564207265766560008201527f616c696e67207468652077696e6e657273000000000000000000000000000000602082015250565b6000612b456031836123bc565b9150612b5082612ae9565b604082019050919050565b60006020820190508181036000830152612b7481612b38565b9050919050565b7f4e487b7100000000000000000000000000000000000000000000000000000000600052603260045260246000fd5b7f4e487b7100000000000000000000000000000000000000000000000000000000600052602260045260246000fd5b60006002820490506001821680612bf157607f821691505b602082108103612c0457612c03612baa565b5b50919050565b7f6368616972706572736f6e20686173206e6f742073746172746564207265676960008201527f737465722070726f636573730000000000000000000000000000000000000000602082015250565b6000612c66602c836123bc565b9150612c7182612c0a565b604082019050919050565b60006020820190508181036000830152612c9581612c59565b9050919050565b7f6368616972706572736f6e206861732073746f7070656420726567697374657260008201527f2070726f63657373000000000000000000000000000000000000000000000000602082015250565b6000612cf86028836123bc565b9150612d0382612c9c565b604082019050919050565b60006020820190508181036000830152612d2781612ceb565b9050919050565b7f6368616972706572736f6e20686173207374617274656420766f74696e67207060008201527f726f636573730000000000000000000000000000000000000000000000000000602082015250565b6000612d8a6026836123bc565b9150612d9582612d2e565b604082019050919050565b60006020820190508181036000830152612db981612d7d565b9050919050565b7f6368616972706572736f6e206861732073746f7070656420766f74696e67207060008201527f726f636573730000000000000000000000000000000000000000000000000000602082015250565b6000612e1c6026836123bc565b9150612e2782612dc0565b604082019050919050565b60006020820190508181036000830152612e4b81612e0f565b9050919050565b7f6368616972706572736f6e2068617320737461727465642072657665616c696e60008201527f67207468652077696e6e65727300000000000000000000000000000000000000602082015250565b6000612eae602d836123bc565b9150612eb982612e52565b604082019050919050565b60006020820190508181036000830152612edd81612ea1565b9050919050565b7f63686169727065736f6e20646964206e6f742073657400000000000000000000600082015250565b6000612f1a6016836123bc565b9150612f2582612ee4565b602082019050919050565b60006020820190508181036000830152612f4981612f0d565b9050919050565b7f6368616972706572736f6e20646964206e6f7420737461727400000000000000600082015250565b6000612f866019836123bc565b9150612f9182612f50565b602082019050919050565b60006020820190508181036000830152612fb581612f79565b9050919050565b7f766f74657220616c726561647920766f74656400000000000000000000000000600082015250565b6000612ff26013836123bc565b9150612ffd82612fbc565b602082019050919050565b6000602082019050818103600083015261302181612fe5565b9050919050565b7f616c726561647920726567697374657265640000000000000000000000000000600082015250565b600061305e6012836123bc565b915061306982613028565b602082019050919050565b6000602082019050818103600083015261308d81613051565b9050919050565b60008190508160005260206000209050919050565b60006020601f8301049050919050565b600082821b905092915050565b6000600883026130f67fffffffffffffffffffffffffffffffffffffffffffffffffffffffffffffffff826130b9565b61310086836130b9565b95508019841693508086168417925050509392505050565b6000819050919050565b600061313d61313861313384612310565b613118565b612310565b9050919050565b6000819050919050565b61315783613122565b61316b61316382613144565b8484546130c6565b825550505050565b600090565b613180613173565b61318b81848461314e565b505050565b5b818110156131af576131a4600082613178565b600181019050613191565b5050565b601f8211156131f4576131c581613094565b6131ce846130a9565b810160208510156131dd578190505b6131f16131e9856130a9565b830182613190565b50505b505050565b600082821c905092915050565b6000613217600019846008026131f9565b1980831691505092915050565b60006132308383613206565b9150826002028217905092915050565b613249826123b1565b67ffffffffffffffff8111156132625761326161252a565b5b61326c8254612bd9565b6132778282856131b3565b600060209050601f8311600181146132aa5760008415613298578287015190505b6132a28582613224565b86555061330a565b601f1984166132b886613094565b60005b828110156132e0578489015182556001820191506020850194506020810190506132bb565b868310156132fd57848901516132f9601f891682613206565b8355505b6001600288020188555050505b505050505050565b7f4e487b7100000000000000000000000000000000000000000000000000000000600052601160045260246000fd5b600061334c82612310565b91507fffffffffffffffffffffffffffffffffffffffffffffffffffffffffffffffff820361337e5761337d613312565b5b600182019050919050565b7f766f746572206e6f742072656769737465726564000000000000000000000000600082015250565b60006133bf6014836123bc565b91506133ca82613389565b602082019050919050565b600060208201905081810360008301526133ee816133b2565b9050919050565b7f6368616972706572736f6e20686173206e6f7420207374617274656420766f7460008201527f696e672070726f63657373000000000000000000000000000000000000000000602082015250565b6000613451602b836123bc565b915061345c826133f5565b604082019050919050565b6000602082019050818103600083015261348081613444565b9050919050565b600061349282612310565b915061349d83612310565b92508282019050808211156134b5576134b4613312565b5b92915050565b7f6e6f74206368616972706572736f6e0000000000000000000000000000000000600082015250565b60006134f1600f836123bc565b91506134fc826134bb565b602082019050919050565b60006020820190508181036000830152613520816134e4565b9050919050565b7f2073746172746564000000000000000000000000000000000000000000000000600082015250565b600061355d6008836123bc565b915061356882613527565b602082019050919050565b6000602082019050818103600083015261358c81613550565b905091905056fea264697066735822122057a182dc077bcb05cdbd0af89b74338191a60ecc5f41b9ba8d996faa6ece109364736f6c63430008110033",
  "immutableReferences": {},
  "source": "pragma solidity  ^0.8.17;\r\n// SPDX-License-Identifier: GPL-3.0\r\ncontract voting{\r\n    // state variables\r\n    address public chairperson;\r\n    struct Voters{\r\n        bool voted;\r\n        bool registered;\r\n        address delegate;\r\n        uint vote;\r\n        uint weight;\r\n        \r\n    }\r\n\r\n    mapping(address=>Voters) public voters;\r\n    struct Candidates{\r\n        string  candidate_name;\r\n        \r\n        uint no_of_votes;\r\n    }\r\n\r\n    Candidates[]  public candidates;\r\n    Candidates[] public tiebreakers;\r\n    address[] public voter_address;\r\n    uint public candidatescount;\r\n    uint public starttime;\r\n   bool isset = false;\r\n   bool isstarted = false;\r\n    bool isstartedregister = false;\r\n    bool isstoppedregister = false;\r\n    bool isstartedvoting = false;\r\n    bool isstoppedvoting = false;\r\n    bool isstartedreveal = false;\r\n    constructor()  {\r\n            \r\n            chairperson = msg.sender;\r\n            \r\n                \r\n    }\r\n    function set(uint no_of_voters) public {\r\n        require(msg.sender==chairperson);\r\n        require(isset==false);\r\n        for(uint i=0;i<no_of_voters;i++)\r\n        {\r\n            candidates.push(Candidates({\r\n                        candidate_name: \"candidate\",no_of_votes:0\r\n                }));\r\n        }\r\n        candidatescount = no_of_voters;\r\n        isset = true;\r\n\r\n    }\r\n    function get_isstarted() public view returns (bool) {\r\n        return isstarted;\r\n    }\r\n     function get_isset() public view returns (bool) {\r\n        return isset;\r\n    }\r\n     function get_isstartedregister() public view returns (bool) {\r\n        return isstartedregister;\r\n    }\r\n     function get_isstoppedregister() public view returns (bool) {\r\n        return isstoppedregister;\r\n    }\r\n     function get_isstartedvoting() public view returns (bool) {\r\n        return isstartedvoting;\r\n    }\r\n     function get_isstoppedvoting() public view returns (bool) {\r\n        return isstoppedvoting;\r\n    }\r\n     function get_isstartedreveal() public view returns (bool) {\r\n        return isstartedreveal;\r\n    }\r\n    \r\n    function add_candidates(string[] memory arr) public {\r\n        for(uint i=0;i<candidatescount;i++)\r\n        {\r\n            candidates[i].candidate_name = arr[i];\r\n        }\r\n    }\r\n    function get_names(uint index) public view returns (string memory)  {\r\n        return candidates[index].candidate_name;\r\n    }\r\n    function get_winners_length() public view returns (uint ){\r\n        return tiebreakers.length;\r\n    }\r\n    function get_winners(uint index) public view returns (string memory) {\r\n        return tiebreakers[index].candidate_name;\r\n    }\r\n    function start() public{\r\n        require(msg.sender==chairperson,\"not chairperson\");\r\n        require(isstarted==false ,\" started\");\r\n        starttime = block.timestamp;\r\n        isstarted = true;\r\n    }\r\n\r\n    function start_register() public {\r\n         require(msg.sender==chairperson,\"chairperson\");\r\n        isstartedregister = true;\r\n    }\r\n    function stop_register() public {\r\n         require(msg.sender==chairperson,\"chairperson\");\r\n        isstartedregister = false;\r\n        isstoppedregister = true;\r\n    }\r\n    function start_voting() public {\r\n         require(msg.sender==chairperson,\"chairperson\");\r\n        require(isstartedregister==false,\"chairperson has  started register process\");\r\n    require(isstoppedregister==true,\"chairperson has not stopped register process\");\r\n        isstartedvoting = true;\r\n    }\r\n    function stop_voting() public {\r\n         require(msg.sender==chairperson,\"chairperson\");\r\n             require(isstartedregister==false,\"chairperson has  started register process\");\r\n    require(isstoppedregister==true,\"chairperson has not stopped register process\");\r\n        isstartedvoting = false;\r\n        isstoppedvoting = true;\r\n    }\r\n    function start_reveal() public {\r\n        require(msg.sender==chairperson,\"chairperson\");\r\n          require(isstartedregister==false,\"chairperson has  started register process\");\r\n    require(isstoppedregister==true,\"chairperson has not stopped register process\");\r\n    require(isstartedvoting==false,\"chairperson has   started voting process\");\r\n    require(isstoppedvoting==true,\"chairperson has not  stopped voting process\");\r\n            isstartedreveal = true;\r\n    }\r\n    function register() public\r\n    {   require(msg.sender!=chairperson,\"chairperson\");\r\n    require(isstartedregister==true,\"chairperson has not started register process\");\r\n    require(isstoppedregister==false,\"chairperson has stopped register process\");\r\n    require(isstartedvoting==false,\"chairperson has started voting process\");\r\n    require(isstoppedvoting==false,\"chairperson has stopped voting process\");\r\n    require(isstartedreveal==false,\"chairperson has started revealing the winners\");   \r\n    require(isset==true,\"chairpeson did not set\");\r\n    require(isstarted==true,\"chairperson did not start\");\r\n        address voter = msg.sender;\r\n      // require(block.timestamp<= starttime + register_time*1 minutes);\r\n        require(voters[voter].voted == false,\"voter already voted\");\r\n        require(voters[voter].registered==false,\"already registered\");\r\n        voters[voter].weight = 1;\r\n        voters[voter].registered = true;\r\n        voter_address.push(voter);\r\n    }\r\n\r\n    function voting_process(uint vo) public \r\n    {     // require(block.timestamp>= starttime + register_time*1 minutes && block.timestamp<= starttime + voting_time*1 minutes);\r\n            require(voters[msg.sender].weight !=0,\"voter not registered\");\r\n            require(!voters[msg.sender].voted,\"voter already voted\");\r\n             require(msg.sender!=chairperson,\"chairperson\");\r\n    require(isstartedregister==false,\"chairperson has  started register process\");\r\n    require(isstoppedregister==true,\"chairperson has not stopped register process\");\r\n    require(isstartedvoting==true,\"chairperson has not  started voting process\");\r\n    require(isstoppedvoting==false,\"chairperson has stopped voting process\");\r\n    require(isstartedreveal==false,\"chairperson has started revealing the winners\");  \r\n            \r\n            \r\n                voters[msg.sender].vote = vo;\r\n                voters[msg.sender].voted = true;\r\n                candidates[vo].no_of_votes += 1;\r\n            \r\n    }\r\n\r\n    function reveal_winner() public   \r\n    {  //require(block.timestamp>=starttime + reveal_winner_time*1 minutes);\r\n         require(msg.sender!=chairperson,\"chairperson\");\r\n    require(isstartedregister==false,\"chairperson has  started register process\");\r\n    require(isstoppedregister==true,\"chairperson has not stopped register process\");\r\n    require(isstartedvoting==false,\"chairperson has   started voting process\");\r\n    require(isstoppedvoting==true,\"chairperson has not  stopped voting process\");\r\n    require(isstartedreveal==true,\"chairperson has not started revealing the winners\");   \r\n       \r\n        tiecalculate();\r\n        \r\n      \r\n    }\r\n    function tiecalculate() public\r\n    {\r\n        uint winningvotecounts = 0;\r\n      \r\n        for(uint i=0;i<candidates.length;i++)\r\n        {\r\n                if(winningvotecounts<candidates[i].no_of_votes)\r\n                {\r\n                    winningvotecounts = candidates[i].no_of_votes;\r\n                   \r\n                }\r\n               \r\n        }\r\n       \r\n        for(uint i=0;i<candidates.length;i++)\r\n        {\r\n            if(winningvotecounts == candidates[i].no_of_votes)\r\n            {\r\n                tiebreakers.push(Candidates({\r\n                    candidate_name: candidates[i].candidate_name,\r\n                    no_of_votes: candidates[i].no_of_votes\r\n                }));\r\n            }\r\n        }\r\n    }\r\n\r\n   \r\n   /* function tie(uint v) public\r\n    {\r\n        require(msg.sender == chairperson);\r\n        require(tiebreakers.length>1);\r\n        \r\n        candidates[v].no_of_votes += 1;\r\n    }*/\r\n    \r\n    function reset() public \r\n    {\r\n        candidatescount = 0;\r\n        starttime = 0;\r\n        isstarted = false;\r\n        isset = false;\r\n        for(uint256 i=0;i<candidates.length;i++)\r\n        {\r\n            delete candidates[i];\r\n            \r\n        }\r\n        for(uint256 i=0;i<tiebreakers.length;i++)\r\n        {\r\n            \r\n            delete tiebreakers[i];\r\n        }\r\n        for(uint256 i=0;i<voter_address.length;i++)\r\n        {\r\n            delete voters[voter_address[i]];\r\n        }\r\n    isstartedregister = false;\r\n    isstoppedregister = false;\r\n    isstartedvoting = false;\r\n    isstoppedvoting = false;\r\n    isstartedreveal = false;\r\n        \r\n        \r\n        \r\n    }\r\n}",
  "sourcePath": "C:\\Users\\lakka\\OneDrive - Manipal Academy of Higher Education\\FIDUCIA\\voting-gui\\contracts\\voting.sol",
  "compiler": {
    "name": "solc",
    "version": "0.8.17+commit.8df45f5f.Emscripten.clang"
  },
  "schemaVersion": "3.4.11",
  "updatedAt": "2023-10-06T12:47:19.342Z",
  "networkType": "ethereum",
  "devdoc": {
    "kind": "dev",
    "methods": {},
    "version": 1
  },
  "userdoc": {
    "kind": "user",
    "methods": {},
    "version": 1
  }
}