{
  "contractName": "voting",
  "abi": [
    {
      "inputs": [],
      "stateMutability": "nonpayable",
      "type": "constructor"
    },
    {
      "inputs": [
        {
          "internalType": "uint256",
          "name": "",
          "type": "uint256"
        }
      ],
      "name": "candidates",
      "outputs": [
        {
          "internalType": "string",
          "name": "candidate_name",
          "type": "string"
        },
        {
          "internalType": "uint256",
          "name": "no_of_votes",
          "type": "uint256"
        }
      ],
      "stateMutability": "view",
      "type": "function",
      "constant": true
    },
    {
      "inputs": [],
      "name": "candidatescount",
      "outputs": [
        {
          "internalType": "uint256",
          "name": "",
          "type": "uint256"
        }
      ],
      "stateMutability": "view",
      "type": "function",
      "constant": true
    },
    {
      "inputs": [],
      "name": "chairperson",
      "outputs": [
        {
          "internalType": "address",
          "name": "",
          "type": "address"
        }
      ],
      "stateMutability": "view",
      "type": "function",
      "constant": true
    },
    {
      "inputs": [],
      "name": "starttime",
      "outputs": [
        {
          "internalType": "uint256",
          "name": "",
          "type": "uint256"
        }
      ],
      "stateMutability": "view",
      "type": "function",
      "constant": true
    },
    {
      "inputs": [
        {
          "internalType": "uint256",
          "name": "",
          "type": "uint256"
        }
      ],
      "name": "tiebreakers",
      "outputs": [
        {
          "internalType": "string",
          "name": "candidate_name",
          "type": "string"
        },
        {
          "internalType": "uint256",
          "name": "no_of_votes",
          "type": "uint256"
        }
      ],
      "stateMutability": "view",
      "type": "function",
      "constant": true
    },
    {
      "inputs": [
        {
          "internalType": "uint256",
          "name": "",
          "type": "uint256"
        }
      ],
      "name": "voter_address",
      "outputs": [
        {
          "internalType": "address",
          "name": "",
          "type": "address"
        }
      ],
      "stateMutability": "view",
      "type": "function",
      "constant": true
    },
    {
      "inputs": [
        {
          "internalType": "address",
          "name": "",
          "type": "address"
        }
      ],
      "name": "voters",
      "outputs": [
        {
          "internalType": "bool",
          "name": "voted",
          "type": "bool"
        },
        {
          "internalType": "bool",
          "name": "registered",
          "type": "bool"
        },
        {
          "internalType": "address",
          "name": "delegate",
          "type": "address"
        },
        {
          "internalType": "uint256",
          "name": "vote",
          "type": "uint256"
        },
        {
          "internalType": "uint256",
          "name": "weight",
          "type": "uint256"
        }
      ],
      "stateMutability": "view",
      "type": "function",
      "constant": true
    },
    {
      "inputs": [
        {
          "internalType": "uint256",
          "name": "no_of_voters",
          "type": "uint256"
        }
      ],
      "name": "set",
      "outputs": [],
      "stateMutability": "nonpayable",
      "type": "function"
    },
    {
      "inputs": [
        {
          "internalType": "string[]",
          "name": "arr",
          "type": "string[]"
        }
      ],
      "name": "add_candidates",
      "outputs": [],
      "stateMutability": "nonpayable",
      "type": "function"
    },
    {
      "inputs": [
        {
          "internalType": "uint256",
          "name": "index",
          "type": "uint256"
        }
      ],
      "name": "get_names",
      "outputs": [
        {
          "internalType": "string",
          "name": "",
          "type": "string"
        }
      ],
      "stateMutability": "view",
      "type": "function",
      "constant": true
    },
    {
      "inputs": [],
      "name": "get_winners_length",
      "outputs": [
        {
          "internalType": "uint256",
          "name": "",
          "type": "uint256"
        }
      ],
      "stateMutability": "view",
      "type": "function",
      "constant": true
    },
    {
      "inputs": [
        {
          "internalType": "uint256",
          "name": "index",
          "type": "uint256"
        }
      ],
      "name": "get_winners",
      "outputs": [
        {
          "internalType": "string",
          "name": "",
          "type": "string"
        }
      ],
      "stateMutability": "view",
      "type": "function",
      "constant": true
    },
    {
      "inputs": [],
      "name": "start",
      "outputs": [],
      "stateMutability": "nonpayable",
      "type": "function"
    },
    {
      "inputs": [],
      "name": "start_register",
      "outputs": [],
      "stateMutability": "nonpayable",
      "type": "function"
    },
    {
      "inputs": [],
      "name": "stop_register",
      "outputs": [],
      "stateMutability": "nonpayable",
      "type": "function"
    },
    {
      "inputs": [],
      "name": "start_voting",
      "outputs": [],
      "stateMutability": "nonpayable",
      "type": "function"
    },
    {
      "inputs": [],
      "name": "stop_voting",
      "outputs": [],
      "stateMutability": "nonpayable",
      "type": "function"
    },
    {
      "inputs": [],
      "name": "start_reveal",
      "outputs": [],
      "stateMutability": "nonpayable",
      "type": "function"
    },
    {
      "inputs": [],
      "name": "register",
      "outputs": [],
      "stateMutability": "nonpayable",
      "type": "function"
    },
    {
      "inputs": [
        {
          "internalType": "uint256",
          "name": "vo",
          "type": "uint256"
        }
      ],
      "name": "voting_process",
      "outputs": [],
      "stateMutability": "nonpayable",
      "type": "function"
    },
    {
      "inputs": [],
      "name": "reveal_winner",
      "outputs": [],
      "stateMutability": "nonpayable",
      "type": "function"
    },
    {
      "inputs": [],
      "name": "tiecalculate",
      "outputs": [],
      "stateMutability": "nonpayable",
      "type": "function"
    },
    {
      "inputs": [],
      "name": "reset",
      "outputs": [],
      "stateMutability": "nonpayable",
      "type": "function"
    }
  ],
  "bytecode": "0x60806040526000600760006101000a81548160ff0219169083151502179055506000600760016101000a81548160ff0219169083151502179055506000600760026101000a81548160ff0219169083151502179055506000600760036101000a81548160ff0219169083151502179055506000600760046101000a81548160ff0219169083151502179055506000600760056101000a81548160ff0219169083151502179055506000600760066101000a81548160ff0219169083151502179055503480156100cd57600080fd5b50336000806101000a81548173ffffffffffffffffffffffffffffffffffffffff021916908373ffffffffffffffffffffffffffffffffffffffff1602179055506133278061011d6000396000f3fe608060405234801561001057600080fd5b506004361061014d5760003560e01c80638a177c7e116100c3578063a769c14c1161007c578063a769c14c14610332578063b24aa34e14610362578063be9a65551461036c578063d826f88f14610376578063fd53338914610380578063fe3a4bd21461038a5761014d565b80638a177c7e146102805780638da588971461029c5780638f54eba9146102ba57806390a1cecd146102c4578063976a48e9146102ce578063a3ec138d146102fe5761014d565b80631aa3a008116101155780631aa3a008146101be5780632e4176cf146101c85780633477ee2e146101e6578063562a7f5c146102175780635aa54a8b1461023357806360fe47b1146102645761014d565b806304b2383714610152578063056b0f611461015c57806306e728ee146101665780630af8e41e146101845780630f31b7d21461018e575b600080fd5b61015a6103a8565b005b61016461051a565b005b61016e6105e0565b60405161017b91906120a2565b60405180910390f35b61018c6105ed565b005b6101a860048036038101906101a391906120fd565b610833565b6040516101b591906121ba565b60405180910390f35b6101c66108ea565b005b6101d0610e0a565b6040516101dd919061221d565b60405180910390f35b61020060048036038101906101fb91906120fd565b610e2e565b60405161020e929190612238565b60405180910390f35b610231600480360381019061022c9190612483565b610eea565b005b61024d600480360381019061024891906120fd565b610f5b565b60405161025b929190612238565b60405180910390f35b61027e600480360381019061027991906120fd565b611017565b005b61029a600480360381019061029591906120fd565b61116b565b005b6102a461159d565b6040516102b191906120a2565b60405180910390f35b6102c26115a3565b005b6102cc6117a6565b005b6102e860048036038101906102e391906120fd565b6119a9565b6040516102f5919061221d565b60405180910390f35b610318600480360381019061031391906124f8565b6119e8565b604051610329959493929190612540565b60405180910390f35b61034c600480360381019061034791906120fd565b611a58565b60405161035991906121ba565b60405180910390f35b61036a611b0f565b005b610374611c66565b005b61037e611d6e565b005b610388611f7b565b005b610392612026565b60405161039f91906120a2565b60405180910390f35b60008054906101000a900473ffffffffffffffffffffffffffffffffffffffff1673ffffffffffffffffffffffffffffffffffffffff163373ffffffffffffffffffffffffffffffffffffffff1614610436576040517f08c379a000000000000000000000000000000000000000000000000000000000815260040161042d906125df565b60405180910390fd5b60001515600760029054906101000a900460ff1615151461048c576040517f08c379a000000000000000000000000000000000000000000000000000000000815260040161048390612671565b60405180910390fd5b60011515600760039054906101000a900460ff161515146104e2576040517f08c379a00000000000000000000000000000000000000000000000000000000081526004016104d990612703565b60405180910390fd5b6000600760046101000a81548160ff0219169083151502179055506001600760056101000a81548160ff021916908315150217905550565b60008054906101000a900473ffffffffffffffffffffffffffffffffffffffff1673ffffffffffffffffffffffffffffffffffffffff163373ffffffffffffffffffffffffffffffffffffffff16146105a8576040517f08c379a000000000000000000000000000000000000000000000000000000000815260040161059f906125df565b60405180910390fd5b6000600760026101000a81548160ff0219169083151502179055506001600760036101000a81548160ff021916908315150217905550565b6000600380549050905090565b60008054906101000a900473ffffffffffffffffffffffffffffffffffffffff1673ffffffffffffffffffffffffffffffffffffffff163373ffffffffffffffffffffffffffffffffffffffff160361067b576040517f08c379a0000000000000000000000000000000000000000000000000000000008152600401610672906125df565b60405180910390fd5b60001515600760029054906101000a900460ff161515146106d1576040517f08c379a00000000000000000000000000000000000000000000000000000000081526004016106c890612671565b60405180910390fd5b60011515600760039054906101000a900460ff16151514610727576040517f08c379a000000000000000000000000000000000000000000000000000000000815260040161071e90612703565b60405180910390fd5b60001515600760049054906101000a900460ff1615151461077d576040517f08c379a000000000000000000000000000000000000000000000000000000000815260040161077490612795565b60405180910390fd5b60011515600760059054906101000a900460ff161515146107d3576040517f08c379a00000000000000000000000000000000000000000000000000000000081526004016107ca90612827565b60405180910390fd5b60011515600760069054906101000a900460ff16151514610829576040517f08c379a0000000000000000000000000000000000000000000000000000000008152600401610820906128b9565b60405180910390fd5b6108316117a6565b565b606060038281548110610849576108486128d9565b5b9060005260206000209060020201600001805461086590612937565b80601f016020809104026020016040519081016040528092919081815260200182805461089190612937565b80156108de5780601f106108b3576101008083540402835291602001916108de565b820191906000526020600020905b8154815290600101906020018083116108c157829003601f168201915b50505050509050919050565b60008054906101000a900473ffffffffffffffffffffffffffffffffffffffff1673ffffffffffffffffffffffffffffffffffffffff163373ffffffffffffffffffffffffffffffffffffffff1603610978576040517f08c379a000000000000000000000000000000000000000000000000000000000815260040161096f906125df565b60405180910390fd5b60011515600760029054906101000a900460ff161515146109ce576040517f08c379a00000000000000000000000000000000000000000000000000000000081526004016109c5906129da565b60405180910390fd5b60001515600760039054906101000a900460ff16151514610a24576040517f08c379a0000000000000000000000000000000000000000000000000000000008152600401610a1b90612a6c565b60405180910390fd5b60001515600760049054906101000a900460ff16151514610a7a576040517f08c379a0000000000000000000000000000000000000000000000000000000008152600401610a7190612afe565b60405180910390fd5b60001515600760059054906101000a900460ff16151514610ad0576040517f08c379a0000000000000000000000000000000000000000000000000000000008152600401610ac790612b90565b60405180910390fd5b60001515600760069054906101000a900460ff16151514610b26576040517f08c379a0000000000000000000000000000000000000000000000000000000008152600401610b1d90612c22565b60405180910390fd5b60011515600760009054906101000a900460ff16151514610b7c576040517f08c379a0000000000000000000000000000000000000000000000000000000008152600401610b7390612c8e565b60405180910390fd5b60011515600760019054906101000a900460ff16151514610bd2576040517f08c379a0000000000000000000000000000000000000000000000000000000008152600401610bc990612cfa565b60405180910390fd5b600033905060001515600160008373ffffffffffffffffffffffffffffffffffffffff1673ffffffffffffffffffffffffffffffffffffffff16815260200190815260200160002060000160009054906101000a900460ff16151514610c6d576040517f08c379a0000000000000000000000000000000000000000000000000000000008152600401610c6490612d66565b60405180910390fd5b60001515600160008373ffffffffffffffffffffffffffffffffffffffff1673ffffffffffffffffffffffffffffffffffffffff16815260200190815260200160002060000160019054906101000a900460ff16151514610d03576040517f08c379a0000000000000000000000000000000000000000000000000000000008152600401610cfa90612dd2565b60405180910390fd5b60018060008373ffffffffffffffffffffffffffffffffffffffff1673ffffffffffffffffffffffffffffffffffffffff1681526020019081526020016000206002018190555060018060008373ffffffffffffffffffffffffffffffffffffffff1673ffffffffffffffffffffffffffffffffffffffff16815260200190815260200160002060000160016101000a81548160ff0219169083151502179055506004819080600181540180825580915050600190039060005260206000200160009091909190916101000a81548173ffffffffffffffffffffffffffffffffffffffff021916908373ffffffffffffffffffffffffffffffffffffffff16021790555050565b60008054906101000a900473ffffffffffffffffffffffffffffffffffffffff1681565b60028181548110610e3e57600080fd5b9060005260206000209060020201600091509050806000018054610e6190612937565b80601f0160208091040260200160405190810160405280929190818152602001828054610e8d90612937565b8015610eda5780601f10610eaf57610100808354040283529160200191610eda565b820191906000526020600020905b815481529060010190602001808311610ebd57829003601f168201915b5050505050908060010154905082565b60005b600554811015610f5757818181518110610f0a57610f096128d9565b5b602002602001015160028281548110610f2657610f256128d9565b5b90600052602060002090600202016000019081610f439190612f9e565b508080610f4f9061309f565b915050610eed565b5050565b60038181548110610f6b57600080fd5b9060005260206000209060020201600091509050806000018054610f8e90612937565b80601f0160208091040260200160405190810160405280929190818152602001828054610fba90612937565b80156110075780601f10610fdc57610100808354040283529160200191611007565b820191906000526020600020905b815481529060010190602001808311610fea57829003601f168201915b5050505050908060010154905082565b60008054906101000a900473ffffffffffffffffffffffffffffffffffffffff1673ffffffffffffffffffffffffffffffffffffffff163373ffffffffffffffffffffffffffffffffffffffff161461106f57600080fd5b60001515600760009054906101000a900460ff1615151461108f57600080fd5b60005b8181101561114557600260405180604001604052806040518060400160405280600981526020017f63616e646964617465000000000000000000000000000000000000000000000081525081526020016000815250908060018154018082558091505060019003906000526020600020906002020160009091909190915060008201518160000190816111259190612f9e565b50602082015181600101555050808061113d9061309f565b915050611092565b50806005819055506001600760006101000a81548160ff02191690831515021790555050565b6000600160003373ffffffffffffffffffffffffffffffffffffffff1673ffffffffffffffffffffffffffffffffffffffff16815260200190815260200160002060020154036111f0576040517f08c379a00000000000000000000000000000000000000000000000000000000081526004016111e790613133565b60405180910390fd5b600160003373ffffffffffffffffffffffffffffffffffffffff1673ffffffffffffffffffffffffffffffffffffffff16815260200190815260200160002060000160009054906101000a900460ff1615611280576040517f08c379a000000000000000000000000000000000000000000000000000000000815260040161127790612d66565b60405180910390fd5b60008054906101000a900473ffffffffffffffffffffffffffffffffffffffff1673ffffffffffffffffffffffffffffffffffffffff163373ffffffffffffffffffffffffffffffffffffffff160361130e576040517f08c379a0000000000000000000000000000000000000000000000000000000008152600401611305906125df565b60405180910390fd5b60001515600760029054906101000a900460ff16151514611364576040517f08c379a000000000000000000000000000000000000000000000000000000000815260040161135b90612671565b60405180910390fd5b60011515600760039054906101000a900460ff161515146113ba576040517f08c379a00000000000000000000000000000000000000000000000000000000081526004016113b190612703565b60405180910390fd5b60011515600760049054906101000a900460ff16151514611410576040517f08c379a0000000000000000000000000000000000000000000000000000000008152600401611407906131c5565b60405180910390fd5b60001515600760059054906101000a900460ff16151514611466576040517f08c379a000000000000000000000000000000000000000000000000000000000815260040161145d90612b90565b60405180910390fd5b60001515600760069054906101000a900460ff161515146114bc576040517f08c379a00000000000000000000000000000000000000000000000000000000081526004016114b390612c22565b60405180910390fd5b80600160003373ffffffffffffffffffffffffffffffffffffffff1673ffffffffffffffffffffffffffffffffffffffff1681526020019081526020016000206001018190555060018060003373ffffffffffffffffffffffffffffffffffffffff1673ffffffffffffffffffffffffffffffffffffffff16815260200190815260200160002060000160006101000a81548160ff021916908315150217905550600160028281548110611573576115726128d9565b5b9060005260206000209060020201600101600082825461159391906131e5565b9250508190555050565b60065481565b60008054906101000a900473ffffffffffffffffffffffffffffffffffffffff1673ffffffffffffffffffffffffffffffffffffffff163373ffffffffffffffffffffffffffffffffffffffff1614611631576040517f08c379a0000000000000000000000000000000000000000000000000000000008152600401611628906125df565b60405180910390fd5b60001515600760029054906101000a900460ff16151514611687576040517f08c379a000000000000000000000000000000000000000000000000000000000815260040161167e90612671565b60405180910390fd5b60011515600760039054906101000a900460ff161515146116dd576040517f08c379a00000000000000000000000000000000000000000000000000000000081526004016116d490612703565b60405180910390fd5b60001515600760049054906101000a900460ff16151514611733576040517f08c379a000000000000000000000000000000000000000000000000000000000815260040161172a90612795565b60405180910390fd5b60011515600760059054906101000a900460ff16151514611789576040517f08c379a000000000000000000000000000000000000000000000000000000000815260040161178090612827565b60405180910390fd5b6001600760066101000a81548160ff021916908315150217905550565b6000805b60028054905081101561182057600281815481106117cb576117ca6128d9565b5b90600052602060002090600202016001015482101561180d57600281815481106117f8576117f76128d9565b5b90600052602060002090600202016001015491505b80806118189061309f565b9150506117aa565b5060005b6002805490508110156119a55760028181548110611845576118446128d9565b5b906000526020600020906002020160010154820361199257600360405180604001604052806002848154811061187e5761187d6128d9565b5b9060005260206000209060020201600001805461189a90612937565b80601f01602080910402602001604051908101604052809291908181526020018280546118c690612937565b80156119135780601f106118e857610100808354040283529160200191611913565b820191906000526020600020905b8154815290600101906020018083116118f657829003601f168201915b5050505050815260200160028481548110611931576119306128d9565b5b906000526020600020906002020160010154815250908060018154018082558091505060019003906000526020600020906002020160009091909190915060008201518160000190816119849190612f9e565b506020820151816001015550505b808061199d9061309f565b915050611824565b5050565b600481815481106119b957600080fd5b906000526020600020016000915054906101000a900473ffffffffffffffffffffffffffffffffffffffff1681565b60016020528060005260406000206000915090508060000160009054906101000a900460ff16908060000160019054906101000a900460ff16908060000160029054906101000a900473ffffffffffffffffffffffffffffffffffffffff16908060010154908060020154905085565b606060028281548110611a6e57611a6d6128d9565b5b90600052602060002090600202016000018054611a8a90612937565b80601f0160208091040260200160405190810160405280929190818152602001828054611ab690612937565b8015611b035780601f10611ad857610100808354040283529160200191611b03565b820191906000526020600020905b815481529060010190602001808311611ae657829003601f168201915b50505050509050919050565b60008054906101000a900473ffffffffffffffffffffffffffffffffffffffff1673ffffffffffffffffffffffffffffffffffffffff163373ffffffffffffffffffffffffffffffffffffffff1614611b9d576040517f08c379a0000000000000000000000000000000000000000000000000000000008152600401611b94906125df565b60405180910390fd5b60001515600760029054906101000a900460ff16151514611bf3576040517f08c379a0000000000000000000000000000000000000000000000000000000008152600401611bea90612671565b60405180910390fd5b60011515600760039054906101000a900460ff16151514611c49576040517f08c379a0000000000000000000000000000000000000000000000000000000008152600401611c4090612703565b60405180910390fd5b6001600760046101000a81548160ff021916908315150217905550565b60008054906101000a900473ffffffffffffffffffffffffffffffffffffffff1673ffffffffffffffffffffffffffffffffffffffff163373ffffffffffffffffffffffffffffffffffffffff1614611cf4576040517f08c379a0000000000000000000000000000000000000000000000000000000008152600401611ceb90613265565b60405180910390fd5b60001515600760019054906101000a900460ff16151514611d4a576040517f08c379a0000000000000000000000000000000000000000000000000000000008152600401611d41906132d1565b60405180910390fd5b426006819055506001600760016101000a81548160ff021916908315150217905550565b600060058190555060006006819055506000600760016101000a81548160ff0219169083151502179055506000600760006101000a81548160ff02191690831515021790555060005b600280549050811015611e145760028181548110611dd857611dd76128d9565b5b906000526020600020906002020160008082016000611df7919061202c565b600182016000905550508080611e0c9061309f565b915050611db7565b5060005b600380549050811015611e755760038181548110611e3957611e386128d9565b5b906000526020600020906002020160008082016000611e58919061202c565b600182016000905550508080611e6d9061309f565b915050611e18565b5060005b600480549050811015611f78576001600060048381548110611e9e57611e9d6128d9565b5b9060005260206000200160009054906101000a900473ffffffffffffffffffffffffffffffffffffffff1673ffffffffffffffffffffffffffffffffffffffff1673ffffffffffffffffffffffffffffffffffffffff168152602001908152602001600020600080820160006101000a81549060ff02191690556000820160016101000a81549060ff02191690556000820160026101000a81549073ffffffffffffffffffffffffffffffffffffffff02191690556001820160009055600282016000905550508080611f709061309f565b915050611e79565b50565b60008054906101000a900473ffffffffffffffffffffffffffffffffffffffff1673ffffffffffffffffffffffffffffffffffffffff163373ffffffffffffffffffffffffffffffffffffffff1614612009576040517f08c379a0000000000000000000000000000000000000000000000000000000008152600401612000906125df565b60405180910390fd5b6001600760026101000a81548160ff021916908315150217905550565b60055481565b50805461203890612937565b6000825580601f1061204a5750612069565b601f016020900490600052602060002090810190612068919061206c565b5b50565b5b8082111561208557600081600090555060010161206d565b5090565b6000819050919050565b61209c81612089565b82525050565b60006020820190506120b76000830184612093565b92915050565b6000604051905090565b600080fd5b600080fd5b6120da81612089565b81146120e557600080fd5b50565b6000813590506120f7816120d1565b92915050565b600060208284031215612113576121126120c7565b5b6000612121848285016120e8565b91505092915050565b600081519050919050565b600082825260208201905092915050565b60005b83811015612164578082015181840152602081019050612149565b60008484015250505050565b6000601f19601f8301169050919050565b600061218c8261212a565b6121968185612135565b93506121a6818560208601612146565b6121af81612170565b840191505092915050565b600060208201905081810360008301526121d48184612181565b905092915050565b600073ffffffffffffffffffffffffffffffffffffffff82169050919050565b6000612207826121dc565b9050919050565b612217816121fc565b82525050565b6000602082019050612232600083018461220e565b92915050565b600060408201905081810360008301526122528185612181565b90506122616020830184612093565b9392505050565b600080fd5b7f4e487b7100000000000000000000000000000000000000000000000000000000600052604160045260246000fd5b6122a582612170565b810181811067ffffffffffffffff821117156122c4576122c361226d565b5b80604052505050565b60006122d76120bd565b90506122e3828261229c565b919050565b600067ffffffffffffffff8211156123035761230261226d565b5b602082029050602081019050919050565b600080fd5b600080fd5b600067ffffffffffffffff8211156123395761233861226d565b5b61234282612170565b9050602081019050919050565b82818337600083830152505050565b600061237161236c8461231e565b6122cd565b90508281526020810184848401111561238d5761238c612319565b5b61239884828561234f565b509392505050565b600082601f8301126123b5576123b4612268565b5b81356123c584826020860161235e565b91505092915050565b60006123e16123dc846122e8565b6122cd565b9050808382526020820190506020840283018581111561240457612403612314565b5b835b8181101561244b57803567ffffffffffffffff81111561242957612428612268565b5b80860161243689826123a0565b85526020850194505050602081019050612406565b5050509392505050565b600082601f83011261246a57612469612268565b5b813561247a8482602086016123ce565b91505092915050565b600060208284031215612499576124986120c7565b5b600082013567ffffffffffffffff8111156124b7576124b66120cc565b5b6124c384828501612455565b91505092915050565b6124d5816121fc565b81146124e057600080fd5b50565b6000813590506124f2816124cc565b92915050565b60006020828403121561250e5761250d6120c7565b5b600061251c848285016124e3565b91505092915050565b60008115159050919050565b61253a81612525565b82525050565b600060a0820190506125556000830188612531565b6125626020830187612531565b61256f604083018661220e565b61257c6060830185612093565b6125896080830184612093565b9695505050505050565b7f6368616972706572736f6e000000000000000000000000000000000000000000600082015250565b60006125c9600b83612135565b91506125d482612593565b602082019050919050565b600060208201905081810360008301526125f8816125bc565b9050919050565b7f6368616972706572736f6e20686173202073746172746564207265676973746560008201527f722070726f636573730000000000000000000000000000000000000000000000602082015250565b600061265b602983612135565b9150612666826125ff565b604082019050919050565b6000602082019050818103600083015261268a8161264e565b9050919050565b7f6368616972706572736f6e20686173206e6f742073746f70706564207265676960008201527f737465722070726f636573730000000000000000000000000000000000000000602082015250565b60006126ed602c83612135565b91506126f882612691565b604082019050919050565b6000602082019050818103600083015261271c816126e0565b9050919050565b7f6368616972706572736f6e206861732020207374617274656420766f74696e6760008201527f2070726f63657373000000000000000000000000000000000000000000000000602082015250565b600061277f602883612135565b915061278a82612723565b604082019050919050565b600060208201905081810360008301526127ae81612772565b9050919050565b7f6368616972706572736f6e20686173206e6f74202073746f7070656420766f7460008201527f696e672070726f63657373000000000000000000000000000000000000000000602082015250565b6000612811602b83612135565b915061281c826127b5565b604082019050919050565b6000602082019050818103600083015261284081612804565b9050919050565b7f6368616972706572736f6e20686173206e6f742073746172746564207265766560008201527f616c696e67207468652077696e6e657273000000000000000000000000000000602082015250565b60006128a3603183612135565b91506128ae82612847565b604082019050919050565b600060208201905081810360008301526128d281612896565b9050919050565b7f4e487b7100000000000000000000000000000000000000000000000000000000600052603260045260246000fd5b7f4e487b7100000000000000000000000000000000000000000000000000000000600052602260045260246000fd5b6000600282049050600182168061294f57607f821691505b60208210810361296257612961612908565b5b50919050565b7f6368616972706572736f6e20686173206e6f742073746172746564207265676960008201527f737465722070726f636573730000000000000000000000000000000000000000602082015250565b60006129c4602c83612135565b91506129cf82612968565b604082019050919050565b600060208201905081810360008301526129f3816129b7565b9050919050565b7f6368616972706572736f6e206861732073746f7070656420726567697374657260008201527f2070726f63657373000000000000000000000000000000000000000000000000602082015250565b6000612a56602883612135565b9150612a61826129fa565b604082019050919050565b60006020820190508181036000830152612a8581612a49565b9050919050565b7f6368616972706572736f6e20686173207374617274656420766f74696e67207060008201527f726f636573730000000000000000000000000000000000000000000000000000602082015250565b6000612ae8602683612135565b9150612af382612a8c565b604082019050919050565b60006020820190508181036000830152612b1781612adb565b9050919050565b7f6368616972706572736f6e206861732073746f7070656420766f74696e67207060008201527f726f636573730000000000000000000000000000000000000000000000000000602082015250565b6000612b7a602683612135565b9150612b8582612b1e565b604082019050919050565b60006020820190508181036000830152612ba981612b6d565b9050919050565b7f6368616972706572736f6e2068617320737461727465642072657665616c696e60008201527f67207468652077696e6e65727300000000000000000000000000000000000000602082015250565b6000612c0c602d83612135565b9150612c1782612bb0565b604082019050919050565b60006020820190508181036000830152612c3b81612bff565b9050919050565b7f63686169727065736f6e20646964206e6f742073657400000000000000000000600082015250565b6000612c78601683612135565b9150612c8382612c42565b602082019050919050565b60006020820190508181036000830152612ca781612c6b565b9050919050565b7f6368616972706572736f6e20646964206e6f7420737461727400000000000000600082015250565b6000612ce4601983612135565b9150612cef82612cae565b602082019050919050565b60006020820190508181036000830152612d1381612cd7565b9050919050565b7f766f74657220616c726561647920766f74656400000000000000000000000000600082015250565b6000612d50601383612135565b9150612d5b82612d1a565b602082019050919050565b60006020820190508181036000830152612d7f81612d43565b9050919050565b7f616c726561647920726567697374657265640000000000000000000000000000600082015250565b6000612dbc601283612135565b9150612dc782612d86565b602082019050919050565b60006020820190508181036000830152612deb81612daf565b9050919050565b60008190508160005260206000209050919050565b60006020601f8301049050919050565b600082821b905092915050565b600060088302612e547fffffffffffffffffffffffffffffffffffffffffffffffffffffffffffffffff82612e17565b612e5e8683612e17565b95508019841693508086168417925050509392505050565b6000819050919050565b6000612e9b612e96612e9184612089565b612e76565b612089565b9050919050565b6000819050919050565b612eb583612e80565b612ec9612ec182612ea2565b848454612e24565b825550505050565b600090565b612ede612ed1565b612ee9818484612eac565b505050565b5b81811015612f0d57612f02600082612ed6565b600181019050612eef565b5050565b601f821115612f5257612f2381612df2565b612f2c84612e07565b81016020851015612f3b578190505b612f4f612f4785612e07565b830182612eee565b50505b505050565b600082821c905092915050565b6000612f7560001984600802612f57565b1980831691505092915050565b6000612f8e8383612f64565b9150826002028217905092915050565b612fa78261212a565b67ffffffffffffffff811115612fc057612fbf61226d565b5b612fca8254612937565b612fd5828285612f11565b600060209050601f8311600181146130085760008415612ff6578287015190505b6130008582612f82565b865550613068565b601f19841661301686612df2565b60005b8281101561303e57848901518255600182019150602085019450602081019050613019565b8683101561305b5784890151613057601f891682612f64565b8355505b6001600288020188555050505b505050505050565b7f4e487b7100000000000000000000000000000000000000000000000000000000600052601160045260246000fd5b60006130aa82612089565b91507fffffffffffffffffffffffffffffffffffffffffffffffffffffffffffffffff82036130dc576130db613070565b5b600182019050919050565b7f766f746572206e6f742072656769737465726564000000000000000000000000600082015250565b600061311d601483612135565b9150613128826130e7565b602082019050919050565b6000602082019050818103600083015261314c81613110565b9050919050565b7f6368616972706572736f6e20686173206e6f7420207374617274656420766f7460008201527f696e672070726f63657373000000000000000000000000000000000000000000602082015250565b60006131af602b83612135565b91506131ba82613153565b604082019050919050565b600060208201905081810360008301526131de816131a2565b9050919050565b60006131f082612089565b91506131fb83612089565b925082820190508082111561321357613212613070565b5b92915050565b7f6e6f74206368616972706572736f6e0000000000000000000000000000000000600082015250565b600061324f600f83612135565b915061325a82613219565b602082019050919050565b6000602082019050818103600083015261327e81613242565b9050919050565b7f2073746172746564000000000000000000000000000000000000000000000000600082015250565b60006132bb600883612135565b91506132c682613285565b602082019050919050565b600060208201905081810360008301526132ea816132ae565b905091905056fea2646970667358221220af7dfa03716f44afa71ec9f6ff3423c1a8382bc1f9920e9da129ff7da202ee3964736f6c63430008110033",
  "immutableReferences": {},
  "source": "pragma solidity  ^0.8.17;\r\n// SPDX-License-Identifier: GPL-3.0\r\ncontract voting{\r\n    // state variables\r\n    address public chairperson;\r\n    struct Voters{\r\n        bool voted;\r\n        bool registered;\r\n        address delegate;\r\n        uint vote;\r\n        uint weight;\r\n        \r\n    }\r\n\r\n    mapping(address=>Voters) public voters;\r\n    struct Candidates{\r\n        string  candidate_name;\r\n        \r\n        uint no_of_votes;\r\n    }\r\n\r\n    Candidates[]  public candidates;\r\n    Candidates[] public tiebreakers;\r\n    address[] public voter_address;\r\n    uint public candidatescount;\r\n    uint public starttime;\r\n   bool isset = false;\r\n   bool isstarted = false;\r\n    bool isstartedregister = false;\r\n    bool isstoppedregister = false;\r\n    bool isstartedvoting = false;\r\n    bool isstoppedvoting = false;\r\n    bool isstartedreveal = false;\r\n    constructor()  {\r\n            \r\n            chairperson = msg.sender;\r\n            \r\n                \r\n    }\r\n    function set(uint no_of_voters) public {\r\n        require(msg.sender==chairperson);\r\n        require(isset==false);\r\n        for(uint i=0;i<no_of_voters;i++)\r\n        {\r\n            candidates.push(Candidates({\r\n                        candidate_name: \"candidate\",no_of_votes:0\r\n                }));\r\n        }\r\n        candidatescount = no_of_voters;\r\n        isset = true;\r\n\r\n    }\r\n    function add_candidates(string[] memory arr) public {\r\n        for(uint i=0;i<candidatescount;i++)\r\n        {\r\n            candidates[i].candidate_name = arr[i];\r\n        }\r\n    }\r\n    function get_names(uint index) public view returns (string memory)  {\r\n        return candidates[index].candidate_name;\r\n    }\r\n    function get_winners_length() public view returns (uint ){\r\n        return tiebreakers.length;\r\n    }\r\n    function get_winners(uint index) public view returns (string memory) {\r\n        return tiebreakers[index].candidate_name;\r\n    }\r\n    function start() public{\r\n        require(msg.sender==chairperson,\"not chairperson\");\r\n        require(isstarted==false ,\" started\");\r\n        starttime = block.timestamp;\r\n        isstarted = true;\r\n    }\r\n\r\n    function start_register() public {\r\n         require(msg.sender==chairperson,\"chairperson\");\r\n        isstartedregister = true;\r\n    }\r\n    function stop_register() public {\r\n         require(msg.sender==chairperson,\"chairperson\");\r\n        isstartedregister = false;\r\n        isstoppedregister = true;\r\n    }\r\n    function start_voting() public {\r\n         require(msg.sender==chairperson,\"chairperson\");\r\n        require(isstartedregister==false,\"chairperson has  started register process\");\r\n    require(isstoppedregister==true,\"chairperson has not stopped register process\");\r\n        isstartedvoting = true;\r\n    }\r\n    function stop_voting() public {\r\n         require(msg.sender==chairperson,\"chairperson\");\r\n             require(isstartedregister==false,\"chairperson has  started register process\");\r\n    require(isstoppedregister==true,\"chairperson has not stopped register process\");\r\n        isstartedvoting = false;\r\n        isstoppedvoting = true;\r\n    }\r\n    function start_reveal() public {\r\n        require(msg.sender==chairperson,\"chairperson\");\r\n          require(isstartedregister==false,\"chairperson has  started register process\");\r\n    require(isstoppedregister==true,\"chairperson has not stopped register process\");\r\n    require(isstartedvoting==false,\"chairperson has   started voting process\");\r\n    require(isstoppedvoting==true,\"chairperson has not  stopped voting process\");\r\n            isstartedreveal = true;\r\n    }\r\n    function register() public\r\n    {   require(msg.sender!=chairperson,\"chairperson\");\r\n    require(isstartedregister==true,\"chairperson has not started register process\");\r\n    require(isstoppedregister==false,\"chairperson has stopped register process\");\r\n    require(isstartedvoting==false,\"chairperson has started voting process\");\r\n    require(isstoppedvoting==false,\"chairperson has stopped voting process\");\r\n    require(isstartedreveal==false,\"chairperson has started revealing the winners\");   \r\n    require(isset==true,\"chairpeson did not set\");\r\n    require(isstarted==true,\"chairperson did not start\");\r\n        address voter = msg.sender;\r\n      // require(block.timestamp<= starttime + register_time*1 minutes);\r\n        require(voters[voter].voted == false,\"voter already voted\");\r\n        require(voters[voter].registered==false,\"already registered\");\r\n        voters[voter].weight = 1;\r\n        voters[voter].registered = true;\r\n        voter_address.push(voter);\r\n    }\r\n\r\n    function voting_process(uint vo) public \r\n    {     // require(block.timestamp>= starttime + register_time*1 minutes && block.timestamp<= starttime + voting_time*1 minutes);\r\n            require(voters[msg.sender].weight !=0,\"voter not registered\");\r\n            require(!voters[msg.sender].voted,\"voter already voted\");\r\n             require(msg.sender!=chairperson,\"chairperson\");\r\n    require(isstartedregister==false,\"chairperson has  started register process\");\r\n    require(isstoppedregister==true,\"chairperson has not stopped register process\");\r\n    require(isstartedvoting==true,\"chairperson has not  started voting process\");\r\n    require(isstoppedvoting==false,\"chairperson has stopped voting process\");\r\n    require(isstartedreveal==false,\"chairperson has started revealing the winners\");  \r\n            \r\n            \r\n                voters[msg.sender].vote = vo;\r\n                voters[msg.sender].voted = true;\r\n                candidates[vo].no_of_votes += 1;\r\n            \r\n    }\r\n\r\n    function reveal_winner() public   \r\n    {  //require(block.timestamp>=starttime + reveal_winner_time*1 minutes);\r\n         require(msg.sender!=chairperson,\"chairperson\");\r\n    require(isstartedregister==false,\"chairperson has  started register process\");\r\n    require(isstoppedregister==true,\"chairperson has not stopped register process\");\r\n    require(isstartedvoting==false,\"chairperson has   started voting process\");\r\n    require(isstoppedvoting==true,\"chairperson has not  stopped voting process\");\r\n    require(isstartedreveal==true,\"chairperson has not started revealing the winners\");   \r\n       \r\n        tiecalculate();\r\n        \r\n      \r\n    }\r\n    function tiecalculate() public\r\n    {\r\n        uint winningvotecounts = 0;\r\n      \r\n        for(uint i=0;i<candidates.length;i++)\r\n        {\r\n                if(winningvotecounts<candidates[i].no_of_votes)\r\n                {\r\n                    winningvotecounts = candidates[i].no_of_votes;\r\n                   \r\n                }\r\n               \r\n        }\r\n       \r\n        for(uint i=0;i<candidates.length;i++)\r\n        {\r\n            if(winningvotecounts == candidates[i].no_of_votes)\r\n            {\r\n                tiebreakers.push(Candidates({\r\n                    candidate_name: candidates[i].candidate_name,\r\n                    no_of_votes: candidates[i].no_of_votes\r\n                }));\r\n            }\r\n        }\r\n    }\r\n\r\n   \r\n   /* function tie(uint v) public\r\n    {\r\n        require(msg.sender == chairperson);\r\n        require(tiebreakers.length>1);\r\n        \r\n        candidates[v].no_of_votes += 1;\r\n    }*/\r\n    \r\n    function reset() public \r\n    {\r\n        candidatescount = 0;\r\n        starttime = 0;\r\n        isstarted = false;\r\n        isset = false;\r\n        for(uint256 i=0;i<candidates.length;i++)\r\n        {\r\n            delete candidates[i];\r\n            \r\n        }\r\n        for(uint256 i=0;i<tiebreakers.length;i++)\r\n        {\r\n            \r\n            delete tiebreakers[i];\r\n        }\r\n        for(uint256 i=0;i<voter_address.length;i++)\r\n        {\r\n            delete voters[voter_address[i]];\r\n        }\r\n        \r\n        \r\n        \r\n    }\r\n}",
  "sourcePath": "C:\\Users\\lakka\\OneDrive - Manipal Academy of Higher Education\\FIDUCIA\\voting-gui\\contracts\\voting.sol",
  "compiler": {
    "name": "solc",
    "version": "0.8.17+commit.8df45f5f.Emscripten.clang"
  },
  "schemaVersion": "3.4.11",
  "updatedAt": "2023-07-25T05:53:07.936Z",
  "networkType": "ethereum",
  "devdoc": {
    "kind": "dev",
    "methods": {},
    "version": 1
  },
  "userdoc": {
    "kind": "user",
    "methods": {},
    "version": 1
  }
}