{
  "contractName": "voting",
  "abi": [
    {
      "inputs": [],
      "stateMutability": "nonpayable",
      "type": "constructor"
    },
    {
      "inputs": [
        {
          "internalType": "uint256",
          "name": "",
          "type": "uint256"
        }
      ],
      "name": "candidates",
      "outputs": [
        {
          "internalType": "string",
          "name": "candidate_name",
          "type": "string"
        },
        {
          "internalType": "uint256",
          "name": "no_of_votes",
          "type": "uint256"
        }
      ],
      "stateMutability": "view",
      "type": "function"
    },
    {
      "inputs": [],
      "name": "candidatescount",
      "outputs": [
        {
          "internalType": "uint256",
          "name": "",
          "type": "uint256"
        }
      ],
      "stateMutability": "view",
      "type": "function"
    },
    {
      "inputs": [],
      "name": "chairperson",
      "outputs": [
        {
          "internalType": "address",
          "name": "",
          "type": "address"
        }
      ],
      "stateMutability": "view",
      "type": "function"
    },
    {
      "inputs": [],
      "name": "starttime",
      "outputs": [
        {
          "internalType": "uint256",
          "name": "",
          "type": "uint256"
        }
      ],
      "stateMutability": "view",
      "type": "function"
    },
    {
      "inputs": [
        {
          "internalType": "uint256",
          "name": "",
          "type": "uint256"
        }
      ],
      "name": "tiebreakers",
      "outputs": [
        {
          "internalType": "string",
          "name": "candidate_name",
          "type": "string"
        },
        {
          "internalType": "uint256",
          "name": "no_of_votes",
          "type": "uint256"
        }
      ],
      "stateMutability": "view",
      "type": "function"
    },
    {
      "inputs": [
        {
          "internalType": "uint256",
          "name": "",
          "type": "uint256"
        }
      ],
      "name": "voter_address",
      "outputs": [
        {
          "internalType": "address",
          "name": "",
          "type": "address"
        }
      ],
      "stateMutability": "view",
      "type": "function"
    },
    {
      "inputs": [
        {
          "internalType": "address",
          "name": "",
          "type": "address"
        }
      ],
      "name": "voters",
      "outputs": [
        {
          "internalType": "bool",
          "name": "voted",
          "type": "bool"
        },
        {
          "internalType": "bool",
          "name": "registered",
          "type": "bool"
        },
        {
          "internalType": "address",
          "name": "delegate",
          "type": "address"
        },
        {
          "internalType": "uint256",
          "name": "vote",
          "type": "uint256"
        },
        {
          "internalType": "uint256",
          "name": "weight",
          "type": "uint256"
        }
      ],
      "stateMutability": "view",
      "type": "function"
    },
    {
      "inputs": [
        {
          "internalType": "uint256",
          "name": "no_of_voters",
          "type": "uint256"
        },
        {
          "internalType": "uint256",
          "name": "r",
          "type": "uint256"
        },
        {
          "internalType": "uint256",
          "name": "v",
          "type": "uint256"
        },
        {
          "internalType": "uint256",
          "name": "rev",
          "type": "uint256"
        }
      ],
      "name": "set",
      "outputs": [],
      "stateMutability": "nonpayable",
      "type": "function"
    },
    {
      "inputs": [],
      "name": "start",
      "outputs": [],
      "stateMutability": "nonpayable",
      "type": "function"
    },
    {
      "inputs": [],
      "name": "register",
      "outputs": [],
      "stateMutability": "nonpayable",
      "type": "function"
    },
    {
      "inputs": [
        {
          "internalType": "uint256",
          "name": "vo",
          "type": "uint256"
        }
      ],
      "name": "voting_process",
      "outputs": [],
      "stateMutability": "nonpayable",
      "type": "function"
    },
    {
      "inputs": [],
      "name": "reveal_winner",
      "outputs": [],
      "stateMutability": "nonpayable",
      "type": "function"
    },
    {
      "inputs": [],
      "name": "tiecalculate",
      "outputs": [],
      "stateMutability": "nonpayable",
      "type": "function"
    },
    {
      "inputs": [],
      "name": "reset",
      "outputs": [],
      "stateMutability": "nonpayable",
      "type": "function"
    }
  ],
  "bytecode": "0x60806040526000600760006101000a81548160ff0219169083151502179055506000600760016101000a81548160ff02191690831515021790555034801561004657600080fd5b50336000806101000a81548173ffffffffffffffffffffffffffffffffffffffff021916908373ffffffffffffffffffffffffffffffffffffffff160217905550611686806100966000396000f3fe608060405234801561001057600080fd5b50600436106100ea5760003560e01c80638da588971161008c578063a3ec138d11610066578063a3ec138d14610213578063be9a655514610247578063d826f88f14610251578063fe3a4bd21461025b576100ea565b80638da58897146101bb57806390a1cecd146101d9578063976a48e9146101e3576100ea565b80633477ee2e116100c85780633477ee2e146101215780635aa54a8b14610152578063606ce3bf146101835780638a177c7e1461019f576100ea565b80630af8e41e146100ef5780631aa3a008146100f95780632e4176cf14610103575b600080fd5b6100f7610279565b005b61010161029e565b005b61010b61051d565b6040516101189190610fce565b60405180910390f35b61013b60048036038101906101369190611024565b610541565b6040516101499291906110f0565b60405180910390f35b61016c60048036038101906101679190611024565b6105fd565b60405161017a9291906110f0565b60405180910390f35b61019d60048036038101906101989190611120565b6106b9565b005b6101b960048036038101906101b49190611024565b610825565b005b6101c36109e4565b6040516101d09190611187565b60405180910390f35b6101e16109ea565b005b6101fd60048036038101906101f89190611024565b610bed565b60405161020a9190610fce565b60405180910390f35b61022d600480360381019061022891906111ce565b610c2c565b60405161023e959493929190611216565b60405180910390f35b61024f610c9c565b005b610259610d1d565b005b610263610f2a565b6040516102709190611187565b60405180910390f35b60b46006546102889190611298565b42101561029457600080fd5b61029c6109ea565b565b60008054906101000a900473ffffffffffffffffffffffffffffffffffffffff1673ffffffffffffffffffffffffffffffffffffffff163373ffffffffffffffffffffffffffffffffffffffff16036102f657600080fd5b60011515600760009054906101000a900460ff1615151461031657600080fd5b60011515600760019054906101000a900460ff1615151461033657600080fd5b6000339050603c60065461034a9190611298565b42111561035657600080fd5b60001515600160008373ffffffffffffffffffffffffffffffffffffffff1673ffffffffffffffffffffffffffffffffffffffff16815260200190815260200160002060000160009054906101000a900460ff161515146103b657600080fd5b60001515600160008373ffffffffffffffffffffffffffffffffffffffff1673ffffffffffffffffffffffffffffffffffffffff16815260200190815260200160002060000160019054906101000a900460ff1615151461041657600080fd5b60018060008373ffffffffffffffffffffffffffffffffffffffff1673ffffffffffffffffffffffffffffffffffffffff1681526020019081526020016000206002018190555060018060008373ffffffffffffffffffffffffffffffffffffffff1673ffffffffffffffffffffffffffffffffffffffff16815260200190815260200160002060000160016101000a81548160ff0219169083151502179055506004819080600181540180825580915050600190039060005260206000200160009091909190916101000a81548173ffffffffffffffffffffffffffffffffffffffff021916908373ffffffffffffffffffffffffffffffffffffffff16021790555050565b60008054906101000a900473ffffffffffffffffffffffffffffffffffffffff1681565b6002818154811061055157600080fd5b9060005260206000209060020201600091509050806000018054610574906112fb565b80601f01602080910402602001604051908101604052809291908181526020018280546105a0906112fb565b80156105ed5780601f106105c2576101008083540402835291602001916105ed565b820191906000526020600020905b8154815290600101906020018083116105d057829003601f168201915b5050505050908060010154905082565b6003818154811061060d57600080fd5b9060005260206000209060020201600091509050806000018054610630906112fb565b80601f016020809104026020016040519081016040528092919081815260200182805461065c906112fb565b80156106a95780601f1061067e576101008083540402835291602001916106a9565b820191906000526020600020905b81548152906001019060200180831161068c57829003601f168201915b5050505050908060010154905082565b60008054906101000a900473ffffffffffffffffffffffffffffffffffffffff1673ffffffffffffffffffffffffffffffffffffffff163373ffffffffffffffffffffffffffffffffffffffff161461071157600080fd5b60001515600760009054906101000a900460ff1615151461073157600080fd5b60005b848110156107e757600260405180604001604052806040518060400160405280600981526020017f63616e646964617465000000000000000000000000000000000000000000000081525081526020016000815250908060018154018082558091505060019003906000526020600020906002020160009091909190915060008201518160000190816107c79190611507565b5060208201518160010155505080806107df906115d9565b915050610734565b50836005819055506001600760006101000a81548160ff021916908315150217905550826008819055508160098190555080600a8190555050505050565b603c6006546108349190611298565b42101580156108515750607860065461084d9190611298565b4211155b61085a57600080fd5b6000600160003373ffffffffffffffffffffffffffffffffffffffff1673ffffffffffffffffffffffffffffffffffffffff16815260200190815260200160002060020154036108a957600080fd5b600160003373ffffffffffffffffffffffffffffffffffffffff1673ffffffffffffffffffffffffffffffffffffffff16815260200190815260200160002060000160009054906101000a900460ff161561090357600080fd5b80600160003373ffffffffffffffffffffffffffffffffffffffff1673ffffffffffffffffffffffffffffffffffffffff1681526020019081526020016000206001018190555060018060003373ffffffffffffffffffffffffffffffffffffffff1673ffffffffffffffffffffffffffffffffffffffff16815260200190815260200160002060000160006101000a81548160ff0219169083151502179055506001600282815481106109ba576109b9611621565b5b906000526020600020906002020160010160008282546109da9190611298565b9250508190555050565b60065481565b6000805b600280549050811015610a645760028181548110610a0f57610a0e611621565b5b906000526020600020906002020160010154821015610a515760028181548110610a3c57610a3b611621565b5b90600052602060002090600202016001015491505b8080610a5c906115d9565b9150506109ee565b5060005b600280549050811015610be95760028181548110610a8957610a88611621565b5b9060005260206000209060020201600101548203610bd6576003604051806040016040528060028481548110610ac257610ac1611621565b5b90600052602060002090600202016000018054610ade906112fb565b80601f0160208091040260200160405190810160405280929190818152602001828054610b0a906112fb565b8015610b575780601f10610b2c57610100808354040283529160200191610b57565b820191906000526020600020905b815481529060010190602001808311610b3a57829003601f168201915b5050505050815260200160028481548110610b7557610b74611621565b5b90600052602060002090600202016001015481525090806001815401808255809150506001900390600052602060002090600202016000909190919091506000820151816000019081610bc89190611507565b506020820151816001015550505b8080610be1906115d9565b915050610a68565b5050565b60048181548110610bfd57600080fd5b906000526020600020016000915054906101000a900473ffffffffffffffffffffffffffffffffffffffff1681565b60016020528060005260406000206000915090508060000160009054906101000a900460ff16908060000160019054906101000a900460ff16908060000160029054906101000a900473ffffffffffffffffffffffffffffffffffffffff16908060010154908060020154905085565b60008054906101000a900473ffffffffffffffffffffffffffffffffffffffff1673ffffffffffffffffffffffffffffffffffffffff163373ffffffffffffffffffffffffffffffffffffffff1614610cf457600080fd5b60001515600760019054906101000a900460ff16151514610d1457600080fd5b42600681905550565b600060058190555060006006819055506000600760016101000a81548160ff0219169083151502179055506000600760006101000a81548160ff02191690831515021790555060005b600280549050811015610dc35760028181548110610d8757610d86611621565b5b906000526020600020906002020160008082016000610da69190610f30565b600182016000905550508080610dbb906115d9565b915050610d66565b5060005b600380549050811015610e245760038181548110610de857610de7611621565b5b906000526020600020906002020160008082016000610e079190610f30565b600182016000905550508080610e1c906115d9565b915050610dc7565b5060005b600480549050811015610f27576001600060048381548110610e4d57610e4c611621565b5b9060005260206000200160009054906101000a900473ffffffffffffffffffffffffffffffffffffffff1673ffffffffffffffffffffffffffffffffffffffff1673ffffffffffffffffffffffffffffffffffffffff168152602001908152602001600020600080820160006101000a81549060ff02191690556000820160016101000a81549060ff02191690556000820160026101000a81549073ffffffffffffffffffffffffffffffffffffffff02191690556001820160009055600282016000905550508080610f1f906115d9565b915050610e28565b50565b60055481565b508054610f3c906112fb565b6000825580601f10610f4e5750610f6d565b601f016020900490600052602060002090810190610f6c9190610f70565b5b50565b5b80821115610f89576000816000905550600101610f71565b5090565b600073ffffffffffffffffffffffffffffffffffffffff82169050919050565b6000610fb882610f8d565b9050919050565b610fc881610fad565b82525050565b6000602082019050610fe36000830184610fbf565b92915050565b600080fd5b6000819050919050565b61100181610fee565b811461100c57600080fd5b50565b60008135905061101e81610ff8565b92915050565b60006020828403121561103a57611039610fe9565b5b60006110488482850161100f565b91505092915050565b600081519050919050565b600082825260208201905092915050565b60005b8381101561108b578082015181840152602081019050611070565b60008484015250505050565b6000601f19601f8301169050919050565b60006110b382611051565b6110bd818561105c565b93506110cd81856020860161106d565b6110d681611097565b840191505092915050565b6110ea81610fee565b82525050565b6000604082019050818103600083015261110a81856110a8565b905061111960208301846110e1565b9392505050565b6000806000806080858703121561113a57611139610fe9565b5b60006111488782880161100f565b94505060206111598782880161100f565b935050604061116a8782880161100f565b925050606061117b8782880161100f565b91505092959194509250565b600060208201905061119c60008301846110e1565b92915050565b6111ab81610fad565b81146111b657600080fd5b50565b6000813590506111c8816111a2565b92915050565b6000602082840312156111e4576111e3610fe9565b5b60006111f2848285016111b9565b91505092915050565b60008115159050919050565b611210816111fb565b82525050565b600060a08201905061122b6000830188611207565b6112386020830187611207565b6112456040830186610fbf565b61125260608301856110e1565b61125f60808301846110e1565b9695505050505050565b7f4e487b7100000000000000000000000000000000000000000000000000000000600052601160045260246000fd5b60006112a382610fee565b91506112ae83610fee565b92508282019050808211156112c6576112c5611269565b5b92915050565b7f4e487b7100000000000000000000000000000000000000000000000000000000600052602260045260246000fd5b6000600282049050600182168061131357607f821691505b602082108103611326576113256112cc565b5b50919050565b7f4e487b7100000000000000000000000000000000000000000000000000000000600052604160045260246000fd5b60008190508160005260206000209050919050565b60006020601f8301049050919050565b600082821b905092915050565b6000600883026113bd7fffffffffffffffffffffffffffffffffffffffffffffffffffffffffffffffff82611380565b6113c78683611380565b95508019841693508086168417925050509392505050565b6000819050919050565b60006114046113ff6113fa84610fee565b6113df565b610fee565b9050919050565b6000819050919050565b61141e836113e9565b61143261142a8261140b565b84845461138d565b825550505050565b600090565b61144761143a565b611452818484611415565b505050565b5b818110156114765761146b60008261143f565b600181019050611458565b5050565b601f8211156114bb5761148c8161135b565b61149584611370565b810160208510156114a4578190505b6114b86114b085611370565b830182611457565b50505b505050565b600082821c905092915050565b60006114de600019846008026114c0565b1980831691505092915050565b60006114f783836114cd565b9150826002028217905092915050565b61151082611051565b67ffffffffffffffff8111156115295761152861132c565b5b61153382546112fb565b61153e82828561147a565b600060209050601f831160018114611571576000841561155f578287015190505b61156985826114eb565b8655506115d1565b601f19841661157f8661135b565b60005b828110156115a757848901518255600182019150602085019450602081019050611582565b868310156115c457848901516115c0601f8916826114cd565b8355505b6001600288020188555050505b505050505050565b60006115e482610fee565b91507fffffffffffffffffffffffffffffffffffffffffffffffffffffffffffffffff820361161657611615611269565b5b600182019050919050565b7f4e487b7100000000000000000000000000000000000000000000000000000000600052603260045260246000fdfea2646970667358221220943dc8fd7e67ce065c37013f3bc812a78e7e91aa79bbe3eb8d2ff66e382f3fe964736f6c63430008110033",
  "immutableReferences": {},
  "source": "pragma solidity  ^0.8.17;\r\n// SPDX-License-Identifier: GPL-3.0\r\ncontract voting{\r\n    // state variables\r\n    address public chairperson;\r\n    struct Voters{\r\n        bool voted;\r\n        bool registered;\r\n        address delegate;\r\n        uint vote;\r\n        uint weight;\r\n        \r\n    }\r\n\r\n    mapping(address=>Voters) public voters;\r\n    struct Candidates{\r\n        string  candidate_name;\r\n        \r\n        uint no_of_votes;\r\n    }\r\n\r\n    Candidates[]  public candidates;\r\n    Candidates[] public tiebreakers;\r\n    address[] public voter_address;\r\n    uint public candidatescount;\r\n    uint public starttime;\r\n   bool isset = false;\r\n   bool isstarted = false;\r\nuint register_time;\r\nuint voting_time;\r\nuint reveal_winner_time;\r\n    constructor()  {\r\n            \r\n            chairperson = msg.sender;\r\n            \r\n                \r\n    }\r\n    function set(uint no_of_voters,uint r,uint v,uint rev) public {\r\n        require(msg.sender==chairperson);\r\n        require(isset==false);\r\n        for(uint i=0;i<no_of_voters;i++)\r\n        {\r\n            candidates.push(Candidates({\r\n                        candidate_name: \"candidate\",no_of_votes:0\r\n                }));\r\n        }\r\n        candidatescount = no_of_voters;\r\n        isset = true;\r\nregister_time = r;\r\nvoting_time = v;\r\nreveal_winner_time = rev;\r\n    }\r\n    function start() public{\r\n        require(msg.sender==chairperson);\r\n        require(isstarted==false);\r\n        starttime = block.timestamp;\r\n    }\r\n    function register() public\r\n    {   require(msg.sender!=chairperson);  \r\n    require(isset==true);\r\n    require(isstarted==true);\r\n        address voter = msg.sender;\r\n       require(block.timestamp<= starttime + 1 minutes);\r\n        require(voters[voter].voted == false);\r\n        require(voters[voter].registered==false);\r\n        voters[voter].weight = 1;\r\n        voters[voter].registered = true;\r\n        voter_address.push(voter);\r\n    }\r\n\r\n    function voting_process(uint vo) public \r\n    {      require(block.timestamp>= starttime + 1 minutes && block.timestamp<= starttime + 2 minutes);\r\n            require(voters[msg.sender].weight !=0);\r\n            require(!voters[msg.sender].voted);\r\n\r\n            \r\n            \r\n                voters[msg.sender].vote = vo;\r\n                voters[msg.sender].voted = true;\r\n                candidates[vo].no_of_votes += 1;\r\n            \r\n    }\r\n\r\n    function reveal_winner() public   \r\n    {  require(block.timestamp>=starttime + 3 minutes);\r\n   \r\n       \r\n        tiecalculate();\r\n        \r\n      \r\n    }\r\n    function tiecalculate() public\r\n    {\r\n        uint winningvotecounts = 0;\r\n      \r\n        for(uint i=0;i<candidates.length;i++)\r\n        {\r\n                if(winningvotecounts<candidates[i].no_of_votes)\r\n                {\r\n                    winningvotecounts = candidates[i].no_of_votes;\r\n                   \r\n                }\r\n               \r\n        }\r\n       \r\n        for(uint i=0;i<candidates.length;i++)\r\n        {\r\n            if(winningvotecounts == candidates[i].no_of_votes)\r\n            {\r\n                tiebreakers.push(Candidates({\r\n                    candidate_name: candidates[i].candidate_name,\r\n                    no_of_votes: candidates[i].no_of_votes\r\n                }));\r\n            }\r\n        }\r\n    }\r\n\r\n   \r\n   /* function tie(uint v) public\r\n    {\r\n        require(msg.sender == chairperson);\r\n        require(tiebreakers.length>1);\r\n        \r\n        candidates[v].no_of_votes += 1;\r\n    }*/\r\n    \r\n    function reset() public \r\n    {\r\n        candidatescount = 0;\r\n        starttime = 0;\r\n        isstarted = false;\r\n        isset = false;\r\n        for(uint256 i=0;i<candidates.length;i++)\r\n        {\r\n            delete candidates[i];\r\n            \r\n        }\r\n        for(uint256 i=0;i<tiebreakers.length;i++)\r\n        {\r\n            \r\n            delete tiebreakers[i];\r\n        }\r\n        for(uint256 i=0;i<voter_address.length;i++)\r\n        {\r\n            delete voters[voter_address[i]];\r\n        }\r\n        \r\n        \r\n        \r\n    }\r\n}",
  "sourcePath": "C:\\Users\\lakka\\OneDrive - Manipal Academy of Higher Education\\FIDUCIA\\contracts\\voting.sol",
  "compiler": {
    "name": "solc",
    "version": "0.8.17+commit.8df45f5f.Emscripten.clang"
  },
  "schemaVersion": "3.4.11",
  "updatedAt": "2023-06-21T04:24:13.645Z",
  "devdoc": {
    "kind": "dev",
    "methods": {},
    "version": 1
  },
  "userdoc": {
    "kind": "user",
    "methods": {},
    "version": 1
  }
}